:020000040800F2
:10000000E8FF0020150C00081D0A00081F0A000860
:10001000230A0008270A00082B0A00080000000035
:100020000000000000000000000000002F0A00088F
:10003000310A0008000000009FAF0108710C0008A1
:100040002F0C00082F0C00082F0C00082F0C0008A4
:100050002F0C00082F0C00082F0C00082F0C000894
:100060002F0C00082F0C00082F0C00082F0C000884
:100070002F0C00082F0C00082F0C00082F0C000874
:100080002F0C00082F0C00082F0C00082F0C000864
:100090002F0C00082F0C00082F0C0008771C0008FC
:1000A0002F0C00082F0C00082F0C00082F0C000844
:1000B0006B6C00082F0C00082F0C00082F0C000898
:1000C0002F0C00082F0C00082F0C00082F0C000824
:1000D0002F0C00088B160008A9160008C716000888
:1000E0002F0C00082F0C00082F0C00082F0C000804
:1000F0002F0C00082F0C00082F0C00082F0C0008F4
:100100002F0C00082F0C00082F0C00082F0C0008E3
:100110002F0C00082F0C00082F0C00082F0C0008D3
:100120002F0C00082F0C00082F0C00082F0C0008C3
:1001300000F002F800F074F80AA090E8000C824485
:100140008344AAF10107DA4501D100F069F8AFF262
:10015000090EBAE80F0013F0010F18BFFB1A43F0A5
:100160000103184728BC010048BC01000A444FF0B5
:10017000000C10F8013B13F0070408BF10F8014B06
:100180001D1108BF10F8015B641E05D010F8016B4B
:10019000641E01F8016BF9D113F0080F1EBF10F8AF
:1001A000014BAD1C0C1B09D16D1E58BF01F801CBD2
:1001B000FAD505E014F8016B01F8016B6D1EF9D555
:1001C0009142D6D37047000000230024002500266A
:1001D000103A28BF78C1FBD8520728BF30C148BFAA
:1001E0000B60704764291AF0738775291AF07087BD
:1001F00078291AF0A98763291BF04D8273291BF017
:100200005282002070471FB51BF0DEF90400002069
:1002100000211BF0B5FA401C60601FBD10B510BD79
:100220001BF078FA1146FFF7EEFF00F028FB1BF0F9
:1002300096FA03B4FFF7F2FF03BC01F053FA000093
:100240000024002500260027A04621E1FE48007872
:1002500038B932230022114610461AF07BFD0027E0
:10026000F8E0B8F1000F7DD141F27070864202DAF9
:10027000701C86B200E00026502F02DA781C87B28C
:1002800020E0B7F5487F0EDA781C87B2052096FB90
:10029000F0F100FB1160A8B9EC48007840F0400094
:1002A000EA4908700EE040F6C417F02096FBF0F122
:1002B00000FB1160012805D1E448007840F04000BF
:1002C000E24908700124BCE004EB0410E049084452
:1002D0004078AA287ED10025DE4800EB0510007882
:1002E000AA2805D11E2D00DB9DE0681CC5B29AE04E
:1002F000AA20D84901EB0511087004EB0410D44979
:1003000008448078052805D11120D24901EB051158
:1003100048700BE004EB0410CD49084480780628AF
:1003200004D11320CB4901EB0511487004EB0410F4
:10033000C7490844C078C74901EB0511887004EB30
:100340000410C34908440079C24901EB0511C87083
:1003500004EB0410BE4908444079BE4901EB051185
:10036000087100E070E004EB0410B949084480799A
:10037000B84901EB0511487104EB0410B449084475
:10038000C079B44901EB0511887104EB0410B04940
:100390000844007AAF4901EB0511C87104EB041061
:1003A000AB490844407AAB4901EB0511087204EBF4
:1003B0000410A7490844807AA64901EB0511487248
:1003C00004EB0410A2490844C07AA24901EB0511CC
:1003D000887200E033E004EB04109D490844007B80
:1003E0009C4901EB0511C87204EB041098490844BC
:1003F000407B984901EB0511087304EB0410944904
:100400000844807B934901EB05114873914800EB48
:100410000510847304EB04108D490844C07B8D499A
:1004200001EB0511C873DD2004EB0411884A114467
:1004300048708648007840F0800084490870601C4D
:10044000C4B21A2CFFF640AF3223002211461046E8
:100450001AF080FC00F0AFFF7F48007800F08000C9
:10046000802815D100207C4908704FF0AA087B48ED
:100470001AF0D2FD7548007820F0400073490870EA
:100480000846007820F080000870754803F0CEFC24
:10049000DCE60EB54FF01D0A4FF0050B0020029070
:1004A0000026019000253227804681466849087061
:1004B0006C49086001206C49C1F89C016949083900
:1004C00008604FF4FA730222002108461AF042FC39
:1004D00003F00DFA65A01AF09FFD322300221146A9
:1004E00010461AF037FC694801786948007801F035
:1004F000DAFDC8230022114610461AF02BFC65488D
:1005000001F0F6FD4FF496730022114610461AF0E2
:1005100021FC01F079FD60A01AF07EFD0120514917
:100520000860091F08605049C1F89801574890F8C1
:1005300000A0574890F800B07AE04A48006808B92F
:10054000012000E00020474908604748D0F89C019E
:1005500008B9012000E000204249091F0860424814
:10056000D0F8980108B9012000E000203D49083981
:10057000086039464CA01AF04FFD01A801F05EFD5D
:10058000002840D09DF8070000909DF806309DF8A7
:1005900005209DF8041046A01AF03EFD01A803F0C6
:1005A00009F9044621464FA01AF036FD192C2ADC21
:1005B00001A9204602F08CF8514908550846005D13
:1005C00020B123480078401C21490870AA2004EB80
:1005D00004111F4A50549DF8040004EB0411114407
:1005E000C8709DF8050004EB0411114408719DF8D2
:1005F000060004EB0411114448719DF8070004EB58
:10060000041111448871062097FBF0F100FB117072
:1006100070B964230022114610461AF09BFB1D4856
:1006200001F066FD64230022114610461AF092FB89
:10063000381EA7F10101CFB27FF47FAF09490860EE
:10064000012009495EE00000000000202103002095
:10065000562F00202CE300200C000020E0B90108F8
:100660008E040020A001224200002242C9CFB5E73B
:10067000BCECB2E2466C617368C4DAC2DFBCADB5F3
:10068000D8D6B7CDEAB3C921200D0A000D0000204D
:100690000E00002010000020CEB4D7A2B2E1B9E3D2
:1006A000B2A521200D0A00002532642E2000000092
:1006B0000D0ABDD3CAD5B5BDB4D3D5BECDEAB3C935
:1006C000CAFDBEDD2020CEEFC0EDB5D8D6B7A3BAA7
:1006D000253032582530325825303258253032589E
:1006E0003B000000B7D6C5E4B3C9B9A6A3A120C298
:1006F000DFBCADB5D8D6B73A25643B0D0A00000083
:1007000064040020C1F89C018A490860C8230022C3
:10071000114610461AF01EFB874801F0E9FCC82379
:100720000022114610461AF015FB834801F0E0FC48
:10073000AA208249087082A01AF06EFC4FF48061F2
:10074000062003F077FD7CE003F086FD8748007803
:10075000824503D186480078834512D083480178CA
:100760008348007801F09FFC022E02DC701CC6B2A8
:1007700007E00026B1467D4890F800A07C4890F83C
:1007800000B07C490978029888420BD06A4801F091
:10079000AFFC022E02DC701CC6B203E000267548D6
:1007A00000780290182D07DC691CC8B202F0CFF95E
:1007B000691CC8B202F02FFB192D2CDB6EA01AF0B9
:1007C0002BFC0025B8F1140F04DA08F1010000F049
:1007D000FF0822E04FF0000802F033FCE8B93223B2
:1007E0000022114610461AF0B5FA604801786048B8
:1007F000007801F058FCC8230022114610461AF078
:10080000A9FA4D4801F074FCC82300221146104695
:100810001AF0A0FA01E0681CC5B2B9F5702F08D92A
:100820004FF00009514801785148007801F03BFC35
:1008300001E009F1010914230022114610461AF0C3
:1008400089FA81E770B5044600BF18F0B1F81AF0D4
:100850007FFB05460A234A4A0021AFF2C93019F04E
:10086000FFFE0923474A0021AFF22B6019F0F8FE82
:10087000FF201AF075F928461AF06EFB70BD10B50E
:1008800000F002FA4FF4407003F0EAFC00F061FC63
:1008900000F040FF3C48416848208847002005F0B0
:1008A000AAFD3AA01AF0B8FB02F06CFD00BF02F0FE
:1008B000F9FD0028FBD13CA01AF0AEFB4FF4FA7012
:1008C00000F033FA17F03FFF0AE03CA01AF0A4FB57
:1008D0004FF4FA7000F029FA4FF4FA7000F025FA9C
:1008E00007F077F80028F0D139A01AF095FB0AE05C
:1008F0003DA01AF091FB4FF4FA7000F016FA4FF495
:10090000FA7000F012FA07F0D2FD0028F0D14FF48F
:10091000FA7000F00AFA3AA01AF07EFB0C233E4A65
:100920000021AFF2DF0019F09BFE18F029F800203B
:1009300010BD00009801224210000020000000209D
:100940000D0AC9CFB5E7BCECB2E2CEB4D7A2B2E192
:10095000B3ACCAB1A3ACBDF8C8EBD5FDB3A3B4FD2D
:10096000BBFAD7B4CCAC3B0D0A0000000D00002050
:100970000E0000200F0000200D0A0D0A00000000EC
:10098000AC140020AC0C0020D40100205374617220
:1009900074696E672055702059434B4A2D41435569
:1009A0002E2E2E0D0A000000415432344358585F59
:1009B000436865636B204F4B210D0A004C776970CB
:1009C00020496E6974206661696C6564210D0A00B6
:1009D0004C77697020496E69742053756363657341
:1009E00073210D0A0000000054435020436C6965D8
:1009F0006E74206661696C656421210D0A00000037
:100A000054435020436C69656E742053756363656D
:100A10007373210D0A000000AC160020704700BF60
:100A2000FEE700BFFEE700BFFEE700BFFEE770473E
:100A3000704700000CB50020019000906C480068E1
:100A400040F480306A49086000BF6948006800F4DB
:100A5000003000900198401C0190009818B901984E
:100A6000B0F5A06FF1D16248006800F4003010B119
:100A70000120009001E0002000900098012843D15F
:100A80005C48006840F010005A4908600846006859
:100A900020F0030008600846006840F0020008608B
:100AA00053484068524948600846406848600846D4
:100AB000406840F4806048600846406820F47C103C
:100AC00048600846406840F4E810486008460068FE
:100AD00040F08070086000BF4548006800F000707A
:100AE0000028F9D04248406820F00300404948609F
:100AF0000846406840F00200486000BF3C4840683B
:100B000000F00C000828F9D10CBD10B5FFF792FFDA
:100B100010BD10B53648006840F001003449086047
:100B20000846406834490840314948600846006832
:100B3000324908402E4908600846006820F48020A9
:100B400008600846406820F4FE0048604FF41F002B
:100B50008860FFF7DAFF4FF000602949086010BD98
:100B600010B5002100200022214B5B6803F00C012E
:100B700021B1042906D0082928D107E0214B224CB5
:100B8000236027E01F4B204C236023E0184B5B6859
:100B900003F47010164B5B6803F48032022303EBFE
:100BA000904022B9194B4343174C23600DE0104B82
:100BB0005B6803F4003323B1144B4343124C2360AE
:100BC00003E0104B4343104C236003E00D4B0E4CED
:100BD000236000BF00BF064B5B68C3F303130C4CDC
:100BE000E15C094B1B68CB40074C236010BD000043
:100BF00000100240002002400000FFF8FFFFF6FE58
:100C000008ED00E000127A002400002000093D00F9
:100C1000280000200948804709480047FEE7FEE712
:100C2000FEE7FEE7FEE7FEE7FEE7FEE7FEE7FEE79C
:100C300004480549054A064B70470000130B00089D
:100C400031010008E8F90020E8FF0020E8FB00205F
:100C5000E8FB002010B517F025FE10BD10B517F009
:100C600066FE10BD10B5044620461AF041F810BDCE
:100C700010B53E480078012805D117F07AFD17F02D
:100C8000B6FE17F091FD10BD10B56FF0040003F033
:100C900036FB374800683749B0FBF1F03649087039
:100CA000334800683349B0FBF1F441F288304443E3
:100CB0000520324908804FF0E020006940F0020032
:100CC0004FF0E021086108464461006940F00100EE
:100CD000086110BD2DE9F047074600264FF0E020DF
:100CE000D0F814902448007807FB00F800BFFFF705
:100CF000B1FF4FF0E020856911E04FF0E0208469FA
:100D0000AC420CD0AC4202D2281B064403E0A9EB53
:100D10000400284406442546464500D300E0ECE79D
:100D200000BFFFF79BFFBDE8F08770B504460F4892
:100D30000078A0B11248007888B910480088844231
:100D400006DB0E48008894FBF0F52846FFF78AFF83
:100D50000A48008894FBF0F100FB114084B24FF484
:100D60007A7104FB01F0FFF7B5FF70BD420400206B
:100D70002400002000127A00380000203A000020F1
:100D800035040020F748006800F4006008B901202D
:100D900070470020FCE7F348006800F4806008B961
:100DA000012070470020FCE7EE48006800F4007066
:100DB00008B9012070470020FCE7EA48006800F409
:100DC000807008B9012070470020FCE7E648006801
:100DD00000F4006008B9012070470020FCE7E248F9
:100DE000006800F4806008B9012070470020FCE72B
:100DF000DD48006800F4007008B901207047002049
:100E0000FCE7D948006800F4807008B901207047F9
:100E10000020FCE708B50121602004F0B1F80320B0
:100E20008DF8020048208DF803004FF47060ADF893
:100E300000006946CB48083803F0E6FD4FF47060C7
:100E4000ADF800006946C848083803F0DDFD08BD6C
:100E500010B50024FFF796FF012802D144F00104E9
:100E600001E024F00104FFF796FF012802D144F0CD
:100E7000020401E024F00204FFF796FF012802D1EA
:100E800044F0040401E024F00404FFF796FF012875
:100E900002D144F0080401E024F00804FFF796FFB3
:100EA000012802D144F0100401E024F01004FFF7FF
:100EB00096FF012802D144F0200401E024F0200430
:100EC000FFF796FF012802D144F0400401E024F02E
:100ED0004004FFF796FF012802D144F0800401E0AE
:100EE00024F08004204610BD08B525208DF80000B0
:100EF00000208DF8020001208DF80300684603F001
:100F0000B4F926208DF8000001208DF802008DF83C
:100F10000300684603F0A9F927208DF8000002209D
:100F20008DF8020001208DF80300684603F09DF95A
:100F300008BD00B585B00121052004F021F801218C
:100F4000880304F01DF84FF40070ADF8100018206D
:100F50008DF8130003208DF8120004A9834803F0D4
:100F600053FD4FF48060ADF8100004208DF813009D
:100F700004A97E4803F048FD4FF4E13000900020C2
:100F8000ADF80400ADF80600ADF80800ADF80C00AF
:100F90000C20ADF80A006946754804F0A6FF01224E
:100FA00040F22551724805F038F80121704805F0EB
:100FB00028F840216E4805F00CF90121052003F0C6
:100FC000DFFF0121480403F0E8FF0420ADF8100022
:100FD00018208DF8130003208DF8120004A963482F
:100FE00003F012FD0820ADF8100004208DF8130066
:100FF00004A95E4803F008FD04A95C4803F004FD61
:101000004FF4166000900020ADF80400ADF8060023
:10101000ADF80800ADF80C000C20ADF80A006946E8
:10102000544804F062FF012240F22551514804F077
:10103000F4FF01214F4804F0E4FF40214D4805F042
:10104000C8F80121092003F09BFF0121880403F067
:10105000A4FF4FF48060ADF8100018208DF8130045
:1010600003208DF8120004A9434803F0CDFC4FF48F
:101070000060ADF8100004208DF8130004A93E486C
:1010800003F0C2FC04A93C4803F0BEFC4FF4E1307D
:1010900000900020ADF80400ADF80600ADF808009F
:1010A000ADF80C000C20ADF80A006946334804F096
:1010B0001CFF012240F22551304804F0AEFF01210F
:1010C0002E4804F09EFF40212C4805F082F805B020
:1010D00000BD27482A4908602A4848602A48886095
:1010E0004FF480608881C881002008824882C882CD
:1010F000088348838882C861086248621D48234982
:10110000086023484860234888604FF480608881E5
:10111000C881002008824882C88208834883888268
:10112000C8610862486215481B4908601B4848604E
:101130001B4888604FF480608881C8810020088245
:101140004882C882088348838882C86108624862EE
:10115000704710B5FFF7BDFFFFF7EBFEFFF7C4FECA
:1011600010BD0000081401400818014000080140AB
:101170000038014000440040000C0140004800409D
:10118000CC160020F4160020F41A0020F41E0020D3
:101190001C1F00201C2300201C27002044270020A7
:1011A000442B0020014609B9FE487047012901D1AE
:1011B000FD48FAE7022901D1FC48F6E7032901D1ED
:1011C0000020F2E7042901D10020EEE70020ECE73F
:1011D0002DE9F04704460E4617464FF0000800255B
:1011E00027E00CE019F0B4FE8046B4F814904046B5
:1011F00019F0B2FEA089484500DD01E000BFF1E72B
:1012000000BF705D228A6168885419F0A1FE804693
:10121000208A401C80B22082A189884201DB002004
:101220002082A08A401CA082404619F095FE681CCE
:1012300085B2BD42D5DB012240F22771206804F05F
:10124000ECFEBDE8F0872DE9F04105460E46174655
:101250002846FFF7A7FF04460CB9BDE8F081E06916
:1012600008B1E06980473A4631462046FFF7B0FFB3
:1012700000BFF2E713B50446012201A92046FFF79B
:10128000E2FF1CBD2DE9F04104460D46002719F090
:101290005FFE0746668B384619F05EFE16B90020E1
:1012A000BDE8F081218BA068405C287019F050FEE9
:1012B0000746208B401C80B22083E189884201DBF5
:1012C00000202083608B401E6083384619F044FE66
:1012D0000120E5E770B505460E462846FFF762FF98
:1012E00004460CB9002070BD31462046FFF7CAFF06
:1012F000F9E7F8B5054600265AE069460120FFF7F0
:10130000E9FF002852D0AA48007800F080000028A9
:101310004CD19DF80000A749A54A12788854A448EA
:101320000078401CA249087008460078102801DDAA
:10133000002008709E480078401E9E49085CF328F3
:101340000DD19B480078032809DAF32198480078EA
:10135000401E984A115401209549087026E095488E
:10136000407893490978884220DC35B99048007864
:1013700040F080008E49087018E08D480078401ECB
:10138000C1B28C4800F030FE044689480078401E07
:101390008849085CA04206D18548007840F080006A
:1013A0008349087002E0002081490870701C86B2F1
:1013B000102EA2DBF8BD38B569460220FFF78AFF80
:1013C00000284AD07C48007800F08000002844D1F2
:1013D0009DF800007949784A127888547648007858
:1013E000401C7549087008460078202801DD00205F
:1013F000087071480078401E7049085CF3280DD1D0
:101400006D480078032809DAF3216B480078401E04
:101410006A4A11540120684908701EE06748407804
:1014200065490978884218DC63480078401EC1B2DB
:10143000624800F0D9FD04465F480078401E5F49CD
:10144000085CA04206D15C48007840F080005A4910
:10145000087002E000205849087038BD00B5034606
:101460001846FFF79FFE024602B900BD0020108219
:101470005082908200BFF8E700B503461846FFF798
:1014800091FE024602B900BD0020D0821083508335
:1014900000BFF8E71FB5044600940020ADF8040033
:1014A000ADF80600ADF80800ADF80C000C20ADF862
:1014B0000A006946424804F018FD1FBD1FB50446E6
:1014C00000940020ADF80400ADF80600ADF8080067
:1014D000ADF80C000C20ADF80A006946384804F05D
:1014E00004FD1FBD08B50121102003F049FD0320B4
:1014F0008DF8020010208DF803000002ADF8000006
:101500006946304803F080FA4FF480502D49086155
:1015100008BD1FB5044600940020ADF80400ADF8E6
:101520000600ADF80800ADF80C000C20ADF80A007C
:101530006946254804F0D9FC1FBD4FF4805021496D
:10154000486170474FF480501E490861704770B57C
:1015500004460D462A4621460320FFF774FE70BD5F
:1015600070B50446204619F00BFF85B22946204687
:10157000FFF7EDFF70BD7047704770B5044640F24D
:101580002551206804F02EFE88B3206804F0AAFDDF
:10159000C5B2E18AA0684554E08A401C80B2E0826E
:1015A000E18913E0CC160020F41E00201C27002047
:1015B0003C000020B01600200C0000208E0400200B
:1015C0000044004000100140004C0040884201DB14
:1015D0000020E082608BE189884202DA608B401C47
:1015E0006083606A10B12846616A884700BF40F294
:1015F0002771206804F0F6FD08B3A08A60B90022C4
:1016000040F22771206804F008FD012240F22661B3
:10161000206804F002FD37E0638A6268D15C2068CC
:1016200004F05CFD608A401C80B26082A18988421F
:1016300001DB00206082A08A401EA08224E040F2EC
:101640002661206804F0CEFDF0B1A08A50B90022D6
:1016500040F22661206804F0E0FC206AA0B1206A14
:10166000804711E0638A6268D15C206804F036FD2F
:10167000608A401C80B26082A189884201DB002020
:101680006082A08A401EA08270BD10B519F060FC77
:10169000044617F06EF8204619F05EFC1948FFF773
:1016A0006CFF17F081F810BD10B519F051FC04461D
:1016B00017F05FF8204619F04FFC1348FFF75DFF65
:1016C00017F072F810BD10B519F042FC044617F07F
:1016D00050F8204619F040FC0C48FFF74EFF17F079
:1016E00063F810BD014600BF704700BF084A12886A
:1016F00002F04002002AF9D0C2B2054B1B1D1A802D
:1017000070470000CC160020F41E00201C2700208B
:101710000038014008B50121102003F031FC4FF4DE
:10172000E070ADF8000010208DF8030003208DF864
:1017300002006946084803F067F94021064803F0B3
:1017400010FA8021044803F00CFA4FF4807102482B
:1017500003F007FA08BD000000100140FA4A1080AB
:101760004FF0C842A2F8001170470146F6480180C8
:101770004FF0C840B0F80001704770B5044644F01F
:1017800040010C20FFF7EAFF0C210B20FFF7E6FFDA
:101790000A20FFF7CAFA00210B20FFF7DFFF0D2018
:1017A000FFF7E3FF02460E20FFF7DFFF42EA0020CB
:1017B00085B2284670BD70B50024E448007808283A
:1017C00011D108E06420FFF7B0FA601CC4B2642CA9
:1017D00001DDFF2070BD0120FFF7CFFF00F02000EA
:1017E0000028EFD010E008E06420FFF79EFA601CAC
:1017F000C4B2642C01DDFF20ECE70120FFF7B5FF48
:1018000000F040000028EFD00120FFF7AEFF0221DA
:1018100001EAA0150020FFF7A8FFC0F3C0000543B0
:101820002846D7E710B50446002306E0E15C03F143
:101830001600FFF793FF581CC3B2082BF6DB10BD50
:1018400010B50446002306E0E15C03F11000FFF749
:1018500085FF581CC3B2062BF6DB10BD70B50546DC
:101860000C4645F040010C20FFF778FFE1B20D2057
:10187000FFF774FF210A0E20FFF770FF0A210B20EB
:10188000FFF76CFF3220FFF750FA00210B20FFF723
:1018900065FF70BD70B50646092E1BD2DFE806F065
:1018A000050C1A1A08101A1A15000024212511E037
:1018B0004FF4807441250DE04FF40054812509E078
:1018C0004FF4045440F2011504E04FF4805440F208
:1018D000E11500BF00BF21460020FFF7BFFF2946EA
:1018E0000420FFF7BBFF00211F20FFF737FF70BD6B
:1018F00000B52820FFF739FF02462920FFF735FF02
:1019000042EA00222A20FFF730FF42EA00422B2061
:10191000FFF72BFF42EA0062104600BD10B5002021
:101920008B4908600A20FFF700FA01208949C1F8B5
:101930009C016420FFF7F9F901211E20FFF70EFF3B
:1019400000211F20FFF70AFF03210020FFF706FFF9
:1019500000BF1920FFF7E9F90020FFF706FF00F0AC
:1019600001000028F5D100210846FFF7F7FE03210A
:101970000020FFF7F3FE00BF1920FFF7D6F9002083
:10198000FFF7F3FE00F001000028F5D110BD10B5FF
:101990009AB001214FF4F07003F0F2FA012108022D
:1019A00003F0E1FA0121084603F0EAFA8020ADF8DD
:1019B000640003208DF8660010208DF8670019A9D7
:1019C000654803F021F84020ADF8640048208DF808
:1019D000670019A9614803F017F84CF23370ADF8AD
:1019E000640003208DF8660018208DF8670019A99F
:1019F000594803F009F84FF68070ADF864000320F1
:101A00008DF8660018208DF8670019A9544802F077
:101A1000FBFF4FF40050ADF8640003208DF8660022
:101A200018208DF8670019A94E4802F0EDFF4FF419
:101A30000070ADF8640003208DF8660018208DF862
:101A4000670019A9454802F0DFFF0621084603F0A8
:101A5000F1F84020179000208DF860000C208DF8E0
:101A6000610001208DF8620017A804F00DFC4020F1
:101A700004F081FC17208DF8580001208DF85900E2
:101A800000208DF85A0001208DF85B0016A802F0A6
:101A9000ECFB0020009001900320029000200390B6
:101AA000049005900690022007900020089009906D
:101AB00010200A9000200B900C900D900E900F902B
:101AC0004FF4805010900020119012901390CDF898
:101AD00050D0CDF854D007A802F07CFC01210220A0
:101AE00002F0E0FD20480468082018490870002032
:101AF00048808120487002200871002113484171FC
:101B00008171210CC171210A01724472FF200F49B9
:101B10008872FF210D48C172017341738173C173D3
:101B200001744174FFF7FAFE6420FFF7FEF8FFF737
:101B3000DFFE044621460DA019F06EFA0F488442DC
:101B40001ED001201AB010BDFE000064442F0020FA
:101B50009C8122420080224200140140002001406A
:101B600000180140001C0140E8F7FF1F444D3930C8
:101B700030302049443A2523780D0A00460A009067
:101B8000CC490878FFF786FE00210846FFF7E6FDFE
:101B900000210220FFF7E2FD3F210820FFF7DEFDD4
:101BA00038210920FFF7DAFD00210A20FFF7D6FDD2
:101BB00000212F20FFF7D2FD2C210120FFF7CEFDC1
:101BC0000F21FE20FFF7CAFD80212D20FFF7C6FD63
:101BD000B848001DFFF734FEB6480A30FFF722FE72
:101BE00031210520FFF7BAFD8021FF20FFF7B6FD68
:101BF000FFF7E1FD0446FF2C11D004F0010008B10D
:101C0000ADA000E0AEA0024604F0020008B10A2038
:101C100000E064200146ACA019F0FEF902E0B5A096
:101C200019F0FAF9A3484178FF20FFF797FD00204B
:101C30001AB010BD70B5B7480588FE20FFF795FDB6
:101C400004462146FE20FFF789FD04F0040010B190
:101C5000B1A019F0E1F904F0080010B1B1A019F039
:101C6000DBF904F0010018B1B648006818F0E1FB98
:101C7000A848058070BD10B516F07BFD4020B24924
:101C8000086001E0FFF7D6FFB04800680028F9D0EF
:101C900016F08AFD10BD2DE9FC4104460027002600
:101CA0006A460021AA48006817F0BBFD8021FF208A
:101CB000FFF754FDF8209749088025461BE0688906
:101CC000B84216DD3846791C8FB26A68125C30461D
:101CD000711CCEB201A90A54022E0CD19DF8040049
:101CE0009DF8051040EA01208A49891C08800026D9
:101CF00001E02D680027002DE1D1012E04D19DF8CF
:101D000004008449891C0880217AFC20FFF726FD05
:101D10002089010AFD20FFF721FD01210220FFF7A4
:101D20001DFD00BFFE20FFF720FD00F0020000288F
:101D3000F8D00221FE20FFF711FD5E484178FF2018
:101D4000FFF70CFD8248006817F08DFEBDE8FC81AE
:101D50002DE9FF4100246A4600217D48006817F004
:101D600060FD00BFF020FFF700FD6A48801C00887E
:101D700000F0FF08B8F1000F78D0B8F1010F0ED9CC
:101D800074A019F049F900210520FFF7E7FC802134
:101D9000FE20FFF7E3FC204604B0BDE8F081F2200E
:101DA0005C4908804FF0C840B0F800010390881CDF
:101DB000008802900322BDF8081010460BF090FC3A
:101DC00004468CB125460CE06F686E8906E04FF042
:101DD000C840B0F800013880BF1CB61E002EF6DCEB
:101DE0002D68002DF0D110E0BDF8081062A019F0A8
:101DF00013F901AFBDF8086005E04FF0C840B0F836
:101E000000013880B61E002EF7D1BDF80C0000F49A
:101E10003F4040B9BDF80800402804DBBDF8080089
:101E2000B0F5C06F3FDDBDF80C1059A019F0F4F803
:101E3000BDF80C0000F4807010B159A019F0ECF856
:101E4000BDF80C0000F4007010B159A019F0E4F8CE
:101E5000BDF80C0000F4004010B159A019F0DCF8F6
:101E6000BDF80800B0F5C06F0BDD00E00FE059A031
:101E700019F0D2F801210020FFF770FC0520FEF7D1
:101E800054FF14B120460BF0A3FB00246AE70221A3
:101E9000FE20FFF763FC8120064948700846417820
:101EA000FF20FFF75BFC2A48006817F0DCFD2046A6
:101EB00072E70000442F002046756C6C00000000A3
:101EC00048616C6600000000444D393030302053CA
:101ED000706565643A25644D6270732C4475706C4E
:101EE00065783A2573206475706C6578206D6F6431
:101EF000650D0A00444D39303030204573746162FD
:101F00006C697368204C696E6B204661696C65640E
:101F1000210D0A00FE0000646F766572666C6F77B3
:101F2000200D0A006F766572666C6F7720636F759F
:101F30006E746572206F766572666C6F77200D0A1D
:101F400000000000D40200201404014018012442C3
:101F5000D8020020646D393030302072783A207217
:101F600078206572726F722C2073746F70206465B4
:101F7000766963650D0A000070627566C4DAB4E6BE
:101F8000C9EAC7EBCAA7B0DC3A25640D0A00000015
:101F900072785F7374617475733A2523780D0A0043
:101FA0007278206669666F206572726F720D0A0022
:101FB000727820637263206572726F720D0A00007E
:101FC0007278206C656E677468206572726F720D2E
:101FD0000A0000007278206C656E67746820746F68
:101FE0006F206269670D0A0010B50246002006E006
:101FF00013784340034CE05C521C4B1ED9B20029BD
:10200000F6DC10BD4400002008B5FEA0006800907A
:102010009DF80100401EC1B26846FFF7E5FF8DF84C
:1020200003009DF8012069460120FFF70CF9962373
:1020300000221146104618F08DFE08BD10B504466A
:102040000A20F14908700DE0642300221146104671
:1020500018F080FEEC480078401EEB490870012023
:10206000FFF747F9E948007800F08000802803D0A6
:10207000E54800780128E7DCE4480078802810DD96
:102080000020E2490870E248C0782070E0480079FA
:102090006070DF484079A070DD488079E0700120F1
:1020A00010BD0020FCE77CB504460D46D9A103C94C
:1020B000CDE900018DF803408DF804509DF804200F
:1020C0009DF80310D5A018F0A7FF9DF80100401E51
:1020D000C1B26846FFF788FF9DF80110491E0DF850
:1020E00001009DF8012069460120FFF7ACF87CBD96
:1020F00010B588B00446D2A2D2E900109268CDE9AA
:102100000602059120788DF8170060788DF8180088
:10211000A0788DF81900E0788DF81A0020798DF8F4
:102120001B0060798DF81C00A0798DF81D009DF8CA
:102130001D009DF81C109DF81B209DF81A30CDE95C
:102140000032CDE902109DF819309DF818209DF855
:102150001710BEA018F060FF9DF81500401EC1B218
:1021600005A8FFF741FF9DF81510491E05AA505418
:102170009DF8152005A90120FFF765F808B010BDEE
:1021800070B58CB005460C460026BEA103C9CDE94A
:102190000A018DF82B509DF82900401EC1B20AA8F3
:1021A000FFF722FF8DF82C000020984908709DF859
:1021B00029200AA90120FFF746F803209249087058
:1021C00008460178B1A018F027FF0DE0D2230022C5
:1021D0001146104618F0BEFD8B480078401E8A4913
:1021E00008700120FFF785F88848007800F080002B
:1021F000802803D0844800780028E7DC82480178F2
:10220000A6A018F009FF8148007800F0800080281F
:102210004FD100207D4908707D48C078A84246D142
:102220007B488078022801D102261EE07848807819
:10223000207077480079607075484079A0707448C4
:102240008079E0707248C07920717148007A6071BD
:102250006F48407AA0716E48807AE0716C48C07A0D
:1022600020726B48007B6072AA266948C07A684970
:10227000897A674A527A664B1B7ACDE90532CDE9F5
:1022800007106348C07962498A794979604B1B79A4
:10229000CDE90131CDE903205D48C07800905C486C
:1022A0008378427801787FA018F0B6FE02E000261D
:1022B00000E0002630460CB070BD7FB505460C46E8
:1022C000002688A30FCB8DE80F008DF803502078EF
:1022D0008DF8040060788DF80500A0788DF8060070
:1022E000E0788DF8070020798DF8080060798DF886
:1022F0000900A0798DF80A00E0798DF80B00207AAA
:102300008DF80C009DF80100401EC1B26846FFF731
:102310006BFE9DF80110491E0DF8010000203B499D
:1023200008709DF8012069460120FEF78CFF03200C
:1023300035490870084601786EA018F06DFE0EE071
:102340004FF48C7300221146104618F003FD2E48FE
:102350000078401E2C4908700120FEF7CAFF2B4868
:10236000007800F08000802803D0274800780028FB
:10237000E6DC2548017865A018F04EFE2348007879
:1023800000F08000802810D10020204908702048EB
:10239000C078A84207D11E488078092801D1AA2612
:1023A00004E0002602E0002600E00026304604B0EB
:1023B00070BD7FB505460C4600265AA30FCB8DE8AD
:1023C0000F008DF8035020788DF8040060788DF8A8
:1023D0000500A0788DF80600E0788DF807002079D8
:1023E0008DF808009DF80100401EC1B26846FFF755
:1023F000FBFD9DF80110491E0DF801000020034966
:10240000087097E0F304A100440100203C00002084
:10241000B0160020F30610051B0000003E3E3E3EB5
:102420003E3E3E3E3EB9E3B2A520CBAEB7D13D2500
:10243000643B20C2F6B3E5CAFD3D25640D0A0000E9
:10244000F30BCDFFFFFFFFFFFF0100003E3E3E3ECE
:102450003E3E3E3E3EB9E3B2A520524649445F4B64
:10246000657920253258253258253258253258258D
:1024700032582532582CBFE9B5D8D6B7A3BA25644F
:102480000D0A0000F305010000000000C2D6D1AD26
:10249000C3FCC1EE20256420000000002D2025642F
:1024A0003B0000002530325820253032582025309E
:1024B00032582025303258202530325820253032ED
:1024C00058202530325820253032582025303258B7
:1024D0002025303258202530325820253032580DF2
:1024E0000A000000F30E08000000000000000000D9
:1024F000000000004F766572666C6F775F466C6116
:1025000067203D2025643B20200000004F76657247
:10251000666C6F775F466C6167203D2025643B20C9
:10252000200D0A00F30A1300000000000000000064
:10253000000000009DF8012069460120FEF783FE9F
:102540000320FA49087008460178F9A018F064FDE4
:102550000EE04FF48C7300221146104618F0FAFB7F
:10256000F2480078401EF14908700120FEF7C1FED4
:10257000F548007800F08000802803D0EB48007810
:102580000028E6DCE9480178F0A018F045FDEE48A7
:10259000007800F08000802819D10020EA490870F6
:1025A000EC48C078A8420DD1EA488078142804D1BC
:1025B000AA26E9A018F030FD0DE00026E9A018F0E9
:1025C0002BFD08E00026E7A018F026FD03E000261A
:1025D000E4A018F021FD304604B070BD3EB50446BD
:1025E0000025E3A207CA8DE8070020788DF80200D5
:1025F00060788DF80300A0788DF80500E0788DF8FC
:10260000060020798DF8070060798DF808009DF8A4
:102610000200112803D109208DF8010006E09DF881
:102620000200132802D10A208DF801009DF8010054
:10263000401EC1B26846FFF7D7FC9DF80110491E45
:102640000DF801000020C04908709DF8012069467E
:102650000120FEF7F8FD0320B44908700846017810
:10266000C6A018F0D9FC0EE04FF48C73002211467E
:10267000104618F06FFBAD480078401EAB4908705B
:102680000120FEF736FEB048007800F08000802878
:1026900003D0A64800780028E6DCA4480178AFF211
:1026A000042018F0B9FCA848007800F080008028C9
:1026B0000BD10020A4490870A648C07861788842F0
:1026C00001D1AA2502E0002500E0002528463EBDF4
:1026D000FEB505460C460026ABA207CA8DE80700EA
:1026E00020788DF8030060788DF80400A0788DF8CC
:1026F0000500E0788DF806008DF807509DF8010080
:10270000401EC1B26846FFF76FFC9DF80110491EDC
:102710000DF8010000208C4908709DF801206946E1
:102720000120FEF790FD03208049087008460178DB
:10273000AFF2402018F070FC0EE04FF482730022DC
:102740001146104618F006FB78480078401E77497D
:1027500008700120FEF7CDFD7B48007800F0800076
:10276000802803D0714800780028E6DC6F480178A3
:1027700088A018F051FC7448007800F08000802890
:102780000ED174488078C2280AD100206E490870A2
:10279000AA2005EB0511854A50546E48067A00E0E0
:1027A00000263046FEBD2DE9FF4106460D460024B9
:1027B00000277FA103C9CDE90201002001908DF817
:1027C0000A6028788DF80C0068788DF80D00A878DC
:1027D0008DF80E00E8788DF80F009DF80900401E76
:1027E000C1B202A8FFF700FC9DF80910491E02AA19
:1027F00050540020544908709DF8092002A9012076
:10280000FEF721FD0220494908700846027831464A
:1028100069A018F001FC0EE04FF48C730022114601
:10282000104618F097FA41480078401E3F4908705A
:102830000020FEF75EFD4448007800F0800080280C
:1028400003D03A4800780028E6DC384801783FA0F9
:1028500018F0E2FB3C48007800F08000802862D14C
:1028600000203949087007213A48FFF7BDFB394974
:10287000C979884258D137488078B32855D135482E
:1028800080790090334843790279C1784FA018F0DD
:10289000C3FB3048C0788DF804002E4800798DF8CD
:1028A00005002C4840798DF806002A4880798DF87B
:1028B000070001A800F07EFF0446214653A018F04F
:1028C000ABFB192C2ADC01A92046FFF701FF564972
:1028D00008550846005D20B134480078401C334953
:1028E0000870AA2004EB0411304A50549DF80400EB
:1028F00004EB04111144C8709DF8050004EB0411A9
:10290000114408719DF8060004EB0411114448714C
:102910009DF8070004EB04111144887100270EA0F4
:1029200018F07AFB93E08DE086E07FE04401002020
:10293000B7A2CBCDBFA8D2ECB3A3CAFDBEDD203D6C
:102940002025643B202000003C0000202D2D202568
:10295000643B2000B01600207375636365737320B9
:102960000D0A00006661756C742020200D0A0000BD
:10297000F30900004530303000000000457272431A
:102980006F6D202564200000F309C10000000000E5
:10299000000000004F766572666C6F775F466C6171
:1029A00067203D2025643B2120000000562F002099
:1029B000F308000000000000D5DBB0EBB2E9D5D28F
:1029C0002532582020256420000000000D0ABDD3C8
:1029D000CAD5B5BDB4D3D5BECDEAB3C9CAFDBEDD37
:1029E0002020CEEFC0EDB5D8D6B7A3BA30782530C9
:1029F000327820307825303278203078253032789F
:102A00002030782530327820203B0000B7D6C5E44E
:102A1000B3C9B9A6A3A120C2DFBCADB5D8D6B73A19
:102A200025643B0D0A000000640400200127AFF27A
:102A3000CC0018F0F1FA0AE00227AFF2D80018F043
:102A4000EBFA04E00327AFF2E40018F0E5FA3846A9
:102A500004B0BDE8F0817CB505460C460026FEA119
:102A600003C9CDE900018DF803509DF80100401E17
:102A7000C1B26846FFF7B8FA8DF804000020F849A3
:102A800008709DF8012069460120FEF7DCFB02205A
:102A9000F44908700DE0B42300221146104618F0E6
:102AA00059F9F0480078401EEE4908700120FEF701
:102AB00020FCEB48007800F08000802803D0E94833
:102AC00000780028E7DCE648007800F080008028E5
:102AD0001CD10020E2490870E34880782070E24869
:102AE00000796070E0484079A070DF488079E0703C
:102AF000DD48C0792071DC48007A6071DA48407A9C
:102B0000A071D948807AE071AA2600E000263046FC
:102B10007CBD1CB50446D5A103C9CDE900018DF8E3
:102B200003409DF80100401EC1B26846FFF75CFA01
:102B30008DF804009DF8012069460120FEF783FB13
:102B4000FA2300221146104618F004F91CBD2DE9A5
:102B5000FF41044600262146C6A018F05DFA04EBAA
:102B60000410C649085CAA286BD104EB0410084481
:102B7000C07848B904EB04100844807920B90020DB
:102B800004EB0411BD4A5054BD48006808B9012047
:102B900000E00020BA49086001A92046FFF7F0FADA
:102BA000064626B901A92046FFF7EAFA0646B548C7
:102BB0000078A0420CD0022E0BD1DD2004EB0411D2
:102BC000AE4A11444870002004EB0411114488708F
:102BD0001FE1AEBB002004EB0411A84A1144487069
:102BE00004EB0410114608448078142818DA04EB2A
:102BF000041008448078052190FBF1F201FB1200DB
:102C000010B9204600F019FF04EB04109B4908445A
:102C10008078401C04EB0411984A11448870F8E055
:102C2000002507E0002004EB0411944A11444855A4
:102C3000681CC5B2102DF5DB204600F024FEE8E04C
:102C400000E094E0002004EB04118C4A11448870E9
:102C500002E00A20FEF73EF88A4800780028F8D102
:102C6000AA2004EB0411854A114448709DF8040021
:102C700004EB0411114488709DF8050004EB041165
:102C80001144C8719DF8060004EB04111144087248
:102C90009DF8070004EB0411114448729DF80800E8
:102CA00004EB0411114488729DF8090004EB04112F
:102CB0001144C8729DF80A0004EB04111144087312
:102CC0009DF80B0004EB0411114448739DF80C00AF
:102CD00004EB0411114488739DF80D0004EB0411FA
:102CE0001144C8732046FFF714FF04EB0410634936
:102CF00008448278214664A018F08EF904EB041091
:102D00005E490844807A009004EB04100F46384472
:102D1000437A04EB04103844027A04EB041038447C
:102D2000C17960A018F078F904EB04103A46104419
:102D3000C07A000404EB04123B461A44127B40EABA
:102D4000022004EB04121A44527B40EA02015CA008
:102D500018F062F904EB04103B461844C27B04EB04
:102D600004101844817B5AA018F056F951E004EB86
:102D700004104249085C55284BD14148006808B905
:102D8000012000E000203E49086004EB04103B49AC
:102D900008444078022803D111208DF8040014E083
:102DA00004EB0410354908444078122803D113205D
:102DB0008DF8040009E004EB041030490844407821
:102DC000142802D113208DF804008DF8054004EB7F
:102DD00004102A490844007A8DF8060004EB041018
:102DE0000844407A8DF8070004EB04100844807A08
:102DF0008DF8080004EB04100844C07B8DF809002E
:102E000001A8FFF7EBFB06461EB901A8FFF7E6FB9A
:102E10000646BDE8FF81FEB5044600250026184899
:102E2000006808B9012000E000201549086021462B
:102E300010A018F0F1F804EB440000EBC4002C499A
:102E4000085CAA287DD104EB440000EBC4000844D0
:102E500040788DF800004DE0F3050400000000000C
:102E60003C00002044010020B0160020F3050700BC
:102E7000000000002532643B20000000562F002097
:102E80009C01224222030020C2DFBCADB5D8D6B7D8
:102E9000A3BA25643BBFA8D7B4CCAC25643B2020A3
:102EA00000000000BFA8BAC5A3BA253032582530AB
:102EB000325825303258253032583B20200000004F
:102EC000BDF0B6EEA3BA2536643B202020000000FA
:102ED000BFA8D0A3D1E9A3BA2532643B202020CDDE
:102EE000A8D0C5C2EBA3BA2532643B200D0A00006E
:102EF000CCE4002004EB440000EBC40008448078DC
:102F00008DF8010004EB440000EBC4000844C078D5
:102F10008DF8020004EB440000EBC4000844007983
:102F20008DF8030004EB440000EBC40008448079F2
:102F30008DF8040004EB440000EBC4000844C079A1
:102F400000E025E08DF8050004EB440000EBC40030
:102F50000844007A8DF8060004EB440000EBC4003E
:102F6000084440798DF8070004EB440000EBC400EE
:102F70000844807A8DF8080069462046FFF79DF9DD
:102F80000546EDBB69462046FFF797F905463CE04C
:102F900004EB440000EBC4005549085CBB2834D165
:102FA00004EB440000EBC400084480788DF8000076
:102FB00004EB440000EBC4000844C0788DF8010025
:102FC00004EB440000EBC400084400798DF80200D3
:102FD00004EB440000EBC400084440798DF8030082
:102FE00004EB440000EBC400084480798DF8040031
:102FF00069462046FFF7DDF905460DB9694600E050
:1030000003E02046FFF7D5F9054602E00A20FDF768
:1030100061FE04EB440000EBC40035490844407AEB
:103020000028F3D1002609E0002004EB440101EB65
:10303000C4012F4A11448855701CC6B20A2EF3DB16
:10304000FEBD38B500242BA00068009000202A495E
:1030500008606946B120FFF7A6FB04460120274916
:10306000C1F89C01204638BD70B5AFF2801017F052
:10307000D3FF002417E0214621A017F0CDFF002543
:1030800009E004EB0410204A1044415D1FA017F032
:10309000C3FF681CC5B2102DF3DBAFF2B01017F000
:1030A000BBFF601CC4B21A2CE5DB70BD70B5AFF27B
:1030B000C41017F0B1FF002416E0214610A017F04D
:1030C000ABFF002508E0134800EB0410415D0FA0A2
:1030D00017F0A2FF681CC5B2102DF4DBAFF2F4109C
:1030E00017F09AFF601CC4B21E2CE6DB70BD000016
:1030F000CCE40020160101019C0122420000224282
:10310000253032642D2D0000562F002025303258F6
:103110002C0000002CE3002008B50121082001F05C
:103120002FFFC020ADF8000010208DF80300032011
:103130008DF802006946904801F066FCC0218E4877
:1031400001F00FFD08BD10B58B48006820F07040FD
:10315000894908600846006840F040500860012036
:10316000864908608649C1F898010420FDF7B2FD40
:103170000020824908600420FDF7ACFD0020804952
:10318000C1F8980110BD10B57B48006820F0704070
:10319000794908600846006840F040500860002007
:1031A0007649091F08607649C1F89C010420FDF7A3
:1031B00091FD01207149091F08607149C1F89C0106
:1031C0000420FDF787FD10BD10B500246A48006893
:1031D00020F07040684908600846006840F00040F0
:1031E0000860012065490860FDF774FD012064490D
:1031F000C1F89801FDF76EFD07E0601CC4B2FA2C1F
:1032000003DDFFF7C0FF012010BD5C488038006877
:103210000028F2D15949091F086000BFF4E710B532
:1032200000205649091F08605348006820F070408C
:10323000514908600846006840F04050086000208E
:103240004F49C1F89C010220FDF744FD01204B4984
:10325000091F08600220FDF73DFD00204849C1F824
:10326000980110BD10B500204449091F086042486C
:10327000006820F07040404908600846006840F04F
:103280004050086001203E49C1F89C010220FDF732
:1032900021FD01203949091F08600220FDF71AFDB0
:1032A00000203749C1F8980110BD70B50446324876
:1032B000006820F07040304908600846006840F01F
:1032C0004050086000202D49091F086000251DE0BE
:1032D000E00918B101202949086002E000202749CF
:1032E00008606006040E0220FDF7F4FC012023496B
:1032F000091F08600220FDF7EDFC00202049C1F8FD
:1033000098010220FDF7E6FC681CC5B2082DDFDB42
:1033100070BD70B5054600241748006820F0704065
:10332000154908600846006840F000400860002623
:1033300017E000201149091F08600220FDF7CAFCB0
:1033400001200F49C1F898016006040E0B4880382F
:10335000006808B1601CC4B20120FDF7BBFC701C02
:10336000C6B2082EE5DB15B9FFF77CFF01E0FFF7D9
:1033700056FF204670BD0000000C01409C81214298
:103380000080214210B5FFF7C7FE10BD70B504469E
:103390000026FFF7D8FE2546E11704EB116109125C
:1033A000A02202EB4101C8B2FFF77FFFFFF70CFF3D
:1033B000E11704EB11610912A4EB0121C8B2FFF778
:1033C00074FFFFF701FFFFF7BEFEA120FFF76DFFBF
:1033D000FFF7FAFE0020FFF79CFF0646FFF7D3FE3B
:1033E000304670BD70B504460E46FFF7ACFE25466C
:1033F000E11704EB11610912A02202EB4101C8B2EE
:10340000FFF753FFFFF7E0FEE11704EB116109122C
:10341000A4EB0121C8B2FFF748FFFFF7D5FE304605
:10342000FFF743FFFFF7D0FEFFF7ADFE0A20FDF7E1
:103430007CFC70BD2DE9F04105460E461746002480
:1034400009E0E20026FA02F2D1B22A1990B2FFF79F
:10345000C9FF601CC4B2BC42F3DBBDE8F0812DE9BA
:10346000F04107460C460026002509E036023919CE
:10347000491B491E88B2FFF789FF0644681CC5B284
:10348000A542F3DB3046BDE8F08110B5002405E02D
:1034900000212046FFF7A6FF601C84B2B4F5806FC0
:1034A000F6DB10BD30B58DB06CA103C9CDE90B01C1
:1034B0006CA000680A906CA00068099044F6206532
:1034C0006AA30FCB05AC0FC46C4800F010FB6B482F
:1034D00080796A494979694A1279684BDB78CDE984
:1034E0000032CDE90210654883784278017864A003
:1034F00017F092FD6E4800F021FB6D48C0780090F7
:103500006B488378427801786AA017F085FD00F057
:1035100030FB70490880084601886FA017F07CFDD9
:10352000734800F04DFB7248C07800907048837873
:10353000427801786FA017F06FFD784800F05CFBCF
:1035400077A017F069FD7548C17982794079734B8E
:103550001B79CDE90130CDE903217048C078009096
:103560006E4883784278017872A017F055FD6B4859
:10357000C17B807B694A527B684B1B7BCDE9013262
:10358000CDE903016548C07A00906448837A427AA5
:10359000017A6FA017F040FD744800F02EFC7348CC
:1035A0000078AA2809D172A017F036FD744800F0FF
:1035B0002CFC744800F031FC02E073A017F02CFDE5
:1035C000FF20FFF7E3FE0446552C02D100200DB08A
:1035D00030BDFFF75AFF70A017F01EFD0BA800F0DA
:1035E0008EFA09A800F0B2FA284600F0D1FA0AA82B
:1035F00000F0EEFA05A800F007FB5521FF20FFF7C9
:10360000F1FEFF20FFF7C2FE0446552C01D1002039
:10361000DDE70120DBE770B506460C46154608E0FD
:103620003046721C96B2FFF7B1FE04F8010B681E1B
:1036300085B2002DF4D170BD70B505460C46164616
:1036400006E021782846FFF7CDFE681C85B2641C91
:10365000301EA6F101018EB2F3D170BDFFFFFFFF56
:10366000FFFF0100101010337B39961931303030D4
:103670003030302D62373631633262301000002036
:10368000524649445F4B65793A25303258253032ED
:1036900058253032582530325825303258253032AE
:1036A000582EBEF8B6D4BFE9BAC53A25640D0A0053
:1036B000010000204950B5D8D6B72D2D2D2D2D2D28
:1036C0002D2D2D2D2D2D25642E25642E25642E25A2
:1036D000640D0A0006000020B6CBBFDABAC52D2D56
:1036E0002D2D2D2D2D2D2D2D2D2D2535640D0A0043
:1036F00008000020C7F8D3F2BFD8D6C6C6F7534E8D
:103700002D2D2D2D2D2D2530325825303258253098
:103710003258253032580D0A000000007E04002087
:10372000C7F8D3F2BFD8D6C6C6F7CDA8D0C5C2EB6E
:103730002D2D000025325825325825325825325873
:1037400025325825325825325825325800000000BD
:1037500025325825325825325825325825325825D9
:1037600032582532582532580D0A00001700002023
:10377000BEB2CCAC49502D2D2DBFAAC6F40D0A0007
:103780001C00002020000020BEB2CCAC49502D2DE2
:103790002DBDFBD3C30D0A00415432344358585F4A
:1037A00044656C6574655F616C6C446174282921A3
:1037B0000D0A00002DE9FC41054600200090019013
:1037C000012428E004EB840000F10A063046FFF7EC
:1037D000DDFD0746A7421CD1711C88B20422694650
:1037E000FFF719FFE8789DF80310884211D1A878F7
:1037F0009DF8021088420CD128789DF8001088426C
:1038000007D168789DF80110884202D12046BDE8B2
:10381000FC81601CC4B21A2CD4DB01242FE004EB21
:10382000840000F10A063046FFF7B0FD0746A742C4
:1038300023D021463046FFF7D5FD2978721C90B27F
:10384000FFF7D0FD6978B21C90B2FFF7CBFDA978E5
:10385000F21C90B2FFF7C6FDE978321D90B2FFF777
:10386000C1FD0120FFF792FD804608F10100C1B2C1
:103870000120FFF7B7FD2046C9E7601CC4B21A2C2F
:10388000CDDBF320C3E77CB5054600200090019016
:10389000012419E004EB840101F10A00FFF776FD31
:1038A000A8420FD104EB84010A3141F00100042247
:1038B0006946FFF7C1FE04EB840101F10A00002113
:1038C000FFF790FD601CC4B21A2CE3DB002005EB6F
:1038D0000511FE4A50540120FFF758FD0646701EA0
:1038E000C1B20120FFF77EFD701EC0B27CBD30B5B5
:1038F00085B0002003900490012499E004EB84003B
:1039000000F10A052846FFF741FDA04225D1691CB8
:1039100088B2042203A9FFF77EFE9DF80F009DF8F0
:103920000E109DF80D20CDE9002102909DF80C307D
:1039300022462946E6A017F06FFB9DF80C0068B9F7
:103940009DF80F0050B92146F1A017F065FB204605
:10395000FFF799FF0020F849085567E003A92046C2
:10396000FEF7B6FEF44908550846005D28B3D7486F
:103970000078401CD5490870AA2004EB0411D34AF2
:1039800050549DF80C0004EB04111144C8709DF8CC
:103990000D0004EB0411114408719DF80E0004EBB6
:1039A0000411114448719DF80F0004EB04111144F7
:1039B0008871E2A017F030FB38E0E4A017F02CFB90
:1039C00003A92046FEF784FEDB4908550846005D42
:1039D00028B3BE480078401CBC490870AA2004EBFC
:1039E0000411BA4A50549DF80C0004EB0411114420
:1039F000C8709DF80D0004EB0411114408719DF886
:103A00000E0004EB0411114448719DF80F0004EB03
:103A1000041111448871D2A017F0FEFA06E0214685
:103A2000D4A017F0F9FA2046FFF72DFF601CC4B2AE
:103A30001A2CFFF663AF05B030BD70B586B00546F1
:103A40000020049005902C4604EB840000F10A0647
:103A50003046FFF79BFCA04247D1711C88B204227C
:103A600004A9FFF7D8FD9DF813009DF812109DF8EA
:103A70001120CDE9002102909DF8103022463146F8
:103A800093A017F0C9FA04A92046FEF721FEAA491F
:103A900008550846005D28B38C480078401C8B49C7
:103AA0000870AA2004EB0411884A50549DF81000B5
:103AB00004EB04111144C8709DF8110004EB0411CB
:103AC000114408719DF8120004EB0411114448716F
:103AD0009DF8130004EB04111144887197A017F0AE
:103AE0009BFA02E0ABA017F097FA06B070BD10B5D4
:103AF000044607222146E620FFF78DFD10BD10B5D4
:103B000004462178E620FFF76DFC6178E720FFF797
:103B100069FCA178E820FFF765FCE178E920FFF770
:103B200061FC2179EA20FFF75DFC6179EB20FFF76A
:103B300059FCA179EC20FFF755FC10BD10B50446E7
:103B400004222146C820FFF766FD10BD10B50446CB
:103B50002178C820FFF746FC6178C920FFF742FCB6
:103B6000A178CA20FFF73EFCE178CB20FFF73AFCB2
:103B700010BD08B50020009002226946CC20FFF756
:103B80004AFD9DF801009DF8001040EA012008BDA3
:103B900070B50446CC262546E01704EB1060C0F350
:103BA00007213046FFF71EFC2546E01704EB1060A6
:103BB0000012A4EB0020C1B2701CFFF713FC70BD13
:103BC00010B5044604222146CE20FFF724FD10BD87
:103BD00070B50446CE2521782846FFF703FC6178AE
:103BE000681CFFF7FFFBA178A81CFFF7FBFBE1783F
:103BF000E81CFFF7F7FB70BD10B504461022214604
:103C0000D220FFF708FD10BD70B50446D2252178FB
:103C10002846FFF7E7FB6178681CFFF7E3FBA17814
:103C2000A81CFFF7DFFBE178E81CFFF7DBFB21793D
:103C3000281DFFF7D7FB6179681DFFF7D3FBA1793A
:103C4000A81DFFF7CFFBE179E81DFFF7CBFB217A39
:103C500005F10800FFF7C6FB617A05F10900FFF7DF
:103C6000C1FBA17A05F10A00FFF7BCFBE17A05F17F
:103C70000B00FFF7B7FB217B05F10C00FFF7B2FB50
:103C8000617B05F10D00FFF7ADFBA17B05F10E0097
:103C9000FFF7A8FBE17B05F10F00FFF7A3FB70BD69
:103CA00070B50446EF2521782846FFF79BFB617825
:103CB000681CFFF797FBA178A81CFFF793FBE1783E
:103CC000E81CFFF78FFB2179281D6BE0562F0020A1
:103CD0002B2BC6F0CABCB5D8D6B73A25643B2020FA
:103CE000C2DFBCADB5D8D6B73A25643B2020CEEFB5
:103CF000C0EDB5D8D6B7A3BA2530325825303258E2
:103D000025303258253032583B20200D0A00000063
:103D1000CEEFC0EDB5D8D6B7B2BBC4DCCEAA3078F2
:103D20003030A3A1C7E5C2DFBCADB5D8D6B73A25C0
:103D3000643B0D0A0000000064040020B7D6C5E40F
:103D4000B3C9B9A6A3A10D0A00000000B5DAD2BB21
:103D5000B4CEB7D6C5E4CAA7B0DCA3A1202000002A
:103D6000B5DAB6FEB4CEB7D6C5E4B3C9B9A6A3A139
:103D70000D0A0000B6FEB4CEB7D6C5E4CAA7B0DCC3
:103D8000A3A1C7E5C2DFBCADB5D8D6B73A25643B21
:103D90000D0A0000B7D6C5E4CAA7B0DCA3A10D0A7E
:103DA00000000000FFF71EFB70BD70B50446F4254F
:103DB00021782846FFF716FB6178681CFFF712FB95
:103DC000A178A81CFFF70EFBE178E81CFFF70AFBBF
:103DD00070BD70B50446F82521782846FFF702FB30
:103DE0006178681CFFF7FEFAA178A81CFFF7FAFAC1
:103DF000E178E81CFFF7F6FA70BD10B5044605221D
:103E00002146EF20FFF707FC10BD10B50446042241
:103E10002146F420FFF7FFFB10BD10B50446042235
:103E20002146F820FFF7F7FB10BD000030B591B038
:103E3000044614210CA817F05BFB142107A817F007
:103E400057FB0020059006900025F4208DF83000E7
:103E500060788DF83100A078401CC0B28DF8320037
:103E6000A078072861D006DC01280BD003281DD0DC
:103E700005287DD148E0092868D0102879D012287B
:103E8000F7D122E1A9208DF83300AC4800788DF8F5
:103E90003400AA4840788DF83500A84880788DF81D
:103EA0003600A648C0788DF8370032E1E0788DF80A
:103EB000330020798DF8340060798DF83500A079D1
:103EC0008DF83600E0798DF83700207A8DF83800CB
:103ED0009DF833008DF81C009DF834008DF81D000E
:103EE0009DF835008DF81E009DF836008DF81F00F6
:103EF00007A8FFF72BFE9DF838109DF8372041EA00
:103F00000220FFF745FE04E1002508E0E81C215CE3
:103F10000CAA1154205C07A94855681CC5B2102D85
:103F2000F4DB07A8FFF770FEF3E0002508E0E81CCB
:103F3000215C0CAA1154205C07A94855681CC5B225
:103F4000042DF4DB07A8FFF743FEE2E0E0787C49AC
:103F500008702079487060798870A079C870E0791D
:103F60000871207A77490870607A4870A07A01E079
:103F7000CEE07EE08870E07AC870207B72490870DD
:103F8000607B4870A07B8870E07BC8706C48FFF74E
:103F900087FE6C48FFF709FF6B48FFF71AFF684878
:103FA000FFF72BFF6748FFF730FF6748FFF735FF44
:103FB000634800788DF83300614840788DF834000C
:103FC0005F4880788DF835005D48C0788DF8360000
:103FD0005B4800798DF837005A4800788DF8380032
:103FE000584840788DF83900564880788DF83A0066
:103FF0005448C0788DF83B00534800788DF83C0059
:10400000514840788DF83D004F4880788DF83E004B
:104010004D48C0788DF83F004CA016F0FDFF484891
:104020000078AA2803D151A016F0F6FF02E053A0B1
:1040300016F0F2FF4248007900904148C378827838
:10404000417852A016F0E8FF3E48C07800903D4805
:1040500083784278017855A016F0DEFF3A48C078A0
:104060000090394883784278017858A016F0D4FF40
:104070004FE0E0785D490870207948706079887079
:10408000A079C870E0790871207A4871A07A8871A7
:1040900007215648FDF7A8FF554908705348FFF718
:1040A0002EFD5248807951494979504A12794F4B37
:1040B000DB78CDE90032CDE902104C4883784278B4
:1040C00001784CA016F0A8FF00BF05A8FFF70FFD70
:1040D0009DF814008DF833009DF815008DF834001C
:1040E0009DF816008DF835009DF817008DF8360004
:1040F0009DF818008DF837009DF819008DF83800EC
:10410000607A8DF839009DF81A008DF83A0000E0C9
:1041100000BF00BF9DF83100401EC1B20CA8FDF7E2
:1041200063FF6178491E0CAA50549DF831200CA9F8
:104130000220FDF788F811B030BD00000800002013
:10414000170000201C000020200000202D2D2D2D08
:104150002D2D2D2D2DBDD3CAD5B5BDB4AEBFDA2DB5
:104160002D2D2D2D2D2D2D2D0D0A0000BEB2CCACE8
:1041700049502D2D2DBFAAC6F40D0A00BEB2CCACFD
:1041800049502D2D2DBDFBD3C30D0A00BEB2CCACC2
:104190004950B5D8D6B72E2E2E2E2E2E25642E257C
:1041A000642E25642E25640D0A000000D7D3CDF8B7
:1041B000D1DAC2EB2E2E2E2E2E2E2E2E25642E255B
:1041C000642E25642E25640D0A000000C4ACC8CFFF
:1041D000CDF8B9D82E2E2E2E2E2E2E2E25642E253D
:1041E000642E25642E25640D0A00000010000020B6
:1041F0000F0000202D2D2D2D2D2D2D2D2DBDD3CAA1
:10420000D5B5BDB4AEBFDA20524649445F4B65799F
:104210002025325825325825325825325825325813
:104220002532582CBFE9B5D8D6B7A3BA25640D0AF4
:104230000000000070B505460C4645F2555002F0EE
:10424000A3F8284602F0A3F8204602F0A3F802F0F3
:10425000A4F802F0A7F870BD10B502F09EF810BDEA
:1042600031490143314A1160704770B50021002384
:104270000F22C47804B32D4C246804F4E064C4F520
:10428000E064210AC1F10403CA40447804FA03F14E
:104290008478144021430901254C0678A1550478FF
:1042A00004F01F050124AC4005786D11AD0005F147
:1042B000E025C5F8004109E0047804F01F05012459
:1042C000AC401C4D0678761145F8264070BD1A4A60
:1042D0000A400243154B1B1F1A60704739B1134A3D
:1042E000121D12680243114B1B1D1A6006E00F4A93
:1042F000121D126882430D4B1B1D1A607047042863
:1043000008D14FF0E021096941F004014FF0E022AB
:10431000116107E04FF0E021096921F004014FF03D
:10432000E0221161704700000000FA050CED00E08A
:1043300000E400E080E100E080FFFF1F30B943F2BD
:10434000DB028100A1F1C0410A6005E043F2D20224
:104350008100A1F1C0410A606FF07042411C8900E8
:10436000A1F1C0410A608100A1F1C041C1F804215E
:10437000704710280AD118214FF0204211664021C1
:1043800051664FF0FC319166D16610E01821F74A72
:10439000116040214FF02042C2F884104FF0FC31F0
:1043A000F24A083211604FF02042C2F88C10704778
:1043B0001820EE492031086000200906C1F8A40049
:1043C0004FF0FC30E94928310860091D0860091DDB
:1043D00008607047D0E901121143C26811430269B5
:1043E00011434269114382691143C2691143026A50
:1043F0001143426A1143826A1143C26A1143026B3C
:10440000114302689200A2F1C0421160816808293C
:104410000BD101688900A1F1C041096841F0400257
:1044200001688900A1F1C0410A60416B0968426BD3
:10443000526841EA0211426B926841EA0221426BE2
:10444000928941EA0241426B128A41EA0251426B6F
:10445000127D41EA0261426B926911430268521C6B
:104460009200A2F1C0421160C16AB1F5804F1BD128
:10447000816B0968826B526841EA0211826B926813
:1044800041EA0221826B128A41EA0251826B127D5B
:1044900041EA0261826B9269114302689200A2F1C3
:1044A000C042C2F8041107E06FF070420168890051
:1044B000A1F1C041C1F80421704730B500210022AC
:1044C0000023446844F0080485682C43C5682C43E5
:1044D00005692C43456944EA4524856944EA453128
:1044E000C4692468C5696D6844EA0524C5692D89D5
:1044F00044EA0544C5692D7B44EA0562046A2468E0
:10450000056A6D6844EA0524056A2D8944EA054474
:10451000056A2D7B44EA05630468102C05D14FF031
:1045200020442166A266E36608E0904C21604FF0CB
:104530002044C4F888208D4C0C34236030BD0168C1
:1045400041F01001426841EA4221826841EA423169
:10455000864A20321160C1680968C268526841EA1F
:104560000221C268128941EA0241C268127B41EA13
:1045700002617E4A28321160016909680269526845
:1045800041EA02210269128941EA02410269127B71
:1045900041EA0261754A2C32116041690968426939
:1045A000526841EA02214269128941EA02414269A4
:1045B000127B41EA02614FF02042C2F8B01070470E
:1045C000002101600221416000218160C160016120
:1045D00041618161C16101624FF4805141624900D2
:1045E00081620021C16201630F21426B1160426B45
:1045F0005160FF21426B91600F21426BD160426B91
:104600001161426B51610021426B91610F21826BFC
:104610001160826B5160FF21826B91600F21826B70
:10462000D160826B1161826B51610021826B91615B
:10463000704710210160002141608160C16001610B
:1046400041618161FC21C2691160C2695160C26926
:104650009160C269D160026A1160026A5160026AA7
:104660009160026AD1607047002101604160816001
:10467000FC21C2681160C2685160C2689160C26862
:10468000D16002691160026951600269916002693A
:10469000D16042691160426951604269916042692A
:1046A000D160704751B18200A2F1C042126842F05D
:1046B00001038200A2F1C042136009E08200A2F16E
:1046C000C04212682A4B1A408300A3F1C0431A600B
:1046D000704799B1102808D14FF02042126E42F075
:1046E00004024FF020431A661DE0204A126842F08F
:1046F00004024FF02043C3F8802014E0102809D1B1
:104700004FF02042126E1A4BDB1E1A404FF020432E
:104710001A6608E0154A1268154BDB1E1A404FF066
:104720002043C3F88020704748B110492031096800
:1047300041F004014FF02042C2F8A01009E00B49FB
:10474000203109680A4AD21E11404FF02042C2F8B7
:10475000A0107047B9B110280CD14FF02042126E52
:1047600042F040024FF020431A661FE0800000A094
:10477000FEFF0F00724A126842F040024FF02043E1
:10478000C3F8802012E0102808D14FF02042126EAA
:104790006C4B1A404FF020431A6607E0684A1268D3
:1047A000684B1A404FF02043C3F880207047014601
:1047B0000020102903D14FF02042506F02E0604AE0
:1047C00014321068704710B5F2B1102807D14FF0BD
:1047D00020435B6E0B434FF02044636632E0B0F53C
:1047E000807F08D1564B1B1D1B680B434FF02044A4
:1047F000C4F8843026E0524B24331B680B434FF03F
:104800002044C4F8A4301DE0102807D14FF0204305
:104810005B6E8B434FF02044636613E0B0F5807FFE
:1048200008D1474B1B1D1B688B434FF02044C4F835
:10483000843007E0424B24331B688B434FF0204405
:10484000C4F8A43010BD10B5024600200023102A81
:1048500003D14FF02044636E09E0B2F5807F03D1AD
:10486000374C241D236802E0354C2434236803EAC6
:1048700001040CB1012000E0002010BD102807D178
:104880004FF02042526E8A434FF020435A6613E0A5
:10489000B0F5807F08D12A4A121D12688A434FF072
:1048A0002043C3F8842007E0254A243212688A4353
:1048B0004FF02043C3F8A420704770B50246002093
:1048C000002300240025102A03D14FF02046736EE8
:1048D00009E0B2F5807F03D1194E361D336802E03E
:1048E000174E2436336803EA010403EAD10514B1F4
:1048F0000DB1012000E0002070BD102808D14FF05C
:104900002042526E22EAD1024FF020435A6615E04F
:10491000B0F5807F09D10A4A121D126822EAD1023D
:104920004FF02043C3F8842008E0054A243212687F
:1049300022EAD1024FF02043C3F8A42070470000C0
:10494000800000A0BFFF0F0010B50446CC48844291
:1049500008D10121042000F02DFB0021042000F0EB
:1049600029FB46E0C748844208D10121082000F015
:1049700021FB0021082000F01DFB3AE0C2488442E0
:1049800008D10121102000F015FB0021102000F0BB
:1049900011FB2EE0BD48844208D10121202000F007
:1049A00009FB0021202000F005FB22E0B8488442EA
:1049B00008D10121402000F0FDFA0021402000F044
:1049C000F9FA16E0B348844208D10121802000F0B2
:1049D000F1FA0021802000F0EDFA0AE0AE488442AE
:1049E00007D10121801500F0E5FA0021A01500F0A3
:1049F000E1FA10BD10B50121084600F0DBFA0021F4
:104A0000012000F0D7FA10BD2DE9F0410246002543
:104A10000026002000230024002791F803C00CF09A
:104A20000F0591F803C00CF0100CBCF1000F03D07F
:104A300091F802C04CEA050591F800C0BCF1000FE6
:104A400031D0146800202BE04FF0010C0CFA00F379
:104A5000B1F800C00CEA03069E4220D183004FF05B
:104A60000F0C0CFA03F7BC4305FA03FC4CEA0404F0
:104A700091F803C0BCF1280F06D14FF0010C0CFADD
:104A800000FCC2F814C00AE091F803C0BCF1480F62
:104A900005D14FF0010C0CFA00FCC2F810C0401C0C
:104AA0000828D1D31460B1F800C0BCF1FF0F34DD89
:104AB000546800202EE000F1080C4FF0010808FABD
:104AC0000CF3B1F800C00CEA03069E4221D183002A
:104AD0004FF00F0C0CFA03F7BC4305FA03FC4CEA49
:104AE000040491F803C0BCF1280F05D100F1080CB3
:104AF00008FA0CF8C2F8148091F803C0BCF1480F12
:104B000007D100F1080C4FF0010808FA0CF8C2F8C0
:104B10001080401C0828CED35460BDE8F0814FF6C9
:104B2000FF710180022181700421C170704702462B
:104B3000002093680B400BB1012000E0002070477B
:104B40000146886880B2704702460020D3680B4057
:104B50000BB1012000E0002070470146C86880B218
:104B6000704701617047416170470AB1016100E01F
:104B700041617047C16070474FF480320A438261DF
:104B80008161826182698269704702460020434BDD
:104B900018684FF68073184040EA021008433F4BF4
:104BA000186070473E49C8617047F0B50A46002357
:104BB00000240021002500F00046B6F1004F02D18C
:104BC000364EF16901E0354E7168C0F3034583B29A
:104BD00000F44016B6F5401F08D121F070612F4E49
:104BE000766826F070662D4F7E6012E000F4801625
:104BF000B6F5801F06D1032606FA05F4A14341F05D
:104C0000706106E0460D360103FA06F6B14341F045
:104C1000706122B1460D360103FA06F6314300F009
:104C20000046B6F1004F02D11C4EF16101E01B4E6F
:104C30007160F0BD30B500228B071C0F0F2303FA03
:104C400004F2164B08338C1053F824309343134C62
:104C500008348D1044F8253023468C1053F8243046
:104C60008C07240F00FA04F423430C4C08348D10F5
:104C700044F8253030BD0A49DC3108607047000037
:104C800000080140000C01400010014000140140E8
:104C900000180140001C01400020014000000140BC
:104CA00000002042DF48006840F00100DD49086054
:104CB00008464068DC490840DA4948600846006810
:104CC000DA490840D74908600846006820F4802087
:104CD00008600846406820F4FE0048604FF41F005A
:104CE00088607047CF49096821F48031CD4A11604E
:104CF0001146096821F480211160B0F5803F03D08E
:104D0000B0F5802F0ED106E0C649096841F4803124
:104D1000C44A116007E0C349096841F4A021C14AAF
:104D2000116000E000BF00BF704710B501460022CF
:104D3000002300204A11012A02D1BA4C236806E060
:104D4000022A02D1B74C236A01E0B64C636A01F033
:104D50001F02012494401C400CB1012000E00020FF
:104D600010BD38B5002000900024002500BF312080
:104D7000FFF7DBFF05460098401C00900098B0F557
:104D8000A06F01D0002DF2D03120FFF7CEFF08B187
:104D9000012400E00024204638BD01460020A14A3D
:104DA000106820F0F80040EAC10010607047A04988
:104DB00008607047024600209A4B586820F47C1027
:104DC00042EA01031843974B5860704798490866B8
:104DD000704701460020934A506820F003000843C2
:104DE000506070478F48406800F00C0070470146E3
:104DF00000208C4A506820F0F00008435060704753
:104E000001460020874A506820F4E0600843506063
:104E1000704701460020834A506820F4605040EA01
:104E2000C1005060704729B17E4A527A02437D4BDF
:104E30005A7204E07B4A527A82437A4B5A72704724
:104E40007B49D8310860704701460020754A506898
:104E500020F440400843506070470021714A2032DE
:104E60001170704A82F82010012802D004280AD15B
:104E700004E001216B4A2032117005E00521694AE6
:104E80002032117000E000BF00BF70476949086020
:104E900070476449096A0143624A11627047654973
:104EA00044390860704730B50021002200240023F7
:104EB0005C4D6D6805F00C0121B1042905D008296D
:104EC00023D105E05C4D056022E05B4D05601FE0ED
:104ED000544D6D6805F47012524D6D6805F48034C0
:104EE000022505EB92421CB9544D554305600BE079
:104EF0004C4D6D6805F400351DB1504D55430560AE
:104F000002E04D4D5543056002E04B4D056000BF8A
:104F100000BF444D6D6805F0F0010909484D6B5C18
:104F20000568DD4045603F4D6D6805F4E061090AA4
:104F3000434D6B5C4568DD4085603A4D6D6805F416
:104F40006051C90A3E4D6B5C4568DD40C560354D1A
:104F50006D6805F44041890B3A4D6B5CC568B5FB43
:104F6000F3F5056130BD29B12E4A526902432D4B3C
:104F70005A6104E02B4A526982432A4B5A617047B6
:104F800029B1284A92690243264B9A6104E0254AD6
:104F900092698243234B9A61704729B1214AD269B1
:104FA0000243204BDA6104E01E4AD26982431D4B62
:104FB000DA61704729B11B4AD2680243194BDA60A3
:104FC00004E0184AD2688243164BDA60704729B170
:104FD000144A12690243134B1A6104E0114A126920
:104FE0008243104B1A61704712494039086070477C
:104FF0000F49C86470470B49C87170470948406A37
:1050000040F0807007494862704701460020054A19
:1050100092680A400AB1012000E00020704701496F
:1050200088727047001002400000FFF8FFFFF6FE94
:10503000000042428004424200127A0000093D0012
:10504000450100205501002010B50446FE48844269
:1050500008D10121C014FFF7ADFF0021E014FFF7D4
:10506000A9FFC4E0B4F1804F08D101210846FFF741
:10507000AEFF00210120FFF7AAFFB8E0F348844209
:1050800008D101210220FFF7A2FF00210220FFF733
:105090009EFFACE0EE48844208D101210420FFF7D6
:1050A00096FF00210420FFF792FFA0E0E948844228
:1050B00008D101210820FFF78AFF00210820FFF70F
:1050C00086FF94E0E448844208D101211020FFF7D4
:1050D0007EFF00211020FFF77AFF88E0DF4884423E
:1050E00008D101212020FFF772FF00212020FFF7C7
:1050F0006EFF7CE0DA48844208D101214014FFF7BA
:1051000059FF00216014FFF755FF70E0D548844235
:1051100009D10121C804FFF74DFF00214FF4002001
:10512000FFF748FF63E0D048844209D10121080518
:10513000FFF740FF00214FF48010FFF73BFF56E0E0
:10514000CA48844209D101214805FFF733FF0021F5
:105150004FF40010FFF72EFF49E0C548844208D104
:1051600001214020FFF733FF00214020FFF72FFFF0
:105170003DE0C048844208D101218020FFF727FF8D
:1051800000218020FFF723FF31E0BB48844208D193
:1051900001218015FFF71BFF0021A015FFF717FF66
:1051A00025E0B648844209D101210804FFF702FF37
:1051B00000214FF48030FFF7FDFE18E0B048844234
:1051C00009D101214804FFF7F5FE00214FF400301A
:1051D000FFF7F0FE0BE0AB48844208D101218804C0
:1051E000FFF7E8FE00214FF48020FFF7E3FE10BD3B
:1051F00000220288944B98420ED0994B98420BD0D3
:10520000B0F1804F08D0914B984205D0904B984216
:1052100002D0904B984204D14FF68F731A404B88BE
:105220001A438D4B984207D08C4B984204D04FF6CE
:10523000FF431A40CB881A4302808B8883850B88F2
:105240000385814B98420BD0854B984208D08B4BFD
:10525000984205D08A4B984202D08A4B984201D19D
:105260000B7A038601238382704770B500240022E5
:105270000023058C4FF6FE7635400584028C83882A
:10528000048B4FF68F752C40B51E2C400D882C4397
:10529000751E2A400D892A434D882A436A4DA8422B
:1052A0000BD06F4DA84208D0744DA84205D0744D64
:1052B000A84202D0734DA84213D14FF6F7752A4089
:1052C0004D892A434FF6FB752A408D882A434FF6B5
:1052D000FF652B404FF6FF552B408D892B43CD8921
:1052E0002B4383800483CD888586028470BD70B58E
:1052F000002400220023058C4FF6EF76354005840C
:10530000028C8388048B48F6FF752C404FF6FF45CE
:105310002C400D884FF6FF7606EA05252C434FF604
:10532000DF752A400D8906EA05152A434D8806EAED
:1053300005152A43444DA84202D0494DA8421DD12B
:105340004FF67F752A404D894FF6FF7606EA051520
:105350002A434FF6BF752A408D8806EA05152A4371
:105360004FF6FF352B404FF2FF752B408D8906EA33
:1053700085052B43CD8906EA85052B43838004836D
:10538000CD880587028470BD70B5002400220023FB
:10539000058C4FF6FF6635400584028C8388848B2C
:1053A0004FF68F752C404FF6FC752C400D882C4322
:1053B0004FF6FF552A400D894FF6FF7606EA052580
:1053C0002A434D8806EA05252A431F4DA84202D0EC
:1053D000234DA8421DD14FF2FF752A404D894FF64B
:1053E000FF7606EA05252A434FF6FF352A408D88C9
:1053F00006EA05252A434EF6FF752B404DF6FF754C
:105400002B408D8906EA05152B43CD8906EA051543
:105410002B4383808483CD888587028470BD70B5DB
:10542000002200230024058C4EF6FF7635400584CB
:10543000038C8488828B48F6FF752A404FF6FF451F
:105440002A400D8820E00000002C014000040040AC
:1054500000080040000C0040001000400014004014
:1054600000340140004C0140005001400054014014
:1054700000180040001C0040002000400040014097
:1054800000440140004801404FF6FF7606EA05253A
:105490002A434DF6FF752B400D8906EA05352B434F
:1054A0004D8806EA05352B43FA4DA84202D0FA4D45
:1054B000A84208D14BF6FF752C408D894FF6FF7638
:1054C00006EA85152C4384808283CD88A0F840505D
:1054D000038470BD828B4FF2FF331A408283828B2C
:1054E0004FF6FF7303EA01231A4382837047F0B536
:1054F0000C461546002200210026078C4EF6FF7C44
:1055000007EA0C070784828B018C4FF6FF7707EAC6
:10551000043640F6FF473A404FF6FF7707EA052783
:105520003A434FF6FF7707EA03373A43D94FB84279
:105530000ED0D94FB8420BD0B0F1804F08D0D74F22
:10554000B84205D0D64FB84202D0D64FB84206D1A5
:105550004DF6FF77394046F48057394305E047F66A
:10556000FF57394044F48057394382830184F0BDAA
:10557000828B4FF6F3731A408283828B0A438283B5
:105580007047F0B50C461546002200210026078C16
:105590004FF6FF6C07EA0C070784828B018C4FF6ED
:1055A000FF7707EA04264FF60C773A404FF6FF776D
:1055B00007EA03172F433A43B64FB8420ED0B64F0F
:1055C000B8420BD0B0F1804F08D0B44FB84205D0EC
:1055D000B34FB84202D0B34FB84206D14FF6FF578F
:1055E000394046F48077394305E04FF2FF573940A0
:1055F00044F48077394382830184F0BD028B4FF2FB
:10560000FF331A400283028B4FF6FF7303EA012334
:105610001A4302837047F0B50C461546002200215C
:105620000026078C4FF6EF7C07EA0C070784028BF5
:10563000018C4FF6FF7707EA041640F6FF473A4021
:105640004FF6FF7707EA03373A434FF6FF7707EA4B
:1056500005273A438F4FB8420ED08F4FB8420BD038
:10566000B0F1804F08D08D4FB84205D08C4FB84272
:1056700002D08C4FB84206D14FF6DF77394046F062
:105680001007394305E04FF65F77394044F01007C3
:10569000394302830184F0BD028B4FF6F3731A4045
:1056A0000283028B0A4302837047F0B50C4615460D
:1056B00000220021068C4FF6FE773E400684028BC6
:1056C000018C4FF60C7632407E1C06EA03162E4300
:1056D0003243704EB0420ED06F4EB0420BD0B0F19C
:1056E000804F08D06D4EB04205D06D4EB04202D012
:1056F0006C4EB04206D14FF6FD76314044F00106C3
:10570000314305E04FF6F576314044F00106314370
:1057100002830184F0BD70B505460C465D488542A4
:105720000ED05D4885420BD0B5F1804F08D05B4864
:10573000854205D05A48854202D05A48854200D158
:1057400000E000BF208850B92389A28861882846DC
:10575000FFF7ABFFE1882846FFF79EFF25E0208892
:1057600004280AD12389A28861882846FFF753FFBD
:10577000E1882846FFF742FF17E0208808280AD171
:105780002389A28861882846FFF7FBFEE188284626
:10579000FFF7EEFE09E02389A28861882846FFF71B
:1057A000A6FEE1882846FFF795FE70BD2DE9F04181
:1057B00005460C4600260127608808B9022600E04D
:1057C0000026A088012801D1022700E001272088B7
:1057D000A0B92389A28861882846FFF766FFE1887F
:1057E0002846FFF759FF23893A4631462846FFF7F6
:1057F00012FFE1882846FFF701FF13E02389A28802
:1058000061882846FFF707FFE1882846FFF7F6FE84
:1058100023893A4631462846FFF747FFE188284664
:10582000FFF73AFFBDE8F0810A884B881A438B885E
:105830001A43CB881A430B891A434B891A438B8925
:105840001A43A0F8442070474FF6FF718180002171
:105850000180C18041800172704700210180418038
:105860008180C180018141818181C1817047002196
:1058700001804180012181800021C1800181704728
:105880000021018041808180C1800181418181812D
:1058900070470000002C014000340140000400402B
:1058A00000080040000C004021B1028842F00102D3
:1058B000028004E002884FF6FE731A4002807047AF
:1058C00031B1B0F8442042F40042A0F8442005E091
:1058D000B0F84420C2F30E02A0F8442070471AB179
:1058E00083890B43838102E083898B4383817047E3
:1058F0008182704741EA0203A0F8483070471AB12C
:1059000083890B43838102E083898B4383817047C2
:1059100001894FF6F8721140018170470A46002153
:1059200001894FF68F73194011430181704730B5DB
:1059300004460D4629462046FFF7F0FF208940F037
:105940000700208130BD2DE9F04104460D46164682
:105950001F46602D06D13B46012231462046FFF707
:105960005AFE05E03B46012231462046FFF79DFEE8
:1059700029462046FFF7D2FF208940F0070020810A
:10598000BDE8F08130B50C4600210189C9B24FF65F
:10599000FF7505EA0325154325432943018130BDE1
:1059A0002DE9F04105460E46174698460024434629
:1059B0003A4631462846FFF7E5FF2C894FF6F87046
:1059C000044044F007044FF68F70044044F0700424
:1059D0002C81BDE8F081F0B504460D4616461F4601
:1059E0003B46324629462046FFF7CCFF208940F44B
:1059F00080402081F0BD0185828270470A460021E7
:105A000001884FF68F731940114301807047F0B53C
:105A10000C4615461E460021002200230189028BF8
:105A2000038C4FF6F877394021434FF6FC473A4054
:105A300040F201173A434FF6DD773B404FF6FF77D0
:105A400007EA06172F433B43018102830384F0BD1D
:105A50000A460021018B4FF68F73194011430183D1
:105A600070470A460021018B48F6FF7319404FF634
:105A7000FF7303EA02231943018370470A4600219A
:105A8000818B4FF68F7319401143818370470A460B
:105A90000021818B48F6FF7319404FF6FF7303EA2C
:105AA000022319438183704721B1028842F08002AA
:105AB000028004E002884FF67F731A40028070472C
:105AC00021B1828842F00402828004E082884FF68D
:105AD000FB731A408280704721B1828842F008022D
