:020000040800F2
:1000000030F60020290D0008310B0008330B0008E2
:10001000370B00083B0B00083F0B000800000000F6
:10002000000000000000000000000000430B00087A
:10003000450B000800000000DBB10108850D000839
:10004000430D0008430D0008430D0008430D000850
:10005000430D0008430D0008430D0008430D000840
:10006000430D0008430D0008430D0008430D000830
:10007000430D0008430D0008430D0008430D000820
:10008000430D0008430D0008430D0008430D000810
:10009000E12C0008430D0008430D00088B160008F2
:1000A000430D0008430D0008430D0008430D0008F0
:1000B000430D0008430D0008430D0008430D0008E0
:1000C000430D0008430D0008430D0008430D0008D0
:1000D000430D0008FB0F0008430D00087D100008C9
:1000E000430D0008430D0008430D0008430D0008B0
:1000F000430D0008430D0008430D0008430D0008A0
:10010000430D0008430D0008430D0008430D00088F
:10011000430D0008430D0008430D0008430D00087F
:10012000430D0008430D0008430D0008430D00086F
:1001300000F002F800F071F80AA090E8000C824488
:100140008344AAF10107DA4501D100F066F8AFF265
:10015000090EBAE80F0013F0010F18BFFB1A43F0A5
:1001600001031847E0BE010000BF01000A444FF040
:10017000000C10F8013B13F0070408BF10F8014B06
:100180001D1108BF10F8015B641E05D010F8016B4B
:10019000641E01F8016BF9D113F0080F1EBF10F8AF
:1001A000014BAD1C0C1B09D16D1E58BF01F801CBD2
:1001B000FAD505E014F8016B01F8016B6D1EF9D555
:1001C0009142D6D37047000000230024002500266A
:1001D000103A28BF78C1FBD8520728BF30C148BFAA
:1001E0000B60704764291BF0918078291BF0CA804E
:1001F00063291BF06A8373291BF06F83002070470B
:100200001FB51BF0FBFA0400002000211BF0D2FBFD
:10021000401C60601FBD10B510BD1BF095FB114662
:10022000FFF7EEFF00F0A5FB1BF0B3FB03B4FFF7F5
:10023000F2FF03BC00F030FE00BF002500240027C1
:10024000BEA004F0BDFFCDA004F0BAFFDBA004F017
:10025000B7FFEAA004F0B4FF6EE005F03BF8F74802
:10026000007838B932230022114610461AF090FE69
:10027000002446E0002F3ED141F27070854202DA40
:10028000681C85B200E00025ED480078AA2804D15A
:100290000020EB4908704FF47A74502C03DA601C8C
:1002A00084B2002627E0B4F5E16F15DA601C84B251
:1002B0001E2095FBF0F100FB1150E0B9E1480078F9
:1002C00040F04000DF490870701CC6B2224631463B
:1002D000DDA01AF0BFFF0EE041F28834C82095FB84
:1002E000F0F100FB1150012805D1D648007840F00C
:1002F0004000D449087032230022114610461AF0FB
:1003000047FEDD48007800F08000802814D10020EE
:10031000D9490870AA27D9481AF09CFFC948007823
:1003200020F04000C7490870D54802F0CFF9D44802
:100330008078662800D100BF8FE788B01D20079025
:1003400005200690002005900027049000244FF01F
:10035000500983460390102107F09BFA05460020C0
:10036000C8490870C84908600120C849C1F89C0103
:10037000C549083908604FF4FA7302220021084683
:100380001AF006FE01F03AFFBE480178C0A01AF04C
:1003900061FFC8230022114610461AF0F9FDC74834
:1003A00002F0F9FEC8230022114610461AF0F0FDB3
:1003B000C3A01AF04FFF02F00DFFC6A01AF04AFFCB
:1003C0000120B1490860091F0860B049C1F89801CF
:1003D000C14800780790C148007806905AE0AA48C2
:1003E000006808B9012000E00020A7490860A7487C
:1003F000D0F89C0108B9012000E00020A249091FA3
:100400000860A248D0F8980108B9012000E0002057
:100410009D49083908604946B1A01AF01BFF04A89D
:1004200002F0F7FE00282BD09DF8130000909DF8F5
:1004300012309DF811209DF81010ABA01AF00AFFA1
:1004400004A801F03DFE06463146ADA01AF002FFB9
:10045000512E15DC04A9304602F0D4FDAB49885575
:100460000846805D30B90846825D3146A8A01AF082
:10047000F1FE05E0A548825D3146ACA01AF0EAFE27
:10048000A9F1010000F0FF090523002211461046E2
:100490001AF07EFDB9F1000FA1D100207A49086061
:1004A00001207A49C1F89C01774908390860C823BE
:1004B0000022114610461AF06BFD804802F06BFED8
:1004C000C8230022114610461AF062FD7B4802F054
:1004D00062FEAA20594908709BA01AF0BBFE1EE2DA
:1004E00002F082FB7C4909780798884204D17B4955
:1004F00009780698884213D07748017877480078C1
:1005000002F071FE022F02DC781CC7B208E000275F
:10051000002003907048007807907048007806909B
:10052000944909780598884206D0644802F033FE61
:10053000022F02DC781CC7B222E11DE10D0A3D3D0D
:100540003D3D3D3D3D3D3D3D3D3D3D3D3D3D3D3DDB
:10055000204D61696E204D656E75203D3D3D3D3DF0
:100560003D3D3D3D3D3D3D3D3D3D3D3D3D3D3D3DBB
:100570003D3D3D3D3D3D3D0D0A0A00002020446FBC
:10058000776E6C6F616420496D61676520546F20E0
:100590007468652053544D33324631307820496EAB
:1005A0007465726E616C20466C617368202D2D2D10
:1005B0002D2D2D2D20310D0A0A0000002020557010
:1005C0006C6F616420496D6167652046726F6D20B4
:1005D0007468652053544D33324631307820496E6B
:1005E0007465726E616C20466C617368202D2D2DD0
:1005F0002D2D2D2D20320D0A0A00000020204578D7
:10060000656375746520546865204E657720507267
:100610006F6772616D202D2D2D2D2D2D2D2D2D2DE2
:100620002D2D2D2D2D2D2D2D2D2D2D2D2D2D2D2DFA
:100630002D2D2D2D20330D0A0A0000000900002069
:100640002C000020F90000200D0A20BFECB5DDD001
:10065000C4CCF8B0FCB7A2CBCDD7B4CCAC2CB7A2ED
:10066000CBCDB4CECAFD2532642CBCC6CAFDD6B5EE
:10067000A3BA25642E0000001400002014BD010858
:100680000A0700203C020020A00122420000224272
:10069000C9CFB5E7BCECB2E2466C617368C4DAC29C
:1006A000DFBCADB5D8D6B7CDEAB3C92120D7DCCFF2
:1006B000DFA3BA2532642E0D0A00000018000020C6
:1006C0000D0ACEB4D7A2B2E1B9E3B2A521200D0A3A
:1006D000000000000D0A0000150000201600002098
:1006E000253032642E200000CEEFC0EDA3BA2530B5
:1006F00032582530325825303258253032583B0098
:10070000C2DFBCAD3A2530643B000000AA060020E1
:100710005665725B253032645D3D253032582CB70A
:10072000D6C5E4CAA7B0DCA3A10D0A005665725B6A
:10073000253032645D3D253032582CB7D6C5E4B340
:10074000C9B9A6A3A10D0A000D0AC9CFB5E7BCEC33
:10075000B2E2CEB4D7A2B2E1B3ACCAB1A3ACBDF899
:10076000C8EBD5FDB3A3B4FDBBFAD7B4CCAC3B0DFD
:100770000A000000170000200027B248007805900A
:10078000502C7DDA611CC8B203F00CF8C4EBC40035
:10079000AD4911F8100000F00300002870D0AA2025
:1007A0002870C4EBC40011F8100000F00300012809
:1007B00002D1112068700AE0C4EBC400A24911F80C
:1007C000100000F00300022801D113206870C4EB70
:1007D000C4009D4901EB40004078A870C4EBC40000
:1007E00001EB40008078E870C4EBC40001EB4000EE
:1007F000C0782871C4EBC40001EB40000079687137
:10080000C4EBC40001EB40004079A871C4EBC40004
:1008100001EB40008079E871C4EBC40001EB4000BB
:10082000C0792872C4EBC40001EB4000007A687202
:10083000C4EBC40001EB4000407AA872C4EBC400D2
:1008400001EB4000807AE872C4EBC40001EB400089
:10085000C07A2873C4EBC40001EB4000007B6873CE
:10086000AC73C4EBC40001EB4000407BE873294645
:100870007648006819F076FC8246BAF1000F00E075
:1008800010E003D02946002006F0F3FFC4EBC400BB
:100890006D4911F8100020F00300C4EBC4016A4A4E
:1008A00002F8110002AA01216948006819F092FBC0
:1008B00080469DF8080028B9B8F1000F02D04046E4
:1008C00003F0A6F84146002006F0D3FF512C0EDDC0
:1008D00060A01AF0BFFC0024BBF1320F04DA0BF168
:1008E000010000F0FF0B04E04FF0000B01E0601C82
:1008F000C4B20398B0F5702F08D900200390574870
:1009000001785748007802F06EFC02E00398401C22
:1009100003900A230022114610461AF039FBDFE546
:1009200070B5044600BF40214E4819F07FFA48498F
:10093000086040214C4819F079FA4449086018F0E1
:1009400055F91AF023FC05460A23484A0021AFF264
:10095000156019F0A3FF0923454A0021AFF2277063
:1009600019F09CFFFF201AF019FA28461AF012FC21
:1009700070BD08B500F012FA4FF4407004F088FE24
:1009800000F099FA00F0CCFB002005230622072195
:10099000009002F02DF9002006F0B5FE35A01AF007
:1009A00059FC11213AA01AF055FC00213EA01AF082
:1009B00051FC03F02BFA03F0A3FE01F065F900BF30
:1009C00001F0F2F90028FBD13CA01AF043FC4FF4EF
:1009D000FA7000F034FA17F0D4FF0AE03CA01AF0E5
:1009E00039FC4FF4FA7000F02AFA4FF4FA7000F074
:1009F00026FA07F022F90028F0D13AA01AF02AFCD2
:100A00000AE03EA01AF026FC4FF4FA7000F017FA44
:100A10004FF4FA7000F013FA07F05BFE0028F0D1F3
:100A20004FF4FA7000F00BFA3AA01AF013FC0C2302
:100A30003E4A0021AFF2171019F030FF18F0BEF84F
:100A4000002008BD170000203C02002034000020D8
:100A5000300000200D0A0D0A0000000015000020E3
:100A6000160000202C1500202C1600202813002032
:100A7000280B00205374617274696E6720557020D2
:100A800059434B4A2D4143552E2E2E0D0A0000008E
:100A900056657273696F6E4E6F3A20253032582E4C
:100AA0002E2E0D0A0000000054657374466C6167B9
:100AB0003A2025642E2E2E0D0A00000041543234B7
:100AC0004358585F436865636B204F4B210D0A0004
:100AD0004C77697020496E6974206661696C656441
:100AE000210D0A004C77697020496E697420537596
:100AF0006363657373210D0A0000000054435020A6
:100B0000436C69656E74206661696C656421210DB2
:100B10000A00000054435020436C69656E742053F2
:100B2000756363657373210D0A00000028150020AA
:100B3000704700BFFEE700BFFEE700BFFEE700BF53
:100B4000FEE77047704700000CB500200190009050
:100B50006C48006840F480306A49086000BF69480A
:100B6000006800F4003000900198401C019000984B
:100B700018B90198B0F5A06FF1D16248006800F48F
:100B8000003010B10120009001E00020009000989A
:100B9000012843D15C48006840F010005A490860C1
:100BA0000846006820F0030008600846006840F02E
:100BB000020008605348406852494860084640684F
:100BC00048600846406840F48060486008464068D5
:100BD00020F47C1048600846406840F4E810486003
:100BE0000846006840F08070086000BF4548006813
:100BF00000F000700028F9D04248406820F003005F
:100C0000404948600846406840F00200486000BF24
:100C10003C48406800F00C000828F9D10CBD10B524
:100C2000FFF792FF10BD10B53648006840F0010094
:100C300034490860084640683449084031494860F2
:100C400008460068324908402E4908600846006896
:100C500020F4802008600846406820F4FE004860C8
:100C60004FF41F008860FFF7DAFF4FF0006029495A
:100C7000086010BD10B5002100200022214B5B68E8
:100C800003F00C0121B1042906D0082928D107E07E
:100C9000214B224C236027E01F4B204C236023E094
:100CA000184B5B6803F47010164B5B6803F48032DA
:100CB000022303EB904022B9194B4343174C2360A6
:100CC0000DE0104B5B6803F4003323B1144B434336
:100CD000124C236003E0104B4343104C236003E0AD
:100CE0000D4B0E4C236000BF00BF064B5B68C3F387
:100CF00003130C4CE15C094B1B68CB40074C236091
:100D000010BD000000100240002002400000FFF86B
:100D1000FFFFF6FE08ED00E000127A003800002028
:100D200000093D003C000020094880470948004771
:100D3000FEE7FEE7FEE7FEE7FEE7FEE7FEE7FEE78B
:100D4000FEE7FEE704480549054A064B70470000E8
:100D5000270C00083101000830F0002030F6002098
:100D600030F2002030F2002010B517F0B9FE10BDAF
:100D700010B517F0FAFE10BD10B5044620461AF063
:100D8000D5F810BD10B53E480078012805D117F000
:100D90000EFE17F04AFF17F025FE10BD10B56FF0DC
:100DA000040004F0C4FC374800683749B0FBF1F098
:100DB00036490870334800683349B0FBF1F441F21A
:100DC000883044430520324908804FF0E020006914
:100DD00040F002004FF0E0210861084644610069DC
:100DE00040F00100086110BD2DE9F04707460026DC
:100DF0004FF0E020D0F814902448007807FB00F86A
:100E000000BFFFF7B1FF4FF0E020856911E04FF020
:100E1000E0208469AC420CD0AC4202D2281B0644CC
:100E200003E0A9EB0400284406442546464500D3C8
:100E300000E0ECE700BFFFF79BFFBDE8F08770B56F
:100E400004460F480078A0B11248007888B91048CD
:100E50000088844206DB0E48008894FBF0F52846A3
:100E6000FFF78AFF0A48008894FBF0F100FB11406D
:100E700084B24FF47A7104FB01F0FFF7B5FF70BD47
:100E80001A0200203800002000127A004C000020D6
:100E90004E0000200D020020014600BF704700BF39
:100EA000974A128802F04002002AF9D0C2B2944B4D
:100EB0001B1D1A80704700B587B0012144F2040061
:100EC00005F076FA4FF40070ADF8180003208DF8A5
:100ED0001A0018208DF81B0006A98A4804F0ACFF00
:100EE0004FF48060ADF8180004208DF81B0006A9AF
:100EF000844804F0A1FF25208DF8040003208DF81C
:100F0000050001208DF806008DF8070001A804F007
:100F1000C4FB4FF4E13002900020ADF80C00ADF8B6
:100F20000E00ADF81000ADF814000C20ADF8120062
:100F300002A9734805F0E3FA012240F225517048F6
:100F400005F075FB01216E4805F065FB40216C48FA
:100F500005F049FC0121092005F02AFA0121880445
:100F600005F033FA4FF48060ADF8180018208DF8C2
:100F70001B0003208DF81A0006A9634804F05CFFEB
:100F80004FF40060ADF8180004208DF81B0006A98E
:100F90005D4804F051FF27208DF8040003208DF8F0
:100FA000050002208DF8060001208DF8070001A839
:100FB00004F073FB4FF4E13002900020ADF80C0018
:100FC000ADF80E00ADF81000ADF814000C20ADF82F
:100FD000120002A94D4805F092FA012240F2255173
:100FE0004A4805F024FB0121484805F014FB402144
:100FF000464805F0F8FB07B000BD10B517F0D7FC68
:1010000040F225513E4805F0F7FB10B33C4805F08F
:1010100073FBC4B23E48008800F40040C8B93C48A5
:10102000008800F4804060B10A2C03D000203849C9
:10103000088020E03648008840F4004034490880A9
:1010400019E00D2C06D13248008840F48040304928
:10105000088010E02E480088C0F30D002D490C5484
:101060002B480088401C2A49088008460088C72869
:1010700001DD0020088017F0B5FC10BD10B517F099
:1010800096FC40F22551214805F0B6FB10B31F48ED
:1010900005F032FBC4B22048008800F40040C8B913
:1010A0001D48008800F4804060B10A2C03D0002065
:1010B0001949088020E01848008840F4004016498B
:1010C000088019E00D2C06D11348008840F48040B8
:1010D0001149088010E010480088C0F30D000F4946
:1010E0000C540D480088401C0B49088008460088B5
:1010F000202801DD0020088017F074FC10BD0000DE
:101100000038014000080140000C01400048004048
:10111000540000202C17002056000020F417002057
:1011200008B50121102005F043F94FF4E070ADF847
:10113000000010208DF8030003208DF8020069469E
:10114000084804F079FE4021064804F022FF80217F
:10115000044804F01EFF4FF48071024804F019FFA8
:1011600008BD000000100140FC4A10804FF0C8424A
:10117000A2F8001170470146F84801804FF0C840BE
:10118000B0F80001704770B5044644F040010C20EF
:10119000FFF7EAFF0C210B20FFF7E6FF0A20FFF71D
:1011A0004EFE00210B20FFF7DFFF0D20FFF7E3FFCE
:1011B00002460E20FFF7DFFF42EA002085B22846F4
:1011C00070BD70B50024E6480078082811D108E009
:1011D0006420FFF734FE601CC4B2642C01DDFF20E4
:1011E00070BD0120FFF7CFFF00F020000028EFD0F6
:1011F00010E008E06420FFF722FE601CC4B2642CFB
:1012000001DDFF20ECE70120FFF7B5FF00F0400013
:101210000028EFD00120FFF7AEFF022101EAA01560
:101220000020FFF7A8FFC0F3C00005432846D7E71A
:1012300010B50446002306E0E15C03F11600FFF759
:1012400093FF581CC3B2082BF6DB10BD10B5044643
:10125000002306E0E15C03F11000FFF785FF581C56
:10126000C3B2062BF6DB10BD70B505460C4645F043
:1012700040010C20FFF778FFE1B20D20FFF774FF6B
:10128000210A0E20FFF770FF0A210B20FFF76CFFE9
:101290003220FFF7D4FD00210B20FFF765FF70BD62
:1012A00070B50646092E1BD2DFE806F0050C1A1AA7
:1012B00008101A1A15000024212511E04FF480743B
:1012C00041250DE04FF40054812509E04FF404540A
:1012D00040F2011504E04FF4805440F2E11500BFE4
:1012E00000BF21460020FFF7BFFF29460420FFF77B
:1012F000BBFF00211F20FFF737FF70BD00B528207E
:10130000FFF739FF02462920FFF735FF42EA0022A6
:101310002A20FFF730FF42EA00422B20FFF72BFF85
:1013200042EA0062104600BD10B500208D490860F9
:101330000A20FFF784FD01208B49C1F89C0164203D
:10134000FFF77DFD01211E20FFF70EFF00211F206A
:10135000FFF70AFF03210020FFF706FF00BF192057
:10136000FFF76DFD0020FFF706FF00F001000028E9
:10137000F5D100210846FFF7F7FE03210020FFF713
:10138000F3FE00BF1920FFF75AFD0020FFF7F3FE20
:1013900000F001000028F5D110BD10B59AB0012170
:1013A0004FF4F07005F004F80121080204F0F3FF97
:1013B0000121084604F0FCFF8020ADF86400032002
:1013C0008DF8660010208DF8670019A9674804F0B1
:1013D00033FD4020ADF8640048208DF8670019A95E
:1013E000634804F029FD4CF23370ADF8640003202B
:1013F0008DF8660018208DF8670019A95B4804F085
:101400001BFD4FF68070ADF8640003208DF8660078
:1014100018208DF8670019A9564804F00DFD4FF407
:101420000050ADF8640003208DF8660018208DF898
:10143000670019A9504804F0FFFC4FF40070ADF8A4
:10144000640003208DF8660018208DF8670019A944
:10145000474804F0F1FC0621084604F003FE402052
:10146000179000208DF860000C208DF8610001209D
:101470008DF8620017A805F011FA402005F085FAF2
:1014800017208DF8580001208DF8590000208DF8A4
:101490005A0001208DF85B0016A804F0FEF8002029
:1014A000009001900320029000200390049005908A
:1014B00006900220079000200890099010200A90C2
:1014C00000200B900C900D900E900F904FF48050D8
:1014D00010900020119012901390CDF850D0CDF8BC
:1014E00054D007A804F08EF90121022004F0F2FA8A
:1014F0002248046808201A4908700020488081208A
:10150000487002200871002115484171200E1449CD
:101510008871210C1248C171210A01724472FF20A6
:101520000F498872FF210E48C172017341738173A4
:10153000C17301744174FFF7F7FE6420FFF77FFC6D
:10154000FFF7DCFE044621460DA019F083FE10488B
:1015500084421FD001201AB010BD0000FE000064BC
:10156000BC1800209C8122420080224200140140CD
:101570000020014000180140001C0140E8F7FF1F57
:10158000444D393030302049443A2523780D0A0043
:10159000460A0090CC490878FFF782FE00210846F1
:1015A000FFF7E2FD00210220FFF7DEFD3F210820CA
:1015B000FFF7DAFD38210920FFF7D6FD00210A20C8
:1015C000FFF7D2FD00212F20FFF7CEFD2C210120B7
:1015D000FFF7CAFD0F21FE20FFF7C6FD80212D2059
:1015E000FFF7C2FDB848001DFFF730FEB6480A30CD
:1015F000FFF71EFE31210520FFF7B6FD8021FF20F9
:10160000FFF7B2FDFFF7DDFD0446FF2C11D004F01B
:10161000010008B1ADA000E0AEA0024604F0020057
:1016200008B10A2000E064200146ACA019F012FEC7
:1016300002E0B5A019F00EFEA3484178FF20FFF7A5
:1016400093FD00201AB010BD70B5B7480588FE2084
:10165000FFF791FD04462146FE20FFF785FD04F0CB
:10166000040010B1B1A019F0F5FD04F0080010B1AC
:10167000B1A019F0EFFD04F0010018B1B648006800
:1016800018F0F5FFA848058070BD10B517F08FF968
:101690004020B249086001E0FFF7D6FFB04800687B
:1016A0000028F9D017F09EF910BD2DE9FC41044641
:1016B000002700266A460021AA48006818F0CFF9E2
:1016C0008021FF20FFF750FDF8209749088025462C
:1016D0001BE06889B84216DD3846791C8FB26A680B
:1016E000125C3046711CCEB201A90A54022E0CD1F4
:1016F0009DF804009DF8051040EA01208A49891CE4
:101700000880002601E02D680027002DE1D1012E80
:1017100004D19DF804008449891C0880217AFC20AA
:10172000FFF722FD2089010AFD20FFF71DFD0121A1
:101730000220FFF719FD00BFFE20FFF71CFD00F09F
:1017400002000028F8D00221FE20FFF70DFD5E48C0
:101750004178FF20FFF708FD8248006818F0A1FAE1
:10176000BDE8FC812DE9FF4100246A4600217D4847
:10177000006818F074F900BFF020FFF7FCFC6A481D
:10178000801C008800F0FF08B8F1000F78D0B8F195
:10179000010F0ED974A019F05DFD00210520FFF79F
:1017A000E3FC8021FE20FFF7DFFC204604B0BDE80B
:1017B000F081F2205C4908804FF0C840B0F8000189
:1017C0000390881C008802900322BDF80810104680
:1017D0000CF0A4F804468CB125460CE06F686E89C5
:1017E00006E04FF0C840B0F800013880BF1CB61EBC
:1017F000002EF6DC2D68002DF0D110E0BDF80810A9
:1018000062A019F027FD01AFBDF8086005E04FF0B8
:10181000C840B0F800013880B61E002EF7D1BDF8E0
:101820000C0000F43F4040B9BDF80800402804DB3C
:10183000BDF80800B0F5C06F3FDDBDF80C1059A031
:1018400019F008FDBDF80C0000F4807010B159A02B
:1018500019F000FDBDF80C0000F4007010B159A0A3
:1018600019F0F8FCBDF80C0000F4004010B159A0CC
:1018700019F0F0FCBDF80800B0F5C06F0BDD00E01A
:101880000FE059A019F0E6FC01210020FFF76CFCE5
:101890000520FFF7D4FA14B120460BF0B7FF00245F
:1018A0006AE70221FE20FFF75FFC812006494870AD
:1018B00008464178FF20FFF757FC2A48006818F0D7
:1018C000F0F9204672E70000BC18002046756C6CE9
:1018D0000000000048616C6600000000444D393093
:1018E00030302053706565643A25644D6270732C06
:1018F0004475706C65783A2573206475706C6578F2
:10190000206D6F64650D0A00444D3930303020453C
:10191000737461626C697368204C696E6B204661F8
:10192000696C6564210D0A00FE0000646F766572C3
:10193000666C6F77200D0A006F766572666C6F7744
:1019400020636F756E746572206F766572666C6F5A
:1019500077200D0A00000000AC00002014040140B4
:1019600018012442B0000020646D393030302072FC
:10197000783A207278206572726F722C2073746FBF
:1019800070206465766963650D0A00007062756693
:10199000C4DAB4E6C9EAC7EBCAA7B0DC3A25640DDD
:1019A0000A00000072785F7374617475733A2523BE
:1019B000780D0A007278206669666F206572726F12
:1019C000720D0A00727820637263206572726F7202
:1019D0000D0A00007278206C656E6774682065726D
:1019E000726F720D0A0000007278206C656E677469
:1019F0006820746F6F206269670D0A0010B5024697
:101A0000002006E013784340034CE05C521C4B1E60
:101A1000D9B20029F6DC10BDE0B9010808B50121F2
:101A2000082004F0C5FCC020ADF8000010208DF89F
:101A3000030003208DF802006946904804F0FCF989
:101A4000C0218E4804F0A5FA08BD10B58B48006887
:101A500020F07040894908600846006840F0405016
:101A600008600120864908608649C1F89801042071
:101A7000FFF7BAF90020824908600420FFF7B4F9A3
:101A800000208049C1F8980110BD10B57B4800685E
:101A900020F07040794908600846006840F04050E6
:101AA000086000207649091F08607649C1F89C014A
:101AB0000420FFF799F901207149091F0860714955
:101AC000C1F89C010420FFF78FF910BD10B5002468
:101AD0006A48006820F0704068490860084600685D
:101AE00040F000400860012065490860FFF77CF97C
:101AF00001206449C1F89801FFF776F907E0601CFE
:101B0000C4B2FA2C03DDFFF7C0FF012010BD5C4812
:101B1000803800680028F2D15949091F086000BFC9
:101B2000F4E710B500205649091F086053480068C3
:101B300020F07040514908600846006840F040506D
:101B4000086000204F49C1F89C010220FFF74CF9C2
:101B500001204B49091F08600220FFF745F90020CA
:101B60004849C1F8980110BD10B500204449091F2B
:101B700008604248006820F070404049086008460C
:101B8000006840F04050086001203E49C1F89C01C7
:101B90000220FFF729F901203949091F08600220B6
:101BA000FFF722F900203749C1F8980110BD70B540
:101BB00004463248006820F070403049086008460A
:101BC000006840F04050086000202D49091F08605F
:101BD00000251DE0E00918B101202949086002E054
:101BE0000020274908606006040E0220FFF7FCF879
:101BF00001202349091F08600220FFF7F5F80020A3
:101C00002049C1F898010220FFF7EEF8681CC5B220
:101C1000082DDFDB70BD70B505460024174800684D
:101C200020F07040154908600846006840F0004008
:101C30000860002617E000201149091F08600220F3
:101C4000FFF7D2F801200F49C1F898016006040E91
:101C50000B488038006808B1601CC4B20120FFF74F
:101C6000C3F8701CC6B2082EE5DB15B9FFF77CFF80
:101C700001E0FFF756FF204670BD0000000C014058
:101C80009C8121420080214210B5FFF7C7FE10BDA4
:101C900070B504460026FFF7D8FE2546E11704EB91
:101CA00011610912A02202EB4101C8B2FFF77FFFC8
:101CB000FFF70CFFE11704EB11610912A4EB0121FE
:101CC000C8B2FFF774FFFFF701FFFFF7BEFEA120C8
:101CD000FFF76DFFFFF7FAFE0020FFF79CFF0646B7
:101CE000FFF7D3FE304670BD70B504460E46FFF7D1
:101CF000ACFE2546E11704EB11610912A02202EBAC
:101D00004101C8B2FFF753FFFFF7E0FEE11704EB14
:101D100011610912A4EB0121C8B2FFF748FFFFF7D8
:101D2000D5FE3046FFF743FFFFF7D0FEFFF7ADFECD
:101D30000A20FFF784F870BD2DE9F04105460E46F4
:101D40001746002409E0E20026FA02F2D1B22A196D
:101D500090B2FFF7C9FF601CC4B2BC42F3DBBDE820
:101D6000F0812DE9F04107460C460026002509E0E8
:101D700036023919491B491E88B2FFF789FF06440C
:101D8000681CC5B2A542F3DB3046BDE8F08110B552
:101D9000002405E000212046FFF7A6FF601C84B266
:101DA000B4F5806FF6DB10BD30B58DB06EA103C900
:101DB000CDE90B016EA000680A906EA00068099042
:101DC00044F620656CA30FCB05AC0FC46E4800F041
:101DD000DDFA6D4880796C4949796B4A12796A4B12
:101DE000DB78CDE90032CDE902106748837842788C
:101DF000017866A019F02EFA704800F0F6FA6F48E4
:101E0000C07800906D488378427801786CA019F012
:101E100021FA00F00AFB724908800846018871A087
:101E200019F018FA754800F029FB7448C078009042
:101E3000724883784278017871A019F00BFA7A48D9
:101E400000F03AFB79A019F005FA7748C179827958
:101E50004079754B1B79CDE90130CDE903217248FA
:101E6000C0780090704883784278017874A019F0A7
:101E7000F1F96D48C17B807B6B4A527B6A4B1B7BBF
:101E8000CDE90132CDE903016748C07A0090664888
:101E9000837A427A017A71A019F0DCF9764800F071
:101EA000FAFB75480078AA2809D174A019F0D2F974
:101EB000764800F0F9FB764800F0FFFB02E075A0E1
:101EC00019F0C8F940F2FF30FFF7E2FE0446552C46
:101ED00002D100200DB030BDFFF759FF71A019F0FD
:101EE000B9F90BA800F05BFA09A800F087FA2846B8
:101EF00000F0ABFA0AA800F0CAFA05A800F0E5FA6B
:101F0000552140F2FF30FFF7EFFE40F2FF30FFF7C0
:101F1000BFFE0446552C01D10020DBE70120D9E7A4
:101F200070B506460C46154608E03046721C96B25F
:101F3000FFF7AEFE04F8010B681E85B2002DF4D148
:101F400070BD70B505460C46164606E02178284659
:101F5000FFF7CAFE681C85B2641C301EA6F10101A1
:101F60008EB2F3D170BD0000FFFFFFFFFFF129002B
:101F7000202001017B399619313030303030302D3E
:101F800062373631633262301800002052464944CD
:101F90005F4B65793A25303258253032582530323A
:101FA000582530325825303258253032582EBEF858
:101FB000B6D4BFE9BAC53A25640D0A000A0000206C
:101FC0004950B5D8D6B72D2D2D2D2D2D2D2D2D2D9C
:101FD0002D2D25642E25642E25642E25640D0A00E2
:101FE0000E000020B6CBBFDABAC52D2D2D2D2D2D1C
:101FF0002D2D2D2D2D2D2535640D0A0010000020CE
:10200000C7F8D3F2BFD8D6C6C6F7534E2D2D2D2D07
:102010002D2D253032582530325825303258253074
:1020200032580D0A00000000FA060020C7F8D3F26B
:10203000BFD8D6C6C6F7CDA8D0C5C2EB2D2D00009F
:102040002532582532582532582532582532582500
:1020500032582532582532580000000025325825C4
:1020600032582532582532582532582532582532D3
:10207000582532580D0A00001F000020BEB2CCAC1B
:1020800049502D2D2DBFAAC6F40D0A0024000020B2
:1020900028000020BEB2CCAC49502D2D2DBDFBD365
:1020A000C30D0A00415432344358585F44656C658F
:1020B00074655F616C6C4461742829210D0A00000D
:1020C0002DE9FC410546002000900190012428E004
:1020D00004EB840000F10A063046FFF7D9FD0746FD
:1020E000A7421CD1711C88B204226946FFF718FF71
:1020F000E8789DF80310884211D1A8789DF8021065
:1021000088420CD128789DF80010884207D1687861
:102110009DF80110884202D12046BDE8FC81601C78
:10212000C4B2512CD4DB01242FE004EB840000F175
:102130000A063046FFF7ACFD0746A74223D02146EA
:102140003046FFF7D1FD2978721C90B2FFF7CCFD25
:102150006978B21C90B2FFF7C7FDA978F21C90B263
:10216000FFF7C2FDE978321D90B2FFF7BDFD0120F7
:10217000FFF78EFD804608F10100C1B20120FFF794
:10218000B3FD2046C9E7601CC4B2512CCDDBF3205F
:10219000C3E77CB50546002000900190012419E0BA
:1021A00004EB840101F10A00FFF772FDA8420FD190
:1021B00004EB84010A3141F0010004226946FFF773
:1021C000C0FE04EB840101F10A000021FFF78CFD41
:1021D000601CC4B2512CE3DB0020C5EBC501F84AFA
:1021E00002F811000120FFF753FD0646701EC1B230
:1021F0000120FFF779FD701EC0B27CBD30B585B0FF
:102200000020039004900124BBE004EB840000F163
:102210000A052846FFF73CFDA0422BD1691C88B275
:10222000042203A9FFF77CFE9DF80F009DF80E1015
:102230009DF80D20CDE9002102909DF80C3022463A
:102240002946E0A019F006F89DF80C0098B99DF811
:102250000D0080B99DF80E0068B99DF80F0050B9C7
:102260002146E5A018F0F6FF2046FFF792FF002078
:10227000EB4908557DE003A9204600F0C3FEE8497C
:1022800008550846005D68B3CD480078401CCC492D
:1022900008708020C4EBC401C94A02F811009DF8FF
:1022A0000C00C4EBC40102EB410148709DF80D0025
:1022B000C4EBC40102EB410188709DF80E00C4EB31
:1022C000C40102EB4101C8709DF80F00C4EBC401CA
:1022D00002EB41010871D248025D2146D1A018F0FD
:1022E000B9FF46E0D4A018F0B5FF32230022114612
:1022F000104618F04DFE03A9204600F083FEC849A1
:1023000008550846005D68B3AD480078401CAC49EC
:1023100008708020C4EBC401A94A02F811009DF89E
:102320000C00C4EBC40102EB410148709DF80D00A4
:10233000C4EBC40102EB410188709DF80E00C4EBB0
:10234000C40102EB4101C8709DF80F00C4EBC40149
:1023500002EB41010871B248025D2146BBA018F0B2
:1023600079FF06E02146C04818F074FF2046FFF7C9
:1023700010FFC82300221146104618F009FE601C09
:10238000C4B2512CFFF641AF05B030BD10B50446C4
:102390000722214640F2A230FFF7C2FD10BD10B562
:1023A0000446217840F2A230FFF79EFC617840F2AB
:1023B000A330FFF799FCA1784FF46970FFF794FC04
:1023C000E17840F2A530FFF78FFC217940F2A6308A
:1023D000FFF78AFC617940F2A730FFF785FCA1790D
:1023E0004FF46A70FFF780FC10BD10B5044604225C
:1023F00021464FF46170FFF793FD10BD10B5044600
:1024000021784FF46170FFF76FFC617840F28530FE
:10241000FFF76AFCA17840F28630FFF765FCE178AF
:1024200040F28730FFF760FC10BD08B50020009037
:10243000022269464FF46270FFF772FD9DF80100B9
:102440009DF8001040EA012008BD70B504464FF425
:1024500062752646E21704EB1262C2F30721284692
:10246000FFF742FC2646E21704EB12621212A4EBBD
:102470000222D1B2681CFFF737FC70BD10B50446CC
:102480000422214640F28A30FFF74AFD10BD70B5A4
:10249000054640F28A3429782046FFF725FC697802
:1024A000601CFFF721FCA978A01CFFF71DFCE97850
:1024B000E01CFFF719FC70BD10B504461022214640
:1024C00040F28E30FFF72CFD10BD70B5054640F28E
:1024D0008E3429782046FFF707FC6978601CFFF7E7
:1024E00003FCA978A01CFFF7FFFBE978E01CFFF7CD
:1024F000FBFB2979201DFFF7F7FB6979601DFFF7CA
:10250000F3FBA979A01DFFF7EFFBE979E01DFFF7C9
:10251000EBFB297A04F10800FFF7E6FB697A04F186
:102520000900FFF7E1FBA97A04F10A00FFF7DCFBE1
:10253000E97A04F10B00FFF7D7FB297B04F10C00CB
:10254000FFF7D2FB697B04F10D00FFF7CDFBA97B00
:1025500004F10E00FFF7C8FBE97B04F10F00FFF761
:10256000C3FB70BD70B5054640F2AB3429782046F8
:10257000FFF7BAFB6978601CFFF7B6FBA978A01CCF
:10258000FFF7B2FBE978E01CFFF7AEFB2979201DCD
:10259000FFF7AAFB70BD70B505464FF46C7429783F
:1025A0002046FFF7A1FB6978601CFFF79DFBA97827
:1025B000A01CFFF799FBE978E01CFFF795FB70BDC5
:1025C0003C0200202B2BC6F0CABC3A253033643BBA
:1025D00020C2DFBCAD3A253032643B20CEEFC0EDE7
:1025E000A3BA25303258253032582530325825309C
:1025F00032583B20000000000D0ACEEFC0EDB5D8E8
:10260000D6B7B2BBC4DCCEAA30783030A3A1C7E5C0
:10261000C2DFBCADB5D8D6B73A25643B0D0A000081
:10262000AA0600205665725B253032645D3D253078
:1026300032580D0A000000002D2D2D2D2D2DB7D65E
:10264000C5E4CAA7B0DC210D0A0000005665725B24
:10265000253032645D3D253032582CB7D6C5E4B301
:10266000C9B9A6A3A10D0A005CBD010870B5054655
:102670004FF46D7429782046FFF736FB6978601CAB
:10268000FFF732FBA978A01CFFF72EFBE978E01CCE
:10269000FFF72AFB70BD10B504460522214640F223
:1026A000AB30FFF73DFC10BD10B5044604222146B7
:1026B0004FF46C70FFF734FC10BD10B504460422D3
:1026C00021464FF46D70FFF72BFC10BD70B59AB02A
:1026D0000446142115A819F025F8142110A819F0A2
:1026E00021F800200E900F900D9009900A900B9009
:1026F0000C9000260025F4208DF8540060788DF8A9
:102700005500A078401CC0B28DF85600A078102863
:102710007BD008DC0A2879D2DFE800F0780E782236
:10272000787B789B78AC122871D0C32846D0C52816
:102730006ED0C9286AD12DE111208DF85700E348E9
:1027400000788DF85800E14840788DF85900DF484E
:1027500080788DF85A00DD48C0788DF85B00A7E1DD
:10276000E0788DF8570020798DF8580060798DF861
:102770005900A0798DF85A00E0798DF85B00207A35
:102780008DF85C009DF857008DF840009DF85800CA
:102790008DF841009DF859008DF842009DF85A00CF
:1027A0008DF8430010A8FFF729FE9DF85C109DF8F6
:1027B0005B2041EA0220FFF748FE79E10DA8FFF710
:1027C00014FEFFF732FE06469DF834008DF85700E0
:1027D0009DF835008DF858009DF836008DF85900A9
:1027E0009DF837008DF85A003046F11706EB11615D
:1027F000090A8DF85B10F11706EB11610912A6EBBF
:102800000121C9B28DF85C1052E101E14FE12BE1E9
:1028100010E0002508E0E81C215C15AA1154205C9A
:1028200010A94855681CC5B2102DF4DB10A8FFF79D
:102830004CFE3DE109A8FFF73FFE002506E009A890
:10284000415DE81C15AA1154681CC5B2102DF6DBB9
:102850002EE1002508E0E81C215C15AA1154205C3B
:1028600010A94855681CC5B2042DF4DB10A8FFF769
:102870000EFE1DE1E0789649087020794870607975
:102880008870A079C870E0790871207A9149087041
:10289000607A4870A07A8870E07AC870207B8E4990
:1028A0000870607B4870A07B8870E07BC8708848A7
:1028B000FFF758FE8748FFF76EFE8748FFF7D6FE02
:1028C0008348FFF7E8FE8348FFF7EEFE8248FFF7F4
:1028D000F4FE7F4800788DF857007D4840788DF8E9
:1028E00058007B4880788DF859007948C0788DF879
:1028F0005A00774800798DF85B00764800788DF8AB
:102900005C00744840788DF85D00724880788DF8DE
:102910005E007048C0788DF85F006F4800788DF8D1
:1029200060006D4840788DF861006B4880788DF8C4
:1029300062006948C0788DF8630068A018F08AFCCE
:1029400063480078AA2803D16CA018F083FC02E049
:102950006EA018F07FFC5E48007900905C48C37858
:10296000827841786DA018F075FC5A48C0780090C4
:10297000584883784278017870A018F06BFC56486C
:10298000C0780090544883784278017873A018F09A
:1029900061FC8DE007A8FFF77EFE06A8FFF784FE26
:1029A00005A8FFF78AFE9DF81C008DF857009DF8DA
:1029B0001D008DF858009DF81E008DF859009DF8F7
:1029C0001F008DF85A009DF820008DF85B009DF8DF
:1029D00018008DF85C009DF819008DF85D009DF8D9
:1029E0001A008DF85E009DF81B008DF85F009DF8C1
:1029F00014008DF860009DF815008DF861009DF8B9
:102A000016008DF862009DF817008DF863004FE006
:102A1000E0785A4908702079487060798870A07908
:102A2000C870E0790871207A4871A07A887107210E
:102A30005248FEF7E3FF524908705048FFF7AFFCD9
:102A40004E4880794D4949794C4A12794B4BDB7895
:102A5000CDE90032CDE90210484883784278017808
:102A600048A018F0F7FB00BF0EA8FFF78FFC9DF8F9
:102A700038008DF857009DF839008DF858009DF802
:102A80003A008DF859009DF83B008DF85A009DF8EA
:102A90003C008DF85B009DF83D008DF85C00607A8D
:102AA0008DF85D009DF83E008DF85E0000E000BFEF
:102AB00000BF9DF85500401EC1B215A8FEF79EFF4D
:102AC0006178491E15AA50541AB070BD100000203C
:102AD0001F00002024000020280000202D2D2D2D77
:102AE0002D2D2D2D2DBDD3CAD5B5BDB4AEBFDA2D3C
:102AF0002D2D2D2D2D2D2D2D0D0A0000BEB2CCAC6F
:102B000049502D2D2DBFAAC6F40D0A00BEB2CCAC83
:102B100049502D2D2DBDFBD3C30D0A00BEB2CCAC48
:102B20004950B5D8D6B72E2E2E2E2E2E25642E2502
:102B3000642E25642E25640D0A000000D7D3CDF83D
:102B4000D1DAC2EB2E2E2E2E2E2E2E2E25642E25E1
:102B5000642E25642E25640D0A000000C4ACC8CF85
:102B6000CDF8B9D82E2E2E2E2E2E2E2E25642E25C3
:102B7000642E25642E25640D0A0000001800002034
:102B8000170000202D2D2D2D2D2D2D2D2DBDD3CA1F
:102B9000D5B5BDB4AEBFDA20524649445F4B657926
:102BA000202532582532582532582532582532589A
:102BB0002532582CBFE9B5D8D6B7A3BA25640D0A7B
:102BC0000000000070B505460C4645F2555003F074
:102BD000E5FE284603F0E5FE204603F0E5FE03F09F
:102BE000E6FE03F0E9FE70BD10B503F0E0FE10BD97
:102BF0002DE9F0418AB004460D4616461F46DDF821
:102C000040800121042003F0D3FB0121480603F09A
:102C1000DCFB4FF48050ADF8240003208DF8260033
:102C200018208DF8270009A9E64803F005F94FF4AC
:102C30000060ADF8240048208DF8270009A9E1487C
:102C400003F0FAF800208DF81E008DF81F008DF8B3
:102C5000200001208DF8210000208DF822008DF841
:102C600023008DF81A808DF81B408DF81C608DF8BC
:102C70001D50ADF8187006A9D34803F0C8FE002017
:102C80008DF812008DF8130001208DF8140000203B
:102C9000ADF80800ADF80A00ADF80C00ADF80E0074
:102CA000ADF8100001208DF8150002A803F039FFDF
:102CB00001220221C44804F033FA14208DF80400E4
:102CC00001208DF8050000208DF8060001208DF808
:102CD000070001A802F0E1FC00200AB0BDE8F08185
:102CE00010B586B0002401AA0021B74804F0FDF811
:102CF000B6480078AA280CD0AA20B449087000BFB2
:102D000005E00DF10F00005DB1490855641C082C69
:102D1000F7DB06B010BDF0B585B004460F460025C0
:102D20002078012808D02078072805D020780828A6
:102D300002D02078092804D1607840F40070009017
:102D400009E02078C12803D14FF48070009002E0A0
:102D50004FF4007000909F48019000208DF808000B
:102D60008DF809008DF80A70002505E0615D0DF110
:102D70000B004155681C85B2082DF7DB6946924867
:102D800003F0BEFF0646002501E0681C85B231460F
:102D90008D4804F04DF818B940F6FF708542F4DB19
:102DA00040F6FF70854202DB012005B0F0BD002037
:102DB000FBE730B585B005460021834804F018F9DB
:102DC00010B9002005B030BD6A4600217E4804F0ED
:102DD0008CF8002404E00DF10B00005D2855641C04
:102DE000082CF8D39DF80A00ECE730B587B005460B
:102DF0000C46002005900690142D7AD2DFE805F0ED
:102E0000C20A10233C464DC2637AC2C2C2C2C2C2C9
:102E1000C293C2A9A1208DF814008DF81500B2E06C
:102E2000C1208DF8140020788DF8150060788DF899
:102E30001600A0788DF81700E0788DF8180020793A
:102E40008DF819009FE0A2208DF8140020788DF8ED
:102E5000150060788DF81600A0788DF81700E078DE
:102E60008DF8180020798DF8190060798DF81A0016
:102E7000A0798DF81B0086E0A3208DF8140020783F
:102E80008DF8150060788DF816007CE001208DF833
:102E9000140020788DF8150075E007208DF81400D7
:102EA00020788DF8150060788DF81600A0788DF8E0
:102EB0001700E0788DF8180020798DF819006079F6
:102EC0008DF81A005FE008208DF8140020788DF846
:102ED000150060788DF81600A0788DF81700E0785E
:102EE0008DF8180020798DF8190060798DF81A0096
:102EF00049E047E009208DF8140020788DF815008E
:102F000060788DF81600A0788DF81700E0788DF8BD
:102F1000180020798DF8190060798DF81A00A079D1
:102F20008DF81B002FE011208DF8140020788DF80B
:102F3000150060788DF81600A0788DF81700E078FD
:102F40008DF8180020798DF8190060798DF81A0035
:102F500019E013208DF8140020788DF815006078A2
:102F60008DF81600A0788DF81700E0788DF818001D
:102F700020798DF8190060798DF81A00A0798DF804
:102F80001B0000E000BF00BF9DF81B009DF81A1059
:102F90009DF819209DF81830CDE90132CDE90310D4
:102FA0009DF8170000909DF816309DF815209DF8AB
:102FB000141009A018F04EF9082105A8FFF7ABFE80
:102FC00007B030BD00080140006400400800002048
:102FD0000000002001F0001843414E5F53656E640D
:102FE0003A25303258253032582530325825303283
:102FF0005825303258253032582530325825303255
:10300000583B20002DE9F04389B006460D464FF0AD
:1030100000090027B8460020079008900590069008
:1030200028788DF81C0068788DF81D00A8788DF838
:103030001E00E8788DF81F008DF820600020FC4904
:103040000870002404E00020FA490855601CC4B24E
:10305000082CF8DB07A90220FFF7C7FE1427394622
:10306000F5A018F0F7F842E0F1480078AA2835D129
:10307000002408E0EF48005D05A908550020ED494F
:103080000855601CC4B2082CF4DB9DF81B009DF8A9
:103090001A109DF819209DF81830CDE90132CDE9BC
:1030A00003109DF8170000909DF816309DF815202C
:1030B0009DF81410E2A018F0CDF80020DC4908704B
:1030C0009DF81900C22806D09DF81900B04202D020
:1030D0004FF0000802E04FF0010808E0052300224D
:1030E0001146104617F054FF781EC7B200BFB8F162
:1030F000000F01D1002FB7DC3946DCA018F0AAF888
:10310000B8F1000F41D09DF81B009DF81A109DF8F2
:1031100019209DF81830CDE90132CDE903109DF852
:10312000170000909DF816309DF815209DF814109A
:10313000D0A018F08FF89DF81400C22822D19DF875
:1031400015009DF81C1088421CD19DF816009DF8B2
:103150001D10884216D19DF817009DF81E10884258
:1031600010D19DF818009DF81F1088420AD19DF8D3
:1031700019009DF82010884204D19DF81A904FF054
:10318000000804E04FF0000901E04FF00009484654
:1031900009B0BDE8F0831CB5044600200090019002
:1031A00020788DF8000060788DF80100A0788DF807
:1031B0000200E0788DF8030020798DF80400607932
:1031C0008DF80500A0798DF8060069460320FFF709
:1031D0000CFE1CBD1CB5002000900190694601202A
:1031E000FFF703FE1CBD7CB504460D460020009091
:1031F00001908DF800408DF801509DF801209DF858
:103200000010A6A018F026F869460420FFF7EDFD8F
:103210007CBD2DE9F04188B0044614264FF000082B
:10322000002700200690079036E081480078AA2801
:1032300029D1002508E07F48405D06A948550020B7
:103240007C494855681CC5B2082DF4DB9DF81F0069
:103250009DF81E109DF81D209DF81C30CDE901320F
:10326000CDE903109DF81B0000909DF81A309DF8E1
:1032700019209DF8181072A017F0ECFF00206C497F
:103280000870012708E0052300221146104617F0B8
:103290007FFE701EC6B200BF0FB9002EC5DC07B39B
:1032A0009DF81800B3281AD19DF8190020709DF8D8
:1032B0001A0060709DF81B00A0709DF81C00E07063
:1032C00004212046FEF79AFB80469DF81D004045EC
:1032D00003D1012008B0BDE8F0810020FAE700200A
:1032E000F8E70020F6E72DE9F04389B006460C46E2
:1032F000002007900890059006900A278146804696
:103300008DF8146005A90520FFF76FFD00BF394651
:103310006BA017F09FFF26E045480078AA2819D136
:10332000002508E04348405D07A948550020414971
:103330004855681CC5B2082DF4DB00203C490870D4
:103340009DF81D00B04202D04FF0000802E04FF09F
:10335000010808E0052300221146104617F018FE68
:10336000781EC7B200BFB8F1000F01D1002FD3DC27
:10337000394656A017F06EFFB8F1000F56D09DF8F1
:1033800023009DF822109DF821209DF82030CDE9E2
:103390000132CDE903109DF81F0000909DF81E300A
:1033A0009DF81D209DF81C104BA017F053FF9DF8B1
:1033B0001D00B04205D19DF81C00022801D18146B4
:1033C000B1E19DF81D00B04231D19DF81C000328E9
:1033D000FAD1052020709DF81E0060709DF81F0036
:1033E000A0709DF82000E0709DF8210020710A2750
:1033F0004FF0000893E00E480078AA2815D1002568
:1034000008E00C48405D07A9485500200949485587
:10341000681CC5B2082DF4DB0020054908709DF832
:103420001D00B0426FD04FF000086FE079E1BCE0C2
:1034300008000020000000204F7665723D256400E2
:10344000526563653C3C2530325825303258253072
:1034500032582530325825303258253032582530F0
:103460003258253032583B0D0A0000002D25643BB0
:103470002000000052653C3C25303258253032583F
:1034800025303258253032582530325825303258C0
:103490002530325825303258200000003E3E3E3E56
:1034A0003E3E3E3E3EB9E3B2A520CBAEB7D13D2570
:1034B000643B20C2F6B3E5CAFD3D25640D0A000059
:1034C000C2D6D1AD20256420000000002D20256447
:1034D0003B20200D0A000000526563653C3C20251E
:1034E0003032582530325825303258253032582560
:1034F0003032582530325825303258253032583B3A
:103500000D0A0000FFE74FF0010808E00523002244
:103510001146104617F03CFD781EC7B200BFB8F147
:10352000000F02D1002F3FF766AFB8F1000F39D07E
:103530009DF823209DF822009DF821109DF8203051
:10354000CDE90131CDE903029DF81F0000909DF8FF
:103550001E309DF81D209DF81C10AFF2840017F05E
:1035600079FE9DF81D00B04218D19DF81C0004287A
:1035700014D19DF81E0060719DF81F00A0719DF888
:103580002000E0719DF8210020729DF822006072F9
:103590004FF0AA09484609B0BDE8F0834FF0000992
:1035A000C846C0E04FF00009BDE09DF81D00B042E4
:1035B0007ED19DF81C0005287AD1062020709DF848
:1035C0001E0060709DF81F00A0709DF82000E07044
:1035D0009DF8210020710A2726E070480078AA286B
:1035E00019D1002508E06E48405D07A94855002024
:1035F0006B494855681CC5B2082DF4DB00206749AB
:1036000008709DF81D00B04202D04FF0000802E0A3
:103610004FF0010808E0052300221146104617F07C
:10362000B7FC781EC7B200BFB8F1000F01D1002F60
:10363000D3DCB8F1000F38D09DF823009DF822109C
:103640009DF821209DF82030CDE90132CDE903100D
:103650009DF81F0000909DF81E309DF81D209DF8DC
:103660001C10AFF28C1017F0F5FD9DF81D00B04254
:1036700017D19DF81C00062813D19DF81E0060711B
:103680009DF81F00A0719DF82000E0719DF82100B9
:1036900020729DF8220060724FF0AA0948467AE72E
:1036A00006E04FF00009C8463DE04FF000093AE05F
:1036B0009DF81D00B04216D19DF81C00042812D1BF
:1036C0009DF81E0060719DF81F00A0719DF82000FC
:1036D000E0719DF8210020729DF8220060724FF089
:1036E000AA09484657E79DF81D00B04216D19DF83B
:1036F0001C00062812D19DF81E0060719DF81F0065
:10370000A0719DF82000E0719DF8210020729DF8C5
:10371000220060724FF0AA0948463CE74FF00009CA
:1037200001E04FF00009484635E71CB5044600208B
:103730000090019020788DF8000060788DF80100ED
:10374000A0788DF80200E0788DF8030020798DF8DC
:10375000040060798DF8050069460620FFF745FBF7
:103760001CBD1CB5044600200090019020788DF807
:10377000000060788DF80100A0788DF80200E078F4
:103780008DF8030020798DF8040060798DF806002B
:1037900069461120FFF729FB1CBD0000080000202E
:1037A0000000002070B586B0044600252146F8A030
:1037B00017F050FDC4EBC400F74911F8100000F0F9
:1037C0008000802832D1C4EBC40001EB4000407877
:1037D00058B9C4EBC40001EB4000007928B90020BF
:1037E000C4EBC401EC4A02F81100EC48006808B9C7
:1037F000012000E00020E949086003A92046FFF706
:1038000072FD054625B903A92046FFF76CFD054664
:10381000022D0CD1C4EBC400DF4911F8100020F0D8
:103820002300C4EBC401DC4A02F81100EEE065B9E4
:10383000C4EBC400D84911F8100040F02000C4EBDC
:10384000C401D54A02F81100E0E09DF80C000528FB
:103850000CD1C4EBC400D04911F8100040F00100B5
:10386000C4EBC401CC4A02F811000FE09DF80C0033
:1038700006280BD1C4EBC400C74911F8100040F072
:103880000200C4EBC401C44A02F811009DF80D0007
:10389000C4EBC401C04A02EB410148719DF80E001F
:1038A000C4EBC40102EB410188719DF80F00C4EB29
:1038B000C40102EB4101C8719DF81000C4EBC401C2
:1038C00002EB410108729DF81100C4EBC40102EB48
:1038D000410148729DF81200C4EBC40102EB4101A2
:1038E00088729DF81300C4EBC40102EB4101C87259
:1038F0009DF81400C4EBC40102EB410108739DF86C
:103900001500C4EBC40102EB41014873C4EBC400D1
:10391000114611F8100000F003022146A0A017F094
:1039200099FCC4EBC4009C4901EB4000007A009074
:10393000C4EBC4000E4606EB4000C379C4EBC400E0
:1039400006EB40008279C4EBC40006EB40004179ED
:103950009AA017F07FFCC4EBC400324602EB400093
:10396000407A0004C4EBC402334603EB4202927A6D
:1039700040EA0220C4EBC40203EB4202D27A40EADE
:10398000020195A017F066FCC4EBC400334603EBBC
:103990004000427BC4EBC40003EB4000017B92A0DB
:1039A00017F058FC8DF804409DF80D008DF80500C7
:1039B0009DF80E008DF806009DF80F008DF80700A9
:1039C0009DF810008DF80800C4EBC400314611F8D2
:1039D000100000F00300012803D1AA208DF809008F
:1039E0000BE0C4EBC4006C4911F8100000F00300B8
:1039F000022802D155208DF8090005230022114626
:103A0000104617F0C5FA01A8FFF78FFE06B070BD8B
:103A100070B58CB00446002009900A900B90079076
:103A200008900590069000260A255C48006808B9B1
:103A3000012000E00020594908602078AA287CD1A4
:103A4000607AC0EBC000544911F8100000F03F004C
:103A500040F08000617AC1EBC1014F4A02F81100C9
:103A6000617A69A017F0F6FB60788DF82400A078E1
:103A70008DF82500E0788DF8260020798DF8270054
:103A8000A07A8DF82800A0798DF82900E0798DF8CA
:103A90002A00207A8DF82B0060798DF82C00A07A0E
:103AA0008DF82D00607A8DF81C009DF824008DF8AB
:103AB0001D009DF825008DF81E009DF826008DF84C
:103AC0001F009DF827008DF820009DF828008DF834
:103AD00021009DF823009DF822109DF821209DF8DB
:103AE0002030CDE90132CDE903109DF81F00009090
:103AF0009DF81E309DF81D209DF81C1046A017F063
:103B0000A9FB07A90820FFF770F9642300221146DA
:103B1000104617F03DFA607A8DF81C009DF82900D8
:103B20008DF81D009DF82A008DF81E009DF82B00D1
:103B30008DF81F009DF82C0000E083E08DF8200038
:103B40009DF82D008DF821000A2109A8FDF756FFE8
:103B50008DF822009DF823009DF822209DF8211069
:103B60009DF82030CDE90131CDE903209DF81F00FB
:103B700000909DF81E309DF81D209DF81C1026A079
:103B800017F068FB07A90920FFF72FF9C2E0000032
:103B90002532643B200000003C0200209C012242B0
:103BA000C2DFBCADB5D8D6B7A3BA25643BBFA8D792
:103BB000B4CCAC25643B202000000000BFA8BAC5EF
:103BC000A3BA2530325825303258253032582530A6
:103BD00032583B2020000000BDF0B6EEA3BA2536D7
:103BE000643B202020000000BFA8D0A3D1E9A3BAE5
:103BF0002532643B202020CDA8D0C5C2EBA3BA2536
:103C00003032583B200D0A000D0AB7FECEF1C6F740
:103C1000202532643B2000002530325820253032E8
:103C2000582025303258202530325820253032583F
:103C30002025303258202530325820253032580D7A
:103C40000A0000002078BB281DD161784CA017F035
:103C500001FB60788DF81C00A0788DF81D00E078DD
:103C60008DF81E0020798DF81F0060798DF82000F6
:103C7000A0798DF82100E0798DF8220007A91320A2
:103C8000FFF7B3F846E0207855282AD16078C0EBDA
:103C9000C000434911F8100000F03F0040F0400020
:103CA0006178C1EBC1013E4A02F8110061783DA084
:103CB00017F0D0FA60788DF81C00A0788DF81D0000
:103CC000E0788DF81E0020798DF81F0060798DF85E
:103CD000200000208DF8210007A91120FFF785F8AA
:103CE00018E02078CC2815D18020E179C1EBC10102
:103CF0002B4A02F81100A3796279617830A017F09D
:103D0000A9FAE0798DF81C00607939490870A0792A
:103D1000384908700A250BE005A8FFF74AF806465F
:103D2000052300221146104617F032F9681EC5B26D
:103D30000EB9002DF0DC0CB070BD0020704770B5DE
:103D40002DA017F087FA002417E021462BA017F0CA
:103D500081FA00250AE0C4EBC400114A02EB4000DE
:103D6000415D28A017F076FA681CC5B20E2DF2DB73
:103D700021A017F06FFA601CC4B21A2CE5DB70BDED
:103D80000D0AB7FECEF1C6F720B2E5BFA8CAFDBE48
:103D9000DDB0FC20D2ECB3A3202532643B20000030
:103DA0003C0200200D0AB7FECEF1C6F720D0C4CCED
:103DB000F8B0FC20D2ECB3A3202532643B200000F5
:103DC0000D0AB7FECEF1C6F720D0C4CCF8B0FC2067
:103DD000D5FDB3A33A2532642CCBAEB7D13A253208
:103DE000642CC2F6B3E5CAFD3A2532643B0D0A00E5
:103DF00016000020150000200D0A00002530326456
:103E00002D2D0000253032582C00000008B501216E
:103E1000082002F0CDFA03208DF8020010208DF862
:103E200003004002ADF800006946654802F004F85E
:103E30004FF40040ADF800006946614801F0FCFF16
:103E400048208DF803004FF48040ADF8000069462B
:103E50005B4801F0F1FF08BD002000E0401C022893
:103E6000FCD3704700B5024600231FE002F080003B
:103E700028B14FF4004052491031086004E04FF47B
:103E800000404F4914310860FFF7E6FF4FF400503F
:103E90004B49103108605006020EFFF7DDFF4FF46A
:103EA0000050474914310860581CC3B2082BDDDBB1
:103EB000FFF7D2FF00BD70B5002400251AE06006B0
:103EC000040E4FF480413E4802F049F8012801D128
:103ED000601CC4B24FF40050394910310860FFF73C
:103EE000BBFF4FF40050364914310860FFF7B4FFB0
:103EF000681CC5B2082DE2DB204670BD00B5024645
:103F000000231FE002F0800028B14FF400402C494C
:103F10001031086004E04FF4004029491431086072
:103F20004FF400502649143108605006020EFFF786
:103F300093FF4FF40050224910310860FFF78CFFC7
:103F4000581CC3B2082BDDDB00BD70B50024002572
:103F50001AE04FF400501A4914310860FFF77CFF53
:103F60006006040E4FF48041154801F0F8FF012867
:103F700001D1601CC4B24FF40050114910310860E7
:103F8000FFF76AFF681CC5B2082DE2DB204670BD52
:103F900001200C490870704700200A4908707047DA
:103FA00008480078704728B94FF40051044A143289
:103FB000116004E04FF40051014A10321160704763
:103FC000000C01405800002010B504464CB9FFF722
:103FD000DFFF0120FFF7E7FF4FF48050FD49086045
:103FE00006E04FF48050FB49091F0860FFF7D4FF3B
:103FF00010BD08B50121082002F0DAF90120FFF711
:10400000E3FF10208DF8030003208DF802004FF429
:104010008050ADF800006946EE48143801F00CFFFE
:1040200008BD00B585B00020ADF800004FF48270E7
:10403000ADF802000020ADF804000220ADF8060043
:104040000120ADF808004002ADF80A001020ADF8DC
:104050000C000020ADF80E000720ADF810006946F6
:10406000DD4803F0D9F90121DB4803F07AFA05B005
:1040700000BD2DE9F04104460E4615466019D749AA
:104080004969884202D90120BDE8F0810DB90020BC
:10409000FAE70020FFF798FF0320FFF72FFFC4F394
:1040A0000740FFF72BFFC4F30720FFF727FFE0B21D
:1040B000FFF724FF0BE0FFF748FF074616F8011B48
:1040C000B94204D00120FFF77FFF0120DCE7281E62
:1040D000A5F10105EFD10120FFF776FF0020D3E71E
:1040E00010B50020FFF770FF0520FFF707FF00BFA6
:1040F000FFF72BFF00F001000028F9D10120FFF7A6
:1041000063FF10BD10B50020FFF75EFF0620FFF72C
:10411000F5FE0120FFF758FF10BD2DE9F0410446E0
:104120000E461546AD480068AD49884253D1022D70
:1041300008DA284605EBD0714910A5EB410109B119
:10414000BDE8F081FFF7DEFF0020FFF73DFFAD2067
:10415000FFF7D4FEC6F30740FFF7D0FEC6F30720F3
:10416000FFF7CCFEF0B2FFF7C9FE14F8010BFFF722
:10417000C5FE14F8010BFFF7C1FE0120FFF724FF75
:10418000FFF7AEFFA81E85B2002713E00020FFF75F
:104190001BFFAD20FFF7B2FE14F8010BFFF7AEFED8
:1041A00014F8010BFFF7AAFE0120FFF70DFFFFF740
:1041B00097FF7F1C05EBD571B7EB610FE6D30020AD
:1041C000FFF702FF0420FFF799FE0120FFF7FCFE36
:1041D000FFF786FF38E04FF0000824E0FFF792FF7A
:1041E0000020FFF7F1FE0220FFF788FEC6F307402C
:1041F000FFF784FEC6F30720FFF780FEF0B2FFF75B
:104200007DFE002704E014F8010BFFF777FE7F1C0A
:10421000FF2FF8D90120FFF7D7FEFFF761FF06F562
:10422000807608F10108E91705EB1161B8EB212F41
:10423000D4D30020FFF7C8FE0420FFF75FFE012063
:10424000FFF7C2FEFFF74CFF00BF79E710B5044649
:10425000FFF758FF0020FFF7B7FE2020FFF74EFEC4
:10426000C4F30740FFF74AFEC4F30720FFF746FEFA
:10427000E0B2FFF743FE0120FFF7A6FEFFF730FF95
:1042800010BD70B506460C46154625B16019534958
:104290004969884200D970BD0020FFF795FE0320D0
:1042A000FFF72CFEC4F30740FFF728FEC4F30720F6
:1042B000FFF724FEE0B2FFF721FE03E0FFF745FE23
:1042C00006F8010B281EA5F10105F7D10120FFF723
:1042D0007BFE00BFDFE770B5034600240BE013F858
:1042E000015BE843C5B211F8010B284008B1012079
:1042F00070BD601C84B29442F1DB0020F8E72DE928
:10430000F05F07460D46164616B90120BDE8F09F3E
:1043100032484069A84201D80020F7E72F48008BB7
:10432000B04201DA0020F1E7324629462D48FFF776
:10433000A8FF324639462B4817F0ECF808B901209F
:10434000E4E74FF0000A324639462648FFF7C3FF3C
:1043500008B14FF0010A2148008B401E25EA0008F1
:104360001E48008BB0420BD1002404E0385D1D498B
:104370000855601C84B21948008BA042F6DC10E09E
:104380001648028B41461748FFF77BFF1348008B06
:10439000401E284084B2134908193246394617F0A6
:1043A00028F94FF0000B002434E0BAF1010F02D1DC
:1043B0004046FFF74BFF0948028B41460948FFF78B
:1043C000ACFE324639462846FFF753FE60B94FF03F
:1043D000010B21E0140C014000300140D0180020F6
:1043E0004125BF00EC180020324639462846FFF729
:1043F00040FE10B94FF0010B0EE04FF0000903E052
:1044000009F101001FFA80F942F210708145F7DBD3
:10441000601C84B2032CC8DB00BF584676E72DE948
:10442000F05F07460D4616464FF00008C146C246EB
:104430000024A346F848008BB5FBF0F100FB1150B7
:104440001FFA80FAF448008BA0EB0A0084B2F2480D
:10445000008B96FBF0F01FFA80F8EF48008B96FB7C
:10446000F0F100FB11601FFA80F9BAF1000F2AD1B8
:10447000B8F1000F08D1324629463846FFF73FFF12
:1044800000287DD1BDE8F09F0EE0E348028B29466D
:104490003846FFF734FF08B90020F3E7DE48008B09
:1044A0000544DD48008B0744B8F10000A8F1010184
:1044B0001FFA81F8E9D14A4629463846FFF71FFF1F
:1044C000002861D1DEE7B8F1000F1FD1A14515DD4D
:1044D000A9EB04001FFA80FB224629463846FFF765
:1044E0000EFF08B90020CDE7254427445A46294647
:1044F0003846FFF704FF002846D1C3E73246294675
:104500003846FFF7FCFED8BB0020BBE7301B86B265
:10451000C148008B96FBF0F01FFA80F8BE48008B74
:1045200096FBF0F100FB11601FFA80F92246294644
:104530003846FFF7E4FE08B90020A3E725442744E6
:104540000EE0B548028B29463846FFF7D8FE08B979
:10455000002097E7B048008B0544AF48008B074424
:10456000B8F10000A8F101011FFA81F8E9D1B9F111
:10457000000F09D04A4629463846FFF7C0FE00E042
:1045800002E008B900207DE701207BE710B5FFF7C6
:10459000B9FD0020FFF718FDC720FFF7AFFC012091
:1045A000FFF712FDFFF79CFD10BD10B504469A48B9
:1045B00000689A49884215D10020FFF705FD502078
:1045C000FFF79CFC0120FFF7FFFC0020FFF7FCFC3D
:1045D0000120FFF793FC2046FFF790FC0120FFF736
:1045E000F3FC0BE00020FFF7EFFC0120FFF786FC57
:1045F0002046FFF783FC0120FFF7E6FC10BD2DE904
:10460000F0410020FFF7E0FC9F20FFF777FCFFF769
:104610009CFC0546FFF799FC0646FFF796FC07460B
:104620000120FFF7D1FC280440EA062040EA0704F5
:104630002046BDE8F08110B5FFF7E1FF764908603C
:1046400077A016F007FE7448006874494942084490
:1046500048B17A490844A8B179490844002820D0D3
:1046600001283CD12CE077A16B48001D16F07EFF9D
:1046700077A016F0EFFD4FF4001067494861401233
:1046800008833BE077A16448001D16F06FFF78A017
:1046900016F0E0FD4FF400105F49486140120883B6
:1046A0002CE077A15C48001D16F060FF76A016F0A4
:1046B000D1FD4FF4000058494861C01208831DE045
:1046C00074A15548001D16F051FF74A016F0C2FDEC
:1046D0004FF0807050494861001308830EE073A1C9
:1046E0004D48001D16F042FF74A016F0B3FD4FF4C4
:1046F0000010494948614012088300BF00BF10BD47
:1047000010B59AB0FFF775FCFFF795FF0020FFF793
:104710005BFC0420FFF7F2FB0120FFF755FCFFF7DD
:10472000DFFC0020FFF741FF3B48021D016868A045
:1047300016F090FD3848028B4069010D6EA016F00E
:1047400089FD0A22114601A8FFF79BFD9DF8040090
:10475000AA2829D09DF80600AA2825D09DF808008F
:10476000AA2821D09DF80A00AA281DD06CA016F016
:1047700071FDFFF70BFF72A016F06CFD002404E042
:10478000AA2001A90855601CC4B20A2CF8DB0A2231
:10479000114601A8FFF743FE18B96FA016F05AFDA5
:1047A00002E074A016F056FD1AB010BD10B5ADF5BC
:1047B000806D4FF4806291016846FFF762FD74A03E
:1047C00016F048FD002420E01DF8041078A016F033
:1047D00041FD204604EBD0714910A4EB41010129B1
:1047E00002D115A016F036FD04F01F001F2803D1DA
:1047F00052A016F02FFD06E004F01F000F2802D192
:104800006DA016F027FD601C84B2B4F5806FDBDB71
:104810000DF5806D10BD0000D01800204125BF00AF
:10482000B3F5CABCBBAFCDE2B2BF466C617368A33F
:10483000ACD0CDBAC5A3BA20200000002C05FDFFE6
:10484000FEDFD2FF535354323556463031364200E4
:1048500053535432355646303136422E2E2E0D0AE1
:10486000000000004D5832354C31363036450000DE
:104870004D5832354C31363036452E2E2E0D0A002D
:1048800057323551363400005732355136342E2EDA
:104890002E0D0A005732355131323800573235511A
:1048A0003132382E2E2E0D0A00000000556E6B6E30
:1048B0006F7720466C61736800000000556E6B6E68
:1048C0006F7720466C6173682E2E2E0D0A00000053
:1048D000BCECB2E2B5BDB4AED0D0466C6173682C0E
:1048E000204944203D20253038582C20D0CDBAC551
:1048F0003A202573200D0A0020202020C8DDC1BFEA
:10490000203A2025644DD7D6BDDA2C20C9C8C7F877
:10491000B4F3D0A1203A202564D7D6BDDA0D0A0021
:10492000BCECB2E2B3F6D0C2466C617368A3ACD7FC
:10493000BCB1B8B2C1B3FD466C6173680D0A00002A
:10494000B2C1B3FDD5FBB8F6466C617368CDEAB36E
:10495000C9A3A10D0A000000D0B4B4AED0D0466CFB
:10496000617368B3F5CABCCAFDBEDDB3F6B4EDA38E
:10497000A10D0A00D0B4B4AED0D0466C617368B358
:10498000F5CABCCAFDBEDDB3C9B9A6A3A10D0A0014
:10499000B6C1B4AED0D0466C617368B3C9B9A6A332
:1049A000ACCAFDBEDDC8E7CFC2A3BA0D0A00000045
:1049B0002530325800000000202D200070B505463B
:1049C0000C4606E0284600F006FC012801D1002034
:1049D00070BD201EA4F10104F4D1401EF8E710B50B
:1049E0000446204600F0DEFB002010BD2DE9F84310
:1049F00004460D4690460020286041466846FFF771
:104A0000DDFF18B14FF0FF30BDE8F8839DF80000DE
:104A1000182813D006DC012809D0022809D0042860
:104A200020D109E041281AD061281BD118E0802745
:104A30001BE04FF4806718E00020E5E74146684638
:104A4000FFF7BCFF40B99DF80000182804D14FF0D3
:104A5000FF3028600020D7E74FF0FF30D4E700BFD9
:104A60000120D1E74FF0FF30CEE700BF9DF80000F6
:104A70002070012609E0A0194146FFF79FFF10B101
:104A80004FF0FF30C0E7701C86B2781D8642F2DB23
:104A90006178A07880F0FF00814202D04FF0FF30B3
:104AA000B2E72F600020AFE72DE9F04FADF22C4DBB
:104AB0000646002002904FF4803001904FF0000A2B
:104AC0004FF000090020039000BF0027BB46B0460E
:104AD00000BF4FF4801204A909A8FFF787FF10B1A7
:104AE000012879D179E04FF000090498B0F1FF3F37
:104AF00001D070B907E00620FFF771FF00200DF22A
:104B00002C4DBDE8F08F0620FFF769FF4FF0010B39
:104B100060E09DF82500F9B2884203D01520FFF728
:104B20005EFF57E0002F48D19DF8270000283DD0B8
:104B300000250DF1270405E014F8012B28466D1C13
:104B4000F8490A54207808B1FF2DF5DD00222846E7
:104B50006D1CF4490A540025641C05E014F8012B6F
:104B600028466D1C05A90A542078202801D0102D54
:104B7000F4DB002228466D1C05A90A5402A905A8E9
:104B800000F08EFAE8490298884208DD1820FFF705
:104B900026FF1820FFF723FF4FF0FF30AFE7062076
:104BA000FFF71DFF4320FFF71AFF10E00620FFF775
:104BB00016FF4FF0010BDA460CE00DF127014046DD
:104BC000049A16F016FD00960620FFF708FF7F1CDA
:104BD0000120039000BF1DE008E01820FFF7FFFE52
:104BE0001820FFF7FCFE6FF0020088E7039800280A
:104BF00001DD09F10109B9F1050F07DD1820FFF703
:104C0000EEFE1820FFF7EBFE002078E74320FFF7C9
:104C1000E6FE00BF00BFBBF1000F3FF45AAF00BF7C
:104C200000BFBAF1000F3FF450AF00BF00BF0298C1
:104C300065E70146002070472DE9FE4305460F4613
:104C400090460120287000206870FF20A870002482
:104C500004E0395DE01C2954601C84B2385D08B161
:104C6000FF2CF6DD0021E01C29546846D8F800101E
:104C700000F0ECF90026201D84B208E03046711CDB
:104C80008EB21DF800202046611C8CB22A541DF8FB
:104C900006000028F2D1264603E00020A855701C2B
:104CA00086B2832EF9DBBDE8FE83F0B507461446D5
:104CB0001D46B5F5806F02D34FF4806C01E04FF0D4
:104CC000800C63469D4201D2AC4600E09C461FFA30
:104CD0008CF2B3F5806F04D14FF0020C81F800C064
:104CE00003E04FF0010C81F800C04C706FEA040C37
:104CF00081F802C03E46032007E016F801CB01F818
:104D000000C000F1010C1FFA8CF002F1030C6045A9
:104D1000F3DB9A420EDC1FFA8CF007E04FF01A0C1E
:104D200001F800C000F1010C1FFA8CF003F1030C34
:104D30006045F3DBF0BD10B503460C46194644F45C
:104D4000807200BF4900520002F4807000B1491C1B
:104D500001F4803010B141F22100414002F4803072
:104D60000028EFD088B210BDF0B505460E460024ED
:104D7000AF1905E015F8011BA0B2FFF7DCFF0446F0
:104D8000BD42F7D3A0B20021FFF7D5FF044620466D
:104D90000021FFF7D0FF04462046F0BD30B50246A3
:104DA0000023541802E012F8015B2B44A242FAD30C
:104DB000D8B230BD70B505460E46002404E0285D2B
:104DC000FFF70DFE601C84B2B442F8DB70BD2DE924
:104DD000F74FADF5A36D0020019081460024804679
:104DE000002606E0DDF81C05805D04A98855701CCE
:104DF000C6B2FF2EF6DB012001900DF5A46204A9D6
:104E000044A8FFF719FF00BF832144A8FFF7D2FF92
:104E1000019860B180210DF21310FFF7A5FF054640
:104E20002812FFF7DCFDE8B2FFF7D9FD08E080218A
:104E30000DF21310FFF7B2FF03900398FFF7CFFDB9
:104E400042F2107102A8FFF7B9FD30B99DF80800D1
:104E5000062803D14FF0010800E0641CB8F1000FF0
:104E600001D10A2CD0D30A2C04D3E0B20DF2245D78
:104E7000BDE8F08FDDF818A5DDF820954FF0010BA7
:104E800062E00BF0FF024B4644A95046FFF70DFFCE
:104E90004FF0000800208DF80800002400BFB9F58D
:104EA000806F02D34FF4806700E08027F81C81B246
:104EB00044A8FFF77FFF019860B139460DF2131047
:104EC000FFF752FF05462812FFF789FDE8B2FFF70A
:104ED00086FD08E039460DF21310FFF75FFF0390DF
:104EE0000398FFF77CFD114902A8FFF767FDC0B9E1
:104EF0009DF8080006281DD14FF00108B9450CD9CE
:104F0000BA44A9EB07090A48834501D1FF20ADE760
:104F10000BF101001FFA80FB0DE0BA444FF00009CD
:104F200009E007E0EC2C002000000108A086010049
:104F30003F000200641CB8F1000F01D10A2CAED36F
:104F40000A2C01D3E0B291E7B9F1000F99D14FF0EB
:104F5000000800208DF80800002400BF0420FFF79F
:104F60003EFD42F2107102A8FFF728FD30B99DF80E
:104F70000800062802D14FF0010800E0641CB8F1D7
:104F8000000F01D10A2CE9D30A2C01D3E0B26DE75E
:104F90004FF0000800208DF80800002401208DF853
:104FA000100100208DF81101FF208DF81201032659
:104FB00004E0002044A98855701CC6B2832EF8DB9B
:104FC00000BF832144A8FFF7F5FE80210DF21310E6
:104FD000FFF7CAFE05462812FFF701FDE8B2FFF70A
:104FE000FEFC42F2107102A8FFF7E8FC30B99DF810
:104FF0000800062803D14FF0010800E0641CB8F156
:10500000000F01D10A2CDCD30A2C01D3E0B22DE72A
:1050100000BF0420FFF7E3FC42F2107102A8FFF783
:10502000CDFC30B99DF80800062802D14FF00108E8
:1050300000E0641CB8F1000F01D10A2CE9D30A2C5E
:1050400001D3E0B212E7002010E70000F0B5D24A29
:1050500000250024002320E0B1FBF2F6303606F0F4
:10506000FF0C2E466D1C00F806C0B1FBF2F602FBE9
:1050700016110A26B2FBF6F26E1E865D302E01D1A5
:10508000012600E000260CB9012700E000273E4081
:105090000EB1002500E0641C5B1C0A2BDCD3F0BDC4
:1050A00070B502460C4600210025002310783028F8
:1050B00043D15078782802D0507858283DD1907844
:1050C00008B9002070BD022130E0505C10B92360A7
:1050D00001252DE0505C412802DB505C46280BDDA9
:1050E000505C612802DB505C662805DD505C30288E
:1050F00019DB505C392816DC505C302805DB505C2D
:10510000392802DC505C30380AE0505C412805DB6D
:10511000505C462802DC505C373801E0505C573860
:1051200000EB031301E0002502E0491C0B29CCD35E
:1051300000BF0B2934D3002532E000212AE0505C67
:1051400010B92360012527E0505C6B2802D0505C29
:105150004B2804D119B19B02236001251CE0505C4F
:105160006D2802D0505C4D2804D119B11B05236075
:10517000012511E0505C302809DB505C392806DC41
:10518000505C303803EB830600EB460301E000255A
:1051900002E0491C0B29D2D300BF0B2900D3002504
:1051A00028468FE710B5044621467C4801F0A0FA56
:1051B00000BF8021794801F009FB0028F9D010BD1B
:1051C00010B5044603E02078FFF7ECFF641C20785C
:1051D0000028F8D110BD10B5044620216F4801F019
:1051E000F5FA28B16D48001D00882070012010BD1F
:1051F0000020FCE708B50020009004E06846FFF7B7
:10520000EAFF00B100E0F9E700BF9DF8000008BD2B
:1052100070B506460025002400BFFFF7EBFF0446EB
:105220000D2C00D11AE0082C05D11DB15CA0FFF7B0
:10523000C7FF6D1E11E0802D04D35AA0FFF7C0FFF9
:1052400000250AE0202C07DB7E2C05DC28466D1C9F
:1052500034542046FFF7A6FF00BFDEE700BF59A089
:10526000FFF7AEFF0020705570BD1FB5044623E068
:105270006846FFF7CDFF9DF8000000B91CE09DF8DF
:105280000000612803D09DF80000412808D19DF856
:10529000010028B94CA0FFF793FF002004B010BD17
:1052A00021466846FFF7FCFE18B94CA0FFF788FFBF
:1052B00001E00120F2E700BFDAE701B50020009924
:1052C000C1F30A021AB1012202EBD12000E0C80AA0
:1052D00008BD70473EB547A207CA8DE80700002405
:1052E00047A0FFF76DFF5548FFF7DEFB0446002C93
:1052F00018DD5348FFF764FF5248FFF761FF21466E
:105300006846FFF7A3FE50A0FFF75AFF6846FFF775
:1053100057FF50A0FFF754FF51A0FFF751FFFFF7D1
:1053200045FA14E0601C18B953A0FFF749FF0EE0DE
:10533000A01C18B960A0FFF743FF08E0E01C18B9F3
:1053400064A0FFF73DFF02E068A0FFF739FF3EBD14
:1053500000241FE06DA0FFF733FF7CA0FFF730FFB4
:105360008AA0FFF72DFF99A0FFF72AFFA748006842
:1053700010B1A7A0FFF724FFB5A0FFF721FFFFF7AB
:1053800039FF0446312C02D1FFF7A4FF02E0322C92
:1053900000D000BFDEE7000000CA9A3B0048004092
:1053A00008200800436F6D6D616E6420737472692C
:1053B0006E672073697A65206F766572666C6F77A9
:1053C0000D0A00000A0D0000557365722043616EDE
:1053D00063656C6C6564200D0A0000004572726F95
:1053E000722C20496E70757420616761696E3A2075
:1053F0000D0A000020202020202020202020000056
:1054000057616974696E6720666F722074686520E1
:1054100066696C6520746F2062652073656E742008
:105420002E2E2E202870726573732027612720741A
:105430006F2061626F7274290A0D0000EC28002051
:10544000B8BD0108EC2C00200A0D2053697A653A9A
:1054500020000000202042797465730D0A000000CE
:105460002D2D2D2D2D2D2D2D2D2D2D2D2D2D2D2D6C
:105470002D2D2D0A000000000A0A0D5468652069D0
:105480006D6167652073697A652069732068696753
:10549000686572207468616E2074686520616C6C48
:1054A0006F776564207370616365206D656D6F72E1
:1054B00079210A0D000000000A0A0D56657269661E
:1054C00069636174696F6E206661696C6564210A45
:1054D0000D0000000D0A0A41626F7274656420625B
:1054E0007920757365722E0A0D0000000A0D466161
:1054F000696C656420746F207265636569766520E8
:105500007468652066696C65210A0D000D0A3D3DD1
:105510003D3D3D3D3D3D3D3D3D3D3D3D3D3D3D3DBB
:10552000204D61696E204D656E75203D3D3D3D3DD0
:105530003D3D3D3D3D3D3D3D3D3D3D3D3D3D3D3D9B
:105540003D3D3D3D3D3D3D0D0A0A00002020446F9C
:10555000776E6C6F616420496D61676520546F20C0
:105560007468652053544D33324631307820496E8B
:105570007465726E616C20466C617368202D2D2DF0
:105580002D2D2D2D20310D0A0A00000020205570F0
:105590006C6F616420496D6167652046726F6D2094
:1055A0007468652053544D33324631307820496E4B
:1055B0007465726E616C20466C617368202D2D2DB0
:1055C0002D2D2D2D20320D0A0A00000020204578B7
:1055D000656375746520546865204E657720507248
:1055E0006F6772616D202D2D2D2D2D2D2D2D2D2DC3
:1055F0002D2D2D2D2D2D2D2D2D2D2D2D2D2D2D2DDB
:105600002D2D2D2D20330D0A0A0000006C000020E6
:10561000202044697361626C65207468652077722C
:105620006974652070726F74656374696F6E202D84
:105630002D2D2D2D2D2D2D2D2D2D2D2D2D2D2D2D9A
:105640002D2D2D2D2D2D2D2D20340D0A0A0000007D
:105650003D3D3D3D3D3D3D3D3D3D3D3D3D3D3D3D7A
:105660003D3D3D3D3D3D3D3D3D3D3D3D3D3D3D3D6A
:105670003D3D3D3D3D3D3D3D3D3D3D3D3D3D3D3D5A
:105680003D3D3D3D3D3D3D3D3D3D0D0A0A00000097
:1056900031490143314A1160704770B50021002340
:1056A0000F22C47804B32D4C246804F4E064C4F5DC
:1056B000E064210AC1F10403CA40447804FA03F10A
:1056C0008478144021430901254C0678A1550478BB
:1056D00004F01F050124AC4005786D11AD0005F103
:1056E000E025C5F8004109E0047804F01F05012415
:1056F000AC401C4D0678761145F8264070BD1A4A1C
:105700000A400243154B1B1F1A60704739B1134AF8
:10571000121D12680243114B1B1D1A6006E00F4A4E
:10572000121D126882430D4B1B1D1A60704704281E
:1057300008D14FF0E021096941F004014FF0E02267
:10574000116107E04FF0E021096921F004014FF0F9
:10575000E0221161704700000000FA050CED00E046
:1057600000E400E080E100E080FFFF1F30B943F279
:10577000DB028100A1F1C0410A6005E043F2D202E0
:105780008100A1F1C0410A606FF07042411C8900A4
:10579000A1F1C0410A608100A1F1C041C1F804211A
:1057A000704710280AD118214FF02042116640217D
:1057B00051664FF0FC319166D16610E01821F74A2E
:1057C000116040214FF02042C2F884104FF0FC31AC
:1057D000F24A083211604FF02042C2F88C10704734
:1057E0001820EE492031086000200906C1F8A40005
:1057F0004FF0FC30E94928310860091D0860091D97
:1058000008607047D0E901121143C2681143026970
:1058100011434269114382691143C2691143026A0B
:105820001143426A1143826A1143C26A1143026BF7
:10583000114302689200A2F1C042116081680829F8
:105840000BD101688900A1F1C041096841F0400213
:1058500001688900A1F1C0410A60416B0968426B8F
:10586000526841EA0211426B926841EA0221426B9E
:10587000928941EA0241426B128A41EA0251426B2B
:10588000127D41EA0261426B926911430268521C27
:105890009200A2F1C0421160C16AB1F5804F1BD1E4
:1058A000816B0968826B526841EA0211826B9268CF
:1058B00041EA0221826B128A41EA0251826B127D17
:1058C00041EA0261826B9269114302689200A2F17F
:1058D000C042C2F8041107E06FF07042016889000D
:1058E000A1F1C041C1F80421704730B50021002268
:1058F0000023446844F0080485682C43C5682C43A1
:1059000005692C43456944EA4524856944EA4531E3
:10591000C4692468C5696D6844EA0524C5692D8990
:1059200044EA0544C5692D7B44EA0562046A24689B
:10593000056A6D6844EA0524056A2D8944EA054430
:10594000056A2D7B44EA05630468102C05D14FF0ED
:1059500020442166A266E36608E0904C21604FF087
:105960002044C4F888208D4C0C34236030BD01687D
:1059700041F01001426841EA4221826841EA423125
:10598000864A20321160C1680968C268526841EADB
:105990000221C268128941EA0241C268127B41EACF
:1059A00002617E4A28321160016909680269526801
:1059B00041EA02210269128941EA02410269127B2D
:1059C00041EA0261754A2C321160416909684269F5
:1059D000526841EA02214269128941EA0241426960
:1059E000127B41EA02614FF02042C2F8B0107047CA
:1059F000002101600221416000218160C1600161DC
:105A000041618161C16101624FF48051416249008D
:105A100081620021C16201630F21426B1160426B00
:105A20005160FF21426B91600F21426BD160426B4C
:105A30001161426B51610021426B91610F21826BB8
:105A40001160826B5160FF21826B91600F21826B2C
:105A5000D160826B1161826B51610021826B916117
:105A6000704710210160002141608160C1600161C7
:105A700041618161FC21C2691160C2695160C269E2
:105A80009160C269D160026A1160026A5160026A63
:105A90009160026AD16070470021016041608160BD
:105AA000FC21C2681160C2685160C2689160C2681E
:105AB000D1600269116002695160026991600269F6
:105AC000D1604269116042695160426991604269E6
:105AD000D160704751B18200A2F1C042126842F019
