:020000040800F2
:1000000028F90020110C0008190A00081B0A000832
:100010001F0A0008230A0008270A00080000000041
:100020000000000000000000000000002B0A000893
:100030002D0A0008000000001FB801086D0C000820
:100040002B0C00082B0C00082B0C00082B0C0008B4
:100050002B0C00082B0C00082B0C00082B0C0008A4
:100060002B0C00082B0C00082B0C00082B0C000894
:100070002B0C00082B0C00082B0C00082B0C000884
:100080002B0C00082B0C00082B0C00082B0C000874
:100090002B0C00082B0C00082B0C0008AB1B0008D5
:1000A0002B0C00082B0C00082B0C00082B0C000854
:1000B000177500082B0C00082B0C00082B0C0008EF
:1000C0002B0C00082B0C00082B0C00082B0C000834
:1000D0002B0C0008B9150008D7150008F515000805
:1000E0002B0C00082B0C00082B0C00082B0C000814
:1000F0002B0C00082B0C00082B0C00082B0C000804
:100100002B0C00082B0C00082B0C00082B0C0008F3
:100110002B0C00082B0C00082B0C00082B0C0008E3
:100120002B0C00082B0C00082B0C00082B0C0008D3
:1001300000F002F800F074F80AA090E8000C824485
:100140008344AAF10107DA4501D100F069F8AFF262
:10015000090EBAE80F0013F0010F18BFFB1A43F0A5
:1001600001031847A8C50100C8C501000A444FF0A3
:10017000000C10F8013B13F0070408BF10F8014B06
:100180001D1108BF10F8015B641E05D010F8016B4B
:10019000641E01F8016BF9D113F0080F1EBF10F8AF
:1001A000014BAD1C0C1B09D16D1E58BF01F801CBD2
:1001B000FAD505E014F8016B01F8016B6D1EF9D555
:1001C0009142D6D37047000000230024002500266A
:1001D000103A28BF78C1FBD8520728BF30C148BFAA
:1001E0000B60704764291BF0B38375291BF0B08343
:1001F00078291BF0E98363291BF08D8673291BF096
:100200009286002070471FB51BF01EFE04000020E0
:1002100000211BF0F5FE401C60601FBD10B510BD35
:100220001BF0B8FE1146FFF7EEFF00F015FB1BF0C8
:10023000D6FE03B4FFF7F2FF03BC01F0EAF90000B9
:1002400000250024002769E0FE48007838B93223F1
:100250000022114610461BF0BDF9002446E0002F95
:100260003ED141F27070854202DA681C85B200E02E
:100270000025F5480078AA2804D10020F24908702A
:100280004FF47A74502C03DA601C84B2002627E005
:10029000B4F5E16F15DA601C84B21E2095FBF0F115
:1002A00000FB1150E0B9E948007840F04000E74910
:1002B0000870701CC6B222463146E5A01BF0ECFA6D
:1002C0000EE041F28834C82095FBF0F100FB11509C
:1002D000012805D1DD48007840F04000DB49087076
:1002E00032230022114610461BF074F900F0FFFF84
:1002F000E348007800F0800080280FD10020E0491A
:100300000870AA27DF481BF0C7FAD048007820F011
:100310004000CE490870DC4802F05AFC94E788B0EF
:100320001D200790052006900020059000270490CE
:1003300000244FF0500983460390102106F077FD0A
:1003400005460020D1490870D14908600120D149F3
:10035000C1F89C01CE49083908604FF4FA730222B3
:10036000002108461BF036F902F0D4F9C74801789D
:10037000C9A01BF091FAC8230022114610461BF0B9
:1003800029F9D04803F01AF9C82300221146104673
:100390001BF020F9CCA01BF07FFA03F02EF9CFA0C0
:1003A0001BF07AFA0120BA490860091F0860B949B0
:1003B000C1F89801CA4800780790CA4800780690AA
:1003C00054E0B348006808B9012000E00020B049BB
:1003D0000860B048D0F89C0108B9012000E0002076
:1003E000AB49091F0860AB48D0F8980108B9012053
:1003F00000E00020A649083908604946BAA01BF071
:100400004BFA04A803F018F900282BD09DF813002C
:1004100000909DF812309DF811209DF81010B4A0A6
:100420001BF03AFA04A802F0D7F806463146B6A007
:100430001BF032FA512E15DC04A9304603F034F8D3
:10044000B44988550846805D30B90846825D31461A
:10045000B1A01BF021FA05E0AE48825D3146B5A09F
:100460001BF01AFAA9F1010000F0FF09B9F1000F21
:10047000A7D100208649086001208649C1F89C0167
:10048000834908390860C8230022114610461BF032
:10049000A1F88C4803F092F8C823002211461046B8
:1004A0001BF098F8874803F089F8AA20654908707E
:1004B000A7A01BF0F1F94FF48061062002F00AFEBC
:1004C000A0E102F019FE864909780798884204D114
:1004D000844909780698884213D081480178814878
:1004E000007803F093F8022F02DC781CC7B208E012
:1004F0000027002003907A48007807907948007818
:1005000006909E490978059888420BD06D4803F003
:1005100055F8022F02DC781CC7B203E00027974889
:1005200000780590502C7DDA611CC8B203F0BEFA49
:10053000C4EBC400554911F8100000F00300002876
:1005400070D0AA202870C4EBC40011F8100000F08D
:100550000300012802D1112068700AE0C4EBC40036
:100560004A4911F8100000F00300022801D11320BD
:100570006870C4EBC400454901EB40004078A870A6
:10058000C4EBC40001EB40008078E870C4EBC40009
:1005900001EB4000C0782871C4EBC40001EB4000BF
:1005A00000796871C4EBC40001EB40004079A87188
:1005B000C4EBC40001EB40008079E871C4EBC400D7
:1005C00001EB4000C0792872C4EBC40001EB40008D
:1005D000007A6872C4EBC40001EB4000407AA87254
:1005E000C4EBC40001EB4000807AE872C4EBC400A5
:1005F00001EB4000C07A2873C4EBC40001EB40005B
:10060000007B6873AC73C4EBC40001EB4000407B1B
:10061000E87329465A4800681AF0C6F88246BAF1CB
:10062000000F00E0B1E003D02946002006F0EFFB08
:10063000C4EBC400154911F8100020F00300C4EB0E
:10064000C4019FE0000000202400002025020020BB
:100650000D0A20BFECB5DDD0C4CCF8B0FCB7A2CBFE
:10066000CDD7B4CCAC2CB7A2CBCDB4CECAFD2532FD
:10067000642CBCC6CAFDD6B5A3BA25642E00000002
:100680000C00002060C30108360800206803002029
:10069000A001224200002242C9CFB5E7BCECB2E281
:1006A000466C617368C4DAC2DFBCADB5D8D6B7CDCD
:1006B000EAB3C92120D7DCCFDFA3BA2532642E0DDF
:1006C0000A000000100000200D0ACEB4D7A2B2E14B
:1006D000B9E3B2A521200D0A000000000D0A0000B8
:1006E0000D0000200E0000202532642E20000000A6
:1006F000CEEFC0EDA3BA2530325825303258253020
:100700003258253032583B00C2DFBCAD3A25643B3D
:1007100000000000D60700205665725B2530326469
:100720005D3D253032582CB7D6C5E4CAA7B0DCA34E
:10073000A10D0A005665725B253032645D3D25309F
:1007400032582CB7D6C5E4B3C9B9A6A3A10D0A0087
:100750000D0AC9CFB5E7BCECB2E2CEB4D7A2B2E184
:10076000B3ACCAB1A3ACBDF8C8EBD5FDB3A3B4FD1F
:10077000BBFAD7B4CCAC3B0D0A0000000F00002040
:100780002C000020694A02F8110002AA01216848E1
:10079000006819F041FF80469DF8080028B9B8F1BB
:1007A000000F02D0404603F0B7FA4146002006F0A1
:1007B0002EFB512C0EDD5FA01BF06EF80024BBF168
:1007C000320F04DA0BF1010000F0FF0B04E04FF0F0
:1007D000000B01E0601CC4B20398B0F5702F08D97B
:1007E00000200390554801785548007802F00EFF2C
:1007F00002E00398401C03900A2300221146104691
:100800001AF0E8FE5DE670B5044600BF40214D4891
:1008100019F02EFE4649086040214B4819F028FE89
:100820004A49086018F004FD1AF0D2FF05460A2371
:10083000474A0021AFF219501AF052FB0923454AEA
:100840000021AFF203601AF04BFBFF201AF0C8FD45
:1008500028461AF0C1FF70BD08B500F013FA4FF436
:10086000407003F05BFC00F072FC00F0E9FE002039
:10087000052306220721009002F042FC3648416819
:1008800048208847002006F00CFA34A01BF004F83A
:10089000012139A01BF000F800213DA01AF0FCFF57
:1008A00001F082FC00BF01F00FFD0028FBD13DA04C
:1008B0001AF0F2FF4FF4FA7000F035FA18F083FBEB
:1008C0000AE03DA01AF0E8FF4FF4FA7000F02BFAAE
:1008D0004FF4FA7000F027FA07F0D1FC0028F0D1AD
:1008E0003AA01AF0D9FF0AE03EA01AF0D5FF4FF463
:1008F000FA7000F018FA4FF4FA7000F014FA08F0E9
:100900000AFA0028F0D14FF4FA7000F00CFA3BA07C
:100910001AF0C2FF0C233F4A0021AFF215101AF063
:10092000DFFA18F06DFC002008BD0000680300200D
:10093000280000200D0A0D0A000000000D00002014
:100940000E00002058160020581700202C00002010
:1009500054140020540C0020D800002053746172FD
:1009600074696E672055702059434B4A2D41435599
:100970002E2E2E0D0A00000056657273696F6E4EA2
:100980006F3A20253032582E2E2E0D0A000000001E
:1009900054657374466C61673A2025642E2E2E0DC3
:1009A0000A000000415432344358585F436865637D
:1009B0006B204F4B210D0A004C77697020496E69FE
:1009C00074206661696C6564210D0A004C7769705A
:1009D00020496E69742053756363657373210D0A32
:1009E0000000000054435020436C69656E7420661B
:1009F00061696C656421210D0A0000005443502098
:100A0000436C69656E742053756363657373210D60
:100A10000A00000054160020704700BFFEE700BF28
:100A2000FEE700BFFEE700BFFEE77047704700002B
:100A30000CB50020019000906C48006840F48030B4
:100A40006A49086000BF6948006800F400300090FF
:100A50000198401C0190009818B90198B0F5A06F5A
:100A6000F1D16248006800F4003010B1012000901C
:100A700001E0002000900098012843D15C48006804
:100A800040F010005A4908600846006820F0030052
:100A900008600846006840F002000860534840685B
:100AA000524948600846406848600846406840F43B
:100AB000806048600846406820F47C104860084622
:100AC000406840F4E81048600846006840F08070D4
:100AD000086000BF4548006800F000700028F9D0A9
:100AE0004248406820F0030040494860084640689A
:100AF00040F00200486000BF3C48406800F00C0035
:100B00000828F9D10CBD10B5FFF792FF10BD10B544
:100B10003648006840F001003449086008464068E3
:100B20003449084031494860084600683249084065
:100B30002E4908600846006820F4802008600846B6
:100B4000406820F4FE0048604FF41F008860FFF703
:100B5000DAFF4FF000602949086010BD10B5002190
:100B600000200022214B5B6803F00C0121B1042915
:100B700006D0082928D107E0214B224C236027E02A
:100B80001F4B204C236023E0184B5B6803F470106C
:100B9000164B5B6803F48032022303EB904022B9CA
:100BA000194B4343174C23600DE0104B5B6803F473
:100BB000003323B1144B4343124C236003E0104B2A
:100BC0004343104C236003E00D4B0E4C236000BFE9
:100BD00000BF064B5B68C3F303130C4CE15C094B8D
:100BE0001B68CB40074C236010BD00000010024082
:100BF000002002400000FFF8FFFFF6FE08ED00E0D5
:100C000000127A003000002000093D00340000206E
:100C10000948804709480047FEE7FEE7FEE7FEE790
:100C2000FEE7FEE7FEE7FEE7FEE7FEE704480549CC
:100C3000054A064B704700000F0B00083101000801
:100C400028F3002028F9002028F5002028F50020AE
:100C500010B518F067FA10BD10B518F0A8FA10BD5D
:100C600010B5044620461AF083FC10BD10B53E486E
:100C70000078012805D118F0BCF918F0F8FA18F03E
:100C8000D3F910BD10B56FF0040003F096FA3748A1
:100C900000683749B0FBF1F0364908703348006806
:100CA0003349B0FBF1F441F2883044430520324926
:100CB00008804FF0E020006940F002004FF0E02192
:100CC000086108464461006940F00100086110BDF8
:100CD0002DE9F047074600264FF0E020D0F81490A9
:100CE0002448007807FB00F800BFFFF7B1FF4FF082
:100CF000E020856911E04FF0E0208469AC420CD01F
:100D0000AC4202D2281B064403E0A9EB04002844AD
:100D100006442546464500D300E0ECE700BFFFF758
:100D20009BFFBDE8F08770B504460F480078A0B17E
:100D30001248007888B910480088844206DB0E48C3
:100D4000008894FBF0F52846FFF78AFF0A480088E0
:100D500094FBF0F100FB114084B24FF47A7104FB74
:100D600001F0FFF7B5FF70BD460300203000002002
:100D700000127A00440000204600002039030020C1
:100D8000F748006800F4006008B9012070470020AF
:100D9000FCE7F348006800F4806008B90120704760
:100DA0000020FCE7EE48006800F4007008B901205C
:100DB00070470020FCE7EA48006800F4807008B93A
:100DC000012070470020FCE7E648006800F400605E
:100DD00008B9012070470020FCE7E248006800F4F1
:100DE000806008B9012070470020FCE7DD480068FA
:100DF00000F4007008B9012070470020FCE7D948D2
:100E0000006800F4807008B9012070470020FCE7FA
:100E100008B50121602004F011F803208DF80200CC
:100E200048208DF803004FF47060ADF8000069466B
:100E3000CB48083803F046FD4FF47060ADF8000071
:100E40006946C848083803F03DFD08BD10B50024C8
:100E5000FFF796FF012802D144F0010401E024F0DD
:100E60000104FFF796FF012802D144F0020401E0DB
:100E700024F00204FFF796FF012802D144F0040495
:100E800001E024F00404FFF796FF012802D144F0AA
:100E9000080401E024F00804FFF796FF012802D1BE
:100EA00044F0100401E024F01004FFF796FF01283D
:100EB00002D144F0200401E024F02004FFF796FF63
:100EC000012802D144F0400401E024F04004FFF77F
:100ED00096FF012802D144F0800401E024F0800450
:100EE000204610BD08B525208DF8000000208DF8A3
:100EF000020001208DF80300684603F014F9262053
:100F00008DF8000001208DF802008DF8030068467E
:100F100003F009F927208DF8000002208DF8020067
:100F200001208DF80300684603F0FDF808BD00B508
:100F300085B00121052003F081FF0121880303F022
:100F40007DFF4FF40070ADF8100018208DF81300ED
:100F500003208DF8120004A9834803F0B3FC4FF47A
:100F60008060ADF8100004208DF8130004A97E48BD
:100F700003F0A8FC4FF4E13000900020ADF804002D
:100F8000ADF80600ADF80800ADF80C000C20ADF887
:100F90000A006946754804F006FF012240F2255117
:100FA000724804F098FF0121704804F088FF402146
:100FB0006E4805F06CF80121052003F03FFF012188
:100FC000480403F048FF0420ADF8100018208DF805
:100FD000130003208DF8120004A9634803F072FC8B
:100FE0000820ADF8100004208DF8130004A95E4815
:100FF00003F068FC04A95C4803F064FC4FF416603D
:1010000000900020ADF80400ADF80600ADF808002F
:10101000ADF80C000C20ADF80A006946544804F005
:10102000C2FE012240F22551514804F054FF012133
:101030004F4804F044FF40214D4805F028F80121B5
:10104000092003F0FBFE0121880403F004FF4FF4A4
:101050008060ADF8100018208DF8130003208DF883
:10106000120004A9434803F02DFC4FF40060ADF8D2
:10107000100004208DF8130004A93E4803F022FC60
:1010800004A93C4803F01EFC4FF4E130009000201E
:10109000ADF80400ADF80600ADF80800ADF80C009E
:1010A0000C20ADF80A006946334804F07CFE0122AA
:1010B00040F22551304804F00EFF01212E4804F083
:1010C000FEFE40212C4804F0E2FF05B000BD274899
:1010D0002A4908602A4848602A4888604FF480609E
:1010E0008881C881002008824882C882088348839A
:1010F0008882C861086248621D4823490860234805
:101100004860234888604FF480608881C88100204F
:1011100008824882C882088348838882C86108623E
:10112000486215481B4908601B4848601B48886096
:101130004FF480608881C881002008824882C8827C
:10114000088348838882C86108624862704710B586
:10115000FFF7BDFFFFF7EBFEFFF7C4FE10BD000079
:1011600008140140081801400008014000380140FF
:1011700000440040000C0140004800405818002086
:1011800080180020801C002080200020A820002043
:10119000A8240020A8280020D0280020D02C00203F
:1011A000014609B9FC487047012901D1FB48FAE71B
:1011B000022901D1FA48F6E7032901D10020F2E71C
:1011C000042901D10020EEE70020ECE72DE9F047EB
:1011D00004460E4617464FF00008002527E00CE0B5
:1011E0001AF0F6FA8046B4F8149040461AF0F4FA71
:1011F000A089484500DD01E000BFF1E700BF705D58
:10120000228A616888541AF0E3FA8046208A401CDA
:1012100080B22082A189884201DB00202082A08A3E
:10122000401CA08240461AF0D7FA681C85B2BD4225
:10123000D5DB012240F22771206804F04CFEBDE8A6
:10124000F0872DE9F04105460E4617462846FFF780
:10125000A7FF04460CB9BDE8F081E06908B1E06978
:1012600080473A4631462046FFF7B0FF00BFF2E71D
:1012700013B50446012201A92046FFF7E2FF1CBD79
:101280002DE9F04104460D4600271AF0A1FA074661
:10129000668B38461AF0A0FA16B90020BDE8F08136
:1012A000218BA068405C28701AF092FA0746208BC8
:1012B000401C80B22083E189884201DB002020832A
:1012C000608B401E608338461AF086FA0120E5E7FD
:1012D00070B505460E462846FFF762FF04460CB976
:1012E000002070BD31462046FFF7CAFFF9E738B548
:1012F00069460220FFF7ECFF00284AD0A948007891
:1013000000F08000002844D19DF80000A649A54ABD
:1013100012788854A3480078401CA24908700846F7
:101320000078202801DD002008709E480078401ECB
:101330009D49085CF3280DD19A480078032809DA02
:10134000F32198480078401E974A1154012095498E
:1013500008701EE09448407892490978884218DC69
:1013600090480078401EC1B28F4800F0D7FD044677
:101370008C480078401E8C49085CA04206D1894800
:10138000007840F080008749087002E0002085491D
:10139000087038BD00B503461846FFF701FF024646
:1013A00002B900BD002010825082908200BFF8E791
:1013B00000B503461846FFF7F3FE024602B900BD2A
:1013C0000020D0821083508300BFF8E71FB5044689
:1013D00000940020ADF80400ADF80600ADF8080058
:1013E000ADF80C000C20ADF80A0069466F4804F017
:1013F000DAFC1FBD1FB5044600940020ADF80400C0
:10140000ADF80600ADF80800ADF80C000C20ADF802
:101410000A006946654804F0C6FC1FBD08B50121F5
:10142000102003F00BFD03208DF8020010208DF832
:1014300003000002ADF8000069465D4803F042FA7F
:101440004FF480505A49086108BD1FB50446009406
:101450000020ADF80400ADF80600ADF80800ADF8C6
:101460000C000C20ADF80A006946524804F09BFCC1
:101470001FBD4FF480504E49486170474FF4805073
:101480004B490861704770B504460D462A4621460F
:101490000320FFF7D6FE70BD70B5044620461AF053
:1014A000AFFB85B229462046FFF7EDFF70BD7047C0
:1014B000704770B5044640F22551206804F0F0FDF5
:1014C000E0B1206804F06CFDC5B2E18AA068455423
:1014D000E08A401C80B2E082E189884201DB002082
:1014E000E082608BE189884202DA608B401C608375
:1014F000606A10B12846616A884700BF40F22771D0
:10150000206804F0CDFD08B3A08A60B9002240F243
:101510002771206804F0DFFC012240F22661206878
:1015200004F0D9FC37E0638A6268D15C206804F07B
:1015300033FD608A401C80B26082A189884201DB51
:1015400000206082A08A401EA08224E040F2266132
:10155000206804F0A5FDF0B1A08A50B9002240F245
:101560002661206804F0B7FC206AA0B1206A804799
:1015700011E0638A6268D15C206804F00DFD608A26
:10158000401C80B26082A189884201DB0020608219
:10159000A08A401EA08270BD581800208020002024
:1015A000A82800200C00002036080020004400403D
:1015B00000100140004C004010B51AF009F9044633
:1015C00017F017FD20461AF007F91948FFF771FFC9
:1015D00017F02AFD10BD10B51AF0FAF8044617F0FE
:1015E00008FD20461AF0F8F81248FFF762FF17F0DE
:1015F0001BFD10BD10B51AF0EBF8044617F0F9FC0E
:1016000020461AF0E9F80C48FFF753FF17F00CFDDD
:1016100010BD014600BF704700BF084A128802F0A3
:101620004002002AF9D0C2B2044B1B1D1A80704739
:101630005818002080200020A828002000380140F1
:1016400008B50121102003F0F9FB4FF4E070ADF86C
:10165000000010208DF8030003208DF80200694679
:10166000084803F02FF94021064803F0D8F98021FB
:10167000044803F0D4F94FF48071024803F0CFF925
:1016800008BD000000100140FC4A10804FF0C84225
:10169000A2F8001170470146F84801804FF0C84099
:1016A000B0F80001704770B5044644F040010C20CA
:1016B000FFF7EAFF0C210B20FFF7E6FF0A20FFF7F8
:1016C00032FB00210B20FFF7DFFF0D20FFF7E3FFC8
:1016D00002460E20FFF7DFFF42EA002085B22846CF
:1016E00070BD70B50024E6480078082811D108E0E4
:1016F0006420FFF718FB601CC4B2642C01DDFF20DE
:1017000070BD0120FFF7CFFF00F020000028EFD0D0
:1017100010E008E06420FFF706FB601CC4B2642CF4
:1017200001DDFF20ECE70120FFF7B5FF00F04000EE
:101730000028EFD00120FFF7AEFF022101EAA0153B
:101740000020FFF7A8FFC0F3C00005432846D7E7F5
:1017500010B50446002306E0E15C03F11600FFF734
:1017600093FF581CC3B2082BF6DB10BD10B504461E
:10177000002306E0E15C03F11000FFF785FF581C31
:10178000C3B2062BF6DB10BD70B505460C4645F01E
:1017900040010C20FFF778FFE1B20D20FFF774FF46
:1017A000210A0E20FFF770FF0A210B20FFF76CFFC4
:1017B0003220FFF7B8FA00210B20FFF765FF70BD5C
:1017C00070B50646092E1BD2DFE806F0050C1A1A82
:1017D00008101A1A15000024212511E04FF4807416
:1017E00041250DE04FF40054812509E04FF40454E5
:1017F00040F2011504E04FF4805440F2E11500BFBF
:1018000000BF21460020FFF7BFFF29460420FFF755
:10181000BBFF00211F20FFF737FF70BD00B5282058
:10182000FFF739FF02462920FFF735FF42EA002281
:101830002A20FFF730FF42EA00422B20FFF72BFF60
:1018400042EA0062104600BD10B500208D490860D4
:101850000A20FFF768FA01208B49C1F89C01642037
:10186000FFF761FA01211E20FFF70EFF00211F2064
:10187000FFF70AFF03210020FFF706FF00BF192032
:10188000FFF751FA0020FFF706FF00F001000028E3
:10189000F5D100210846FFF7F7FE03210020FFF7EE
:1018A000F3FE00BF1920FFF73EFA0020FFF7F3FE1A
:1018B00000F001000028F5D110BD10B59AB001214B
:1018C0004FF4F07003F0BAFA0121080203F0A9FA0C
:1018D0000121084603F0B2FA8020ADF8640003202D
:1018E0008DF8660010208DF8670019A9674802F08E
:1018F000E9FF4020ADF8640048208DF8670019A981
:10190000634802F0DFFF4CF23370ADF8640003204F
:101910008DF8660018208DF8670019A95B4802F061
:10192000D1FF4FF68070ADF8640003208DF866009B
:1019300018208DF8670019A9564802F0C3FF4FF42C
:101940000050ADF8640003208DF8660018208DF873
:10195000670019A9504802F0B5FF4FF40070ADF8C8
:10196000640003208DF8660018208DF8670019A91F
:10197000474802F0A7FF0621084603F0B9F84020C7
:10198000179000208DF860000C208DF86100012078
:101990008DF8620017A804F0D5FB402004F049FC44
:1019A00017208DF8580001208DF8590000208DF87F
:1019B0005A0001208DF85B0016A802F0B4FB00204D
:1019C0000090019003200290002003900490059065
:1019D00006900220079000200890099010200A909D
:1019E00000200B900C900D900E900F904FF48050B3
:1019F00010900020119012901390CDF850D0CDF897
:101A000054D007A802F044FC0121022002F0A8FDF6
:101A10002248046808201A49087000204880812064
:101A2000487002200871002115484171200E1449A8
:101A30008871210C1248C171210A01724472FF2081
:101A40000F498872FF210E48C1720173417381737F
:101A5000C17301744174FFF7F7FE6420FFF763F967
:101A6000FFF7DCFE044621460DA019F015FF1048D3
:101A700084421FD001201AB010BD0000FE00006497
:101A8000D03000209C81224200802242001401407C
:101A90000020014000180140001C0140E8F7FF1F32
:101AA000444D393030302049443A2523780D0A001E
:101AB000460A0090CC490878FFF782FE00210846CC
:101AC000FFF7E2FD00210220FFF7DEFD3F210820A5
:101AD000FFF7DAFD38210920FFF7D6FD00210A20A3
:101AE000FFF7D2FD00212F20FFF7CEFD2C21012092
:101AF000FFF7CAFD0F21FE20FFF7C6FD80212D2034
:101B0000FFF7C2FDB848001DFFF730FEB6480A30A7
:101B1000FFF71EFE31210520FFF7B6FD8021FF20D3
:101B2000FFF7B2FDFFF7DDFD0446FF2C11D004F0F6
:101B3000010008B1ADA000E0AEA0024604F0020032
:101B400008B10A2000E064200146ACA019F0A4FE10
:101B500002E0B5A019F0A0FEA3484178FF20FFF7EE
:101B600093FD00201AB010BD70B5B7480588FE205F
:101B7000FFF791FD04462146FE20FFF785FD04F0A6
:101B8000040010B1B1A019F087FE04F0080010B1F4
:101B9000B1A019F081FE04F0010018B1B648006848
:101BA00019F087F8A848058070BD10B517F021FA24
:101BB0004020B249086001E0FFF7D6FFB048006856
:101BC0000028F9D017F030FA10BD2DE9FC41044689
:101BD000002700266A460021AA48006818F061FA2A
:101BE0008021FF20FFF750FDF82097490880254607
:101BF0001BE06889B84216DD3846791C8FB26A68E6
:101C0000125C3046711CCEB201A90A54022E0CD1CE
:101C10009DF804009DF8051040EA01208A49891CBE
:101C20000880002601E02D680027002DE1D1012E5B
:101C300004D19DF804008449891C0880217AFC2085
:101C4000FFF722FD2089010AFD20FFF71DFD01217C
:101C50000220FFF719FD00BFFE20FFF71CFD00F07A
:101C600002000028F8D00221FE20FFF70DFD5E489B
:101C70004178FF20FFF708FD8248006818F033FB29
:101C8000BDE8FC812DE9FF4100246A4600217D4822
:101C9000006818F006FA00BFF020FFF7FCFC6A4865
:101CA000801C008800F0FF08B8F1000F78D0B8F170
:101CB000010F0ED974A019F0EFFD00210520FFF7E8
:101CC000E3FC8021FE20FFF7DFFC204604B0BDE8E6
:101CD000F081F2205C4908804FF0C840B0F8000164
:101CE0000390881C008802900322BDF8081010465B
:101CF0000CF036F904468CB125460CE06F686E890D
:101D000006E04FF0C840B0F800013880BF1CB61E96
:101D1000002EF6DC2D68002DF0D110E0BDF8081083
:101D200062A019F0B9FD01AFBDF8086005E04FF001
:101D3000C840B0F800013880B61E002EF7D1BDF8BB
:101D40000C0000F43F4040B9BDF80800402804DB17
:101D5000BDF80800B0F5C06F3FDDBDF80C1059A00C
:101D600019F09AFDBDF80C0000F4807010B159A074
:101D700019F092FDBDF80C0000F4007010B159A0EC
:101D800019F08AFDBDF80C0000F4004010B159A014
:101D900019F082FDBDF80800B0F5C06F0BDD00E062
:101DA0000FE059A019F078FD01210020FFF76CFC2D
:101DB0000520FEF7B8FF14B120460CF049F80024C6
:101DC0006AE70221FE20FFF75FFC81200649487088
:101DD00008464178FF20FFF757FC2A48006818F0B2
:101DE00082FA204672E70000D030002046756C6C05
:101DF0000000000048616C6600000000444D39306E
:101E000030302053706565643A25644D6270732CE0
:101E10004475706C65783A2573206475706C6578CC
:101E2000206D6F64650D0A00444D39303030204517
:101E3000737461626C697368204C696E6B204661D3
:101E4000696C6564210D0A00FE0000646F7665729E
:101E5000666C6F77200D0A006F766572666C6F771F
:101E600020636F756E746572206F766572666C6F35
:101E700077200D0A00000000D80100201404014062
:101E800018012442DC010020646D393030302072AA
:101E9000783A207278206572726F722C2073746F9A
:101EA00070206465766963650D0A0000706275666E
:101EB000C4DAB4E6C9EAC7EBCAA7B0DC3A25640DB8
:101EC0000A00000072785F7374617475733A252399
:101ED000780D0A007278206669666F206572726FED
:101EE000720D0A00727820637263206572726F72DD
:101EF0000D0A00007278206C656E67746820657248
:101F0000726F720D0A0000007278206C656E677443
:101F10006820746F6F206269670D0A0010B5024671
:101F2000002006E013784340034CE05C521C4B1E3B
:101F3000D9B20029F6DC10BD2CC0010808B501217A
:101F4000082002F07BFFC020ADF8000010208DF8C3
:101F5000030003208DF802006946904802F0B2FCAD
:101F6000C0218E4802F05BFD08BD10B58B480068AB
:101F700020F07040894908600846006840F04050F1
:101F800008600120864908608649C1F8980104204C
:101F9000FEF79EFE0020824908600420FEF798FEAE
:101FA00000208049C1F8980110BD10B57B48006839
:101FB00020F07040794908600846006840F04050C1
:101FC000086000207649091F08607649C1F89C0125
:101FD0000420FEF77DFE01207149091F0860714948
:101FE000C1F89C010420FEF773FE10BD10B500245B
:101FF0006A48006820F07040684908600846006838
:1020000040F000400860012065490860FEF760FE6E
:1020100001206449C1F89801FEF75AFE07E0601CF0
:10202000C4B2FA2C03DDFFF7C0FF012010BD5C48ED
:10203000803800680028F2D15949091F086000BFA4
:10204000F4E710B500205649091F0860534800689E
:1020500020F07040514908600846006840F0405048
:10206000086000204F49C1F89C010220FEF730FEB5
:1020700001204B49091F08600220FEF729FE0020BD
:102080004849C1F8980110BD10B500204449091F06
:1020900008604248006820F07040404908600846E7
:1020A000006840F04050086001203E49C1F89C01A2
:1020B0000220FEF70DFE01203949091F08600220A9
:1020C000FEF706FE00203749C1F8980110BD70B533
:1020D00004463248006820F07040304908600846E5
:1020E000006840F04050086000202D49091F08603A
:1020F00000251DE0E00918B101202949086002E02F
:102100000020274908606006040E0220FEF7E0FD6B
:1021100001202349091F08600220FEF7D9FD002095
:102120002049C1F898010220FEF7D2FD681CC5B213
:10213000082DDFDB70BD70B5054600241748006828
:1021400020F07040154908600846006840F00040E3
:102150000860002617E000201149091F08600220CE
:10216000FEF7B6FD01200F49C1F898016006040E84
:102170000B488038006808B1601CC4B20120FEF72B
:10218000A7FD701CC6B2082EE5DB15B9FFF77CFF72
:1021900001E0FFF756FF204670BD0000000C014033
:1021A0009C8121420080214210B5FFF7C7FE10BD7F
:1021B00070B504460026FFF7D8FE2546E11704EB6C
:1021C00011610912A02202EB4101C8B2FFF77FFFA3
:1021D000FFF70CFFE11704EB11610912A4EB0121D9
:1021E000C8B2FFF774FFFFF701FFFFF7BEFEA120A3
:1021F000FFF76DFFFFF7FAFE0020FFF79CFF064692
:10220000FFF7D3FE304670BD70B504460E46FFF7AB
:10221000ACFE2546E11704EB11610912A02202EB86
:102220004101C8B2FFF753FFFFF7E0FEE11704EBEF
:1022300011610912A4EB0121C8B2FFF748FFFFF7B3
:10224000D5FE3046FFF743FFFFF7D0FEFFF7ADFEA8
:102250000A20FEF768FD70BD2DE9F04105460E46E7
:102260001746002409E0E20026FA02F2D1B22A1948
:1022700090B2FFF7C9FF601CC4B2BC42F3DBBDE8FB
:10228000F0812DE9F04107460C460026002509E0C3
:1022900036023919491B491E88B2FFF789FF0644E7
:1022A000681CC5B2A542F3DB3046BDE8F08110B52D
:1022B000002405E000212046FFF7A6FF601C84B241
:1022C000B4F5806FF6DB10BD30B58DB06CA103C9DD
:1022D000CDE90B016CA000680A906CA00068099021
:1022E00044F620656AA30FCB05AC0FC46C4800F020
:1022F000D9FA6B4880796A494979694A1279684BF9
:10230000DB78CDE90032CDE9021065488378427868
:10231000017864A019F0C0FA6E4800F0EAFA6D483E
:10232000C07800906B488378427801786AA019F0F1
:10233000B3FA00F0F9FA70490880084601886FA0E6
:1023400019F0AAFA734800F016FB7248C0780090A2
:1023500070488378427801786FA019F09DFA784828
:1023600000F025FB77A019F097FA7548C1798279BA
:102370004079734B1B79CDE90130CDE903217048D9
:10238000C07800906E4883784278017872A019F086
:1023900083FA6B48C17B807B694A527B684B1B7B0D
:1023A000CDE90132CDE903016548C07A0090644867
:1023B000837A427A017A6FA019F06EFA744800F0BD
:1023C000EFFB73480078AA2809D172A019F064FACB
:1023D000744800F0EDFB744800F0F2FB02E073A0DB
:1023E00019F05AFAFF20FFF7E3FE0446552C02D1FC
:1023F00000200DB030BDFFF75AFF70A019F04CFA65
:102400000BA800F057FA09A800F07BFA284600F064
:102410009AFA0AA800F0B7FA05A800F0D0FA5521F8
:10242000FF20FFF7F1FEFF20FFF7C2FE0446552C08
:1024300001D10020DDE70120DBE770B506460C4640
:10244000154608E03046721C96B2FFF7B1FE04F85C
:10245000010B681E85B2002DF4D170BD70B5054624
:102460000C46164606E021782846FFF7CDFE681C8C
:1024700085B2641C301EA6F101018EB2F3D170BD8D
:10248000FFFFFFFFFFF12900202001017B39961992
:10249000313030303030302D623736316332623097
:1024A00010000020524649445F4B65793A2530328E
:1024B00058253032582530325825303258253032A0
:1024C00058253032582EBEF8B6D4BFE9BAC53A25E1
:1024D000640D0A00010000204950B5D8D6B72D2D53
:1024E0002D2D2D2D2D2D2D2D2D2D25642E25642EBC
:1024F00025642E25640D0A0006000020B6CBBFDA45
:10250000BAC52D2D2D2D2D2D2D2D2D2D2D2D2535D6
:10251000640D0A0008000020C7F8D3F2BFD8D6C661
:10252000C6F7534E2D2D2D2D2D2D2530325825300B
:10253000325825303258253032580D0A000000003C
:1025400026080020C7F8D3F2BFD8D6C6C6F7CDA854
:10255000D0C5C2EB2D2D000025325825325825322A
:1025600058253258253258253258253258253258A8
:10257000000000002532582532582532582532589F
:102580002532582532582532582532580D0A000078
:1025900017000020BEB2CCAC49502D2D2DBFAAC6CD
:1025A000F40D0A001C00002020000020BEB2CCACBC
:1025B00049502D2D2DBDFBD3C30D0A00415432349B
:1025C0004358585F44656C6574655F616C6C446129
:1025D000742829210D0A00002DE9FC410546002040
:1025E00000900190012428E004EB840000F10A0629
:1025F0003046FFF7DDFD0746A7421CD1711C88B2AB
:1026000004226946FFF719FFE8789DF80310884215
:1026100011D1A8789DF8021088420CD128789DF835
:102620000010884207D168789DF80110884202D1D5
:102630002046BDE8FC81601CC4B2512CD4DB0124CF
:102640002FE004EB840000F10A063046FFF7B0FDEE
:102650000746A74223D021463046FFF7D5FD29780B
:10266000721C90B2FFF7D0FD6978B21C90B2FFF7F0
:10267000CBFDA978F21C90B2FFF7C6FDE978321DB8
:1026800090B2FFF7C1FD0120FFF792FD804608F1EF
:102690000100C1B20120FFF7B7FD2046C9E7601C69
:1026A000C4B2512CCDDBF320C3E77CB50546002036
:1026B00000900190012419E004EB840101F10A006B
:1026C000FFF776FDA8420FD104EB84010A3141F0F7
:1026D000010004226946FFF7C1FE04EB840101F109
:1026E0000A000021FFF790FD601CC4B2512CE3DB0F
:1026F0000020C5EBC501F84A02F811000120FFF7E0
:1027000057FD0646701EC1B20120FFF77DFD701E09
:10271000C0B27CBD30B585B0002003900490012488
:10272000BBE004EB840000F10A052846FFF740FDFA
:10273000A0422BD1691C88B2042203A9FFF77DFEB9
:102740009DF80F009DF80E109DF80D20CDE9002199
:1027500002909DF80C3022462946E0A019F09CF822
:102760009DF80C0098B99DF80D0080B99DF80E00F9
:1027700068B99DF80F0050B92146E5A019F08CF812
:102780002046FFF792FF0020EB4908557DE003A9A2
:10279000204600F089FEE84908550846005D68B308
:1027A000CD480078401CCC4908708020C4EBC4019F
:1027B000C94A02F811009DF80C00C4EBC40102EBF9
:1027C000410148709DF80D00C4EBC40102EB4101CA
:1027D00088709DF80E00C4EBC40102EB4101C87083
:1027E0009DF80F00C4EBC40102EB41010871D2480F
:1027F000025D2146D1A019F04FF846E0D4A019F0AF
:102800004BF8322300221146104618F0E3FE03A9CC
:10281000204600F049FEC84908550846005D68B3E7
:10282000AD480078401CAC4908708020C4EBC4015E
:10283000A94A02F811009DF80C00C4EBC40102EB98
:10284000410148709DF80D00C4EBC40102EB410149
:1028500088709DF80E00C4EBC40102EB4101C87002
:102860009DF80F00C4EBC40102EB41010871B248AE
:10287000025D2146BAA019F00FF806E02146BFA07C
:1028800019F00AF82046FFF710FF05230022114631
:10289000104618F09FFE601CC4B2512CFFF641AFE9
:1028A00005B030BD10B5044607222146E620FFF7EB
:1028B000C4FD10BD10B504462178E620FFF7A4FC46
:1028C0006178E720FFF7A0FCA178E820FFF79CFCE7
:1028D000E178E920FFF798FC2179EA20FFF794FCE2
:1028E0006179EB20FFF790FCA179EC20FFF78CFCDD
:1028F00010BD10B5044604222146C820FFF79DFDF7
:1029000010BD10B504462178C820FFF77DFC617822
:10291000C920FFF779FCA178CA20FFF775FCE178A0
:10292000CB20FFF771FC10BD08B5002000900222FB
:102930006946CC20FFF781FD9DF801009DF800104D
:1029400040EA012008BD70B50446CC262546E017B4
:1029500004EB1060C0F307213046FFF755FC254615
:10296000E01704EB10600012A4EB0020C1B2701C51
:10297000FFF74AFC70BD10B5044604222146CE2064
:10298000FFF75BFD10BD70B50446CE2521782846C3
:10299000FFF73AFC6178681CFFF736FCA178A81CA9
:1029A000FFF732FCE178E81CFFF72EFC70BD10B594
:1029B000044610222146D220FFF73FFD10BD70B51E
:1029C0000446D22521782846FFF71EFC6178681C52
:1029D000FFF71AFCA178A81CFFF716FCE178E81CA9
:1029E000FFF712FC2179281DFFF70EFC6179681DA5
:1029F000FFF70AFCA179A81DFFF706FCE179E81DA5
:102A0000FFF702FC217A05F10800FFF7FDFB617A70
:102A100005F10900FFF7F8FBA17A05F10A00FFF7BD
:102A2000F3FBE17A05F10B00FFF7EEFB217B05F1EB
:102A30000C00FFF7E9FB617B05F10D00FFF7E4FBFC
:102A4000A17B05F10E00FFF7DFFBE17B05F10F0035
:102A5000FFF7DAFB70BD70B50446EF2521782846F4
:102A6000FFF7D2FB6178681CFFF7CEFBA178A81CAA
:102A7000FFF7CAFBE178E81CFFF7C6FB2179281DA8
:102A8000FFF7C2FB70BD70B50446F42521782846D7
:102A9000FFF7BAFB6178681CFFF7B6FBA178A81CAA
:102AA000FFF7B2FBE178E81CFFF7AEFB70BD70B535
:102AB0000446F82521782846FFF7A6FB6178681CB4
:102AC000FFF7A2FBA178A81CFFF79EFBE178E81CAA
:102AD000FFF79AFB70BD0000680300202B2BC6F0A7
:102AE000CABC3A253033643B20C2DFBCAD3A253046
:102AF00032643B20CEEFC0EDA3BA253032582530EA
:102B0000325825303258253032583B200000000022
:102B10000D0ACEEFC0EDB5D8D6B7B2BBC4DCCEAA95
:102B200030783030A3A1C7E5C2DFBCADB5D8D6B789
:102B30003A25643B0D0A0000D60700205665725BFB
:102B4000253032645D3D253032580D0A000000000A
:102B50000D0AB7D6C5E4CAA7B0DCA3A120200000A7
:102B60005665725B253032645D3D253032582CB796
:102B7000D6C5E4B3C9B9A6A3A10D0A00B6FEB4CE6A
:102B8000B7D6C5E4CAA7B0DCA3A10D0AC7E5C2DF6A
:102B9000BCADB5D8D6B73A25643B0D0A000000009D
:102BA00010B5044605222146EF20FFF746FC10BD74
:102BB00010B5044604222146F420FFF73EFC10BD68
:102BC00010B5044604222146F820FFF736FC10BD5C
:102BD00070B59AB00446142115A819F0C9F814214B
:102BE00010A819F0C5F800200E900F900D900990D4
:102BF0000A900B900C9000260025F4208DF85400CC
:102C000060788DF85500A078401CC0B28DF8560051
:102C1000A07810287BD008DC0A2879D2DFE800F001
:102C2000780E7822787B789B78AC122871D0C328F4
:102C300046D0C5286ED0C9286AD12DE101208DF873
:102C40005700E64800788DF85800E44840788DF841
:102C50005900E24880788DF85A00E048C0788DF835
:102C60005B00A7E1E0788DF8570020798DF85800D7
:102C700060798DF85900A0798DF85A00E0798DF8C7
:102C80005B00207A8DF85C009DF857008DF84000BD
:102C90009DF858008DF841009DF859008DF84200CC
:102CA0009DF85A008DF8430010A8FFF72AFE9DF802
:102CB0005C109DF85B2041EA0220FFF744FE79E1B9
:102CC0000DA8FFF716FEFFF72FFE06469DF834000D
:102CD0008DF857009DF835008DF858009DF83600A6
:102CE0008DF859009DF837008DF85A003046F117DD
:102CF00006EB1161090A8DF85B10F11706EB116103
:102D00000912A6EB0121C9B28DF85C1052E101E174
:102D10004FE12BE110E0002508E0E81C215C15AA3A
:102D20001154205C10A94855681CC5B2102DF4DB65
:102D300010A8FFF744FE3DE109A8FFF738FE002583
:102D400006E009A8415DE81C15AA1154681CC5B22B
:102D5000102DF6DB2EE1002508E0E81C215C15AA09
:102D60001154205C10A94855681CC5B2042DF4DB31
:102D700010A8FFF708FE1DE1E07899490870207956
:102D8000487060798870A079C870E0790871207AFD
:102D900094490870607A4870A07A8870E07AC870A8
:102DA000207B91490870607B4870A07B8870E07B35
:102DB000C8708B48FFF74FFE8A48FFF764FE8A48C9
:102DC000FFF775FE8648FFF7EBFE8648FFF7F0FE3B
:102DD0008548FFF7F5FE824800788DF85700804857
:102DE00040788DF858007E4880788DF859007C48EE
:102DF000C0788DF85A007A4800798DF85B007948E0
:102E000000788DF85C00774840788DF85D00754853
:102E100080788DF85E007348C0788DF85F00724846
:102E200000788DF86000704840788DF861006E4839
:102E300080788DF862006C48C0788DF863006BA0D4
:102E400018F02AFD66480078AA2803D16FA018F070
:102E500023FD02E071A018F01FFD61480079009089
:102E60005F48C3788278417870A018F015FD5D48FE
:102E7000C07800905B4883784278017873A018F09E
:102E80000BFD5948C0780090574883784278017804
:102E900076A018F001FD8DE007A8FFF781FE06A8D7
:102EA000FFF786FE05A8FFF78BFE9DF81C008DF846
:102EB00057009DF81D008DF858009DF81E008DF8F4
:102EC00059009DF81F008DF85A009DF820008DF8DC
:102ED0005B009DF818008DF85C009DF819008DF8D6
:102EE0005D009DF81A008DF85E009DF81B008DF8BE
:102EF0005F009DF814008DF860009DF815008DF8B6
:102F000061009DF816008DF862009DF817008DF89D
:102F100063004FE0E0785D4908702079487060797F
:102F20008870A079C870E0790871207A4871A07A19
:102F3000887107215548FEF7F1FF5549087053483D
:102F4000FFF7B8FC51488079504949794F4A1279C6
:102F50004E4BDB78CDE90032CDE902104B48837847
:102F6000427801784BA018F097FC00BF0EA8FFF73D
:102F700099FC9DF838008DF857009DF839008DF8C0
:102F800058009DF83A008DF859009DF83B008DF8E7
:102F90005A009DF83C008DF85B009DF83D008DF8CF
:102FA0005C00607A8DF85D009DF83E008DF85E0053
:102FB00000E000BF00BF9DF85500401EC1B215A83B
:102FC000FEF7ACFF6178491E15AA50549DF85520B4
:102FD00015A90220FEF735F91AB070BD08000020CF
:102FE000170000201C000020200000202D2D2D2D7A
:102FF0002D2D2D2D2DBDD3CAD5B5BDB4AEBFDA2D27
:103000002D2D2D2D2D2D2D2D0D0A0000BEB2CCAC59
:1030100049502D2D2DBFAAC6F40D0A00BEB2CCAC6E
:1030200049502D2D2DBDFBD3C30D0A00BEB2CCAC33
:103030004950B5D8D6B72E2E2E2E2E2E25642E25ED
:10304000642E25642E25640D0A000000D7D3CDF828
:10305000D1DAC2EB2E2E2E2E2E2E2E2E25642E25CC
:10306000642E25642E25640D0A000000C4ACC8CF70
:10307000CDF8B9D82E2E2E2E2E2E2E2E25642E25AE
:10308000642E25642E25640D0A0000001000002027
:103090000F0000202D2D2D2D2D2D2D2D2DBDD3CA12
:1030A000D5B5BDB4AEBFDA20524649445F4B657911
:1030B0002025325825325825325825325825325885
:1030C0002532582CBFE9B5D8D6B7A3BA25640D0A66
:1030D0000000000070B505460C4645F2555003F05F
:1030E000B1F8284603F0B1F8204603F0B1F803F038
:1030F000B2F803F0B5F870BD10B503F0ACF810BD30
:103100002DE9F04188B004460D4616461F46DDF80D
:1031100038800121042001F091FE0121480601F0D0
:103120009AFE4FF48050ADF81C0003208DF81E006D
:1031300018208DF81F0007A9CB4801F0C3FB4FF4FE
:103140000060ADF81C0048208DF81F0007A9C64894
:1031500001F0B8FB00208DF816008DF817008DF8EF
:10316000180001208DF8190000208DF81A008DF844
:103170001B008DF812808DF813408DF814608DF8C7
:103180001550ADF8107004A9B84803F094F8002069
:103190008DF80A008DF80B0001208DF80C0000203E
:1031A000ADF80000ADF80200ADF80400ADF806007F
:1031B000ADF8080001208DF80D00684603F005F910
:1031C000002008B0BDE8F081F0B585B004460F4698
:1031D00000252078012808D02078072805D02078FD
:1031E000082802D02078092804D1607840F40070C3
:1031F000009002E04FF4007000909D480190002084
:103200008DF808008DF809008DF80A70002505E09A
:10321000615D0DF10B004155681C85B2082DF7DB8F
:103220006946924803F0C0F90646002501E0681C93
:1032300085B231468D4803F04FFA18B940F6FF7059
:103240008542F4DB40F6FF70854202DB012005B0C9
:10325000F0BD0020FBE730B585B00546002183486E
:1032600003F01AFB10B9002005B030BD6A460021FA
:103270007E4803F08EFA002404E00DF10B00005D9F
:103280002855641C082CF8D39DF80A00ECE730B5EB
:1032900087B005460C46002005900690142D7AD282
:1032A000DFE805F0C20A10233C464DC2637AC2C271
:1032B000C2C2C2C2C293C2A9A1208DF814008DF867
:1032C0001500B2E0C1208DF8140020788DF81500AB
:1032D00060788DF81600A0788DF81700E0788DF8EA
:1032E000180020798DF819009FE0A2208DF81400B5
:1032F00020788DF8150060788DF81600A0788DF88C
:103300001700E0788DF8180020798DF819006079A1
:103310008DF81A00A0798DF81B0086E0A3208DF8A7
:10332000140020788DF8150060788DF816007CE088
:1033300001208DF8140020788DF8150075E0072025
:103340008DF8140020788DF8150060788DF816003F
:10335000A0788DF81700E0788DF8180020798DF8A6
:10336000190060798DF81A005FE008208DF81400CC
:1033700020788DF8150060788DF81600A0788DF80B
:103380001700E0788DF8180020798DF81900607921
:103390008DF81A0049E047E009208DF814002078E4
:1033A0008DF8150060788DF81600A0788DF817005C
:1033B000E0788DF8180020798DF8190060798DF883
:1033C0001A00A0798DF81B002FE011208DF8140051
:1033D00020788DF8150060788DF81600A0788DF8AB
:1033E0001700E0788DF8180020798DF819006079C1
:1033F0008DF81A0019E013208DF8140020788DF84C
:10340000150060788DF81600A0788DF81700E07828
:103410008DF8180020798DF8190060798DF81A0060
:10342000A0798DF81B0000E000BF00BF9DF81B00D5
:103430009DF81A109DF819209DF81830CDE9013239
:10344000CDE903109DF8170000909DF816309DF807
:1034500015209DF8141007A018F01EFA082105A8E1
:10346000FFF7B2FE07B030BD000801400064004025
:1034700001F0001843414E5F53656E643A253032C7
:1034800058202530325820253032582025303258E7
:10349000202530325820253032582025303258200F
:1034A000253032583B2000002DE9F0418AB0054616
:1034B0000C464FF0000800260027002008900990D5
:1034C0000690079020788DF8200060788DF8210014
:1034D000A0788DF82200E0788DF823008DF8245034
:1034E00008A90220FFF7D3FE14263146FCA018F0ED
:1034F000D3F913E006A8FFF7AEFE07469DF81D00BE
:10350000A84201D0002700E008E005230022114670
:10351000104618F05FF8701EC6B200BF0FB9002E3B
:10352000E8DC3146F0A018F0B7F9002F40D09DF844
:103530001F009DF81E109DF81D209DF81C30CDE940
:103540000132CDE903109DF81B0000909DF81A3060
:103550009DF819209DF81810E5A018F09DF99DF828
:103560001800C22821D19DF819009DF8201088422A
:103570001BD19DF81A009DF82110884215D19DF8A5
:103580001B009DF8221088420FD19DF81C009DF869
:103590002310884209D19DF81D009DF8241088420F
:1035A00003D19DF81E80002704E04FF0000801E0E1
:1035B0004FF0000840460AB0BDE8F0811CB5044653
:1035C00000200090019020788DF8000060788DF840
:1035D0000100A0788DF80200E0788DF803002079D2
:1035E0008DF8040060798DF80500A0798DF806004B
:1035F00069460320FFF74BFE1CBD1CB50020009060
:10360000019069460120FFF742FE1CBD7CB50446CF
:103610000D460020009001908DF800408DF801507B
:103620009DF801209DF80010BBA018F035F96946FF
:103630000420FFF72CFE7CBD2DE9FC410446142636
:10364000002700250020009001900EE06846FFF75B
:1036500002FE054605B108E002230022114610468D
:1036600017F0B8FF701EC6B200BF0DB9002EEDDC1A
:10367000FDB19DF80000B32819D19DF8010020701C
:103680009DF8020060709DF80300A0709DF8040092
:10369000E07004212046FEF741FC07469DF8050036
:1036A000B84202D10120BDE8FC810020FBE70020E8
:1036B000F9E70020F7E72DE9F0418AB005460C460E
:1036C000002008900990069007900A26804600275F
:1036D0008DF8185006A90520FFF7D9FD00BF314627
:1036E00096A018F0D9F813E008A8FFF7B4FD074634
:1036F0009DF82100A84201D0002700E008E0052342
:1037000000221146104617F065FF701EC6B200BFBA
:103710000FB9002EE8DC31468BA018F0BDF8002F61
:1037200070D09DF82100A84205D19DF82000022804
:1037300001D1804666E19DF82100A8426AD19DF83A
:103740002000032866D1052020709DF822006070BB
:103750009DF82300A0709DF82400E0709DF82500DE
:1037600020710A26002713E008A8FFF774FD07461A
:103770009DF82100A84201D0002700E008E00523C1
:1037800000221146104617F025FF701EC6B200BF7A
:103790000FB9002EE8DCA7B39DF827009DF826108E
:1037A0009DF825209DF82430CDE90132CDE90310A4
:1037B0009DF8230000909DF822309DF821209DF86F
:1037C000201064A018F068F89DF82100A8421AD1D2
:1037D0009DF82000042816D19DF8220060719DF804
:1037E0002300A0719DF82400E0719DF8250020724F
:1037F0009DF8260060724FF0AA0840460AB0BDE866
:10380000F08104E0FCE04FF000080027FAE04FF000
:103810000008F7E09DF82100A8425FD19DF8200044
:1038200005285BD1062020709DF8220060709DF86D
:103830002300A0709DF82400E0709DF82500207101
:103840000A2613E008A8FFF706FD07469DF82100A9
:10385000A84201D0002700E008E00523002211461D
:10386000104617F0B7FE701EC6B200BF0FB9002E8B
:10387000E8DC97B39DF827009DF826109DF82520D9
:103880009DF82430CDE90132CDE903109DF82300E5
:1038900000909DF822309DF821209DF820102DA049
:1038A00017F0FAFF9DF82100A84269D19DF8200089
:1038B000062865D19DF8220060719DF82300A07153
:1038C0009DF82400E0719DF8250020729DF82600E7
:1038D00060724FF0AA08404690E755E057E04FE08D
:1038E0004F7665723D2564002D25643B2000000065
:1038F00052653C3C253032582530325825303258FC
:10390000253032582530325825303258253032583B
:1039100025303258200000003E3E3E3E3E3E3E3EB8
:103920003EB9E3B2A520CBAEB7D13D25643B20C262
:10393000F6B3E5CAFD3D25640D0A0000C2D6D1AD3F
:1039400020256420000000002D2025643B20200D50
:103950000A0000002530325820253032582025300A
:103960003258202530325820253032582025303228
:1039700058202530325820253032580D0A000000DA
:103980004FF0000800273DE04FF000083AE09DF8B6
:103990002100A84216D19DF82000042812D19DF8DC
:1039A000220060719DF82300A0719DF82400E07151
:1039B0009DF8250020729DF8260060724FF0AA083D
:1039C00040461BE79DF82100A84216D19DF8200033
:1039D000062812D19DF8220060719DF82300A07185
:1039E0009DF82400E0719DF8250020729DF82600C6
:1039F00060724FF0AA08404600E74FF0000801E06F
:103A00004FF000084046F9E61CB50446002000903F
:103A1000019020788DF8000060788DF80100A07882
:103A20008DF80200E0788DF8030020798DF804000D
:103A300060798DF8050069460620FFF728FC1CBD5B
:103A40001CB5044600200090019020788DF80000FD
:103A500060788DF80100A0788DF80200E0788DF88C
:103A6000030020798DF8040060798DF8060069461E
:103A70001120FFF70CFC1CBD08B5FEA000680090EB
:103A80009DF80100401EC1B26846FEF747FA8DF866
:103A900003009DF8012069460120FDF7D2FB962323
:103AA00000221146104617F095FD08BD70B586B08E
:103AB000044600252146F0A017F0EEFEC4EBC4003A
:103AC000EF4911F8100000F08000802832D1C4EBDB
:103AD000C40001EB4000407858B9C4EBC40001EBCE
:103AE0004000007928B90020C4EBC401E44A02F880
:103AF0001100E448006808B9012000E00020E14915
:103B0000086003A92046FFF7D6FD054625B903A99D
:103B10002046FFF7D0FD0546022D0CD1C4EBC400B2
:103B2000D74911F8100020F02300C4EBC401D44A97
:103B300002F81100EEE065B9C4EBC400D04911F8F9
:103B4000100040F02000C4EBC401CD4A02F811007F
:103B5000E0E09DF80C0005280CD1C4EBC400C84976
:103B600011F8100040F00100C4EBC401C44A02F88F
:103B700011000FE09DF80C0006280BD1C4EBC40027
:103B8000BF4911F8100040F00200C4EBC401BC4A68
:103B900002F811009DF80D00C4EBC401B84A02EB15
:103BA000410148719DF80E00C4EBC40102EB4101D4
:103BB00088719DF80F00C4EBC40102EB4101C8718C
:103BC0009DF81000C4EBC40102EB410108729DF89E
:103BD0001100C4EBC40102EB410148729DF81200D0
:103BE000C4EBC40102EB410188729DF81300C4EBE1
:103BF000C40102EB4101C8729DF81400C4EBC4017A
:103C000002EB410108739DF81500C4EBC40102EBFF
:103C100041014873C4EBC400114611F8100000F0D4
:103C20000302214698A017F037FEC4EBC400944964
:103C300001EB4000007A0090C4EBC4000E4606EB96
:103C40004000C379C4EBC40006EB40008279C4EBAA
:103C5000C40006EB4000417992A017F01DFEC4EBB2
:103C6000C400324602EB4000407A0004C4EBC402B8
:103C7000334603EB4202927A40EA0220C4EBC402CC
:103C800003EB4202D27A40EA02018DA017F004FE53
:103C9000C4EBC400334603EB4000427BC4EBC400DA
:103CA00003EB4000017B8AA017F0F6FD8DF804407D
:103CB0009DF80D008DF805009DF80E008DF80600AA
:103CC0009DF80F008DF807009DF810008DF8080092
:103CD000C4EBC400314611F8100000F003000128C5
:103CE00003D1AA208DF809000BE0C4EBC40064499D
:103CF00011F8100000F00300022802D155208DF8C1
:103D00000900052300221146104617F063FC01A8A4
:103D1000FFF77AFE06B070BD70B58CB00446002087
:103D200009900A900B900790089005900690002645
:103D30000A255448006808B9012000E000205149D4
:103D400008602078AA287CD1607AC0EBC0004C497A
:103D500011F8100000F03F0040F08000617AC1EBE4
:103D6000C101474A02F81100617A61A017F094FD81
:103D700060788DF82400A0788DF82500E0788DF823
:103D8000260020798DF82700A07A8DF82800A079E8
:103D90008DF82900E0798DF82A00207A8DF82B0023
:103DA00060798DF82C00A07A8DF82D00607A8DF85E
:103DB0001C009DF824008DF81D009DF825008DF84D
:103DC0001E009DF826008DF81F009DF827008DF835
:103DD00020009DF828008DF821009DF823009DF813
:103DE00022109DF821209DF82030CDE90132CDE947
:103DF00003109DF81F0000909DF81E309DF81D20B7
:103E00009DF81C103EA017F047FD07A90820FFF7FA
:103E10003EFA642300221146104617F0DBFB607A5D
:103E20008DF81C009DF829008DF81D009DF82A00D2
:103E30008DF81E009DF82B008DF81F009DF82C00BA
:103E400000E087E08DF820009DF82D008DF821001E
:103E50000A2109A8FEF762F88DF822009DF82300D8
:103E60009DF822209DF821109DF82030CDE90131E8
:103E70005CE00000F304A1002532643B2000000058
:103E8000680300209C012242C2DFBCADB5D8D6B782
:103E9000A3BA25643BBFA8D7B4CCAC25643B202093
:103EA00000000000BFA8BAC5A3BA2530325825309B
:103EB000325825303258253032583B20200000003F
:103EC000BDF0B6EEA3BA2536643B202020000000EA
:103ED000BFA8D0A3D1E9A3BA2532643B202020CDCE
:103EE000A8D0C5C2EBA3BA253032583B200D0A003A
:103EF0000D0AB7FECEF1C6F7202532643B20000044
:103F0000253032582025303258202530325820258F
:103F10003032582025303258202530325820253074
:103F2000325820253032580D0A000000CDE9032018
:103F30009DF81F0000909DF81E309DF81D209DF8F3
:103F40001C10AFF2440017F0A7FC07A90920FFF7E7
:103F50009EF967E02078BB281DD161784CA017F04E
:103F60009BFC60788DF81C00A0788DF81D00E0782F
:103F70008DF81E0020798DF81F0060798DF82000E3
:103F8000A0798DF82100E0798DF8220007A913208F
:103F9000FFF77DF946E0207855282AD16078C0EBFC
:103FA000C000434911F8100000F03F0040F040000D
:103FB0006178C1EBC1013E4A02F8110061783DA071
:103FC00017F06AFC60788DF81C00A0788DF81D0051
:103FD000E0788DF81E0020798DF81F0060798DF84B
:103FE000200000208DF8210007A91120FFF74FF9CC
:103FF00018E02078CC2815D18020E179C1EBC101EF
:104000002B4A02F81100A3796279617830A017F089
:1040100043FCE0798DF81C00607939490870A0797B
:10402000384908700A250BE005A8FFF714F9064681
:10403000052300221146104617F0CCFA681EC5B2BF
:104040000EB9002DF0DC0CB070BD0020704770B5CB
:104050002DA017F021FC002417E021462BA017F01B
:104060001BFC00250AE0C4EBC400114A02EB40002F
:10407000415D28A017F010FC681CC5B20E2DF2DBC4
:1040800021A017F009FC601CC4B21A2CE5DB70BD3E
:104090000D0AB7FECEF1C6F720B2E5BFA8CAFDBE35
:1040A000DDB0FC20D2ECB3A3202532643B2000001D
:1040B000680300200D0AB7FECEF1C6F720D0C4CCAD
:1040C000F8B0FC20D2ECB3A3202532643B200000E2
:1040D0000D0AB7FECEF1C6F720D0C4CCF8B0FC2054
:1040E000D5FDB3A33A2532642CCBAEB7D13A2532F5
:1040F000642CC2F6B3E5CAFD3A2532643B0D0A00D2
:104100000E0000200D0000200D0A00002530326452
:104110002D2D0000253032582C000000314901437C
:10412000314A1160704770B5002100230F22C47816
:1041300004B32D4C246804F4E064C4F5E064210A5F
:10414000C1F10403CA40447804FA03F184781440AE
:1041500021430901254C0678A155047804F01F0578
:104160000124AC4005786D11AD0005F1E025C5F8DE
:10417000004109E0047804F01F050124AC401C4D07
:104180000678761145F8264070BD1A4A0A40024367
:10419000154B1B1F1A60704739B1134A121D126864
:1041A0000243114B1B1D1A6006E00F4A121D1268D4
:1041B00082430D4B1B1D1A607047042808D14FF035
:1041C000E021096941F004014FF0E022116107E0AC
:1041D0004FF0E021096921F004014FF0E022116164
:1041E000704700000000FA050CED00E000E400E07C
:1041F00080E100E080FFFF1F30B943F2DB02810065
:10420000A1F1C0410A6005E043F2D2028100A1F1B0
:10421000C0410A606FF07042411C8900A1F1C041A9
:104220000A608100A1F1C041C1F804217047102843
:104230000AD118214FF020421166402151664FF0FB
:10424000FC319166D16610E01821F74A11604021D7
:104250004FF02042C2F884104FF0FC31F24A08328D
:1042600011604FF02042C2F88C1070471820EE49C0
:104270002031086000200906C1F8A4004FF0FC308E
:10428000E94928310860091D0860091D0860704768
:10429000D0E901121143C268114302691143426916
:1042A000114382691143C2691143026A1143426A90
:1042B0001143826A1143C26A1143026B11430268BF
:1042C0009200A2F1C0421160816808290BD10168F7
:1042D0008900A1F1C041096841F0400201688900EC
:1042E000A1F1C0410A60416B0968426B526841EA22
:1042F0000211426B926841EA0221426B928941EAC3
:104300000241426B128A41EA0251426B127D41EA3C
:104310000261426B926911430268521C9200A2F141
:10432000C0421160C16AB1F5804F1BD1816B096831
:10433000826B526841EA0211826B926841EA022163
:10434000826B128A41EA0251826B127D41EA02615C
:10435000826B9269114302689200A2F1C042C2F8D6
:10436000041107E06FF0704201688900A1F1C041BB
:10437000C1F80421704730B50021002200234468B1
:1043800044F0080485682C43C5682C4305692C4318
:10439000456944EA4524856944EA4531C46924688D
:1043A000C5696D6844EA0524C5692D8944EA054458
:1043B000C5692D7B44EA0562046A2468056A6D6854
:1043C00044EA0524056A2D8944EA0544056A2D7BE3
:1043D00044EA05630468102C05D14FF0204421669F
:1043E000A266E36608E0904C21604FF02044C4F8D8
:1043F00088208D4C0C34236030BD016841F01001E1
:10440000426841EA4221826841EA4231864A2032CA
:104410001160C1680968C268526841EA0221C26835
:10442000128941EA0241C268127B41EA02617E4A76
:1044300028321160016909680269526841EA022163
:104440000269128941EA02410269127B41EA026172
:10445000754A2C321160416909684269526841EA23
:1044600002214269128941EA02414269127B41EA12
:1044700002614FF02042C2F8B01070470021016085
:104480000221416000218160C1600161416181615F
:10449000C16101624FF48051416249008162002193
:1044A000C16201630F21426B1160426B5160FF21B9
:1044B000426B91600F21426BD160426B1161426B84
:1044C00051610021426B91610F21826B1160826BFF
:1044D0005160FF21826B91600F21826BD160826BF2
:1044E0001161826B51610021826B916170471021D3
:1044F0000160002141608160C160016141618161B1
:10450000FC21C2691160C2695160C2699160C269CF
:10451000D160026A1160026A5160026A9160026AA7
:10452000D16070470021016041608160FC21C26858
:104530001160C2685160C2689160C268D16002694E
:10454000116002695160026991600269D16042693B
:10455000116042695160426991604269D16070475F
:1045600051B18200A2F1C042126842F00103820000
:10457000A2F1C042136009E08200A2F1C0421268B9
:104580002A4B1A408300A3F1C0431A60704799B1C7
:10459000102808D14FF02042126E42F004024FF072
:1045A00020431A661DE0204A126842F004024FF0D0
:1045B0002043C3F8802014E0102809D14FF0204296
:1045C000126E1A4BDB1E1A404FF020431A6608E0A9
:1045D000154A1268154BDB1E1A404FF02043C3F8F2
:1045E0008020704748B110492031096841F004012A
:1045F0004FF02042C2F8A01009E00B4920310968B1
:104600000A4AD21E11404FF02042C2F8A010704753
:10461000B9B110280CD14FF02042126E42F0400286
:104620004FF020431A661FE0800000A0FEFF0F003D
:10463000724A126842F040024FF02043C3F88020D3
:1046400012E0102808D14FF02042126E6C4B1A4035
:104650004FF020431A6607E0684A1268684B1A4018
:104660004FF02043C3F880207047014600201029F6
:1046700003D14FF02042506F02E0604A14321068BC
:10468000704710B5F2B1102807D14FF020435B6E90
:104690000B434FF02044636632E0B0F5807F08D1D1
:1046A000564B1B1D1B680B434FF02044C4F884304D
:1046B00026E0524B24331B680B434FF02044C4F8D0
:1046C000A4301DE0102807D14FF020435B6E8B43D0
:1046D0004FF02044636613E0B0F5807F08D1474B6C
:1046E0001B1D1B688B434FF02044C4F8843007E047
:1046F000424B24331B688B434FF02044C4F8A43052
:1047000010BD10B5024600200023102A03D14FF03F
:104710002044636E09E0B2F5807F03D1374C241D3D
:10472000236802E0354C2434236803EA01040CB109
:10473000012000E0002010BD102807D14FF02042DA
:10474000526E8A434FF020435A6613E0B0F5807FE3
:1047500008D12A4A121D12688A434FF02043C3F839
:10476000842007E0254A243212688A434FF0204310
:10477000C3F8A420704770B502460020002300242F
:104780000025102A03D14FF02046736E09E0B2F5E0
:10479000807F03D1194E361D336802E0174E243650
:1047A000336803EA010403EAD10514B10DB1012015
:1047B00000E0002070BD102808D14FF02042526E5A
:1047C00022EAD1024FF020435A6615E0B0F5807F0F
:1047D00009D10A4A121D126822EAD1024FF0204381
:1047E000C3F8842008E0054A2432126822EAD10284
:1047F0004FF02043C3F8A42070470000800000A0C1
:10480000BFFF0F0010B50446CC48844208D10121F7
:10481000042000F02DFB0021042000F029FB46E0DD
:10482000C748844208D10121082000F021FB002163
:10483000082000F01DFB3AE0C248844208D1012163
:10484000102000F015FB0021102000F011FB2EE0DD
:10485000BD48844208D10121202000F009FB00213D
:10486000202000F005FB22E0B848844208D1012155
:10487000402000F0FDFA0021402000F0F9FA16E097
:10488000B348844208D10121802000F0F1FA0021D0
:10489000802000F0EDFA0AE0AE48844207D1012101
:1048A000801500F0E5FA0021A01500F0E1FA10BD36
:1048B00010B50121084600F0DBFA0021012000F0CC
:1048C000D7FA10BD2DE9F041024600250026002050
:1048D00000230024002791F803C00CF00F0591F885
:1048E00003C00CF0100CBCF1000F03D091F802C013
:1048F0004CEA050591F800C0BCF1000F31D01468F6
:1049000000202BE04FF0010C0CFA00F3B1F800C0CE
:104910000CEA03069E4220D183004FF00F0C0CFAE4
:1049200003F7BC4305FA03FC4CEA040491F803C006
:10493000BCF1280F06D14FF0010C0CFA00FCC2F8B4
:1049400014C00AE091F803C0BCF1480F05D14FF044
:10495000010C0CFA00FCC2F810C0401C0828D1D38E
:104960001460B1F800C0BCF1FF0F34DD54680020C2
:104970002EE000F1080C4FF0010808FA0CF3B1F832
:1049800000C00CEA03069E4221D183004FF00F0CB9
:104990000CFA03F7BC4305FA03FC4CEA040491F853
:1049A00003C0BCF1280F05D100F1080C08FA0CF87F
:1049B000C2F8148091F803C0BCF1480F07D100F190
:1049C000080C4FF0010808FA0CF8C2F81080401CDF
:1049D0000828CED35460BDE8F0814FF6FF71018006
:1049E000022181700421C170704702460020936843
:1049F0000B400BB1012000E00020704701468868A1
:104A000080B2704702460020D3680B400BB10120F2
:104A100000E0002070470146C86880B2704701611D
:104A20007047416170470AB1016100E04161704720
:104A3000C16070474FF480320A43826181618261B4
:104A400082698269704702460020434B18684FF61E
:104A50008073184040EA021008433F4B18607047CB
:104A60003E49C8617047F0B50A4600230024002182
:104A7000002500F00046B6F1004F02D1364EF16934
:104A800001E0354E7168C0F3034583B200F440166F
:104A9000B6F5401F08D121F070612F4E766826F0E0
:104AA00070662D4F7E6012E000F48016B6F5801F10
:104AB00006D1032606FA05F4A14341F0706106E031
:104AC000460D360103FA06F6B14341F0706122B19A
:104AD000460D360103FA06F6314300F00046B6F102
:104AE000004F02D11C4EF16101E01B4E7160F0BD20
:104AF00030B500228B071C0F0F2303FA04F2164B6C
:104B000008338C1053F824309343134C08348D1021
:104B100044F8253023468C1053F824308C07240F9A
:104B200000FA04F423430C4C08348D1044F825306B
:104B300030BD0A49DC3108607047000000080140C0
:104B4000000C014000100140001401400018014019
:104B5000001C0140002001400000014000002042F4
:104B6000DF48006840F00100DD4908600846406801
:104B7000DC490840DA49486008460068DA490840DC
:104B8000D74908600846006820F48020086008467D
:104B9000406820F4FE0048604FF41F0088607047B2
:104BA000CF49096821F48031CD4A11601146096866
:104BB00021F480211160B0F5803F03D0B0F5802F43
:104BC0000ED106E0C649096841F48031C44A11603B
:104BD00007E0C349096841F4A021C14A116000E01F
:104BE00000BF00BF704710B501460022002300201F
:104BF0004A11012A02D1BA4C236806E0022A02D1E6
:104C0000B74C236A01E0B64C636A01F01F0201242D
:104C100094401C400CB1012000E0002010BD38B5CC
:104C2000002000900024002500BF3120FFF7DBFFAB
:104C300005460098401C00900098B0F5A06F01D088
:104C4000002DF2D03120FFF7CEFF08B1012400E0A3
:104C50000024204638BD01460020A14A106820F0FB
:104C6000F80040EAC10010607047A0490860704732
:104C7000024600209A4B586820F47C1042EA010357
:104C80001843974B5860704798490866704701462B
:104C90000020934A506820F003000843506070479A
:104CA0008F48406800F00C007047014600208C4A95
:104CB000506820F0F0000843506070470146002023
:104CC000874A506820F4E06008435060704701460E
:104CD0000020834A506820F4605040EAC1005060D0
:104CE000704729B17E4A527A02437D4B5A7204E0E2
:104CF0007B4A527A82437A4B5A7270477B49D83149
:104D00000860704701460020754A506820F4404012
:104D10000843506070470021714A20321170704A78
:104D200082F82010012802D004280AD104E00121D1
:104D30006B4A2032117005E00521694A203211705A
:104D400000E000BF00BF70476949086070476449D0
:104D5000096A0143624A1162704765494439086033
:104D6000704730B500210022002400235C4D6D689F
:104D700005F00C0121B1042905D0082923D105E053
:104D80005C4D056022E05B4D05601FE0544D6D6891
:104D900005F47012524D6D6805F48034022505EB60
:104DA00092421CB9544D554305600BE04C4D6D6863
:104DB00005F400351DB1504D5543056002E04D4DE1
:104DC0005543056002E04B4D056000BF00BF444DF8
:104DD0006D6805F0F0010909484D6B5C0568DD4020
:104DE00045603F4D6D6805F4E061090A434D6B5C19
:104DF0004568DD4085603A4D6D6805F46051C90A2B
:104E00003E4D6B5C4568DD40C560354D6D6805F411
:104E10004041890B3A4D6B5CC568B5FBF3F5056104
:104E200030BD29B12E4A526902432D4B5A6104E02C
:104E30002B4A526982432A4B5A61704729B1284A4A
:104E400092690243264B9A6104E0254A92698243A3
:104E5000234B9A61704729B1214AD2690243204B02
:104E6000DA6104E01E4AD26982431D4BDA61704761
:104E700029B11B4AD2680243194BDA6004E0184A90
:104E8000D2688243164BDA60704729B1144A12691E
:104E90000243134B1A6104E0114A12698243104B1A
:104EA0001A61704712494039086070470F49C86459
:104EB00070470B49C87170470948406A40F08070DC
:104EC00007494862704701460020054A92680A4037
:104ED0000AB1012000E00020704701498872704744
:104EE000001002400000FFF8FFFFF6FE0000424203
:104EF0008004424200127A0000093D004C0000206C
:104F00005C00002010B50446FE48844208D101210F
:104F1000C014FFF7ADFF0021E014FFF7A9FFC4E0C4
:104F2000B4F1804F08D101210846FFF7AEFF002100
:104F30000120FFF7AAFFB8E0F348844208D101211D
:104F40000220FFF7A2FF00210220FFF79EFFACE046
:104F5000EE48844208D101210420FFF796FF00218A
:104F60000420FFF792FFA0E0E948844208D1012124
:104F70000820FFF78AFF00210820FFF786FF94E052
:104F8000E448844208D101211020FFF77EFF002170
:104F90001020FFF77AFF88E0DF48844208D1012122
:104FA0002020FFF772FF00212020FFF76EFF7CE03A
:104FB000DA48844208D101214014FFF759FF00214B
:104FC0006014FFF755FF70E0D548844209D10121F4
:104FD000C804FFF74DFF00214FF40020FFF748FF02
:104FE00063E0D048844209D101210805FFF740FF62
:104FF00000214FF48010FFF73BFF56E0CA4884427F
:1050000009D101214805FFF733FF00214FF40010BB
:10501000FFF72EFF49E0C548844208D10121402016
:10502000FFF733FF00214020FFF72FFF3DE0C0488E
:10503000844208D101218020FFF727FF0021802032
:10504000FFF723FF31E0BB48844208D101218015DE
:10505000FFF71BFF0021A015FFF717FF25E0B6485B
:10506000844209D101210804FFF702FF00214FF417
:105070008030FFF7FDFE18E0B048844209D10121DD
:105080004804FFF7F5FE00214FF40030FFF7F0FE73
:105090000BE0AB48844208D101218804FFF7E8FE09
:1050A00000214FF48020FFF7E3FE10BD00220288AC
:1050B000944B98420ED0994B98420BD0B0F1804F50
:1050C00008D0914B984205D0904B984202D0904B1B
:1050D000984204D14FF68F731A404B881A438D4B78
:1050E000984207D08C4B984204D04FF6FF431A40A9
:1050F000CB881A4302808B8883850B880385814B7C
:1051000098420BD0854B984208D08B4B984205D0E3
:105110008A4B984202D08A4B984201D10B7A03867F
:1051200001238382704770B5002400220023058C80
:105130004FF6FE7635400584028C8388048B4FF64B
:105140008F752C40B51E2C400D882C43751E2A40AF
:105150000D892A434D882A436A4DA8420BD06F4DD2
:10516000A84208D0744DA84205D0744DA84202D080
:10517000734DA84213D14FF6F7752A404D892A4343
:105180004FF6FB752A408D882A434FF6FF652B406A
:105190004FF6FF552B408D892B43CD892B438380C0
:1051A0000483CD888586028470BD70B500240022FA
:1051B0000023058C4FF6EF7635400584028C8388FA
:1051C000048B48F6FF752C404FF6FF452C400D88A8
:1051D0004FF6FF7606EA05252C434FF6DF752A4089
:1051E0000D8906EA05152A434D8806EA05152A4366
:1051F000444DA84202D0494DA8421DD14FF67F75BB
:105200002A404D894FF6FF7606EA05152A434FF6E8
:10521000BF752A408D8806EA05152A434FF6FF35EB
:105220002B404FF2FF752B408D8906EA85052B43F5
:10523000CD8906EA85052B4383800483CD880587C5
:10524000028470BD70B5002400220023058C4FF647
:10525000FF6635400584028C8388848B4FF68F75FA
:105260002C404FF6FC752C400D882C434FF6FF5513
:105270002A400D894FF6FF7606EA05252A434D8818
:1052800006EA05252A431F4DA84202D0234DA84215
:105290001DD14FF2FF752A404D894FF6FF7606EA81
:1052A00005252A434FF6FF352A408D8806EA052555
:1052B0002A434EF6FF752B404DF6FF752B408D8926
:1052C00006EA05152B43CD8906EA05152B43838095
:1052D0008483CD888587028470BD70B50022002349
:1052E0000024058C4EF6FF7635400584038C8488B7
:1052F000828B48F6FF752A404FF6FF452A400D88FD
:1053000020E00000002C01400004004000080040A4
:10531000000C004000100040001400400034014028
:10532000004C014000500140005401400018004072
:10533000001C0040002000400040014000440140AB
:10534000004801404FF6FF7606EA05252A434DF650
:10535000FF752B400D8906EA05352B434D8806EA7B
:1053600005352B43FA4DA84202D0FA4DA84208D188
:105370004BF6FF752C408D894FF6FF7606EA8515B2
:105380002C4384808283CD88A0F84050038470BD74
:10539000828B4FF2FF331A408283828B4FF6FF736A
:1053A00003EA01231A4382837047F0B50C46154681
:1053B000002200210026078C4EF6FF7C07EA0C072E
:1053C0000784828B018C4FF6FF7707EA043640F69C
:1053D000FF473A404FF6FF7707EA05273A434FF673
:1053E000FF7707EA03373A43D94FB8420ED0D94F77
:1053F000B8420BD0B0F1804F08D0D74FB84205D09B
:10540000D64FB84202D0D64FB84206D14DF6FF77FC
:10541000394046F48057394305E047F6FF57394095
:1054200044F48057394382830184F0BD828B4FF668
:10543000F3731A408283828B0A4382837047F0B5EC
:105440000C461546002200210026078C4FF6FF6C03
:1054500007EA0C070784828B018C4FF6FF7707EA77
:1054600004264FF60C773A404FF6FF7707EA03170A
:105470002F433A43B64FB8420ED0B64FB8420BD086
:10548000B0F1804F08D0B44FB84205D0B34FB84206
:1054900002D0B34FB84206D14FF6FF57394046F419
:1054A0008077394305E04FF2FF57394044F4807765
:1054B000394382830184F0BD028B4FF2FF331A40DF
:1054C0000283028B4FF6FF7303EA01231A43028320
:1054D0007047F0B50C461546002200210026078CC7
:1054E0004FF6EF7C07EA0C070784028B018C4FF61E
:1054F000FF7707EA041640F6FF473A404FF6FF777A
:1055000007EA03373A434FF6FF7707EA05273A439E
:105510008F4FB8420ED08F4FB8420BD0B0F1804FB2
:1055200008D08D4FB84205D08C4FB84202D08C4F76
:10553000B84206D14FF6DF77394046F010073943BD
:1055400005E04FF65F77394044F010073943028396
:105550000184F0BD028B4FF6F3731A400283028B75
:105560000A4302837047F0B50C461546002200211D
:10557000068C4FF6FE773E400684028B018C4FF678
:105580000C7632407E1C06EA03162E433243704EE0
:10559000B0420ED06F4EB0420BD0B0F1804F08D069
:1055A0006D4EB04205D06D4EB04202D06C4EB0424E
:1055B00006D14FF6FD76314044F00106314305E057
:1055C0004FF6F576314044F0010631430283018401
:1055D000F0BD70B505460C465D4885420ED05D486D
:1055E00085420BD0B5F1804F08D05B48854205D08D
:1055F0005A48854202D05A48854200D100E000BF97
:10560000208850B92389A28861882846FFF7ABFF1C
:10561000E1882846FFF79EFF25E0208804280AD16C
:105620002389A28861882846FFF753FFE18828462E
:10563000FFF742FF17E0208808280AD12389A288B3
:1056400061882846FFF7FBFEE1882846FFF7EEFE5B
:1056500009E02389A28861882846FFF7A6FEE18831
:105660002846FFF795FE70BD2DE9F04105460C4632
:1056700000260127608808B9022600E00026A088DD
:10568000012801D1022700E001272088A0B9238941
:10569000A28861882846FFF766FFE1882846FFF761
:1056A00059FF23893A4631462846FFF712FFE18821
:1056B0002846FFF701FF13E02389A2886188284666
:1056C000FFF707FFE1882846FFF7F6FE23893A46F1
:1056D00031462846FFF747FFE1882846FFF73AFFA3
:1056E000BDE8F0810A884B881A438B881A43CB881F
:1056F0001A430B891A434B891A438B891A43A0F822
:10570000442070474FF6FF71818000210180C180E5
:105710004180017270470021018041808180C180F9
:10572000018141818181C1817047002101804180D7
:10573000012181800021C180018170470021018009
:1057400041808180C1800181418181817047000059
:10575000002C0140003401400004004000080040DB
:10576000000C004021B1028842F00102028004E0F6
:1057700002884FF6FE731A400280704731B1B0F8CC
:10578000442042F40042A0F8442005E0B0F8442050
:10579000C2F30E02A0F8442070471AB183890B436C
:1057A000838102E083898B438381704781827047C4
:1057B00041EA0203A0F8483070471AB183890B43CD
:1057C000838102E083898B438381704701894FF68F
:1057D000F8721140018170470A46002101894FF695
:1057E0008F73194011430181704730B504460D464F
:1057F00029462046FFF7F0FF208940F0070020816E
:1058000030BD2DE9F04104460D4616461F46602D79
:1058100006D13B46012231462046FFF75AFE05E0FD
:105820003B46012231462046FFF79DFE2946204691
:10583000FFF7D2FF208940F007002081BDE8F0810A
:1058400030B50C4600210189C9B24FF6FF7505EA53
:105850000325154325432943018130BD2DE9F0413E
:1058600005460E4617469846002443463A463146BA
:105870002846FFF7E5FF2C894FF6F870044044F006
:1058800007044FF68F70044044F070042C81BDE88B
:10589000F081F0B504460D4616461F463B4632469B
:1058A00029462046FFF7CCFF208940F48040208124
:1058B000F0BD0185828270470A46002101884FF6BB
:1058C0008F731940114301807047F0B50C4615469F
:1058D0001E460021002200230189028B038C4FF613
:1058E000F877394021434FF6FC473A4040F2011720
:1058F0003A434FF6DD773B404FF6FF7707EA06174E
:105900002F433B43018102830384F0BD0A460021FB
:10591000018B4FF68F7319401143018370470A467C
:105920000021018B48F6FF7319404FF6FF7303EA1D
:1059300002231943018370470A460021818B4FF6E9
:105940008F7319401143818370470A460021818B70
:1059500048F6FF7319404FF6FF7303EA0223194319
:105960008183704721B1028842F08002028004E006
:1059700002884FF67F731A400280704721B18288F7
:1059800042F00402828004E082884FF6FB731A40E2
:105990008280704721B1828842F00802828004E050
:1059A00082884FF6F7731A408280704721B182884F
:1059B00042F00102828004E082884FF6FE731A40B2
:1059C000828070470A460021018B4FF6F773194019
:1059D0001143018370470A460021018B4FF2FF7388
:1059E00019404FF6FF7303EA0223194301837047FE
:1059F0000A460021818B4FF6F773194011438183CA
:105A000070470A460021818B4FF2FF7319404FF611
:105A1000FF7303EA02231943818370470A4600217A
:105A2000018B4FF6FB7319401143018370470A46FF
:105A30000021018B4FF6FF3319404FF6FF7303EA45
:105A400002231943018370470A460021818B4FF6D8
:105A5000FB7319401143818370470A460021818BF3
:105A60004FF6FF3319404FF6FF7303EA0223194341
:105A7000818370470A460021018B4FF67F731940DE
:105A80001143018370470A460021018BC1F30E01C7
:105A90004FF6FF7303EA02231943018370470A4656
:105AA0000021818B4FF67F7319401143818370472A
:105AB0000A460021818BC1F30E014FF6FF7303EA02
:105AC00002231943818370470A460021018C4FF657
:105AD000FD7319401143018470470A460021018C6F
