:020000040800F2
:10000000D8FE0020210E0008290C00082B0C000847
:100010002F0C0008330C0008370C0008000000000B
:100020000000000000000000000000003B0C000881
:100030003D0C00080000000043B301087D0E0008DD
:100040003B0E00083B0E00083B0E00083B0E00086C
:100050003B0E00083B0E00083B0E00083B0E00085C
:100060003B0E00083B0E00083B0E00083B0E00084C
:100070003B0E00083B0E00083B0E00083B0E00083C
:100080003B0E00083B0E00083B0E00083B0E00082C
:100090003B0E00083B0E00083B0E00083F1D000809
:1000A0003B0E00083B0E00083B0E00083B0E00080C
:1000B0003B0E00083B0E00083B0E00083B0E0008FC
:1000C0003B0E00083B0E00083B0E00083B0E0008EC
:1000D0003B0E0008591700083B0E00087717000870
:1000E0003B0E00083B0E00083B0E00083B0E0008CC
:1000F0003B0E00083B0E00083B0E00083B0E0008BC
:100100003B0E00083B0E00083B0E00083B0E0008AB
:100110003B0E00083B0E00083B0E00083B0E00089B
:100120003B0E00083B0E00083B0E00083B0E00088B
:1001300000F002F800F071F80AA090E8000C824488
:100140008344AAF10107DA4501D100F066F8AFF265
:10015000090EBAE80F0013F0010F18BFFB1A43F0A5
:100160000103184738C0010058C001000A444FF08D
:10017000000C10F8013B13F0070408BF10F8014B06
:100180001D1108BF10F8015B641E05D010F8016B4B
:10019000641E01F8016BF9D113F0080F1EBF10F8AF
:1001A000014BAD1C0C1B09D16D1E58BF01F801CBD2
:1001B000FAD505E014F8016B01F8016B6D1EF9D555
:1001C0009142D6D37047000000230024002500266A
:1001D000103A28BF78C1FBD8520728BF30C148BFAA
:1001E0000B60704764291BF0458178291BF07E81E4
:1001F00063291BF01E8473291BF0238400207047A1
:100200001FB51BF0AFFB0400002000211BF086FC93
:10021000401C60601FBD10B510BD1BF049FC1146AD
:10022000FFF7EEFF00F013FC1BF067FC03B4FFF7D1
:10023000F2FF03BC01F0AEFA86B0002400250027CF
:10024000AEE0F648007838B9322300221146104655
:100250001AF052FF00254AE0002F48D141F2707099
:10026000844202DA601C84B200E00024EC4800788A
:10027000AA2804D10020EA4908704FF47A75502D5D
:1002800003DA681C85B200262BE0B5F5E16F10DAC1
:10029000681C85B21E2094FBF0F100FB114000BBEE
:1002A000E048007840F04000DE490870701CC6B29B
:1002B00017E041F28835DC480078002811DDDA4883
:1002C000007841F2707191FBF0F094FBF0F100FBCB
:1002D0001140012805D1D348007840F04000D149B1
:1002E00008702D230022114610461AF005FF01F078
:1002F0009CF8CE48008800F40040B0F5004F31D1A2
:100300000020CA490880AA27C948C079C849897904
:10031000C74A5279C64B1B79CDE90132CDE90310AA
:10032000C348C0780090C248837842780178C1A061
:100330001BF044F8CB481BF041F8BA48007820F095
:100340004000B8490870BA480078F32803D1B8488B
:1003500002F030FD06E0B6480078F12802D1B4483A
:1003600002F058FFC0480078AA2813D10020BE49E7
:10037000087005F025F8012005F022F8022005F0AC
:100380001FF8032005F01CF8042005F019F80520DB
:1003900005F016F805230022114610461AF0ACFEAF
:1003A0004FE788B01D20079005200690002005909B
:1003B0000027049000244FF064090390029010215C
:1003C00007F0C7FA0546002097490870A74908605A
:1003D0000120A749C1F89C01A449083908604FF4DD
:1003E000FA730222002108461AF086FE02F06AFA29
:1003F0008D4801789FA01AF0E1FFC8230022114622
:1004000010461AF079FEA64803F013FBC823002219
:10041000114610461AF070FEA2A01AF0CFFF03F0AA
:100420003EFB012091490860091F08609049C1F80E
:100430009801A14800780790A0480078069084E0D1
:100440008A48006808B9012000E000208749086058
:100450008748D0F89C0108B9012000E000208349BA
:10046000091F08608248D0F8980108B9012000E00F
:1004700000207E4908390860494691A01AF09EFF85
:1004800004A803F02BFB002855D09DF81300009022
:100490009DF812309DF811209DF810108AA01AF0D6
:1004A0008DFF04A802F066F9064631468CA01AF0CA
:1004B00085FF512E3FDC04A9304603F01BFA8B491F
:1004C000885500208A4988558848805D30B987481A
:1004D000825D314687A01AF071FF2CE08348825D6F
:1004E00031468BA01AF06AFF4F480078401C4E49F5
:1004F00008708020C6EBC6014B4A02F811009DF837
:100500001000C6EBC60102EB410148709DF81100D6
:10051000C6EBC60102EB410188709DF81200C6EBE4
:10052000C60102EB4101C8709DF81300C6EBC6017D
:1005300002EB41010871A9F1010000F0FF09052358
:100540000022114610461AF0D7FDB9F1000F7FF4D2
:1005500077AF00204549086001204549C1F89C015A
:10056000424908390860C8230022114610461AF093
:10057000C3FD4B4803F05DFAC82300221146104624
:100580001AF0BAFD464803F054FAAA20234908702D
:1005900066A01AF013FF4FF48061062002F0A0FF5E
:1005A0002BE202F0AFFF6C480078D02821D14FF049
:1005B000000A0EE002F0A6FF504603F02AFD642375
:1005C0000022114610461AF097FD0AF1010000F0D2
:1005D000FF0ABAF1A80FEDDB642300221146104692
:1005E0001AF08AFDE02002F01EFF00205A49087030
:1005F000FDE159480078D1280FD1FD2003F067FDB7
:10060000C8230022114610461AF076FDE12002F0C0
:100610000AFF002050490870E9E19FE0090000202E
:100620002D000020E1000020240200201400002002
:10063000440700200D0A5541525433203E3E2025E8
:10064000303258253032582530325825303258252E
:100650003032582530325825303258253032583B08
:10066000000000007CBE01082E000020A0012242F4
:1006700000002242C9CFB5E7BCECB2E2466C617320
:1006800068C4DAC2DFBCADB5D8D6B7CDEAB3C921EC
:1006900020D7DCCFDFA3BA2532642E0D0A0000007C
:1006A000190000200D0ACEB4D7A2B2E1B9E3B2A579
:1006B00021200D0A00000000160000201700002075
:1006C000253032642E200000CEEFC0EDA3BA2530D5
:1006D00032582530325825303258253032583B00B8
:1006E000C2DFBCAD3A2530643B000000920600201A
:1006F000E30600205665725B253032645D3D25308F
:1007000032582CB7D6C5E4CAA7B0DCA3A10D0A00A5
:100710005665725B253032645D3D253032582CB70A
:10072000D6C5E4B3C9B9A6A3A10D0A000D0AC9CF65
:10073000B5E7BCECB2E2CEB4D7A2B2E1B3ACCAB179
:10074000A3ACBDF8C8EBD5FDB3A3B4FDBBFAD7B4D9
:10075000CCAC3B0D0A0000002F000020F0480078D0
:10076000D22806D1FB2003F0B2FC0020EC4908702F
:100770003DE1EB480078D3280FD1FC2003F0A7FC23
:10078000C8230022114610461AF0B6FCE32002F0FE
:100790004AFE0020E249087029E1E1480078D428A7
:1007A0000FD104A902F0BBFFC82300221146104656
:1007B0001AF0A2FCE42002F036FE0020D8490870AE
:1007C00015E1D84909780798884204D1D6490978B3
:1007D0000698884213D0D3480178D348007803F0B4
:1007E00067F9022F02DC781CC7B208E0002700205E
:1007F0000290CC4800780790CB4800780690CB490F
:100800000978059888420BD0C94803F012F9022FE5
:1008100002DC781CC7B203E00027C44800780590CA
:10082000502C7DDA611CC8B203F0BEFCC4EBC400DE
:10083000C04911F8100000F00300002870D0AA2071
:100840002870C4EBC40011F8100000F00300012868
:1008500002D1112068700AE0C4EBC400B54911F858
:10086000100000F00300022801D113206870C4EBCF
:10087000C400B04901EB40004078A870C4EBC4004C
:1008800001EB40008078E870C4EBC40001EB40004D
:10089000C0782871C4EBC40001EB40000079687196
:1008A000C4EBC40001EB40004079A871C4EBC40064
:1008B00001EB40008079E871C4EBC40001EB40001B
:1008C000C0792872C4EBC40001EB4000007A687262
:1008D000C4EBC40001EB4000407AA872C4EBC40032
:1008E00001EB4000807AE872C4EBC40001EB4000E9
:1008F000C07A2873C4EBC40001EB4000007B68732E
:10090000AC73C4EBC40001EB4000407BE8732946A4
:100910008948006819F0DAFC8346BBF1000F00E05B
:1009200010E003D02946002007F003F8C4EBC40010
:10093000804911F8100020F00300C4EBC4017D4A87
:1009400002F8110001AA01217C48006819F0F6FBA9
:1009500080469DF8040028B9B8F1000F02D0404647
:1009600003F09AFD4146002006F0E3FF512C3CDDE8
:1009700073A01AF023FD00240398642804DA039876
:10098000401CC0B2039032E00020039003F009FF46
:10099000B8B114230022114610461AF0ADFB61488D
:1009A00001786148007803F083F81423002211468F
:1009B00010461AF0A1FB5E4803F03BF8AA206249FA
:1009C00008700298B0F5702F0BD9002002905FA03C
:1009D0001AF0F4FC534801785348007803F068F8A3
:1009E00005E00298401C029001E0601CC4B20A239A
:1009F0000022114610461AF07FFBD2E570B504467E
:100A000000BF4021554819F0C5FA4C490860402103
:100A1000534819F0BFFA4849086018F09BF91AF0DA
:100A200069FC05460A234F4A0021AFF2896019F09C
:100A3000E9FF09234C4A0021AFF6030019F0E2FF59
:100A4000FF201AF05FFA28461AF058FC70BD08B56E
:100A500000F020FA4FF4407004F07AFE00F01DFC24
:100A600000F0B8FE0020122306220721009002F0B9
:100A70004DFD002006F0A7FE3CA01AF09FFC92213D
:100A800041A01AF09BFC002145A01AF097FC03F04E
:100A9000C7FF04F03FFC01F051FC00BF01F0DEFC99
:100AA0000028FBD143A01AF089FC4FF4FA7000F043
:100AB00042FA18F01AF80AE043A01AF07FFC4FF44B
:100AC000FA7000F038FA4FF4FA7000F034FA07F0D8
:100AD00014F90028F0D141A01AF070FC0AE045A0FA
:100AE0001AF06CFC4FF4FA7000F025FA4FF4FA702B
:100AF00000F021FA07F05CFE0028F0D14FF4FA7004
:100B000000F019FA41A01AF059FC0C23454A0021C3
:100B1000AFF2171019F076FF18F004F9002008BDA5
:100B20002F000020160000201700002018000020D1
:100B30001900002024020020340000203000002092
:100B40000D0A0D0A000000002D000020B6A8CAB151
:100B5000B9E3B2A5B7D1C2CA2C20000048190020C1
:100B6000481A002044170020440F0020537461727B
:100B700074696E672055702059434B4A2D41435587
:100B80002E2E2E0D0A00000056657273696F6E4E90
:100B90006F3A20253032582E2E2E0D0A000000000C
:100BA00054657374466C61673A2025642E2E2E0DB1
:100BB0000A000000415432344358585F436865636B
:100BC0006B204F4B210D0A004C77697020496E69EC
:100BD00074206661696C6564210D0A004C77697048
:100BE00020496E69742053756363657373210D0A20
:100BF0000000000054435020436C69656E74206609
:100C000061696C656421210D0A0000005443502085
:100C1000436C69656E742053756363657373210D4E
:100C20000A00000044190020704700BFFEE700BF23
:100C3000FEE700BFFEE700BFFEE770477047000019
:100C40000CB50020019000906C48006840F48030A2
:100C50006A49086000BF6948006800F400300090ED
:100C60000198401C0190009818B90198B0F5A06F48
:100C7000F1D16248006800F4003010B1012000900A
:100C800001E0002000900098012843D15C480068F2
:100C900040F010005A4908600846006820F0030040
:100CA00008600846006840F0020008605348406849
:100CB000524948600846406848600846406840F429
:100CC000806048600846406820F47C104860084610
:100CD000406840F4E81048600846006840F08070C2
:100CE000086000BF4548006800F000700028F9D097
:100CF0004248406820F00300404948600846406888
:100D000040F00200486000BF3C48406800F00C0022
:100D10000828F9D10CBD10B5FFF792FF10BD10B532
:100D20003648006840F001003449086008464068D1
:100D30003449084031494860084600683249084053
:100D40002E4908600846006820F4802008600846A4
:100D5000406820F4FE0048604FF41F008860FFF7F1
:100D6000DAFF4FF000602949086010BD10B500217E
:100D700000200022214B5B6803F00C0121B1042903
:100D800006D0082928D107E0214B224C236027E018
:100D90001F4B204C236023E0184B5B6803F470105A
:100DA000164B5B6803F48032022303EB904022B9B8
:100DB000194B4343174C23600DE0104B5B6803F461
:100DC000003323B1144B4343124C236003E0104B18
:100DD0004343104C236003E00D4B0E4C236000BFD7
:100DE00000BF064B5B68C3F303130C4CE15C094B7B
:100DF0001B68CB40074C236010BD00000010024070
:100E0000002002400000FFF8FFFFF6FE08ED00E0C2
:100E100000127A003800002000093D003C0000204C
:100E20000948804709480047FEE7FEE7FEE7FEE77E
:100E3000FEE7FEE7FEE7FEE7FEE7FEE704480549BA
:100E4000054A064B704700001F0D000831010008DD
:100E5000D8F80020D8FE0020D8FA0020D8FA0020C8
:100E600010B517F0F1FE10BD10B517F032FF10BD30
:100E700010B5044620461AF00DF910BD10B53E48D5
:100E80000078012805D117F046FE17F082FF17F011
:100E90005DFE10BD10B56FF0040004F0A8FC3748EB
:100EA00000683749B0FBF1F03649087033480068F4
:100EB0003349B0FBF1F441F2883044430520324914
:100EC00008804FF0E020006940F002004FF0E02180
:100ED000086108464461006940F00100086110BDE6
:100EE0002DE9F047074600264FF0E020D0F8149097
:100EF0002448007807FB00F800BFFFF7B1FF4FF070
:100F0000E020856911E04FF0E0208469AC420CD00C
:100F1000AC4202D2281B064403E0A9EB040028449B
:100F200006442546464500D300E0ECE700BFFFF746
:100F30009BFFBDE8F08770B504460F480078A0B16C
:100F40001248007888B910480088844206DB0E48B1
:100F5000008894FBF0F52846FFF78AFF0A480088CE
:100F600094FBF0F100FB114084B24FF47A7104FB62
:100F700001F0FFF7B5FF70BD02020020380000202D
:100F800000127A004C0000204E000020F5010020E5
:100F9000FA48006800F4006008B90120704700209A
:100FA000FCE7F648006800F4806008B9012070474B
:100FB0000020FCE7F148006800F4007008B9012047
:100FC00070470020FCE7ED48006800F4807008B925
:100FD000012070470020FCE7E948006800F4006049
:100FE00008B9012070470020FCE7E548006800F4DC
:100FF000806008B9012070470020FCE7E0480068E5
:1010000000F4007008B9012070470020FCE7DC48BC
:10101000006800F4807008B9012070470020FCE7E8
:1010200008B50121602005F023FA03208DF80200A5
:1010300048208DF803004FF47060ADF80000694659
:10104000CE48083804F058FF4FF47060ADF8000047
:101050006946CB48083804F04FFF08BD10B500249E
:10106000FFF796FF012802D144F0010401E024F0CB
:101070000104FFF796FF012802D144F0020401E0C9
:1010800024F00204FFF796FF012802D144F0040483
:1010900001E024F00404FFF796FF012802D144F098
:1010A000080401E024F00804FFF796FF012802D1AC
:1010B00044F0100401E024F01004FFF796FF01282B
:1010C00002D144F0200401E024F02004FFF796FF51
:1010D000012802D144F0400401E024F04004FFF76D
:1010E00096FF012802D144F0800401E024F080043E
:1010F000204610BD08B525208DF8000000208DF891
:10110000020001208DF80300684604F026FB27202A
:101110008DF8000002208DF8020001208DF80300F8
:10112000684604F01AFB08BD00B585B00121052012
:1011300005F09EF90121880305F09AF94FF400703B
:10114000ADF8100018208DF8130003208DF8120060
:1011500004A98C4804F0D0FE4FF48060ADF8100074
:1011600004208DF8130004A9864804F0C5FE4FF44E
:10117000E13000900020ADF80400ADF80600ADF8B5
:101180000800ADF80C000C20ADF80A0069467E4856
:1011900005F015FA012240F225517B4805F0A7FA27
:1011A0000121794805F097FA4021774805F07BFB4B
:1011B0000121092005F05CF90121880405F065F999
:1011C0004FF48060ADF8100018208DF81300032054
:1011D0008DF8120004A96D4804F08EFE4FF40060F3
:1011E000ADF8100004208DF8130004A9674804F03E
:1011F00083FE04A9654804F07FFE4FF4E1300090BF
:101200000020ADF80400ADF80600ADF80800ADF818
:101210000C000C20ADF80A0069465D4805F0CFF9D6
:10122000012240F225515A4805F061FA012158483F
:1012300005F051FA4021564805F035FB05B000BDD8
:1012400051485449086054484860544888604FF4F5
:1012500000708881C881002008824882C882088383
:1012600048838882C8610862486249484C490860DE
:101270004C4848604C4888604FF40070888140F2C8
:101280000340C881002008824882C88208834883BE
:101290008882C86108624862704710B5FFF7D0FFC6
:1012A000FFF742FFFFF726FF10BD014609B9394895
:1012B0007047012901D10020FAE7022901D13848FD
:1012C000F6E7032901D10020F2E7042901D100202B
:1012D000EEE70020ECE72DE9F04704460E461746FE
:1012E0004FF00008002527E00CE01AF003F88046D4
:1012F000B4F8149040461AF001F8A089484500DD82
:1013000001E000BFF1E700BF705D228A6168885488
:1013100019F0F0FF8046208A401C80B22082A1890B
:10132000884201DB00202082A08A401CA082404627
:1013300019F0E4FF681C85B2BD42D5DB012240F202
:101340002771206805F0D3F9BDE8F0872DE9F04159
:1013500005460E4617462846FFF7A7FF04460CB978
:10136000BDE8F081E06908B1E06980473A4631465E
:101370002046FFF7B0FF00BFF2E70000081401406D
:10138000081801400008014000380140000C0140ED
:1013900000480040481B0020701B0020701D0020EA
:1013A000701F0020981F00209821002013B50446CC
:1013B000012201A92046FFF7C9FF1CBD2DE9F0411C
:1013C00004460D46002719F095FF0746668B384600
:1013D00019F094FF16B90020BDE8F081218BA068B8
:1013E000405C287019F086FF0746208B401C80B2B5
:1013F0002083E189884201DB00202083608B401E2E
:101400006083384619F07AFF0120E5E770B505469C
:101410000E462846FFF749FF04460CB9002070BD70
:1014200031462046FFF7CAFFF9E738B56946022082
:10143000FFF7ECFF00282DD0DE48008800F40040C4
:10144000002827D19DF80000DB49DA4A1288885429
:10145000D8480088401CD74908800846008840F2D8
:101460000341884202DD0020D2490880D14800882B
:10147000401ED149085CF1280DD1CE4800880228D1
:1014800009DAF121CB480088401ECB4A11540120D3
:10149000C84908805DE0C7480088401EC649085C0E
:1014A000F3280DD1C3480088022809DAF321C14886
:1014B0000088401EC04A11540120BE49088048E0FF
:1014C000BD480078F12825D1BA480088042816DBE9
:1014D000B948407898B90321B74800F0E9FD0446BF
:1014E000B548C078A04206D1B248008840F4004018
:1014F000B04908802DE00020AE49088029E0AD48C1
:101500000088832825DBAB48008840F40040A949C7
:1015100008801EE0A8484078A6490988884218DC5F
:10152000A4480078401EC1B2A34800F0C1FD0446A3
:10153000A0480088401EA049085CA04206D19D48F2
:10154000008840F400409B49088002E0002099494F
:10155000088038BD00B503461846FFF7A6FE0246D0
:1015600002B900BD002010825082908200BFF8E7CF
:1015700000B503461846FFF798FE024602B900BDC3
:101580000020D0821083508300BFF8E71FB50446C7
:1015900000940020ADF80400ADF80600ADF8080096
:1015A000ADF80C000C20ADF80A006946834805F040
:1015B00006F81FBD1FB5044600940020ADF80400D6
:1015C000ADF80600ADF80800ADF80C000C20ADF841
:1015D0000A006946794804F0F2FF1FBD08B50121F1
:1015E000102004F045FF03208DF8020010208DF834
:1015F00003000002ADF800006946714804F07CFC6D
:101600004FF480506E49086108BD1FB50446009430
:101610000020ADF80400ADF80600ADF80800ADF804
:101620000C000C20ADF80A006946664804F0C7FFBC
:101630001FBD4FF480506249486170474FF480509D
:101640005F490861704770B504460D462A46214639
:101650000320FFF77BFE70BD70B5044620461AF0EC
:101660005DF885B229462046FFF7EDFF70BD704753
:10167000704770B5044640F22551206805F01CF90A
:10168000E0B1206805F098F8C5B2E18AA068455439
:10169000E08A401C80B2E082E189884201DB0020C0
:1016A000E082608BE189884202DA608B401C6083B3
:1016B000606A10B12846616A884700BF40F227710E
:1016C000206805F0F9F808B3A08A60B9002240F25A
:1016D0002771206805F00BF8012240F2266120688E
:1016E00005F005F837E0638A6268D15C206805F090
:1016F0005FF8608A401C80B26082A189884201DB69
:1017000000206082A08A401EA08224E040F2266170
:10171000206805F0D1F8F0B1A08A50B9002240F25B
:101720002661206804F0E3FF206AA0B1206A8047A8
:1017300011E0638A6268D15C206805F039F8608A3C
:10174000401C80B26082A189884201DB0020608257
:10175000A08A401EA08270BD10B519F0CBFD0446D2
:1017600017F0D9F9204619F0C9FD1748FFF781FF96
:1017700017F0ECF910BD10B519F0BCFD044617F0D8
:10178000CAF9204619F0BAFD1048FFF772FF17F0AA
:10179000DDF910BD014600BF704700BF0C4A12883A
:1017A00002F04002002AF9D0C2B2094B1B1D1A8078
:1017B000704700001400002044070020004400404F
:1017C00000100140004C0040481B0020701F00200A
:1017D0000038014008B50121102004F049FE4FF403
:1017E000E070ADF8000010208DF8030003208DF8A4
:1017F00002006946084804F07FFB4021064804F0D7
:1018000028FC8021044804F024FC4FF48071024835
:1018100004F01FFC08BD000000100140FC4A1080CD
:101820004FF0C842A2F8001170470146F848018005
:101830004FF0C840B0F80001704770B5044644F05E
:1018400040010C20FFF7EAFF0C210B20FFF7E6FF19
:101850000A20FFF770FB00210B20FFF7DFFF0D20B0
:10186000FFF7E3FF02460E20FFF7DFFF42EA00200A
:1018700085B2284670BD70B50024E6480078082877
:1018800011D108E06420FFF756FB601CC4B2642C41
:1018900001DDFF2070BD0120FFF7CFFF00F0200029
:1018A0000028EFD010E008E06420FFF744FB601C44
:1018B000C4B2642C01DDFF20ECE70120FFF7B5FF87
:1018C00000F040000028EFD00120FFF7AEFF02211A
:1018D00001EAA0150020FFF7A8FFC0F3C0000543F0
:1018E0002846D7E710B50446002306E0E15C03F183
:1018F0001600FFF793FF581CC3B2082BF6DB10BD90
:1019000010B50446002306E0E15C03F11000FFF788
:1019100085FF581CC3B2062BF6DB10BD70B505461B
:101920000C4645F040010C20FFF778FFE1B20D2096
:10193000FFF774FF210A0E20FFF770FF0A210B202A
:10194000FFF76CFF3220FFF7F6FA00210B20FFF7BC
:1019500065FF70BD70B50646092E1BD2DFE806F0A4
:10196000050C1A1A08101A1A15000024212511E076
:101970004FF4807441250DE04FF40054812509E0B7
:101980004FF4045440F2011504E04FF4805440F247
:10199000E11500BF00BF21460020FFF7BFFF294629
:1019A0000420FFF7BBFF00211F20FFF737FF70BDAA
:1019B00000B52820FFF739FF02462920FFF735FF41
:1019C00042EA00222A20FFF730FF42EA00422B20A1
:1019D000FFF72BFF42EA0062104600BD10B5002061
:1019E0008D4908600A20FFF7A6FA01208B49C1F84B
:1019F0009C016420FFF79FFA01211E20FFF70EFFD4
:101A000000211F20FFF70AFF03210020FFF706FF38
:101A100000BF1920FFF78FFA0020FFF706FF00F044
:101A200001000028F5D100210846FFF7F7FE032149
:101A30000020FFF7F3FE00BF1920FFF77CFA00201B
:101A4000FFF7F3FE00F001000028F5D110BD10B53E
:101A50009AB001214FF4F07004F00AFD0121080250
:101A600004F0F9FC0121084604F002FD8020ADF8E5
:101A7000640003208DF8660010208DF8670019A916
:101A8000674804F039FA4020ADF8640048208DF82A
:101A9000670019A9634804F02FFA4CF23370ADF8CF
:101AA000640003208DF8660018208DF8670019A9DE
:101AB0005B4804F021FA4FF68070ADF86400032013
:101AC0008DF8660018208DF8670019A9564804F0B3
:101AD00013FA4FF40050ADF8640003208DF866004F
:101AE00018208DF8670019A9504804F005FA4FF442
:101AF0000070ADF8640003208DF8660018208DF8A2
:101B0000670019A9474804F0F7F90621084604F0D0
:101B100009FB4020179000208DF860000C208DF804
:101B2000610001208DF8620017A804F017FF402023
:101B300004F08BFF17208DF8580001208DF8590014
:101B400000208DF85A0001208DF85B0016A803F0E4
:101B500004FE0020009001900320029000200390DA
:101B600004900590069002200790002008900990AC
:101B700010200A9000200B900C900D900E900F906A
:101B80004FF4805010900020119012901390CDF8D7
:101B900050D0CDF854D007A803F094FE01210220C4
:101BA00003F0F8FF2248046808201A490870002052
:101BB0004880812048700220087100211548417139
:101BC000200E14498871210C1248C171210A01723A
:101BD0004472FF200F498872FF210E48C1720173C1
:101BE00041738173C17301744174FFF7F7FE642080
:101BF000FFF7A1F9FFF7DCFE044621460DA019F01E
:101C0000DDFB104884421FD001201AB010BD000037
:101C1000FE0000649C2500209C812242008022421C
:101C2000001401400020014000180140001C014048
:101C3000E8F7FF1F444D393030302049443A25231E
:101C4000780D0A00460A0090CC490878FFF782FE1A
:101C500000210846FFF7E2FD00210220FFF7DEFD2C
:101C60003F210820FFF7DAFD38210920FFF7D6FDD4
:101C700000210A20FFF7D2FD00212F20FFF7CEFD23
:101C80002C210120FFF7CAFD0F21FE20FFF7C6FD22
:101C900080212D20FFF7C2FDB848001DFFF730FE60
:101CA000B6480A30FFF71EFE31210520FFF7B6FDCA
:101CB0008021FF20FFF7B2FDFFF7DDFD0446FF2C7A
:101CC00011D004F0010008B1ADA000E0AEA00246C2
:101CD00004F0020008B10A2000E064200146ACA034
:101CE00019F06CFB02E0B5A019F068FBA34841783D
:101CF000FF20FFF793FD00201AB010BD70B5B74864
:101D00000588FE20FFF791FD04462146FE20FFF7DF
:101D100085FD04F0040010B1B1A019F04FFB04F0F0
:101D2000080010B1B1A019F049FB04F0010018B18E
:101D3000B648006818F04FFDA848058070BD10B582
:101D400016F0E9FE4020B249086001E0FFF7D6FF37
:101D5000B04800680028F9D016F0F8FE10BD2DE953
:101D6000FC410446002700266A460021AA48006874
:101D700017F029FF8021FF20FFF750FDF820974939
:101D8000088025461BE06889B84216DD3846791C74
:101D90008FB26A68125C3046711CCEB201A90A5437
:101DA000022E0CD19DF804009DF8051040EA012098
:101DB0008A49891C0880002601E02D680027002D33
:101DC000E1D1012E04D19DF804008449891C0880CA
:101DD000217AFC20FFF722FD2089010AFD20FFF770
:101DE0001DFD01210220FFF719FD00BFFE20FFF7B6
:101DF0001CFD00F002000028F8D00221FE20FFF7B1
:101E00000DFD5E484178FF20FFF708FD824800681D
:101E100017F0FBFFBDE8FC812DE9FF4100246A4675
:101E200000217D48006817F0CEFE00BFF020FFF7CC
:101E3000FCFC6A48801C008800F0FF08B8F1000F25
:101E400078D0B8F1010F0ED974A019F0B7FA0021BB
:101E50000520FFF7E3FC8021FE20FFF7DFFC204692
:101E600004B0BDE8F081F2205C4908804FF0C84022
:101E7000B0F800010390881C008802900322BDF88E
:101E8000081010460BF0FEFD04468CB125460CE010
:101E90006F686E8906E04FF0C840B0F800013880E6
:101EA000BF1CB61E002EF6DC2D68002DF0D110E010
:101EB000BDF8081062A019F081FA01AFBDF8086002
:101EC00005E04FF0C840B0F800013880B61E002E83
:101ED000F7D1BDF80C0000F43F4040B9BDF8080050
:101EE000402804DBBDF80800B0F5C06F3FDDBDF849
:101EF0000C1059A019F062FABDF80C0000F48070C3
:101F000010B159A019F05AFABDF80C0000F4007095
:101F100010B159A019F052FABDF80C0000F40040BD
:101F200010B159A019F04AFABDF80800B0F5C06F19
:101F30000BDD00E00FE059A019F040FA012100206C
:101F4000FFF76CFC0520FEF7F6FF14B120460BF0FE
:101F500011FD00246AE70221FE20FFF75FFC8120CB
:101F60000649487008464178FF20FFF757FC2A4889
:101F7000006817F04AFF204672E700009C25002009
:101F800046756C6C0000000048616C660000000043
:101F9000444D393030302053706565643A25644DC6
:101FA0006270732C4475706C65783A257320647583
:101FB000706C6578206D6F64650D0A00444D393092
:101FC00030302045737461626C697368204C696EAF
:101FD0006B204661696C6564210D0A00FE00006497
:101FE0006F766572666C6F77200D0A006F7665728A
:101FF000666C6F7720636F756E746572206F76659F
:1020000072666C6F77200D0A0000000094000020BB
:10201000140401401801244298000020646D3930F6
:1020200030302072783A207278206572726F722C8C
:102030002073746F70206465766963650D0A000013
:1020400070627566C4DAB4E6C9EAC7EBCAA7B0DC49
:102050003A25640D0A00000072785F73746174752C
:10206000733A2523780D0A007278206669666F201E
:102070006572726F720D0A00727820637263206558
:1020800072726F720D0A00007278206C656E677450
:1020900068206572726F720D0A0000007278206C01
:1020A000656E67746820746F6F206269670D0A003F
:1020B00010B50246002006E013784340034CE05C74
:1020C000521C4B1ED9B20029F6DC10BD48BB0108DA
:1020D00008B50121082004F0CBF9C020ADF80000BC
:1020E00010208DF8030003208DF802006946904807
:1020F00003F002FFC0218E4803F0ABFF08BD10B50E
:102100008B48006820F070408949086008460068E4
:1021100040F0405008600120864908608649C1F8B7
:1021200098010420FEF7DCFE0020824908600420AC
:10213000FEF7D6FE00208049C1F8980110BD10B509
:102140007B48006820F070407949086008460068C4
:1021500040F04050086000207649091F0860764929
:10216000C1F89C010420FEF7BBFE01207149091F44
:1021700008607149C1F89C010420FEF7B1FE10BD52
:1021800010B500246A48006820F070406849086073
:102190000846006840F0004008600120654908607A
:1021A000FEF79EFE01206449C1F89801FEF798FEF3
:1021B00007E0601CC4B2FA2C03DDFFF7C0FF01206A
:1021C00010BD5C48803800680028F2D15949091FC9
:1021D000086000BFF4E710B500205649091F0860E9
:1021E0005348006820F07040514908600846006874
:1021F00040F04050086000204F49C1F89C01022087
:10220000FEF76EFE01204B49091F08600220FEF711
:1022100067FE00204849C1F8980110BD10B50020A4
:102220004449091F08604248006820F07040404956
:1022300008600846006840F04050086001203E49B0
:10224000C1F89C010220FEF74BFE01203949091F0D
:1022500008600220FEF744FE00203749C1F89801CB
:1022600010BD70B504463248006820F07040304917
:1022700008600846006840F04050086000202D4982
:10228000091F086000251DE0E00918B10120294957
:10229000086002E00020274908606006040E022062
:1022A000FEF71EFE01202349091F08600220FEF7E9
:1022B00017FE00202049C1F898010220FEF710FE09
:1022C000681CC5B2082DDFDB70BD70B50546002463
:1022D0001748006820F070401549086008460068FB
:1022E00040F000400860002617E000201149091F57
:1022F00008600220FEF7F4FD01200F49C1F89801A3
:102300006006040E0B488038006808B1601CC4B237
:102310000120FEF7E5FD701CC6B2082EE5DB15B9FD
:10232000FFF77CFF01E0FFF756FF204670BD00007D
:10233000000C01409C8121420080214210B5FFF732
:10234000C7FE10BD70B504460026FFF7D8FE25462F
:10235000E11704EB11610912A02202EB4101C8B29E
:10236000FFF77FFFFFF70CFFE11704EB1161091284
:10237000A4EB0121C8B2FFF774FFFFF701FFFFF7DD
:10238000BEFEA120FFF76DFFFFF7FAFE0020FFF76A
:102390009CFF0646FFF7D3FE304670BD70B504467D
:1023A0000E46FFF7ACFE2546E11704EB116109125A
:1023B000A02202EB4101C8B2FFF753FFFFF7E0FE96
:1023C000E11704EB11610912A4EB0121C8B2FFF778
:1023D00048FFFFF7D5FE3046FFF743FFFFF7D0FE7B
:1023E000FFF7ADFE0A20FEF7A6FD70BD2DE9F04116
:1023F00005460E461746002409E0E20026FA02F2DE
:10240000D1B22A1990B2FFF7C9FF601CC4B2BC4216
:10241000F3DBBDE8F0812DE9F04107460C460026CC
:10242000002509E036023919491B491E88B2FFF719
:1024300089FF0644681CC5B2A542F3DB3046BDE8FF
:10244000F08110B5002405E000212046FFF7A6FF2B
:10245000601C84B2B4F5806FF6DB10BD30B58DB072
:102460006EA103C9CDE90B016EA000680A906EA0B1
:102470000068099044F620656CA30FCB05AC0FC42F
:102480006E4800F0F3FA6D4880796C4949796B4ADF
:1024900012796A4BDB78CDE90032CDE9021067484A
:1024A00083784278017866A018F088FF704800F0C1
:1024B0000CFB6F48C07800906D48837842780178B3
:1024C0006CA018F07BFF00F020FB724908800846E2
:1024D000018871A018F072FF754800F03FFB744846
:1024E000C0780090724883784278017871A018F023
:1024F00065FF7A4800F050FB79A018F05FFF77483D
:10250000C17982794079754B1B79CDE90130CDE9EC
:1025100003217248C078009070488378427801782F
:1025200074A018F04BFF6D48C17B807B6B4A527BD7
:102530006A4B1B7BCDE90132CDE903016748C07AC4
:1025400000906648837A427A017A71A018F036FFCB
:10255000764800F013FC75480078AA2809D174A0C9
:1025600018F02CFF764800F012FC764800F018FCBA
:1025700002E075A018F022FF40F2FF30FFF7E2FE04
:102580000446552C02D100200DB030BDFFF759FF95
:1025900071A018F013FF0BA800F071FA09A800F061
:1025A0009DFA284600F0C1FA0AA800F0E0FA05A852
:1025B00000F0FBFA552140F2FF30FFF7EFFE40F24A
:1025C000FF30FFF7BFFE0446552C01D10020DBE7AA
:1025D0000120D9E770B506460C46154608E030469E
:1025E000721C96B2FFF7AEFE04F8010B681E85B2AE
:1025F000002DF4D170BD70B505460C46164606E0B8
:1026000021782846FFF7CAFE681C85B2641C301E7C
:10261000A6F101018EB2F3D170BD0000FFFFFFFFF4
:10262000FFF12900202001017B399619313030302B
:102630003030302D6237363163326230190000207D
:10264000524649445F4B65793A253032582530323D
:1026500058253032582530325825303258253032FE
:10266000582EBEF8B6D4BFE9BAC53A25640D0A00A3
:102670000A0000204950B5D8D6B72D2D2D2D2D2D6F
:102680002D2D2D2D2D2D25642E25642E25642E25F2
:10269000640D0A000E000020B6CBBFDABAC52D2D9E
:1026A0002D2D2D2D2D2D2D2D2D2D2535640D0A0093
:1026B00010000020C7F8D3F2BFD8D6C6C6F7534ED5
:1026C0002D2D2D2D2D2D25303258253032582530E9
:1026D0003258253032580D0A00000000340700201F
:1026E000C7F8D3F2BFD8D6C6C6F7CDA8D0C5C2EBBF
:1026F0002D2D0000253258253258253258253258C4
:10270000253258253258253258253258000000000D
:102710002532582532582532582532582532582529
:1027200032582532582532580D0A0000200000206A
:10273000BEB2CCAC49502D2D2DBFAAC6F40D0A0057
:102740002500002029000020BEB2CCAC49502D2D20
:102750002DBDFBD3C30D0A00415432344358585F9A
:1027600044656C6574655F616C6C446174282921F3
:102770000D0A00002DE9FC41054600200090019063
:10278000012428E004EB840000F10A063046FFF73C
:10279000D9FD0746A7421CD1711C88B204226946A4
:1027A000FFF718FFE8789DF80310884211D1A87848
:1027B0009DF8021088420CD128789DF800108842BC
:1027C00007D168789DF80110884202D12046BDE803
:1027D000FC81601CC4B2512CD4DB01242FE004EB3B
:1027E000840000F10A063046FFF7ACFD0746A74219
:1027F00023D021463046FFF7D1FD2978721C90B2D4
:10280000FFF7CCFD6978B21C90B2FFF7C7FDA9783D
:10281000F21C90B2FFF7C2FDE978321D90B2FFF7CB
:10282000BDFD0120FFF78EFD804608F10100C1B219
:102830000120FFF7B3FD2046C9E7601CC4B2512C4C
:10284000CDDBF320C3E77CB5044600200090019067
:10285000012519E005EB850101F10A00FFF772FD82
:10286000A0420FD105EB85010A3141F0010004229D
:102870006946FFF7C0FE05EB850101F10A00002162
:10288000FFF78CFD681CC5B2512DE3DB0020C4EBC3
:10289000C401F94A02F81100C4EBC40102EB410182
:1028A0004870C4EBC40102EB410188700120FFF7BE
:1028B00049FD0646701EC1B20120FFF76FFD701E74
:1028C000C0B27CBD30B585B00020039004900124D7
:1028D000C7E004EB840000F10A052846FFF732FD4B
:1028E000A0427DD1691C88B2042203A9FFF772FEC1
:1028F0009DF80F009DF80E109DF80D20CDE90021E8
:1029000002909DF80C3022462946DCA018F056FDB6
:102910009DF80C0098B99DF80D0080B99DF80E0047
:1029200068B99DF80F0050B92146E1A018F046FDA6
:102930002046FFF788FF0020E749085583E003A9F8
:10294000204600F0D7FFE44908550020E349085528
:10295000E148005D68B3C8480078401CC64908706B
:102960008020C4EBC401C44A02F811009DF80C0099
:10297000C4EBC40102EB410148709DF80D00C4EBAB
:10298000C40102EB410188709DF80E00C4EBC40144
:1029900002EB4101C8709DF80F00C4EBC40102EBCB
:1029A00041010871CC48025D2146CDA018F006FD1A
:1029B00049E0D0A018F002FD322300221146104653
:1029C00018F09AFB03A9204600F094FFC24908556D
:1029D0000846005D78B3A8480078401CA64900E08E
:1029E00037E008708020C4EBC401A34A02F811004C
:1029F0009DF80C00C4EBC40102EB410148709DF846
:102A00000D00C4EBC40102EB410188709DF80E007B
:102A1000C4EBC40102EB4101C8709DF80F00C4EB88
:102A2000C40102EB41010871AB48025D2146B6A02A
:102A300018F0C4FC07E0FFE72146BA4818F0BEFCD6
:102A40002046FFF700FF0A2300221146104618F027
:102A500053FB052300221146104618F04DFB601C65
:102A6000C4B2512CFFF635AF05B030BD10B50446E9
:102A70000722214640F2A230FFF7ACFD10BD10B591
:102A80000446217840F2A230FFF788FC617840F2DA
:102A9000A330FFF783FCA1784FF46970FFF77EFC49
:102AA000E17840F2A530FFF779FC217940F2A630B9
:102AB000FFF774FC617940F2A730FFF76FFCA17952
:102AC0004FF46A70FFF76AFC10BD10B5044604228B
:102AD00021464FF46170FFF77DFD10BD10B504462F
:102AE00021784FF46170FFF759FC617840F285302E
:102AF000FFF754FCA17840F28630FFF74FFCE178F5
:102B000040F28730FFF74AFC10BD08B50020009066
:102B1000022269464FF46270FFF75CFD9DF80100E8
:102B20009DF8001040EA012008BD70B504464FF43E
:102B300062752646E21704EB1262C2F307212846AB
:102B4000FFF72CFC2646E21704EB12621212A4EBEC
:102B50000222D1B2681CFFF721FC70BD10B50446FB
:102B60000422214640F28A30FFF734FD10BD70B5D3
:102B7000054640F28A3429782046FFF70FFC697831
:102B8000601CFFF70BFCA978A01CFFF707FCE97895
:102B9000E01CFFF703FC70BD10B50446102221466F
:102BA00040F28E30FFF716FD10BD70B5054640F2BD
:102BB0008E3429782046FFF7F1FB6978601CFFF717
:102BC000EDFBA978A01CFFF7E9FBE978E01CFFF713
:102BD000E5FB2979201DFFF7E1FB6979601DFFF70F
:102BE000DDFBA979A01DFFF7D9FBE979E01DFFF70F
:102BF000D5FB297A04F10800FFF7D0FB697A04F1CC
:102C00000900FFF7CBFBA97A04F10A00FFF7C6FB26
:102C1000E97A04F10B00FFF7C1FB297B04F10C00FA
:102C2000FFF7BCFB697B04F10D00FFF7B7FBA97B45
:102C300004F10E00FFF7B2FBE97B04F10F00FFF790
:102C4000ADFB70BD70B5054640F2AB342978204627
:102C5000FFF7A4FB6978601CFFF7A0FBA978A01C14
:102C6000FFF79CFBE978E01CFFF798FB2979201D12
:102C7000FFF794FB70BD0000240200202B2BC6F050
:102C8000CABC3A253033643B20C2DFBCAD3A2530A4
:102C900032643B20CEEFC0EDA3BA25303258253048
:102CA000325825303258253032583B200000000081
:102CB0000D0ACEEFC0EDB5D8D6B7B2BBC4DCCEAAF4
:102CC00030783030A3A1C7E5C2DFBCADB5D8D6B7E8
:102CD0003A25643B0D0A000092060020E30600201E
:102CE0005665725B253032645D3D253032580D0AE1
:102CF000000000002D2D2D2D2D2DB7D6C5E4CAA71F
:102D0000B0DC210D0A0000005665725B253032648C
:102D10005D3D253032582CB7D6C5E4B3C9B9A6A35A
:102D2000A10D0A00C4BE010870B505464FF46C74CD
:102D300029782046FFF732FB6978601CFFF72EFBED
:102D4000A978A01CFFF72AFBE978E01CFFF726FB17
:102D500070BD70B505464FF46D7429782046FFF7B5
:102D60001DFB6978601CFFF719FBA978A01CFFF711
:102D700015FBE978E01CFFF711FB70BD10B50446A8
:102D80000522214640F2AB30FFF724FC10BD10B500
:102D90000446042221464FF46C70FFF71BFC10BD63
:102DA00010B50446042221464FF46D70FFF712FC63
:102DB00010BD000070B59AB00446142115A818F093
:102DC00065FD142110A818F061FD00200E900F90F1
:102DD0000D9009900A900B900C9000260025F4208D
:102DE0008DF8540060788DF85500A078401CC0B272
:102DF0008DF85600A078C32864D010DC07287DD059
:102E000006DC01281CD003282ED0052877D18AE0C3
:102E1000092875D0102874D01228F7D1AEE1D12836
:102E200070D006DCC5286ED0C9286DD0D028EDD171
:102E3000C7E1D22869D0D32868D0D428E6D1D0E120
:102E400092208DF85700FA4800788DF85800F8481D
:102E500040788DF85900F64880788DF85A00F4488B
:102E6000C0788DF85B00C1E1E0788DF857002079DB
:102E70008DF8580060798DF85900A0798DF85A00C6
:102E8000E0798DF85B00207A8DF85C009DF85700A2
:102E90008DF840009DF858008DF841009DF85900CC
:102EA0008DF842009DF85A008DF8430010A8FFF7F6
:102EB00015FE9DF85C109DF85B2041EA0220FFF7AB
:102EC00034FE93E10DA8FFF700FEFFF71EFE064655
:102ED0009DF834008DF857009DF835008DF85800A6
:102EE0009DF836008DF859009DF837008DF85A008E
:102EF0003046F11706EB1161090A08E033E074E18E
:102F000042E00FE161E11FE0CEE062E165E18DF8B2
:102F10005B10F11706EB11610912A6EB0121C9B292
:102F20008DF85C1062E1002508E0E81C215C15AA20
:102F30001154205C10A94855681CC5B2102DF4DB53
:102F400010A8FFF732FE51E109A8FFF725FE002582
:102F500006E009A8415DE81C15AA1154681CC5B219
:102F6000102DF6DB42E1002508E0E81C215C15AAE3
:102F70001154205C10A94855681CC5B2042DF4DB1F
:102F800010A8FFF7F4FD31E1E078AA490870207934
:102F9000487060798870A079C870E0790871207AEB
:102FA000A5490870607A4870A07A8870E07AC87085
:102FB000207BA2490870607B4870A07B8870E07B12
:102FC000C8709C48FFF73EFE9B48FFF7ADFE9B484C
:102FD000FFF7BFFE9748FFF7D1FE9748FFF7D7FEF0
:102FE0009648FFF7DDFE934800788DF8570091482A
:102FF00040788DF858008F4880788DF859008D48BA
:10300000C0788DF85A008B4800798DF85B008A48AB
:1030100000788DF85C00884840788DF85D0086481F
:1030200080788DF85E008448C0788DF85F00834812
:1030300000788DF86000814840788DF861007F4805
:1030400080788DF862007D48C0788DF863007CA0A0
:1030500018F0B4F977480078AA2803D180A018F0B6
:10306000ADF902E082A018F0A9F972480079009049
:103070007048C3788278417881A018F09FF96E4833
:10308000C07800906C4883784278017884A018F06A
:1030900095F96A48C078009068488378427801784A
:1030A00087A018F08BF9A1E007A8FFF767FE06A834
:1030B000FFF76DFE05A8FFF773FE9DF81C008DF865
:1030C00057009DF81D008DF858009DF81E008DF8E2
:1030D00059009DF81F008DF85A009DF820008DF8CA
:1030E0005B009DF818008DF85C009DF819008DF8C4
:1030F0005D009DF81A008DF85E009DF81B008DF8AC
:103100005F009DF814008DF860009DF815008DF8A3
:1031100061009DF816008DF862009DF817008DF88B
:10312000630063E0E0786E49087020794870607948
:103130008870A079C870E0790871207A4871A07A07
:10314000887107216648FEF7B3FF66490870644836
:10315000FFF795FC6248807961494979604A1279A4
:103160005F4BDB78CDE90032CDE902105C48837813
:10317000427801785CA018F021F900BF0EA8FFF793
:1031800075FC9DF838008DF857009DF839008DF8D2
:1031900058009DF83A008DF859009DF83B008DF8D5
:1031A0005A009DF83C008DF85B009DF83D008DF8BD
:1031B0005C00607A8DF85D009DF83E008DF85E0041
:1031C00014E0D0205849087010E0D120564908700A
:1031D0000CE0D2205449087008E0D320524908700E
:1031E00004E0D4205049087000E000BF00BF9DF803
:1031F0005500401EC1B215A8FEF75AFF6178491E5E
:1032000015AA50549DF8552015A90220FEF79EF8E6
:103210001AB070BDF8B5044644A00068009060780C
:1032200020B9AA208DF80200A17881E0A4E0000076
:103230001000002020000020250000202900002090
:103240002D2D2D2D2D2D2D2D2DBDD3CAD5B5BDB494
:10325000AEBFDA2D2D2D2D2D2D2D2D2D0D0A00007B
:10326000BEB2CCAC49502D2D2DBFAAC6F40D0A001C
:10327000BEB2CCAC49502D2D2DBDFBD3C30D0A00E1
:10328000BEB2CCAC4950B5D8D6B72E2E2E2E2E2E8F
:1032900025642E25642E25642E25640D0A00000069
:1032A000D7D3CDF8D1DAC2EB2E2E2E2E2E2E2E2EE7
:1032B00025642E25642E25642E25640D0A00000049
:1032C000C4ACC8CFCDF8B9D82E2E2E2E2E2E2E2E31
:1032D00025642E25642E25642E25640D0A00000029
:1032E00019000020180000202D2D2D2D2D2D2D2D05
:1032F0002DBDD3CAD5B5BDB4AEBFDA2052464944C0
:103300005F4B6579202532582532582532582532B1
:10331000582532582532582CBFE9B5D8D6B7A3BAAC
:1033200025640D0A000000002F000020F2000000BC
:103330004CA018F043F84FF4803001F091FD4FF4A9
:10334000003001F08DFD4FF4403001F089FD4FF465
:10335000802001F085FD4FF4A02001F081FD4FF4A5
:10336000C02001F07DFD4FF4E02001F079FD4FF425
:10337000002001F075FD47E0627821783EA018F04A
:103380001DF8012631463FA018F018F802251CE070
:10339000615D3EA018F012F8284605EBD071491087
:1033A000A5EB4101012902D13AA018F007F8A81EA7
:1033B00000F00F000F2806D1701C80B206460146AF
:1033C00035A017F0FBFF681C85B2832DE0DB94F875
:1033D000831034A017F0F2FF6078401EC00100F5A2
:1033E00080314FF40072A01C01F023FE30B932A0EE
:1033F00017F0E4FF00208DF8020005E033A017F07D
:10340000DDFFAA208DF8020060788DF8010003210D
:103410006846FEF74DFE8DF803000422694602203F
:10342000FDF794FFF8BD38B5044600200090F42065
:103430008DF8000004208DF801008DF802409DF801
:103440000100401EC1B26846FEF732FE9DF8011031
:10345000491E0DF801009DF8012069460220FDF784
:1034600075FF38BDCAFDBEDDB0FCCAFDC1BF253049
:1034700032643B0D0A0000002530325820253032DE
:10348000580D0A00253032643A20000025303258A9
:1034900000000000200000000D0A253032643A20B0
:1034A000000000000D0A2D2D2D2D435243203D20FC
:1034B000253032580D0A0000D0B4B4AED0D0466CDE
:1034C000617368B3F6B4EDA3A10D0A00D0B4B4AE35
:1034D000D0D0466C617368B3C9B9A6A3A10D0A0028
:1034E00070B505460C4645F2555003F0B7FA28462C
:1034F00003F0B7FA204603F0B7FA03F0B8FA03F086
:10350000BBFA70BD10B503F0B2FA10BD2DE9F04161
:1035100088B004460D4616461F46DDF83880012166
:10352000042002F0A5FF0121480602F0AEFF4FF48F
:103530008050ADF81C0003208DF81E0018208DF877
:103540001F0007A9E84802F0D7FC4FF40060ADF86F
:103550001C0048208DF81F0007A9E34802F0CCFCAE
:1035600000208DF816008DF817008DF81800012046
:103570008DF8190000208DF81A008DF81B008DF8C9
:1035800012808DF813408DF814608DF81550ADF849
:10359000107004A9D54803F09AFA00208DF80A00AB
:1035A0008DF80B0001208DF80C000020ADF8000014
:1035B000ADF80200ADF80400ADF80600ADF8080063
:1035C00001208DF80D00684603F00BFB002008B0C9
:1035D000BDE8F081F0B585B004460F46002520789F
:1035E000012808D02078072805D02078082802D0A4
:1035F0002078092804D1607840F40070009009E038
:103600002078C12803D14FF48070009002E04FF47D
:1036100000700090B648019000208DF808008DF8E9
:1036200009008DF80A70002505E0615D0DF10B00C1
:103630004155681C85B2082DF7DB6946AB4803F09D
:10364000BFFB0646002501E0681C85B23146A7484D
:1036500003F04EFC18B940F6FF708542F4DB40F6EB
:10366000FF70854202DB012005B0F0BD0020FBE7C2
:10367000F0B585B006460F46002446F4A0600090E1
:103680004FF47041009841EA4040019000208DF8CD
:1036900008008DF8090008208DF80A0000BF05E039
:1036A000395D0DF10B000155601C84B2082CF7DB6D
:1036B00069468E4803F084FB0546002401E0601C47
:1036C00084B22946894803F013FC18B940F6FF700C
:1036D0008442F4DB40F6FF70844202DB012005B037
:1036E000F0BD0020FBE730B585B0054600217F48DE
:1036F00003F0DEFC10B9002005B030BD6A460021A1
:103700007A4803F052FC002404E00DF10B00005D48
:103710002855641C082CF8D39DF80A00ECE77CB50A
:1037200005460C46002000900190062D57D006DC7F
:10373000062D7DD2DFE805F0D1101629424C112D5F
:1037400077D004DC082D60D0092D71D177E0132DDE
:1037500070D0D42DF9D1BAE0A1208DF800008DF8F9
:103760000100BBE0C1208DF8000020788DF8010039
:1037700060788DF80200A0788DF80300E0788DF86D
:10378000040020798DF80500A8E0A2208DF8000043
:1037900020788DF8010060788DF80200A0788DF80F
:1037A0000300E0788DF8040020798DF80500607939
:1037B0008DF80600A0798DF807008FE0A3208DF822
:1037C000000020788DF8010060788DF8020085E017
:1037D00001208DF8000020788DF801007EE00720A0
:1037E0008DF8000020788DF8010060788DF80200D7
:1037F000A0788DF80300E0788DF8040020798DF82A
:10380000050060798DF8060068E008208DF800005A
:1038100020788DF8010060788DF80200A0788DF88E
:103820000300E0788DF8040020798DF8050002E0AF
:1038300053E01DE032E060798DF806004EE009208B
:103840008DF8000020788DF8010060788DF8020076
:10385000A0788DF80300E0788DF8040020798DF8C9
:10386000050060798DF80600A0798DF8070035E035
:1038700011208DF8000020788DF8010060788DF817
:103880000200A0788DF80300E0788DF8040020791C
:103890008DF8050060798DF806001FE013208DF883
:1038A000000020788DF8010060788DF80200A07883
:1038B0008DF80300E0788DF8040020798DF805007C
:1038C00060798DF80600A0798DF8070006E0A42045
:1038D0008DF800008DF8010000E000BF00BF082156
:1038E0006846FFF777FE7CBD000801400064004099
:1038F00001F000182DE9F04389B005460C464FF061
:1039000000090027B846002007900890059006900F
:1039100020788DF81C0060788DF81D00A0788DF857
:103920001E00E0788DF81F008DF820500020EC4933
:103930000870002604E00020EA498855701CC6B2D1
:10394000082EF8DB07A90220FFF7E9FE1427394605
:10395000E5A017F033FD18E005A8FFF7C4FE804688
:103960009DF81900C22806D09DF81900A84202D07F
:103970004FF0000800E008E0052300221146104641
:1039800017F0BAFB781EC7B200BFB8F1000F01D123
:10399000002FE1DC3946D6A017F010FDB8F1000F7A
:1039A00041D09DF81B009DF81A109DF819209DF834
:1039B0001830CDE90132CDE903109DF817000090D1
:1039C0009DF816309DF815209DF81410CAA017F028
:1039D000F5FC9DF81400C22822D19DF815009DF831
:1039E0001C1088421CD19DF816009DF81D108842BD
:1039F00016D19DF817009DF81E10884210D19DF831
:103A000018009DF81F1088420AD19DF819009DF8F2
:103A10002010884204D19DF81A904FF0000804E06D
:103A20004FF0000901E04FF00009484609B0BDE839
:103A3000F08310B586B004460020049005902078ED
:103A40008DF8100060788DF81100A0788DF81200C4
:103A5000E0788DF8130020798DF8140060798DF8E6
:103A60001500A0798DF816009DF816009DF8151028
:103A70009DF814209DF81330CDE90032CDE90210F5
:103A80009DF812309DF811209DF81010A4A017F099
:103A900095FC04A90320FFF742FE06B010BD1CB53B
:103AA00000200090019069460120FFF738FE1CBD00
:103AB0007CB504460D460020009001908DF8004032
:103AC0008DF801509DF801209DF80010A2A017F07C
:103AD00075FC69460420FFF722FE7CBDF0B587B077
:103AE00004461426002700250020059006900EE0CD
:103AF00005A8FFF7F8FD054605B108E005230022FB
:103B00001146104617F0F8FA701EC6B200BF0DB984
:103B1000002EEDDC002D37D09DF81400B32831D1F4
:103B20009DF81B009DF81A109DF819209DF818307B
:103B3000CDE90132CDE903109DF8170000909DF802
:103B400016309DF815209DF814108CA017F036FC47
:103B50009DF8150020709DF8160060709DF8170004
:103B6000A0709DF81800E07004212046FEF7A0FA2E
:103B700007469DF81900B84202D1012007B0F0BDF8
:103B80000020FBE70020F9E70020F7E72DE9F041EE
:103B90008AB005460C4600200890099006900790D0
:103BA0000A26804600278DF8185006A90520FFF741
:103BB000B6FD00BF31467CA017F000FC13E008A85A
:103BC000FFF791FD07469DF82100A84201D000278C
:103BD00000E008E0052300221146104617F08CFA99
:103BE000701EC6B200BF0FB9002EE8DC314671A0CE
:103BF00017F0E4FB002F70D09DF827009DF82610E9
:103C00009DF825209DF82430CDE90132CDE903103F
:103C10009DF8230000909DF822309DF821209DF80A
:103C2000201066A017F0CAFB9DF82100A84205D11C
:103C30009DF82000022801D18046B0E19DF82100C6
:103C4000A8424CD19DF820000328FAD1052020700D
:103C50009DF8220060709DF82300A0709DF824005C
:103C6000E0709DF8250020710A26002731465EA0ED
:103C700017F0A4FB13E008A8FFF735FD07469DF8F1
:103C80002100A84201D0002700E008E0052300221F
:103C90001146104617F030FA701EC6B200BF0FB9B9
:103CA000002EE8DC314650A017F088FBB7B19DF834
:103CB00027009DF826109DF825209DF82430CDE999
:103CC0000132CDE903109DF8230000909DF82230C9
:103CD0009DF821209DF8201088E05EE1AAE0ACE08C
:103CE00008000020000000204F7665723D2564002A
:103CF0002D25643B2000000052653C3C25303258A5
:103D00002530325825303258253032582530325837
:103D100025303258253032582530325820000000E6
:103D20003E3E3E3E3E3E3E3E3EB9E3B2A5205246BA
:103D300049445F4B65792025325825325825325841
:103D40002532582532582532582CBFE9B5D8D6B778
:103D5000A3BA25640D0A00003E3E3E3E3E3E3E3E76
:103D60003EB9E3B2A520CBAEB7D13D25643B20C21E
:103D7000F6B3E5CAFD3D25640D0A00005265636592
:103D80003C3C2530325825303258253032582530C9
:103D900032582530325825303258253032582530A7
:103DA00032583B0D0A000000C2D6D1AD2025642058
:103DB000000000002D2025643B2020005265636533
:103DC0003C3C202530325825303258253032582599
:103DD0003032582530325825303258253032582567
:103DE0003032583B0D0A000025642C00BDA017F0AE
:103DF000E5FA9DF82100A84218D19DF8200004287A
:103E000014D19DF8220060719DF82300A0719DF8E7
:103E10002400E0719DF8250020729DF82600607254
:103E20004FF0AA0840460AB0BDE8F0814FF0000804
:103E30000027B4E04FF00008B1E09DF82100A8424F
:103E400072D19DF8200005286ED1062020709DF8C3
:103E5000220060709DF82300A0709DF82400E0709F
:103E60009DF8250020710A2600273146AFF2880010
:103E700017F0A4FA13E008A8FFF735FC07469DF8F1
:103E80002100A84201D0002700E008E0052300221D
:103E90001146104617F030F9701EC6B200BF0FB9B8
:103EA000002EE8DC3146AFF2C00017F087FA97B376
:103EB0009DF827209DF826009DF825109DF82430B8
:103EC000CDE90131CDE903029DF8230000909DF872
:103ED00022309DF821209DF820108DA017F06EFA59
:103EE0009DF82100A84218D19DF82000062814D181
:103EF0009DF8220060719DF82300A0719DF82400B8
:103F0000E0719DF8250020729DF8260060724FF048
:103F1000AA08404687E704E006E04FF000080027C3
:103F20003DE04FF000083AE09DF82100A84216D18C
:103F30009DF82000042812D19DF8220060719DF8A0
:103F40002300A0719DF82400E0719DF825002072E7
:103F50009DF8260060724FF0AA08404663E79DF87E
:103F60002100A84216D19DF82000062812D19DF804
:103F7000220060719DF82300A0719DF82400E0717B
:103F80009DF8250020729DF8260060724FF0AA0867
:103F9000404648E74FF0000801E04FF00008404677
:103FA00041E71CB5044600200090019020788DF870
:103FB000000060788DF80100A0788DF80200E078AC
:103FC0008DF8030020798DF8040060798DF80500E4
:103FD00069460620FFF7A3FB1CBD1CB50446002064
:103FE0000090019020788DF8000060788DF8010035
:103FF000A0788DF80200E0788DF8030020798DF824
:10400000040060798DF8060069461120FFF787FBF0
:104010001CBD70B5A8B00646802108A817F036FC74
:10402000002006900790F00100F58031802208A85A
:1040300000F031FF8DF81860802108A8FEF738F8ED
:104040008DF8190006A9FE20FFF712FB322300228B
:104050001146104617F050F8002404E0002006A98D
:104060000855601CC4B2082CF8DB00252BE00024A6
:1040700007E004EBC50008A9085C06A90855601C08
:10408000C4B2082CF5DB9DF81F009DF81E109DF8AA
:104090001D209DF81C30CDE90232CDE904109DF8B9
:1040A0001B009DF81A10CDE900109DF819309DF8FD
:1040B0001820294621A017F081F906A93046FFF7FC
:1040C000D7FA681CC5B2102DD1DB28B070BD1CB565
:1040D000044600200090019069462046FFF7C8FA88
:1040E0001CBD000052656365323C3C2025303258CF
:1040F0002530325825303258253032582530325844
:104100002530325825303258253032583B0D0A00C0
:1041100052656365333C3C20253032582530325897
:104120002530325825303258253032582530325813
:1041300025303258253032583B0D0A0043414E5F3E
:1041400053656E6420693D253032643A2025303253
:1041500058253032582530325825303258253032E3
:10416000582530325825303258253032583B200DF2
:104170000A00000008B5FEA0006800909DF801004C
:10418000401EC1B26846FDF793FF8DF803009DF80D
:10419000012069460120FDF7D9F896230022114637
:1041A000104616F0A9FF08BD70B588B0044600257A
:1041B00000200390049002902146EEA017F0FEF834
:1041C000C4EBC400ED4911F8100000F08000802815
:1041D0002FD1C4EBC40001EB4000407858B9C4EBC8
:1041E000C40001EB4000007928B90020C4EBC401F1
:1041F000E24A02F81100E248006808B9012000E034
:104200000020DF49086005A92046FFF7BFFC0546EE
:10421000022D0FD1C4EBC400D84911F8100020F0D2
:104220002300C4EBC401D54A02F811000020D5498F
:1042300008552FE1F5BBC4EBC400D04911F81000BC
:1042400040F02000C4EBC401CC4A02F81100CD4874
:10425000005D142831DACB48005D052190FBF1F2B6
:1042600001FB1200012820D1C4EBC400C34901EBBB
:10427000400040788DF80800C4EBC40001EB40001A
:1042800080788DF80900C4EBC40001EB4000C078D1
:104290008DF80A00C4EBC40001EB400000798DF8F2
:1042A0000B0002A92046FFF725FBB648005D401C25
:1042B000B44900E00AE00855ECE02046FEF7C3FAF6
:1042C0000020B1490855AF490855E3E00020AD4949
:1042D00008559DF8140005280CD1C4EBC400A7496B
:1042E00011F8100040F00100C4EBC401A34A02F829
:1042F00011000FE09DF8140006280BD1C4EBC40098
:104300009E4911F8100040F00200C4EBC4019B4A22
:1043100002F811009DF81500C4EBC401974A02EBA6
:10432000410148719DF81600C4EBC40102EB410144
:1043300088719DF81700C4EBC40102EB4101C871FC
:104340009DF81800C4EBC40102EB410108729DF80E
:104350001900C4EBC40102EB410148729DF81A0038
:10436000C4EBC40102EB410188729DF81B00C4EB51
:10437000C40102EB4101C8729DF81C00C4EBC401EA
:1043800002EB410108739DF81D00C4EBC40102EB70
:1043900041014873C4EBC400114611F8100000F04D
:1043A0000302214679A017F009F8C4EBC400734951
:1043B00001EB4000007A0090C4EBC4000E4606EB0F
:1043C0004000C379C4EBC40006EB40008279C4EB23
:1043D000C40006EB4000417973A016F0EFFFC4EB78
:1043E000C400324602EB4000407A0004C4EBC40231
:1043F000334603EB4202927A40EA0220C4EBC40245
:1044000003EB4202D27A40EA02016EA016F0D6FF18
:10441000C4EBC400334603EB4000427BC4EBC40052
:1044200003EB4000017B6BA016F0C8FF8DF80C4039
:104430009DF815008DF80D009DF816008DF80E0002
:104440009DF817008DF80F009DF818008DF81000EA
:10445000C4EBC400314611F8100000F0030001283D
:1044600003D1AA208DF811000BE0C4EBC40043492E
:1044700011F8100000F00300022802D155208DF839
:104480001100052300221146104616F035FE03A840
:10449000FFF787FD08B070BD70B58CB004460020F2
:1044A00009900A900B9007900890059006900026BE
:1044B0000A253348006808B9012000E0002030498F
:1044C00008602078AA2851D1607AC0EBC0002B493F
:1044D00011F8100000F03F0040F08000617AC1EB5D
:1044E000C101264A02F81100617A42A016F066FF67
:1044F00060788DF82400A0788DF82500E0788DF89C
:10450000260020798DF82700A07A8DF82800A07960
:104510008DF82900E0798DF82A00207A8DF82B009B
:1045200060798DF82C00A07A8DF82D00607A8DF8D6
:104530001C009DF824008DF81D009DF825008DF8C5
:104540001E009DF826008DF81F009DF827008DF8AD
:1045500020009DF828008DF821009DF823009DF88B
:1045600022109DF821209DF820304BE09EE00000B5
:10457000F304A1002532643B200000002402002047
:104580009C012242E306002092060020C2DFBCAD5F
:10459000B5D8D6B7A3BA25643BBFA8D7B4CCAC2551
:1045A000643B202000000000BFA8BAC5A3BA253094
:1045B00032582530325825303258253032583B2079
:1045C00020000000BDF0B6EEA3BA2536643B2020E3
:1045D00020000000BFA8D0A3D1E9A3BA2532643BD4
:1045E000202020CDA8D0C5C2EBA3BA253032583B3D
:1045F000200D0A000D0AB7FECEF1C6F72025326461
:104600003B200000CDE90132CDE903109DF81F00E9
:1046100000909DF81E309DF81D209DF81C10ADA047
:1046200016F0CCFE07A90820FFF779F864230022D2
:104630001146104616F060FD607A8DF81C009DF85A
:1046400029008DF81D009DF82A008DF81E009DF8A8
:104650002B008DF81F009DF82C008DF820009DF890
:104660002D008DF821000A2109A8FDF721FD8DF804
:1046700022009DF823009DF822209DF821109DF82E
:104680002030CDE90131CDE903209DF81F000090D5
:104690009DF81E309DF81D209DF81C108DA016F071
:1046A0008DFE07A90920FFF73AF867E02078BB28BC
:1046B0001DD1617892A016F081FE60788DF81C0003
:1046C000A0788DF81D00E0788DF81E0020798DF817
:1046D0001F0060798DF82000A0798DF82100E07925
:1046E0008DF8220007A91320FFF719F846E020787B
:1046F00055282AD16078C0EBC000894911F8100014
:1047000000F03F0040F040006178C1EBC101844AF5
:1047100002F81100617883A016F050FE60788DF8E1
:104720001C00A0788DF81D00E0788DF81E0020791F
:104730008DF81F0060798DF8200000208DF8210091
:1047400007A91120FEF7EBFF18E02078CC2815D13F
:104750008020E179C1EBC101714A02F81100A3790F
:104760006279617876A016F029FEE0798DF81C0058
:1047700060797F490870A0797E4908700A250BE0AE
:1047800005A8FEF7B0FF0646052300221146104695
:1047900016F0B2FC681EC5B20EB9002DF0DC0CB0EC
:1047A00070BD7CB5002400250A260020019072A06F
:1047B00016F004FEFFF773F961E0314672A016F0BF
:1047C000FDFD01A8FFF78AF9002858D0681CC5B282
:1047D0000A269DF8070000909DF806309DF80520F8
:1047E0009DF804106AA016F0E9FD01A8FDF7C2FFCC
:1047F000044621466CA016F0E1FD512C3FDC01A9D6
:104800002046FFF777F86B49085500206A4908559C
:104810006848005D30B96748025D214667A016F020
:10482000CDFD2CE06348025D21466BA016F0C6FD6D
:104830003B480078401C3A4908708020C4EBC40112
:10484000374A02F811009DF80400C4EBC40102EBE2
:10485000410148709DF80500C4EBC40102EB410121
:1048600088709DF80600C4EBC40102EB4101C870DA
:104870009DF80700C4EBC40102EB41010871301E32
:10488000A6F10101CEB298D15AA016F097FD2846A4
:104890007CBD70B55DA016F091FD002417E02146A7
:1048A0005BA016F08BFD00250AE0C4EBC4001C4A97
:1048B00002EB4000415D58A016F080FD681CC5B2B7
:1048C0000E2DF2DB51A016F079FD601CC4B21A2C3B
:1048D000E5DB70BD25303258202530325820253098
:1048E0003258202530325820253032582025303299
:1048F00058202530325820253032580D0A0000004B
:104900000D0AB7FECEF1C6F720B2E5BFA8CAFDBEBC
:10491000DDB0FC20D2ECB3A3202532643B200000A4
:10492000240200200D0AB7FECEF1C6F720D0C4CC79
:10493000F8B0FC20D2ECB3A3202532643B20000069
:104940000D0AB7FECEF1C6F720D0C4CCF8B0FC20DB
:10495000D5FDB3A33A2532642CCBAEB7D13A25327C
:10496000642CC2F6B3E5CAFD3A2532643B0D0A0059
:1049700017000020160000200D0AB9E3B2A5B2E925
:10498000D5D2210D0A000000253032642E2000000F
:10499000CEEFC0EDA3BA253032582530325825303D
:1049A0003258253032583B00C2DFBCAD3A25306466
:1049B0003B00000092060020E30600205665725B73
:1049C000253032645D3D253032582CB7D6C5E4CA57
:1049D000A7B0DCA3A10D0A005665725B25303264D6
:1049E0005D3D253032582CB7D6C5E4B3C9B9A6A36E
:1049F000A10D0A00B2E9D1AFBDE1CAF82D2D2D2DD0
:104A00002D2D2D2D2D2D2D0D0A0000000D0A00003D
:104A1000253032642D2D0000253032582C00000046
:104A200008B50121082001F023FD03208DF80200C4
:104A300010208DF803004002ADF80000694665487B
:104A400001F05AFA4FF40040ADF8000069466148A1
:104A500001F052FA48208DF803004FF48040ADF881
:104A6000000069465B4801F047FA08BD002000E0FD
:104A7000401C0228FCD3704700B5024600231FE00B
:104A800002F0800028B14FF4004052491031086014
:104A900004E04FF400404F4914310860FFF7E6FF8F
:104AA0004FF400504B49103108605006020EFFF7DA
:104AB000DDFF4FF40050474914310860581CC3B261
:104AC000082BDDDBFFF7D2FF00BD70B50024002509
:104AD0001AE06006040E4FF480413E4801F09FFA50
:104AE000012801D1601CC4B24FF400503949103183
:104AF0000860FFF7BBFF4FF40050364914310860DF
:104B0000FFF7B4FF681CC5B2082DE2DB204670BD7C
:104B100000B5024600231FE002F0800028B14FF4E8
:104B200000402C491031086004E04FF4004029494E
:104B3000143108604FF400502649143108605006C3
:104B4000020EFFF793FF4FF4005022491031086026
:104B5000FFF78CFF581CC3B2082BDDDB00BD70B51E
:104B6000002400251AE04FF400501A49143108605F
:104B7000FFF77CFF6006040E4FF48041154801F0FA
:104B80004EFA012801D1601CC4B24FF40050114903
:104B900010310860FFF76AFF681CC5B2082DE2DB20
:104BA000204670BD01200C490870704700200A495A
:104BB0000870704708480078704728B94FF40051D2
:104BC000044A1432116004E04FF40051014A1032DB
:104BD00011607047000C01405400002010B50446DD
:104BE0004CB9FFF7DFFF0120FFF7E7FF4FF48050DC
:104BF000FD49086006E04FF48050FB49091F08603A
:104C0000FFF7D4FF10BD08B50121082001F030FCEA
:104C10000120FFF7E3FF10208DF8030003208DF83B
:104C200002004FF48050ADF800006946EE48143899
:104C300001F062F908BD00B585B00020ADF80000B4
:104C40004FF48270ADF802000020ADF8040002209D
:104C5000ADF806000120ADF808004002ADF80A00EA
:104C60001020ADF80C000020ADF80E000720ADF8C4
:104C700010006946DD4802F02FFC0121DB4802F0FC
:104C8000D0FC05B000BD2DE9F04104460E461546A6
:104C90006019D7494969884202D90120BDE8F081ED
:104CA0000DB90020FAE70020FFF798FF0320FFF777
:104CB0002FFFC4F30740FFF72BFFC4F30720FFF7D4
:104CC00027FFE0B2FFF724FF0BE0FFF748FF07469E
:104CD00016F8011BB94204D00120FFF77FFF012025
:104CE000DCE7281EA5F10105EFD10120FFF776FFD3
:104CF0000020D3E710B50020FFF770FF0520FFF775
:104D000007FF00BFFFF72BFF00F001000028F9D1DB
:104D10000120FFF763FF10BD10B50020FFF75EFF15
:104D20000620FFF7F5FE0120FFF758FF10BD2DE923
:104D3000F04104460E461546AD480068AD4988422C
:104D400053D1022D08DA284605EBD0714910A5EBA6
:104D5000410109B1BDE8F081FFF7DEFF0020FFF758
:104D60003DFFAD20FFF7D4FEC6F30740FFF7D0FEAE
:104D7000C6F30720FFF7CCFEF0B2FFF7C9FE14F828
:104D8000010BFFF7C5FE14F8010BFFF7C1FE012070
:104D9000FFF724FFFFF7AEFFA81E85B2002713E040
:104DA0000020FFF71BFFAD20FFF7B2FE14F8010B48
:104DB000FFF7AEFE14F8010BFFF7AAFE0120FFF784
:104DC0000DFFFFF797FF7F1C05EBD571B7EB610F68
:104DD000E6D30020FFF702FF0420FFF799FE012031
:104DE000FFF7FCFEFFF786FF38E04FF0000824E0F5
:104DF000FFF792FF0020FFF7F1FE0220FFF788FE89
:104E0000C6F30740FFF784FEC6F30720FFF780FED6
:104E1000F0B2FFF77DFE002704E014F8010BFFF766
:104E200077FE7F1CFF2FF8D90120FFF7D7FEFFF791
:104E300061FF06F5807608F10108E91705EB1161BD
:104E4000B8EB212FD4D30020FFF7C8FE0420FFF7D2
:104E50005FFE0120FFF7C2FEFFF74CFF00BF79E7BE
:104E600010B50446FFF758FF0020FFF7B7FE2020DB
:104E7000FFF74EFEC4F30740FFF74AFEC4F30720D6
:104E8000FFF746FEE0B2FFF743FE0120FFF7A6FE64
:104E9000FFF730FF10BD70B506460C46154625B12C
:104EA000601953494969884200D970BD0020FFF755
:104EB00095FE0320FFF72CFEC4F30740FFF728FE02
:104EC000C4F30720FFF724FEE0B2FFF721FE03E062
:104ED000FFF745FE06F8010B281EA5F10105F7D1E5
:104EE0000120FFF77BFE00BFDFE770B5034600241B
:104EF0000BE013F8015BE843C5B211F8010B284041
:104F000008B1012070BD601C84B29442F1DB002026
:104F1000F8E72DE9F05F07460D46164616B9012061
:104F2000BDE8F09F32484069A84201D80020F7E769
:104F30002F48008BB04201DA0020F1E732462946C3
:104F40002D48FFF7A8FF324639462B4816F096FB4E
:104F500008B90120E4E74FF0000A324639462648F6
:104F6000FFF7C3FF08B14FF0010A2148008B401E34
:104F700025EA00081E48008BB0420BD1002404E053
:104F8000385D1D490855601C84B21948008BA04249
:104F9000F6DC10E01648028B41461748FFF77BFF0E
:104FA0001348008B401E284084B21349081932462A
:104FB000394616F0D2FB4FF0000B002434E0BAF172
:104FC000010F02D14046FFF74BFF0948028B4146D3
:104FD0000948FFF7ACFE324639462846FFF753FE34
:104FE00060B94FF0010B21E0140C0140003001408A
:104FF000B02500204125BF00CC250020324639468F
:105000002846FFF740FE10B94FF0010B0EE04FF0BD
:10501000000903E009F101001FFA80F942F2107063
:105020008145F7DB601C84B2032CC8DB00BF584607
:1050300076E72DE9F05F07460D4616464FF000086B
:10504000C146C2460024A346FE48008BB5FBF0F1E2
:1050500000FB11501FFA80FAFA48008BA0EB0A00FF
:1050600084B2F848008B96FBF0F01FFA80F8F54800
:10507000008B96FBF0F100FB11601FFA80F9BAF18A
:10508000000F2AD1B8F1000F08D132462946384620
:10509000FFF73FFF00287DD1BDE8F09F0EE0E94813
:1050A000028B29463846FFF734FF08B90020F3E7A2
:1050B000E448008B0544E348008B0744B8F1000046
:1050C000A8F101011FFA81F8E9D14A46294638467C
:1050D000FFF71FFF002861D1DEE7B8F1000F1FD1F5
:1050E000A14515DDA9EB04001FFA80FB22462946E5
:1050F0003846FFF70EFF08B90020CDE725442744C6
:105100005A4629463846FFF704FF002846D1C3E730
:10511000324629463846FFF7FCFED8BB0020BBE7E5
:10512000301B86B2C748008B96FBF0F01FFA80F860
:10513000C448008B96FBF0F100FB11601FFA80F968
:10514000224629463846FFF7E4FE08B90020A3E7C7
:10515000254427440EE0BB48028B29463846FFF71A
:10516000D8FE08B9002097E7B648008B0544B5483B
:10517000008B0744B8F10000A8F101011FFA81F883
:10518000E9D1B9F1000F09D04A4629463846FFF760
:10519000C0FE00E002E008B900207DE701207BE7C7
:1051A00010B5FFF7B9FD0020FFF718FDC720FFF786
:1051B000AFFC0120FFF712FDFFF79CFD10BD10B5FD
:1051C0000446A0480068A049884215D10020FFF796
:1051D00005FD5020FFF79CFC0120FFF7FFFC00209D
:1051E000FFF7FCFC0120FFF793FC2046FFF790FC43
:1051F0000120FFF7F3FC0BE00020FFF7EFFC01209C
:10520000FFF786FC2046FFF783FC0120FFF7E6FC52
:1052100010BD2DE9F0410020FFF7E0FC9F20FFF7D3
:1052200077FCFFF79CFC0546FFF799FC0646FFF765
:1052300096FC07460120FFF7D1FC280440EA06202F
:1052400040EA07042046BDE8F08110B5FFF7E1FF12
:105250007C4908607DA016F0B1F87A4800687A4968
:105260004942084448B180490844A8B17F490844EC
:10527000002820D001283CD12CE07DA17148001DE0
:1052800016F028FA7DA016F099F84FF400106D4939
:105290004861401208833BE07DA16A48001D16F07A
:1052A00019FA7EA016F08AF84FF40010654948619B
:1052B000401208832CE07DA16248001D16F00AFA16
:1052C0007CA016F07BF84FF400005E494861C012E4
:1052D00008831DE07AA15B48001D16F0FBF97AA057
:1052E00016F06CF84FF0807056494861001308833F
:1052F0000EE079A15348001D16F0ECF97AA016F0E3
:105300005DF84FF400104F4948614012088300BF18
:1053100000BF10BD10B59AB0FFF775FCFFF795FF01
:105320000020FFF75BFC0420FFF7F2FB0120FFF7F2
:1053300055FCFFF7DFFC0020FFF741FF4148021D4D
:1053400001686EA016F03AF83E48028B4069010DE4
:1053500074A016F033F80A22114601A8FFF79BFD4E
:105360009DF80400AA2829D09DF80600AA2825D077
:105370009DF80800AA2821D09DF80A00AA281DD06F
:1053800072A016F01BF8FFF70BFF78A016F016F8C6
:10539000002404E0AA2001A90855601CC4B20A2C0C
:1053A000F8DB0A22114601A8FFF743FE18B975A0E1
:1053B00016F004F802E07AA016F000F81AB010BD5A
:1053C00070B5ADF5806D05464FF48061684616F006
:1053D0005DFA0026002000EB8500800200F5803198
:1053E0004FF480626846FFF756FD002000EB850011
:1053F000800200F5803171A015F0E0FF31467BA0FE
:1054000015F0DCFF00241CE01DF8041079A015F055
:10541000D5FF204604EBD0714910A4EB41010129CE
:1054200002D110A015F0CAFF04F00F000F2806D11A
:10543000701CC0B20646014670A015F0BFFF601C8C
:1054400084B2E1E0B02500204125BF00B3F5CABC1D
:10545000BBAFCDE2B2BF466C617368A3ACD0CDBA2E
:10546000C5A3BA20200000002C05FDFFFEDFD2FFFF
:10547000535354323556463031364200535354322A
:10548000355646303136422E2E2E0D0A00000000D1
:105490004D5832354C313630364500004D58323596
:1054A0004C31363036452E2E2E0D0A0057323551EE
:1054B000363400005732355136342E2E2E0D0A0068
:1054C0005732355131323800573235513132382E5A
:1054D0002E2E0D0A00000000556E6B6E6F77204671
:1054E0006C61736800000000556E6B6E6F7720462C
:1054F0006C6173682E2E2E0D0A000000BCECB2E227
:10550000B5BDB4AED0D0466C6173682C2049442040
:105510003D20253038582C20D0CDBAC53A202573EF
:10552000200D0A0020202020C8DDC1BF203A202500
:10553000644DD7D6BDDA2C20C9C8C7F8B4F3D0A1C2
:10554000203A202564D7D6BDDA0D0A00BCECB2E2C1
:10555000B3F6D0C2466C617368A3ACD7BCB1B8B225
:10556000C1B3FD466C6173680D0A0000B2C1B3FDA2
:10557000D5FBB8F6466C617368CDEAB3C9A3A10D3B
:105580000A000000D0B4B4AED0D0466C617368B3EA
:10559000F5CABCCAFDBEDDB3F6B4EDA3A10D0A0089
:1055A000D0B4B4AED0D0466C617368B3F5CABCCA8F
:1055B000FDBEDDB3C9B9A6A3A10D0A00B6C1B4AE44
:1055C000D0D0466C617368B3C9B9A6A3ACC6F0CAA3
:1055D000BCB5D8D6B7A3BA253038582C20CAFDBEE2
:1055E000DDC8E7CFC2A3BA0D0A000000253033643E
:1055F0003A20000025303258000000000D0A253006
:1056000032643A2000000000B4F5806FFFF6FCAE73
:10561000012000EB8500800200F580314FF48062AC
:105620006846FFF738FC00241FE01DF80410AFF2B5
:105630003C0015F0C3FE204604EBD0714910A4EBEA
:105640004101012903D1AFF2E41015F0B7FE04F0D7
:105650000F000F2807D1701CC0B206460146AFF2FA
:10566000640015F0ABFE601C84B2B4F5806FDCDB27
:10567000022000EB8500800200F580314FF480624B
:105680006846FFF708FC00241FE01DF80410AFF285
:105690009C0015F093FE204604EBD0714910A4EB5A
:1056A0004101012903D1AFF2442015F087FE04F037
:1056B0000F000F2807D1701CC0B206460146AFF29A
:1056C000C40015F07BFE601C84B2B4F5806FDCDB97
:1056D000032000EB8500800200F580314FF48062EA
:1056E0006846FFF7D8FB00242CE01DF80410AFF249
:1056F000FC0015F063FE204604EBD0714910A4EBCA
:105700004101012903D1AFF2A42015F057FE40F268
:10571000FF3084420CD004F00F000F2810D1701C11
:10572000C0B206460146AFF22C1015F047FE07E066
:1057300004F00F000F2803D1AFF2D41015F03EFE95
:10574000601C84B2B4F5806FCFDB0DF5806D70BD49
:1057500031490143314A1160704770B5002100237F
:105760000F22C47804B32D4C246804F4E064C4F51B
:10577000E064210AC1F10403CA40447804FA03F149
:105780008478144021430901254C0678A1550478FA
:1057900004F01F050124AC4005786D11AD0005F142
:1057A000E025C5F8004109E0047804F01F05012454
:1057B000AC401C4D0678761145F8264070BD1A4A5B
:1057C0000A400243154B1B1F1A60704739B1134A38
:1057D000121D12680243114B1B1D1A6006E00F4A8E
:1057E000121D126882430D4B1B1D1A60704704285E
:1057F00008D14FF0E021096941F004014FF0E022A7
:10580000116107E04FF0E021096921F004014FF038
:10581000E0221161704700000000FA050CED00E085
:1058200000E400E080E100E080FFFF1F30B943F2B8
:10583000DB028100A1F1C0410A6005E043F2D2021F
:105840008100A1F1C0410A606FF07042411C8900E3
:10585000A1F1C0410A608100A1F1C041C1F8042159
:10586000704710280AD118214FF0204211664021BC
:1058700051664FF0FC319166D16610E01821F74A6D
:10588000116040214FF02042C2F884104FF0FC31EB
:10589000F24A083211604FF02042C2F88C10704773
:1058A0001820EE492031086000200906C1F8A40044
:1058B0004FF0FC30E94928310860091D0860091DD6
:1058C00008607047D0E901121143C26811430269B0
:1058D00011434269114382691143C2691143026A4B
:1058E0001143426A1143826A1143C26A1143026B37
:1058F000114302689200A2F1C04211608168082938
:105900000BD101688900A1F1C041096841F0400252
:1059100001688900A1F1C0410A60416B0968426BCE
:10592000526841EA0211426B926841EA0221426BDD
:10593000928941EA0241426B128A41EA0251426B6A
:10594000127D41EA0261426B926911430268521C66
:105950009200A2F1C0421160C16AB1F5804F1BD123
:10596000816B0968826B526841EA0211826B92680E
:1059700041EA0221826B128A41EA0251826B127D56
:1059800041EA0261826B9269114302689200A2F1BE
:10599000C042C2F8041107E06FF07042016889004C
:1059A000A1F1C041C1F80421704730B500210022A7
:1059B0000023446844F0080485682C43C5682C43E0
:1059C00005692C43456944EA4524856944EA453123
:1059D000C4692468C5696D6844EA0524C5692D89D0
:1059E00044EA0544C5692D7B44EA0562046A2468DB
:1059F000056A6D6844EA0524056A2D8944EA054470
:105A0000056A2D7B44EA05630468102C05D14FF02C
:105A100020442166A266E36608E0904C21604FF0C6
:105A20002044C4F888208D4C0C34236030BD0168BC
:105A300041F01001426841EA4221826841EA423164
:105A4000864A20321160C1680968C268526841EA1A
:105A50000221C268128941EA0241C268127B41EA0E
:105A600002617E4A28321160016909680269526840
:105A700041EA02210269128941EA02410269127B6C
:105A800041EA0261754A2C32116041690968426934
:105A9000526841EA02214269128941EA024142699F
:105AA000127B41EA02614FF02042C2F8B010704709
:105AB000002101600221416000218160C16001611B
:105AC00041618161C16101624FF4805141624900CD
:105AD00081620021C16201630F21426B1160426B40
