:020000040800F2
:1000000000E50020090C0008110A0008130A000886
:10001000170A00081B0A00081F0A00080000000059
:10002000000000000000000000000000230A00089B
:10003000250A0008000000002F980108650C000840
:10004000230C0008230C0008230C0008230C0008D4
:10005000230C0008230C0008230C0008230C0008C4
:10006000230C0008230C0008230C0008230C0008B4
:10007000230C0008230C0008230C0008230C0008A4
:10008000230C0008230C0008230C0008230C000894
:10009000230C0008230C0008230C00089F1A0008FA
:1000A000230C0008230C0008230C0008230C000874
:1000B000230C0008230C0008230C0008230C000864
:1000C000230C0008230C0008230C0008230C000854
:1000D000230C0008B9140008230C0008D7140008EA
:1000E000230C0008230C0008230C0008230C000834
:1000F000230C0008230C0008230C0008230C000824
:10010000230C0008230C0008230C0008230C000813
:10011000230C0008230C0008230C0008230C000803
:10012000230C0008230C0008230C0008230C0008F3
:1001300000F002F800F071F80AA090E8000C824488
:100140008344AAF10107DA4501D100F066F8AFF265
:10015000090EBAE80F0013F0010F18BFFB1A43F0A5
:10016000010318473CA401005CA401000A444FF0BD
:10017000000C10F8013B13F0070408BF10F8014B06
:100180001D1108BF10F8015B641E05D010F8016B4B
:10019000641E01F8016BF9D113F0080F1EBF10F8AF
:1001A000014BAD1C0C1B09D16D1E58BF01F801CBD2
:1001B000FAD505E014F8016B01F8016B6D1EF9D555
:1001C0009142D6D37047000000230024002500266A
:1001D000103A28BF78C1FBD8520728BF30C148BFAA
:1001E0000B607047642919F0BB83782919F0F483F8
:1001F000632919F07086732919F0758600207047FD
:100200001FB519F001FE04000020002119F0D8FEEE
:10021000401C60601FBD10B510BD19F09BFE11465B
:10022000FFF7EEFF00F01AFB19F0B9FE03B4FFF779
:10023000F2FF03BC01F05EF900250024002769E00D
:10024000FE48007838B9322300221146104619F0D2
:10025000C9F9002446E0002F3ED141F2707085427A
:1002600002DA681C85B200E00025F5480078AA286B
:1002700004D10020F24908704FF47A74502C03DA4C
:10028000601C84B2002627E0B4F5E16F15DA601C2B
:1002900084B21E2095FBF0F100FB1150E0B9E94853
:1002A000007840F04000E7490870701CC6B2224652
:1002B0003146E5A019F0F8FA0EE041F28834C82082
:1002C00095FBF0F100FB1150012805D1DD480078C5
:1002D00040F04000DB4908703223002211461046EE
:1002E00019F080F900F093FFE348007800F08000F7
:1002F00080280FD10020E0490870AA27DF4819F0B4
:10030000D3FAD048007820F04000CE490870DC488D
:1003100002F0CAFB94E788B01D20079005200690E4
:1003200000200590804604900024322783460390E5
:10033000102105F0D8FD05460020D2490870D249A9
:1003400008600120D149C1F89C01CF4908390860F3
:100350004FF4FA7302220021084619F043F902F023
:1003600053F9C8480178CAA019F09EFA6423002204
:100370001146104619F036F9D04803F08BF8642383
:1003800000221146104619F02DF903F0A2F8CCA076
:1003900019F08AFA0120BC490860091F0860BB49AE
:1003A000C1F89801CA4800780790CA4800780690BA
:1003B000B4480078381AC7B2142F01DB322F00DDA1
:1003C000142752E0B048006808B9012000E000207E
:1003D000AD490860AD48D0F89C0108B9012000E0A3
:1003E0000020A949091F0860A848D0F8980108B959
:1003F000012000E00020A449083908603946B6A071
:1004000019F052FA04A803F083F800282BD09DF8C5
:10041000130000909DF812309DF811209DF81010E7
:10042000AFA019F041FA04A802F050F80646314690
:10043000B2A019F039FA202E15DC04A9304602F0DA
:100440009FFFB24988550846805D30B90846825DF5
:100450003146AFA019F028FA05E0AC48825D31467C
:10046000B2A019F021FA781EC7B2002FAAD100203D
:100470008549086001208549C1F89C0182490839F5
:100480000860C82300221146104619F0ABF88B48CB
:1004900003F000F8C82300221146104619F0A2F814
:1004A000864802F0F7FFAA2064490870A6A019F058
:1004B000FBF9A9E102F08CFD85490978079888428B
:1004C00004D1844909780698884217D08048017879
:1004D0008048007803F006F8B8F1020F04DC08F158
:1004E000010000F0FF0809E04FF000080020039031
:1004F0007748007807907748007806909D490978FA
:10050000059888420FD06D4802F0C4FFB8F1020F81
:1005100004DC08F1010000F0FF0804E04FF00008DF
:10052000944800780590202C7EDA611CC8B203F054
:1005300027FAC4EBC400534911F8100000F003007F
:10054000002871D0AA202870C4EBC40011F8100054
:1005500000F00300012802D1112068700AE0C4EB0A
:10056000C400484911F8100000F00300022801D12E
:1005700013206870C4EBC400424901EB400040788E
:10058000A870C4EBC40001EB40008078E870C4EBB5
:10059000C40001EB4000C0782871C4EBC40001EB3B
:1005A000400000796871C4EBC40001EB4000407961
:1005B000A871C4EBC40001EB40008079E871C4EB82
:1005C000C40001EB4000C0792872C4EBC40001EB09
:1005D0004000007A6872C4EBC40001EB4000407A2E
:1005E000A872C4EBC40001EB4000807AE872C4EB4F
:1005F000C40001EB4000C07A2873C4EBC40001EBD7
:100600004000007B6873AC73C4EBC40001EB400096
:10061000407BE87329465848006818F0CDF88246B8
:10062000BAF1000F05D000E0B1E02946002005F046
:100630004AFCC4EBC4001349A0E000000000002005
:1006400024000020D50000200D0A20BFECB5DDD02D
:10065000C4CCF8B0FCB7A2CBCDD7B4CCAC2CB7A2ED
:10066000CBCDB4CECAFD2532642CBCC6CAFDD6B5EE
:10067000A3BA25642E0000000C00002020A301086E
:100680003204002018020020A00122420000224271
:10069000C9CFB5E7BCECB2E2466C617368C4DAC29C
:1006A000DFBCADB5D8D6B7CDEAB3C92120D7DCCFF2
:1006B000DFA3BA2532642E0D0A00000010000020CE
:1006C000CEB4D7A2B2E1B9E3B2A521200D0A000051
:1006D0000D0000200E0000202532642E20000000B6
:1006E000CEEFC0EDB5D8D6B7A3BA253032582530F5
:1006F000325825303258253032583B00C2DFBCAD6D
:10070000B5D8D6B73A25643B0000000002040020AB
:100710005665725B253032645D3D253032582CB70A
:10072000D6C5E4CAA7B0DCA3A10D0A005665725B6A
:10073000253032645D3D253032582CB7D6C5E4B340
:10074000C9B9A6A3A10D0A000D0AC9CFB5E7BCEC33
:10075000B2E2CEB4D7A2B2E1B3ACCAB1A3ACBDF899
:10076000C8EBD5FDB3A3B4FDBBFAD7B4CCAC3B0DFD
:100770000A0000000F0000202C00002011F81000DB
:1007800020F00300C4EBC401674A02F8110002AA7A
:1007900001216648006817F047FF81469DF8080070
:1007A00028B9B9F1000F02D0484603F01FFA4946B4
:1007B000002005F088FB212C0EDD5DA019F074F8F7
:1007C0000024BBF1320F04DA0BF1010000F0FF0B43
:1007D00004E04FF0000B01E0601CC4B20398B0F5D8
:1007E000702F08D9002003905348017853480078AF
:1007F00002F078FE02E00398401C03900A230022D6
:100800001146104618F0EEFE54E670B5044600BFDF
:1008100040214B4817F034FE4449086040214948C4
:1008200017F02EFE4849086016F00AFD18F0D8FFB0
:1008300005460A23454A0021AFF2255018F058FB1F
:100840000923434A0021AFF20F6018F051FBFF204B
:1008500018F0CEFD284618F0C7FF70BD08B500F0AF
:100860000DFA4FF4407003F0C3FB00F008FC00F0F9
:1008700061FE0020052306220721009002F0ACFB58
:10088000002005F06AFA33A019F00EF8012138A013
:1008900019F00AF800213CA019F006F801F0FEFB5F
:1008A00000BF01F08BFC0028FBD13CA018F0FCFF3E
:1008B0004FF4FA7000F033FA16F08DFB0AE03CA01A
:1008C00018F0F2FF4FF4FA7000F029FA4FF4FA70C2
:1008D00000F025FA05F0DBFC0028F0D139A018F073
:1008E000E3FF0AE03DA018F0DFFF4FF4FA7000F0DC
:1008F00016FA4FF4FA7000F012FA06F014FA002813
:10090000F0D14FF4FA7000F00AFA3AA018F0CCFFD8
:100910000C233E4A0021AFF20D1018F0E9FA16F050
:1009200077FC002008BD00001802002028000020ED
:100930000D0A0D0A000000000D0000200E0000202E
:1009400054120020541300202C00002050100020CE
:10095000500800205374617274696E6720557020CE
:1009600059434B4A2D4143552E2E2E0D0A000000AF
:1009700056657273696F6E4E6F3A20253032582E6D
:100980002E2E0D0A0000000054657374466C6167DA
:100990003A2025642E2E2E0D0A00000041543234D8
:1009A0004358585F436865636B204F4B210D0A0025
:1009B0004C77697020496E6974206661696C656462
:1009C000210D0A004C77697020496E6974205375B7
:1009D0006363657373210D0A0000000054435020C7
:1009E000436C69656E74206661696C656421210DD4
:1009F0000A00000054435020436C69656E74205314
:100A0000756363657373210D0A00000050120020A6
:100A1000704700BFFEE700BFFEE700BFFEE700BF74
:100A2000FEE77047704700000CB500200190009071
:100A30006C48006840F480306A49086000BF69482B
:100A4000006800F4003000900198401C019000986C
:100A500018B90198B0F5A06FF1D16248006800F4B0
:100A6000003010B10120009001E0002000900098BB
:100A7000012843D15C48006840F010005A490860E2
:100A80000846006820F0030008600846006840F04F
:100A90000200086053484068524948600846406870
:100AA00048600846406840F48060486008464068F6
:100AB00020F47C1048600846406840F4E810486024
:100AC0000846006840F08070086000BF4548006834
:100AD00000F000700028F9D04248406820F0030080
:100AE000404948600846406840F00200486000BF46
:100AF0003C48406800F00C000828F9D10CBD10B546
:100B0000FFF792FF10BD10B53648006840F00100B5
:100B10003449086008464068344908403149486013
:100B200008460068324908402E49086008460068B7
:100B300020F4802008600846406820F4FE004860E9
:100B40004FF41F008860FFF7DAFF4FF0006029497B
:100B5000086010BD10B5002100200022214B5B6809
:100B600003F00C0121B1042906D0082928D107E09F
:100B7000214B224C236027E01F4B204C236023E0B5
:100B8000184B5B6803F47010164B5B6803F48032FB
:100B9000022303EB904022B9194B4343174C2360C7
:100BA0000DE0104B5B6803F4003323B1144B434357
:100BB000124C236003E0104B4343104C236003E0CE
:100BC0000D4B0E4C236000BF00BF064B5B68C3F3A8
:100BD00003130C4CE15C094B1B68CB40074C2360B2
:100BE00010BD000000100240002002400000FFF88D
:100BF000FFFFF6FE08ED00E000127A003000002052
:100C000000093D003400002009488047094800479A
:100C1000FEE7FEE7FEE7FEE7FEE7FEE7FEE7FEE7AC
:100C2000FEE7FEE704480549054A064B7047000009
:100C3000070B00083101000800DF002000E500205C
:100C400000E1002000E1002010B516F073FA10BD9D
:100C500010B516F0B4FA10BD10B50446204618F0D1
:100C60008FFC10BD10B53E480078012805D116F064
:100C7000C8F916F004FB16F0DFF910BD10B56FF0DF
:100C8000040003F004FA374800683749B0FBF1F07C
:100C900036490870334800683349B0FBF1F441F23B
:100CA000883044430520324908804FF0E020006935
:100CB00040F002004FF0E0210861084644610069FD
:100CC00040F00100086110BD2DE9F04707460026FD
:100CD0004FF0E020D0F814902448007807FB00F88B
:100CE00000BFFFF7B1FF4FF0E020856911E04FF042
:100CF000E0208469AC420CD0AC4202D2281B0644EE
:100D000003E0A9EB0400284406442546464500D3E9
:100D100000E0ECE700BFFFF79BFFBDE8F08770B590
:100D200004460F480078A0B11248007888B91048EE
:100D30000088844206DB0E48008894FBF0F52846C4
:100D4000FFF78AFF0A48008894FBF0F100FB11408E
:100D500084B24FF47A7104FB01F0FFF7B5FF70BD68
:100D6000F60100203000002000127A00440000202C
:100D700046000020E9010020F948006800F4006006
:100D800008B9012070470020FCE7F548006800F42E
:100D9000806008B9012070470020FCE7F048006837
:100DA00000F4007008B9012070470020FCE7EC480F
:100DB000006800F4807008B9012070470020FCE74B
:100DC000E848006800F4006008B90120704700207E
:100DD000FCE7E448006800F4806008B9012070472F
:100DE0000020FCE7DF48006800F4007008B901202B
:100DF00070470020FCE7DB48006800F4807008B909
:100E0000012070470020FCE708B50121602003F0B5
:100E10007FFF03208DF8020048208DF803004FF477
:100E20007060ADF800006946CD48083803F0B4FCA6
:100E30004FF47060ADF800006946CA48083803F006
:100E4000ABFC08BD10B50024FFF796FF012802D1C6
:100E500044F0010401E024F00104FFF796FF0128AB
:100E600002D144F0020401E024F00204FFF796FFEF
:100E7000012802D144F0040401E024F00404FFF747
:100E800096FF012802D144F0080401E024F0080490
:100E9000FFF796FF012802D144F0100401E024F08E
:100EA0001004FFF796FF012802D144F0200401E06E
:100EB00024F02004FFF796FF012802D144F04004FB
:100EC00001E024F04004FFF796FF012802D144F02E
:100ED000800401E024F08004204610BD08B52520E0
:100EE0008DF8000000208DF8020001208DF803002D
:100EF000684603F082F827208DF8000002208DF864
:100F0000020001208DF80300684603F076F808BD62
:100F100000B585B00121052003F0FAFE0121880308
:100F200003F0F6FE4FF40070ADF8100018208DF8B5
:100F3000130003208DF8120004A98B4803F02CFC49
:100F40004FF48060ADF8100004208DF8130004A960
:100F5000854803F021FC4FF4E13000900020ADF80B
:100F60000400ADF80600ADF80800ADF80C000C2048
:100F7000ADF80A0069467D4803F071FF012240F296
:100F800025517A4804F003F80121784803F0F3FF73
:100F90004021764804F0D7F80121092003F0B8FE7B
:100FA0000121880403F0C1FE4FF48060ADF8100009
:100FB00018208DF8130003208DF8120004A96C4846
:100FC00003F0EAFB4FF40060ADF8100004208DF848
:100FD000130004A9664803F0DFFB04A9644803F08A
:100FE000DBFB4FF4E13000900020ADF80400ADF8D9
:100FF0000600ADF80800ADF80C000C20ADF80A00B2
:1010000069465C4803F02BFF012240F22551594804
:1010100003F0BDFF0121574803F0ADFF40215548C3
:1010200004F091F805B000BD50485349086053489A
:101030004860534888604FF400708881C881002060
:1010400008824882C882088348838882C86108620F
:10105000486248484B4908604B4848604B488860A4
:101060004FF400708881C881002008824882C882BD
:10107000088348838882C86108624862704710B557
:10108000FFF7D2FFFFF744FFFFF728FF10BD01462F
:1010900009B939487047012901D10020FAE702292E
:1010A00001D13848F6E7032901D10020F2E70429ED
:1010B00001D10020EEE70020ECE72DE9F0470446DF
:1010C0000E4617464FF00008002527E00CE018F008
:1010D00087FB8046B4F81490404618F085FBA08941
:1010E000484500DD01E000BFF1E700BF705D228AE6
:1010F0006168885418F074FB8046208A401C80B2D6
:101100002082A189884201DB00202082A08A401C25
:10111000A082404618F068FB681C85B2BD42D5DB52
:10112000012240F22771206803F031FFBDE8F0870B
:101130002DE9F04105460E4617462846FFF7A7FF62
:1011400004460CB9BDE8F081E06908B1E069804768
:101150003A4631462046FFF7B0FF00BFF2E70000F5
:1011600008140140081801400008014000380140FF
:10117000000C014000480040541400207C14002062
:101180007C1600207C180020A4180020A41A00203F
:1011900013B50446012201A92046FFF7C9FF1CBD73
:1011A0002DE9F04104460D46002718F019FB0746CB
:1011B000668B384618F018FB16B90020BDE8F081A0
:1011C000218BA068405C287018F00AFB0746208B32
:1011D000401C80B22083E189884201DB002020830B
:1011E000608B401E6083384618F0FEFA0120E5E768
:1011F00070B505460E462846FFF749FF04460CB970
:10120000002070BD31462046FFF7CAFFF9E738B528
:1012100069460220FFF7ECFF00284AD0BD4800785D
:1012200000F08000002844D19DF80000BA49B94A76
:1012300012788854B7480078401CB64908700846B0
:101240000078202801DD00200870B2480078401E98
:10125000B149085CF3280DD1AE480078032809DABB
:10126000F321AC480078401EAB4A11540120A94933
:1012700008701EE0A8484078A6490978884218DC22
:10128000A4480078401EC1B2A34800F0C1FD044646
:10129000A0480078401EA049085CA04206D19D48A5
:1012A000007840F080009B49087002E000209949D6
:1012B000087038BD00B503461846FFF7E8FE024641
:1012C00002B900BD002010825082908200BFF8E772
:1012D00000B503461846FFF7DAFE024602B900BD24
:1012E0000020D0821083508300BFF8E71FB504466A
:1012F00000940020ADF80400ADF80600ADF8080039
:10130000ADF80C000C20ADF80A006946834803F0E4
:10131000A6FD1FBD1FB5044600940020ADF80400D3
:10132000ADF80600ADF80800ADF80C000C20ADF8E3
:101330000A006946794803F092FD1FBD08B50121F6
:10134000102003F0E5FC03208DF8020010208DF83A
:1013500003000002ADF800006946714803F01CFA72
:101360004FF480506E49086108BD1FB504460094D3
:101370000020ADF80400ADF80600ADF80800ADF8A7
:101380000C000C20ADF80A006946664803F067FDC2
:101390001FBD4FF480506249486170474FF4805040
:1013A0005F490861704770B504460D462A462146DC
:1013B0000320FFF7BDFE70BD70B50446204618F04F
:1013C000FFFB85B229462046FFF7EDFF70BD704751
:1013D000704770B5044640F22551206803F0BCFE0A
:1013E000E0B1206803F038FEC5B2E18AA068455438
:1013F000E08A401C80B2E082E189884201DB002063
:10140000E082608BE189884202DA608B401C608355
:10141000606A10B12846616A884700BF40F22771B0
:10142000206803F099FE08B3A08A60B9002240F258
:101430002771206803F0ABFD012240F2266120688D
:1014400003F0A5FD37E0638A6268D15C206803F091
:10145000FFFD608A401C80B26082A189884201DB66
:1014600000206082A08A401EA08224E040F2266113
:10147000206803F071FEF0B1A08A50B9002240F25A
:101480002661206803F083FD206AA0B1206A8047AE
:1014900011E0638A6268D15C206803F0D9FD608A3C
:1014A000401C80B26082A189884201DB00206082FA
:1014B000A08A401EA08270BD10B518F091F90446B4
:1014C00015F09FFD204618F08FF91748FFF781FFB0
:1014D00015F0B2FD10BD10B518F082F9044615F0F4
:1014E00090FD204618F080F91048FFF772FF15F0C4
:1014F000A3FD10BD014600BF704700BF0C4A128813
:1015000002F04002002AF9D0C2B2094B1B1D1A801A
:10151000704700000C00002032040020004400400E
:1015200000100140004C0040541400207C180020A2
:101530000038014008B50121102003F0E9FB4FF409
:10154000E070ADF8000010208DF8030003208DF846
:1015500002006946084803F01FF94021064803F0DD
:10156000C8F98021044803F0C4F94FF4807102489F
:1015700003F0BFF908BD000000100140FC4A1080D4
:101580004FF0C842A2F8001170470146F8480180A8
:101590004FF0C840B0F80001704770B5044644F001
:1015A00040010C20FFF7EAFF0C210B20FFF7E6FFBC
:1015B0000A20FFF7B4FB00210B20FFF7DFFF0D200F
:1015C000FFF7E3FF02460E20FFF7DFFF42EA0020AD
:1015D00085B2284670BD70B50024E648007808281A
:1015E00011D108E06420FFF79AFB601CC4B2642CA0
:1015F00001DDFF2070BD0120FFF7CFFF00F02000CC
:101600000028EFD010E008E06420FFF788FB601CA2
:10161000C4B2642C01DDFF20ECE70120FFF7B5FF29
:1016200000F040000028EFD00120FFF7AEFF0221BC
:1016300001EAA0150020FFF7A8FFC0F3C000054392
:101640002846D7E710B50446002306E0E15C03F125
:101650001600FFF793FF581CC3B2082BF6DB10BD32
:1016600010B50446002306E0E15C03F11000FFF72B
:1016700085FF581CC3B2062BF6DB10BD70B50546BE
:101680000C4645F040010C20FFF778FFE1B20D2039
:10169000FFF774FF210A0E20FFF770FF0A210B20CD
:1016A000FFF76CFF3220FFF73AFB00210B20FFF71A
:1016B00065FF70BD70B50646092E1BD2DFE806F047
:1016C000050C1A1A08101A1A15000024212511E019
:1016D0004FF4807441250DE04FF40054812509E05A
:1016E0004FF4045440F2011504E04FF4805440F2EA
:1016F000E11500BF00BF21460020FFF7BFFF2946CC
:101700000420FFF7BBFF00211F20FFF737FF70BD4C
:1017100000B52820FFF739FF02462920FFF735FFE3
:1017200042EA00222A20FFF730FF42EA00422B2043
:10173000FFF72BFF42EA0062104600BD10B5002003
:101740008D4908600A20FFF7EAFA01208B49C1F8A9
:101750009C016420FFF7E3FA01211E20FFF70EFF32
:1017600000211F20FFF70AFF03210020FFF706FFDB
:1017700000BF1920FFF7D3FA0020FFF706FF00F0A3
:1017800001000028F5D100210846FFF7F7FE0321EC
:101790000020FFF7F3FE00BF1920FFF7C0FA00207A
:1017A000FFF7F3FE00F001000028F5D110BD10B5E1
:1017B0009AB001214FF4F07003F0AAFA0121080257
:1017C00003F099FA0121084603F0A2FA8020ADF84F
:1017D000640003208DF8660010208DF8670019A9B9
:1017E000674802F0D9FF4020ADF8640048208DF82A
:1017F000670019A9634802F0CFFF4CF23370ADF8CF
:10180000640003208DF8660018208DF8670019A980
:101810005B4802F0C1FF4FF68070ADF86400032012
:101820008DF8660018208DF8670019A9564802F057
:10183000B3FF4FF40050ADF8640003208DF866004C
:1018400018208DF8670019A9504802F0A5FF4FF441
:101850000070ADF8640003208DF8660018208DF844
:10186000670019A9474802F097FF0621084603F0D0
:10187000A9F84020179000208DF860000C208DF80A
:10188000610001208DF8620017A803F0B7FC40202A
:1018900003F02BFD17208DF8580001208DF859001A
:1018A00000208DF85A0001208DF85B0016A802F088
:1018B000A4FB0020009001900320029000200390E0
:1018C000049005900690022007900020089009904F
:1018D00010200A9000200B900C900D900E900F900D
:1018E0004FF4805010900020119012901390CDF87A
:1018F00050D0CDF854D007A802F034FC01210220CA
:1019000002F098FD2248046808201A490870002057
:1019100048808120487002200871002115484171DB
:10192000200E14498871210C1248C171210A0172DC
:101930004472FF200F498872FF210E48C172017363
:1019400041738173C17301744174FFF7F7FE642022
:10195000FFF7E5F9FFF7DCFE044621460DA017F07E
:10196000A3FF104884421FD001201AB010BD000010
:10197000FE000064A41C00209C81224200802242C0
:10198000001401400020014000180140001C0140EB
:10199000E8F7FF1F444D393030302049443A2523C1
:1019A000780D0A00460A0090CC490878FFF782FEBD
:1019B00000210846FFF7E2FD00210220FFF7DEFDCF
:1019C0003F210820FFF7DAFD38210920FFF7D6FD77
:1019D00000210A20FFF7D2FD00212F20FFF7CEFDC6
:1019E0002C210120FFF7CAFD0F21FE20FFF7C6FDC5
:1019F00080212D20FFF7C2FDB848001DFFF730FE03
:101A0000B6480A30FFF71EFE31210520FFF7B6FD6C
:101A10008021FF20FFF7B2FDFFF7DDFD0446FF2C1C
:101A200011D004F0010008B1ADA000E0AEA0024664
:101A300004F0020008B10A2000E064200146ACA0D6
:101A400017F032FF02E0B5A017F02EFFA34841784F
:101A5000FF20FFF793FD00201AB010BD70B5B74806
:101A60000588FE20FFF791FD04462146FE20FFF782
:101A700085FD04F0040010B1B1A017F015FF04F0CB
:101A8000080010B1B1A017F00FFF04F0010018B169
:101A9000B648006817F015F9A848058070BD10B564
:101AA00015F0AFFA4020B249086001E0FFF7D6FF19
:101AB000B04800680028F9D015F0BEFA10BD2DE935
:101AC000FC410446002700266A460021AA48006817
:101AD00016F0EFFA8021FF20FFF750FDF82097491C
:101AE000088025461BE06889B84216DD3846791C17
:101AF0008FB26A68125C3046711CCEB201A90A54DA
:101B0000022E0CD19DF804009DF8051040EA01203A
:101B10008A49891C0880002601E02D680027002DD5
:101B2000E1D1012E04D19DF804008449891C08806C
:101B3000217AFC20FFF722FD2089010AFD20FFF712
:101B40001DFD01210220FFF719FD00BFFE20FFF758
:101B50001CFD00F002000028F8D00221FE20FFF753
:101B60000DFD5E484178FF20FFF708FD82480068C0
:101B700016F0C1FBBDE8FC812DE9FF4100246A4657
:101B800000217D48006816F094FA00BFF020FFF7AE
:101B9000FCFC6A48801C008800F0FF08B8F1000FC8
:101BA00078D0B8F1010F0ED974A017F07DFE002196
:101BB0000520FFF7E3FC8021FE20FFF7DFFC204635
:101BC00004B0BDE8F081F2205C4908804FF0C840C5
:101BD000B0F800010390881C008802900322BDF831
:101BE000081010460AF0C4F904468CB125460CE0F2
:101BF0006F686E8906E04FF0C840B0F80001388089
:101C0000BF1CB61E002EF6DC2D68002DF0D110E0B2
:101C1000BDF8081062A017F047FE01AFBDF80860DC
:101C200005E04FF0C840B0F800013880B61E002E25
:101C3000F7D1BDF80C0000F43F4040B9BDF80800F2
:101C4000402804DBBDF80800B0F5C06F3FDDBDF8EB
:101C50000C1059A017F028FEBDF80C0000F480709D
:101C600010B159A017F020FEBDF80C0000F4007070
:101C700010B159A017F018FEBDF80C0000F4004098
:101C800010B159A017F010FEBDF80800B0F5C06FF4
:101C90000BDD00E00FE059A017F006FE0121002047
:101CA000FFF76CFC0520FFF73AF814B120460AF064
:101CB000D7F800246AE70221FE20FFF75FFC8120AD
:101CC0000649487008464178FF20FFF757FC2A482C
:101CD000006816F010FB204672E70000A41C0020EC
:101CE00046756C6C0000000048616C6600000000E6
:101CF000444D393030302053706565643A25644D69
:101D00006270732C4475706C65783A257320647525
:101D1000706C6578206D6F64650D0A00444D393034
:101D200030302045737461626C697368204C696E51
:101D30006B204661696C6564210D0A00FE00006439
:101D40006F766572666C6F77200D0A006F7665722C
:101D5000666C6F7720636F756E746572206F766541
:101D600072666C6F77200D0A00000000880000206A
:101D700014040140180124428C000020646D3930A5
:101D800030302072783A207278206572726F722C2F
:101D90002073746F70206465766963650D0A0000B6
:101DA00070627566C4DAB4E6C9EAC7EBCAA7B0DCEC
:101DB0003A25640D0A00000072785F7374617475CF
:101DC000733A2523780D0A007278206669666F20C1
:101DD0006572726F720D0A007278206372632065FB
:101DE00072726F720D0A00007278206C656E6774F3
:101DF00068206572726F720D0A0000007278206CA4
:101E0000656E67746820746F6F206269670D0A00E1
:101E100010B50246002006E013784340034CE05C16
:101E2000521C4B1ED9B20029F6DC10BDEC9F0108F4
:101E300008B50121082002F06BFFC020ADF80000BA
:101E400010208DF8030003208DF8020069469048A9
:101E500002F0A2FCC0218E4802F04BFD08BD10B577
:101E60008B48006820F07040894908600846006887
:101E700040F0405008600120864908608649C1F85A
:101E800098010420FEF720FF00208249086004200A
:101E9000FEF71AFF00208049C1F8980110BD10B567
:101EA0007B48006820F07040794908600846006867
:101EB00040F04050086000207649091F08607649CC
:101EC000C1F89C010420FEF7FFFE01207149091FA3
:101ED00008607149C1F89C010420FEF7F5FE10BDB1
:101EE00010B500246A48006820F070406849086016
:101EF0000846006840F0004008600120654908601D
:101F0000FEF7E2FE01206449C1F89801FEF7DCFE0D
:101F100007E0601CC4B2FA2C03DDFFF7C0FF01200C
:101F200010BD5C48803800680028F2D15949091F6B
:101F3000086000BFF4E710B500205649091F08608B
:101F40005348006820F07040514908600846006816
:101F500040F04050086000204F49C1F89C01022029
:101F6000FEF7B2FE01204B49091F08600220FEF770
:101F7000ABFE00204849C1F8980110BD10B5002003
:101F80004449091F08604248006820F070404049F9
:101F900008600846006840F04050086001203E4953
:101FA000C1F89C010220FEF78FFE01203949091F6C
:101FB00008600220FEF788FE00203749C1F898012A
:101FC00010BD70B504463248006820F070403049BA
:101FD00008600846006840F04050086000202D4925
:101FE000091F086000251DE0E00918B101202949FA
:101FF000086002E00020274908606006040E022005
:10200000FEF762FE01202349091F08600220FEF747
:102010005BFE00202049C1F898010220FEF754FE23
:10202000681CC5B2082DDFDB70BD70B50546002405
:102030001748006820F0704015490860084600689D
:1020400040F000400860002617E000201149091FF9
:1020500008600220FEF738FE01200F49C1F8980100
:102060006006040E0B488038006808B1601CC4B2DA
:102070000120FEF729FE701CC6B2082EE5DB15B95B
:10208000FFF77CFF01E0FFF756FF204670BD000020
:10209000000C01409C8121420080214210B5FFF7D5
:1020A000C7FE10BD70B504460026FFF7D8FE2546D2
:1020B000E11704EB11610912A02202EB4101C8B241
:1020C000FFF77FFFFFF70CFFE11704EB1161091227
:1020D000A4EB0121C8B2FFF774FFFFF701FFFFF780
:1020E000BEFEA120FFF76DFFFFF7FAFE0020FFF70D
:1020F0009CFF0646FFF7D3FE304670BD70B5044620
:102100000E46FFF7ACFE2546E11704EB11610912FC
:10211000A02202EB4101C8B2FFF753FFFFF7E0FE38
:10212000E11704EB11610912A4EB0121C8B2FFF71A
:1021300048FFFFF7D5FE3046FFF743FFFFF7D0FE1D
:10214000FFF7ADFE0A20FEF7EAFD70BD2DE9F04174
:1021500005460E461746002409E0E20026FA02F280
:10216000D1B22A1990B2FFF7C9FF601CC4B2BC42B9
:10217000F3DBBDE8F0812DE9F04107460C4600266F
:10218000002509E036023919491B491E88B2FFF7BC
:1021900089FF0644681CC5B2A542F3DB3046BDE8A2
:1021A000F08110B5002405E000212046FFF7A6FFCE
:1021B000601C84B2B4F5806FF6DB10BD30B58DB015
:1021C0006CA103C9CDE90B016CA000680A906CA05A
:1021D0000068099044F620656AA30FCB05AC0FC4D4
:1021E0006C4800F0CDFA6B4880796A494979694AB0
:1021F0001279684BDB78CDE90032CDE902106548F1
:1022000083784278017864A017F04EFB6E4800F0A6
:10221000DEFA6D48C07800906B4883784278017888
:102220006AA017F041FB00F0EDFA704908800846FB
:1022300001886FA017F038FB734800F00AFB724862
:10224000C078009070488378427801786FA017F0CA
:102250002BFB784800F019FB77A017F025FB754899
:10226000C17982794079734B1B79CDE90130CDE991
:1022700003217048C07800906E48837842780178D6
:1022800072A017F011FB6B48C17B807B694A527BBF
:10229000684B1B7BCDE90132CDE903016548C07A6B
:1022A00000906448837A427A017A6FA017F0FCFAB2
:1022B000744800F07EFB73480078AA2809D172A008
:1022C00017F0F2FA744800F07CFB744800F0E4FB6D
:1022D00002E073A017F0E8FAFF20FFF7E3FE0446E0
:1022E000552C02D100200DB030BDFFF75AFF70A071
:1022F00017F0DAFA0BA800F04BFA09A800F06FFA11
:10230000284600F08EFA0AA800F0ABFA05A800F003
:10231000C4FA5521FF20FFF7F1FEFF20FFF7C2FEB0
:102320000446552C01D10020DDE70120DBE770B524
:1023300006460C46154608E03046721C96B2FFF77A
:10234000B1FE04F8010B681E85B2002DF4D170BDFA
:1023500070B505460C46164606E021782846FFF77C
:10236000CDFE681C85B2641C301EA6F101018EB240
:10237000F3D170BDFFFFFFFFFFFF0100202001022E
:10238000276A71FE313030303030302D62373631CF
:102390006332623010000020524649445F4B657939
:1023A0003A253032582530325825303258253032CF
:1023B0005825303258253032582EBEF8B6D4BFE9F1
:1023C000BAC53A25640D0A00010000204950B5D86D
:1023D000D6B72D2D2D2D2D2D2D2D2D2D2D2D2564CB
:1023E0002E25642E25642E25640D0A00060000208B
:1023F000B6CBBFDABAC52D2D2D2D2D2D2D2D2D2D82
:102400002D2D2535640D0A0008000020C7F8D3F2F1
:10241000BFD8D6C6C6F7534E2D2D2D2D2D2D2530C8
:1024200032582530325825303258253032580D0A6E
:102430000000000022040020C7F8D3F2BFD8D6C69F
:10244000C6F7CDA8D0C5C2EB2D2D000025325825EA
:1024500032582532582532582532582532582532DF
:1024600058253258000000002532582532582532B0
:102470005825325825325825325825325825325899
:102480000D0A000017000020BEB2CCAC49502D2D23
:102490002DBFAAC6F40D0A001C0000202000002059
:1024A000BEB2CCAC49502D2D2DBDFBD3C30D0A00BF
:1024B000415432344358585F44656C6574655F61BC
:1024C0006C6C4461742829210D0A00002DE9FC413F
:1024D0000546002000900190012428E004EB8400D0
:1024E00000F10A063046FFF7DDFD0746A7421CD182
:1024F000711C88B204226946FFF719FFE8789DF83D
:102500000310884211D1A8789DF8021088420CD19E
:1025100028789DF80010884207D168789DF801104E
:10252000884202D12046BDE8FC81601CC4B2212C47
:10253000D4DB01242FE004EB840000F10A063046CE
:10254000FFF7B0FD0746A74223D021463046FFF7EC
:10255000D5FD2978721C90B2FFF7D0FD6978B21CC6
:1025600090B2FFF7CBFDA978F21C90B2FFF7C6FD41
:10257000E978321D90B2FFF7C1FD0120FFF792FD0F
:10258000804608F10100C1B20120FFF7B7FD2046E7
:10259000C9E7601CC4B2212CCDDBF320C3E77CB5B6
:1025A0000546002000900190012419E004EB84010D
:1025B00001F10A00FFF776FDA8420FD104EB840178
:1025C0000A3141F0010004226946FFF7C1FE04EB25
:1025D000840101F10A000021FFF790FD601CC4B2E4
:1025E000212CE3DB0020C5EBC501FA4A02F81100FB
:1025F0000120FFF757FD0646701EC1B20120FFF70C
:102600007DFD701EC0B27CBD30B585B0002003904A
:1026100004900124AFE004EB840000F10A05284691
:10262000FFF740FDA04225D1691C88B2042203A90E
:10263000FFF77DFE9DF80F009DF80E109DF80D2010
:10264000CDE9002102909DF80C3022462946E2A0F7
:1026500017F02AF99DF80C0068B99DF80F0050B9E1
:102660002146EAA017F020F92046FFF798FF002046
:10267000F049085577E003A9204600F081FEED49B6
:1026800008550846005D68B3D2480078401CD1491F
:1026900008708020C4EBC401CE4A02F811009DF8F6
:1026A0000C00C4EBC40102EB410148709DF80D0021
:1026B000C4EBC40102EB410188709DF80E00C4EB2D
:1026C000C40102EB4101C8709DF80F00C4EBC401C6
:1026D00002EB41010871D748025D2146D6A017F0F0
:1026E000E3F840E0D9A017F0DFF803A9204600F096
:1026F00047FED04908550846005D68B3B5480078E4
:10270000401CB44908708020C4EBC401B14A02F8EF
:1027100011009DF80C00C4EBC40102EB41014870AC
:102720009DF80D00C4EBC40102EB410188709DF8D7
:102730000E00C4EBC40102EB4101C8709DF80F000C
:10274000C4EBC40102EB41010871BA48025D2146A5
:10275000C2A017F0A9F806E02146C7A017F0A4F818
:102760002046FFF71CFF052300221146104616F0F5
:1027700039FF601CC4B2212CFFF64DAF05B030BD4F
:1027800010B5044607222146E620FFF7D0FD10BD14
:1027900010B504462178E620FFF7B0FC6178E72009
:1027A000FFF7ACFCA178E820FFF7A8FCE178E9206E
:1027B000FFF7A4FC2179EA20FFF7A0FC6179EB2068
:1027C000FFF79CFCA179EC20FFF798FC10BD10B539
:1027D000044604222146C820FFF7A9FD10BD10B50C
:1027E00004462178C820FFF789FC6178C920FFF7EB
:1027F00085FCA178CA20FFF781FCE178CB20FFF7A8
:102800007DFC10BD08B50020009002226946CC2056
:10281000FFF78DFD9DF801009DF8001040EA0120B2
:1028200008BD70B50446CC262546E01704EB1060C1
:10283000C0F307213046FFF761FC2546E01704EBA3
:1028400010600012A4EB0020C1B2701CFFF756FC10
:1028500070BD10B5044604222146CE20FFF767FD67
:1028600010BD70B50446CE2521782846FFF746FCFA
:102870006178681CFFF742FCA178A81CFFF73EFCBA
:10288000E178E81CFFF73AFC70BD10B50446102251
:102890002146D220FFF74BFD10BD70B50446D2256E
:1028A00021782846FFF72AFC6178681CFFF726FC90
:1028B000A178A81CFFF722FCE178E81CFFF71EFCBA
:1028C0002179281DFFF71AFC6179681DFFF716FCB6
:1028D000A179A81DFFF712FCE179E81DFFF70EFCB6
:1028E000217A05F10800FFF709FC617A05F109007A
:1028F000FFF704FCA17A05F10A00FFF7FFFBE17A7C
:1029000005F10B00FFF7FAFB217B05F10C00FFF747
:10291000F5FB617B05F10D00FFF7F0FBA17B05F1F5
:102920000E00FFF7EBFBE17B05F10F00FFF7E6FB85
:1029300070BD70B50446EF2521782846FFF7DEFB11
:102940006178681CFFF7DAFBA178A81CFFF7D6FBBB
:10295000E178E81CFFF7D2FB2179281DFFF7CEFBB9
:1029600070BD70B50446F42521782846FFF7C6FBF4
:102970006178681CFFF7C2FBA178A81CFFF7BEFBBB
:10298000E178E81CFFF7BAFB70BD70B50446F82586
:1029900021782846FFF7B2FB6178681CFFF7AEFB91
:1029A000A178A81CFFF7AAFBE178E81CFFF7A6FBBB
:1029B00070BD10B5044605222146EF20FFF7B7FC95
:1029C00010BD10B5044604222146F420FFF7AFFCE9
:1029D00010BD0000180200202B2BC6F0CABC3A25FF
:1029E0003033643B20C2DFBCAD3A253032643B203B
:1029F000CEEFC0EDA3BA25303258253032582530FD
:102A00003258253032583B20000000000D0ACEEF2E
:102A1000C0EDB5D8D6B7B2BBC4DCCEAA3078303062
:102A2000A3A1C7E5C2DFBCADB5D8D6B73A25643B94
:102A30000D0A0000020400205665725B25303264E6
:102A40005D3D253032580D0A000000000D0AB7D652
:102A5000C5E4CAA7B0DCA3A1202000005665725BC4
:102A6000253032645D3D253032582CB7D6C5E4B3ED
:102A7000C9B9A6A3A10D0A00B6FEB4CEB7D6C5E467
:102A8000CAA7B0DCA3A1C7E5C2DFBCADB5D8D6B735
:102A90003A25643B0D0A000010B504460422214685
:102AA000F820FFF744FC10BD70B59AB0044614211D
:102AB00015A817F03DF9142110A817F039F90020D6
:102AC0000E900F900D9009900A900B900C9000269C
:102AD0000025F4208DF8540060788DF85500A0781A
:102AE000401CC0B28DF85600A07810287BD008DCBE
:102AF0000A2879D2DFE800F0780E7822787B789B7C
:102B000078AC122871D0C32846D0C5286ED0C92809
:102B10006AD12DE101208DF85700E64800788DF844
:102B20005800E44840788DF85900E24880788DF8E4
:102B30005A00E048C0788DF85B00A7E1E0788DF896
:102B4000570020798DF8580060798DF85900A079E8
:102B50008DF85A00E0798DF85B00207A8DF85C00E2
:102B60009DF857008DF840009DF858008DF8410001
:102B70009DF859008DF842009DF85A008DF84300E9
:102B800010A8FFF72CFE9DF85C109DF85B2041EA31
:102B90000220FFF746FE79E10DA8FFF718FEFFF7C8
:102BA00031FE06469DF834008DF857009DF835003B
:102BB0008DF858009DF836008DF859009DF83700C3
:102BC0008DF85A003046F11706EB1161090A8DF8AD
:102BD0005B10F11706EB11610912A6EB0121C9B2D6
:102BE0008DF85C1052E101E14FE12BE110E000258E
:102BF00008E0E81C215C15AA1154205C10A9485576
:102C0000681CC5B2102DF4DB10A8FFF746FE3DE1AD
:102C100009A8FFF73AFE002506E009A8415DE81C77
:102C200015AA1154681CC5B2102DF6DB2EE1002543
:102C300008E0E81C215C15AA1154205C10A9485535
:102C4000681CC5B2042DF4DB10A8FFF70AFE1DE1D5
:102C5000E078994908702079487060798870A07987
:102C6000C870E0790871207A94490870607A4870D9
:102C7000A07A8870E07AC870207B91490870607BE8
:102C80004870A07B8870E07BC8708B48FFF751FECE
:102C90008A48FFF766FE8A48FFF777FE8648FFF707
:102CA00088FE8648FFF78DFE8548FFF7F5FE8248CF
:102CB00000788DF85700804840788DF858007E489D
:102CC00080788DF859007C48C0788DF85A007A4891
:102CD00000798DF85B00794800788DF85C007748C2
:102CE00040788DF85D00754880788DF85E007348F7
:102CF000C0788DF85F00724800788DF860007048E9
:102D000040788DF861006E4880788DF862006C48DC
:102D1000C0788DF863006BA016F0C6FD6648007899
:102D2000AA2803D16FA016F0BFFD02E071A016F033
:102D3000BBFD6148007900905F48C3788278417894
:102D400070A016F0B1FD5D48C07800905B488378B4
:102D50004278017873A016F0A7FD5948C07800901A
:102D6000574883784278017876A016F09DFD8DE073
:102D700007A8FFF71EFE06A8FFF723FE05A8FFF72A
:102D80008BFE9DF81C008DF857009DF81D008DF8F6
:102D900058009DF81E008DF859009DF81F008DF811
:102DA0005A009DF820008DF85B009DF818008DF802
:102DB0005C009DF819008DF85D009DF81A008DF8F3
:102DC0005E009DF81B008DF85F009DF814008DF8E3
:102DD00060009DF815008DF861009DF816008DF8D3
:102DE00062009DF817008DF863004FE0E0785D49C0
:102DF00008702079487060798870A079C870E0798F
:102E00000871207A4871A07A887107215548FEF729
:102E1000FFFF554908705348FFF7BAFC51488079C5
:102E2000504949794F4A12794E4BDB78CDE900324F
:102E3000CDE902104B488378427801784BA016F018
:102E400033FD00BF0EA8FFF79BFC9DF838008DF8FE
:102E500057009DF839008DF858009DF83A008DF81C
:102E600059009DF83B008DF85A009DF83C008DF804
:102E70005B009DF83D008DF85C00607A8DF85D0088
:102E80009DF83E008DF85E0000E000BF00BF9DF899
:102E90005500401EC1B215A8FEF7BAFF6178491E61
:102EA00015AA50549DF8552015A90220FEF740F9A7
:102EB0001AB070BD08000020170000201C00002080
:102EC000200000202D2D2D2D2D2D2D2D2DBDD3CAD3
:102ED000D5B5BDB4AEBFDA2D2D2D2D2D2D2D2D2D1B
:102EE0000D0A0000BEB2CCAC49502D2D2DBFAAC694
:102EF000F40D0A00BEB2CCAC49502D2D2DBDFBD334
:102F0000C30D0A00BEB2CCAC4950B5D8D6B72E2EF0
:102F10002E2E2E2E25642E25642E25642E25640D3E
:102F20000A000000D7D3CDF8D1DAC2EB2E2E2E2E18
:102F30002E2E2E2E25642E25642E25642E25640D1E
:102F40000A000000C4ACC8CFCDF8B9D82E2E2E2E62
:102F50002E2E2E2E25642E25642E25642E25640DFE
:102F60000A000000100000200F0000202D2D2D2D44
:102F70002D2D2D2D2DBDD3CAD5B5BDB4AEBFDA20B4
:102F8000524649445F4B65792025325825325825F1
:102F900032582532582532582532582CBFE9B5D839
:102FA000D6B7A3BA25640D0A0000000070B5054627
:102FB0000C4645F2555002F0A1F9284602F0A1F95D
:102FC000204602F0A1F902F0A2F902F0A5F970BDC5
:102FD00010B502F09CF910BD2DE9F04188B004460F
:102FE0000D4616461F46DDF838800121042001F009
:102FF0008FFE0121480601F098FE4FF48050ADF895
:103000001C0003208DF81E0018208DF81F0007A952
:10301000CB4801F0C1FB4FF40060ADF81C00482024
:103020008DF81F0007A9C64801F0B6FB00208DF8F7
:1030300016008DF817008DF8180001208DF8190082
:1030400000208DF81A008DF81B008DF812808DF885
:1030500013408DF814608DF81550ADF8107004A968
:10306000B84802F084F900208DF80A008DF80B00B2
:1030700001208DF80C000020ADF80000ADF8020032
:10308000ADF80400ADF80600ADF8080001208DF899
:103090000D00684602F0F5F9002008B0BDE8F081A7
:1030A000F0B585B004460F4600252078012808D0E9
:1030B0002078072805D02078082802D02078092811
:1030C00004D1607840F40070009002E04FF400708A
:1030D00000909D48019000208DF808008DF80900AF
:1030E0008DF80A70002505E0615D0DF10B0041557A
:1030F000681C85B2082DF7DB6946924802F0B0FAE9
:103100000646002501E0681C85B231468D4802F074
:103110003FFB18B940F6FF708542F4DB40F6FF70C4
:10312000854202DB012005B0F0BD0020FBE730B591
:1031300085B005460021834802F00AFC10B9002042
:1031400005B030BD6A4600217E4802F07EFB0024B7
:1031500004E00DF10B00005D2855641C082CF8D329
:103160009DF80A00ECE730B587B005460C46002014
:1031700005900690142D7AD2DFE805F0C20A1023DC
:103180003C464DC2637AC2C2C2C2C2C2C293C2A985
:10319000A1208DF814008DF81500B2E0C1208DF843
:1031A000140020788DF8150060788DF81600A0784E
:1031B0008DF81700E0788DF8180020798DF8190047
:1031C0009FE0A2208DF8140020788DF8150060781B
:1031D0008DF81600A0788DF81700E0788DF81800AB
:1031E00020798DF8190060798DF81A00A0798DF892
:1031F0001B0086E0A3208DF8140020788DF81500C0
:1032000060788DF816007CE001208DF8140020789D
:103210008DF8150075E007208DF8140020788DF8E2
:10322000150060788DF81600A0788DF81700E0780A
:103230008DF8180020798DF8190060798DF81A0042
:103240005FE008208DF8140020788DF81500607874
:103250008DF81600A0788DF81700E0788DF818002A
:1032600020798DF8190060798DF81A0049E047E05F
:1032700009208DF8140020788DF8150060788DF8FD
:103280001600A0788DF81700E0788DF818002079E6
:103290008DF8190060798DF81A00A0798DF81B005F
:1032A0002FE011208DF8140020788DF8150060783B
:1032B0008DF81600A0788DF81700E0788DF81800CA
:1032C00020798DF8190060798DF81A0019E0132023
:1032D0008DF8140020788DF8150060788DF81600B0
:1032E000A0788DF81700E0788DF8180020798DF817
:1032F000190060798DF81A00A0798DF81B0000E0A4
:1033000000BF00BF9DF81B009DF81A109DF8192002
:103310009DF81830CDE90132CDE903109DF8170072
:1033200000909DF816309DF815209DF8141007A008
:1033300016F0BAFA082105A8FFF7B2FE07B030BDB3
:10334000000801400064004001F0001843414E5F56
:1033500053656E643A253032582025303258202586
:103360003032582025303258202530325820253030
:103370003258202530325820253032583B2000006A
:103380002DE9F0418AB005460C464FF000080026B2
:1033900000270020089009900690079020788DF86B
:1033A000200060788DF82100A0788DF82200E07868
:1033B0008DF823008DF8245008A90220FFF7D3FED2
:1033C00014263146FAA016F06FFA13E006A8FFF7AC
:1033D000AEFE07469DF81D00A84201D0002700E080
:1033E00008E0052300221146104616F0FBF8701E77
:1033F000C6B200BF0FB9002EE8DC3146EEA016F0D1
:1034000053FA002F40D09DF81F009DF81E109DF824
:103410001D209DF81C30CDE90132CDE903109DF847
:103420001B0000909DF81A309DF819209DF8181087
:10343000E3A016F039FA9DF81800C22821D19DF8B2
:1034400019009DF8201088421BD19DF81A009DF8A4
:103450002110884215D19DF81B009DF8221088424A
:103460000FD19DF81C009DF82310884209D19DF8CA
:103470001D009DF82410884203D19DF81E8000276E
:1034800004E04FF0000801E04FF0000840460AB0A9
:10349000BDE8F0811CB50446002000900190207822
:1034A0008DF8000060788DF80100A0788DF802009A
:1034B000E0788DF8030020798DF8040060798DF8AC
:1034C0000500A0798DF8060069460320FFF74BFE42
:1034D0001CBD1CB500200090019069460120FFF73B
:1034E00042FE1CBD7CB504460D46002000900190B4
:1034F0008DF800408DF801509DF801209DF80010D6
:10350000B9A016F0D1F969460420FFF72CFE7CBD66
:103510002DE9FC41044614250027002600200090D8
:1035200001900BE06846FFF702FE064605230022E5
:103530001146104616F056F8681EC5B20EB9002D99
:10354000F0DCFEB19DF80000B32819D19DF8010010
:1035500020709DF8020060709DF80300A0709DF837
:103560000400E07004212046FEF752FC07469DF857
:103570000500B84202D10120BDE8FC810020FBE734
:103580000020F9E70020F7E72DE9F0418AB0054671
:103590000C46002008900990069007900A26804665
:1035A00000278DF8185006A90520FFF7DCFD00BFA5
:1035B000314696A016F078F913E008A8FFF7B7FD9A
:1035C00007469DF82100A84201D0002700E008E04E
:1035D000052300221146104616F004F8701EC6B2EC
:1035E00000BF0FB9002EE8DC31468BA016F05CF965
:1035F000002F70D09DF82100A84205D19DF8200031
:10360000022801D1804666E19DF82100A8426AD1D6
:103610009DF82000032866D1052020709DF8220027
:1036200060709DF82300A0709DF82400E0709DF864
:10363000250020710A26002713E008A8FFF777FD70
:1036400007469DF82100A84201D0002700E008E0CD
:10365000052300221146104615F0C4FF701EC6B2A5
:1036600000BF0FB9002EE8DCA7B39DF827009DF836
:1036700026109DF825209DF82430CDE90132CDE9B2
:1036800003109DF8230000909DF822309DF8212022
:103690009DF8201063A016F007F99DF82100A842BC
:1036A0001AD19DF82000042816D19DF822006071DF
:1036B0009DF82300A0719DF82400E0719DF825007D
:1036C00020729DF8260060724FF0AA0840460AB0AA
:1036D000BDE8F08104E0FCE04FF000080027FAE0CC
:1036E0004FF00008F7E09DF82100A8425FD19DF857
:1036F000200005285BD1062020709DF82200607014
:103700009DF82300A0709DF82400E0709DF825002E
:1037100020710A2613E008A8FFF709FD07469DF867
:103720002100A84201D0002700E008E00523002284
:103730001146104615F056FF701EC6B200BF0FB9F5
:10374000002EE8DC97B39DF827009DF826109DF821
:1037500025209DF82430CDE90132CDE903109DF8F4
:10376000230000909DF822309DF821209DF8201024
:103770002CA016F099F89DF82100A84269D19DF877
:103780002000062865D19DF8220060719DF8230075
:10379000A0719DF82400E0719DF8250020729DF82D
:1037A000260060724FF0AA08404690E755E057E0C7
:1037B0004F7665723D2564002D25643B2000000096
:1037C00052653C3C2530325825303258253032582D
:1037D000253032582530325825303258253032586D
:1037E00025303258200000003E3E3E3E3E3E3E3EEA
:1037F0003EB9E3B2A520CBAEB7D13D25643B20C294
:10380000F6B3E5CAFD3D25640D0A0000C2D6D1AD70
:1038100020256420000000002D2025643B20200D81
:103820000A0000002530325820253032582025303B
:103830003258202530325820253032582025303259
:1038400058202530325820253032580D0A0000000B
:10385000FFE74FF0000800273DE04FF000083AE096
:103860009DF82100A84216D19DF82000042812D10D
:103870009DF8220060719DF82300A0719DF824003E
:10388000E0719DF8250020729DF8260060724FF0CF
:10389000AA0840461BE79DF82100A84216D19DF8D2
:1038A0002000062812D19DF8220060719DF82300A7
:1038B000A0719DF82400E0719DF8250020729DF80C
:1038C000260060724FF0AA08404600E74FF000085B
:1038D00001E04FF000084046F9E61CB50446002020
:1038E0000090019020788DF8000060788DF801003C
:1038F000A0788DF80200E0788DF8030020798DF82B
:10390000040060798DF8050069460620FFF72BFC5E
:103910001CBD1CB5044600200090019020788DF855
:10392000000060788DF80100A0788DF80200E07842
:103930008DF8030020798DF8040060798DF8060079
:1039400069461120FFF70FFC1CBD000008B5FEA062
:10395000006800909DF80100401EC1B26846FEF765
:1039600057FA8DF803009DF8012069460120FDF704
:10397000DFFB962300221146104615F033FE08BDEA
:1039800070B586B0044600252146F0A015F08CFFE6
:10399000C4EBC400EF4911F8100000F0800080284B
:1039A00032D1C4EBC40001EB4000407858B9C4EBFD
:1039B000C40001EB4000007928B90020C4EBC40129
:1039C000E44A02F81100E448006808B9012000E068
:1039D0000020E149086003A92046FFF7D5FD054610
:1039E00025B903A92046FFF7CFFD0546022D0CD1CE
:1039F000C4EBC400D74911F8100020F02300C4EB39
:103A0000C401D44A02F81100EEE065B9C4EBC40069
:103A1000D04911F8100040F02000C4EBC401CD4A99
:103A200002F81100E0E09DF80C0005280CD1C4EB71
:103A3000C400C84911F8100040F00100C4EBC401F3
:103A4000C44A02F811000FE09DF80C0006280BD1C3
:103A5000C4EBC400BF4911F8100040F00200C4EBF1
:103A6000C401BC4A02F811009DF80D00C4EBC4016A
:103A7000B84A02EB410148719DF80E00C4EBC40145
:103A800002EB410188719DF80F00C4EBC40102EB09
:103A90004101C8719DF81000C4EBC40102EB410163
:103AA00008729DF81100C4EBC40102EB4101487299
:103AB0009DF81200C4EBC40102EB410188729DF82D
:103AC0001300C4EBC40102EB4101C8729DF814005D
:103AD000C4EBC40102EB410108739DF81500C4EB6F
:103AE000C40102EB41014873C4EBC400114611F854
:103AF000100000F00302214698A015F0D5FEC4EB9B
:103B0000C400944901EB4000007A0090C4EBC4006B
:103B10000E4606EB4000C379C4EBC40006EB400040
:103B20008279C4EBC40006EB4000417992A015F005
:103B3000BBFEC4EBC400324602EB4000407A0004F6
:103B4000C4EBC402334603EB4202927A40EA0220FD
:103B5000C4EBC40203EB4202D27A40EA02018DA018
:103B600015F0A2FEC4EBC400334603EB4000427BD9
:103B7000C4EBC40003EB4000017B8AA015F094FE67
:103B80008DF804409DF80D008DF805009DF80E009D
:103B90008DF806009DF80F008DF807009DF81000C5
:103BA0008DF80800C4EBC400314611F8100000F095
:103BB0000300012803D1AA208DF809000BE0C4EB13
:103BC000C400644911F8100000F00300022802D17B
:103BD00055208DF80900052300221146104615F0E6
:103BE00001FD01A8FFF779FE06B070BD70B58CB07D
:103BF0000446002009900A900B90079008900590C9
:103C0000069000260A255448006808B9012000E003
:103C10000020514908602078AA287CD1607AC0EB46
:103C2000C0004C4911F8100000F03F0040F0800047
:103C3000617AC1EBC101474A02F81100617A61A0C3
:103C400015F032FE60788DF82400A0788DF82500FC
:103C5000E0788DF8260020798DF82700A07A8DF87D
:103C60002800A0798DF82900E0798DF82A00207AC3
:103C70008DF82B0060798DF82C00A07A8DF82D003E
:103C8000607A8DF81C009DF824008DF81D009DF8C9
:103C900025008DF81E009DF826008DF81F009DF868
:103CA00027008DF820009DF828008DF821009DF850
:103CB00023009DF822109DF821209DF82030CDE9A9
:103CC0000132CDE903109DF81F0000909DF81E30D1
:103CD0009DF81D209DF81C103EA015F0E5FD07A9DC
:103CE0000820FFF740FA642300221146104615F021
:103CF00079FC607A8DF81C009DF829008DF81D0074
:103D00009DF82A008DF81E009DF82B008DF81F00ED
:103D10009DF82C0000E087E08DF820009DF82D0034
:103D20008DF821000A2109A8FEF772F88DF822000B
:103D30009DF823009DF822209DF821109DF8203049
:103D4000CDE901315CE00000F304A1002532643BC1
:103D500020000000180200209C012242C2DFBCADFE
:103D6000B5D8D6B7A3BA25643BBFA8D7B4CCAC2589
:103D7000643B202000000000BFA8BAC5A3BA2530CC
:103D800032582530325825303258253032583B20B1
:103D900020000000BDF0B6EEA3BA2536643B20201B
:103DA00020000000BFA8D0A3D1E9A3BA2532643B0C
:103DB000202020CDA8D0C5C2EBA3BA253032583B75
:103DC000200D0A000D0AB7FECEF1C6F72025326499
:103DD0003B20000025303258202530325820253035
:103DE00032582025303258202530325820253032A4
:103DF00058202530325820253032580D0A00000056
:103E0000CDE903209DF81F0000909DF81E309DF81D
:103E10001D209DF81C10AFF2440015F045FD07A9C8
:103E20000920FFF7A0F967E02078BB281DD1617851
:103E30004CA015F039FD60788DF81C00A0788DF845
:103E40001D00E0788DF81E0020798DF81F00607944
:103E50008DF82000A0798DF82100E0798DF82200FE
:103E600007A91320FFF77FF946E0207855282AD1CB
:103E70006078C0EBC000434911F8100000F03F002B
:103E800040F040006178C1EBC1013E4A02F81100E8
:103E900061783DA015F008FD60788DF81C00A078D1
:103EA0008DF81D00E0788DF81E0020798DF81F0038
:103EB00060798DF8200000208DF8210007A91120DD
:103EC000FFF751F918E02078CC2815D18020E1794E
:103ED000C1EBC1012B4A02F81100A3796279617824
:103EE00030A015F0E1FCE0798DF81C0060793949CB
:103EF0000870A079384908700A250BE005A8FFF77B
:103F000016F90646052300221146104615F06AFBF5
:103F1000681EC5B20EB9002DF0DC0CB070BD0020DB
:103F2000704770B52DA015F0BFFC002417E02146A6
:103F30002BA015F0B9FC00250AE0C4EBC400114A1F
:103F400002EB4000415D28A015F0AEFC681CC5B234
:103F50000E2DF2DB21A015F0A7FC601CC4B21A2CB8
:103F6000E5DB70BD0D0AB7FECEF1C6F720B2E5BFA6
:103F7000A8CAFDBEDDB0FC20D2ECB3A3202532647C
:103F80003B200000180200200D0AB7FECEF1C6F754
:103F900020D0C4CCF8B0FC20D2ECB3A320253264EE
:103FA0003B2000000D0AB7FECEF1C6F720D0C4CCEE
:103FB000F8B0FC20D5FDB3A33A2532642CCBAEB7C4
:103FC000D13A2532642CC2F6B3E5CAFD3A253264F3
:103FD0003B0D0A000E0000200D0000200D0A00001D
:103FE000253032642D2D0000253032582C00000081
:103FF00031490143314A1160704770B500210023F7
:104000000F22C47804B32D4C246804F4E064C4F592
:10401000E064210AC1F10403CA40447804FA03F1C0
:104020008478144021430901254C0678A155047871
:1040300004F01F050124AC4005786D11AD0005F1B9
:10404000E025C5F8004109E0047804F01F050124CB
:10405000AC401C4D0678761145F8264070BD1A4AD2
:104060000A400243154B1B1F1A60704739B1134AAF
:10407000121D12680243114B1B1D1A6006E00F4A05
:10408000121D126882430D4B1B1D1A6070470428D5
:1040900008D14FF0E021096941F004014FF0E0221E
:1040A000116107E04FF0E021096921F004014FF0B0
:1040B000E0221161704700000000FA050CED00E0FD
:1040C00000E400E080E100E080FFFF1F30B943F230
:1040D000DB028100A1F1C0410A6005E043F2D20297
:1040E0008100A1F1C0410A606FF07042411C89005B
:1040F000A1F1C0410A608100A1F1C041C1F80421D1
:10410000704710280AD118214FF020421166402133
:1041100051664FF0FC319166D16610E01821F74AE4
:10412000116040214FF02042C2F884104FF0FC3162
:10413000F24A083211604FF02042C2F88C107047EA
:104140001820EE492031086000200906C1F8A400BB
:104150004FF0FC30E94928310860091D0860091D4D
:1041600008607047D0E901121143C2681143026927
:1041700011434269114382691143C2691143026AC2
:104180001143426A1143826A1143C26A1143026BAE
:10419000114302689200A2F1C042116081680829AF
:1041A0000BD101688900A1F1C041096841F04002CA
:1041B00001688900A1F1C0410A60416B0968426B46
:1041C000526841EA0211426B926841EA0221426B55
:1041D000928941EA0241426B128A41EA0251426BE2
:1041E000127D41EA0261426B926911430268521CDE
:1041F0009200A2F1C0421160C16AB1F5804F1BD19B
:10420000816B0968826B526841EA0211826B926885
:1042100041EA0221826B128A41EA0251826B127DCD
:1042200041EA0261826B9269114302689200A2F135
:10423000C042C2F8041107E06FF0704201688900C3
:10424000A1F1C041C1F80421704730B5002100221E
:104250000023446844F0080485682C43C5682C4357
:1042600005692C43456944EA4524856944EA45319A
:10427000C4692468C5696D6844EA0524C5692D8947
:1042800044EA0544C5692D7B44EA0562046A246852
:10429000056A6D6844EA0524056A2D8944EA0544E7
:1042A000056A2D7B44EA05630468102C05D14FF0A4
:1042B00020442166A266E36608E0904C21604FF03E
:1042C0002044C4F888208D4C0C34236030BD016834
:1042D00041F01001426841EA4221826841EA4231DC
:1042E000864A20321160C1680968C268526841EA92
:1042F0000221C268128941EA0241C268127B41EA86
:1043000002617E4A283211600169096802695268B7
:1043100041EA02210269128941EA02410269127BE3
:1043200041EA0261754A2C321160416909684269AB
:10433000526841EA02214269128941EA0241426916
:10434000127B41EA02614FF02042C2F8B010704780
:10435000002101600221416000218160C160016192
:1043600041618161C16101624FF480514162490044
:1043700081620021C16201630F21426B1160426BB7
:104380005160FF21426B91600F21426BD160426B03
:104390001161426B51610021426B91610F21826B6F
:1043A0001160826B5160FF21826B91600F21826BE3
:1043B000D160826B1161826B51610021826B9161CE
:1043C000704710210160002141608160C16001617E
:1043D00041618161FC21C2691160C2695160C26999
:1043E0009160C269D160026A1160026A5160026A1A
:1043F0009160026AD1607047002101604160816074
:10440000FC21C2681160C2685160C2689160C268D4
:10441000D1600269116002695160026991600269AC
:10442000D16042691160426951604269916042699C
:10443000D160704751B18200A2F1C042126842F0CF
:1044400001038200A2F1C042136009E08200A2F1E0
:10445000C04212682A4B1A408300A3F1C0431A607D
:10446000704799B1102808D14FF02042126E42F0E7
:1044700004024FF020431A661DE0204A126842F001
:1044800004024FF02043C3F8802014E0102809D123
:104490004FF02042126E1A4BDB1E1A404FF02043A1
:1044A0001A6608E0154A1268154BDB1E1A404FF0D9
:1044B0002043C3F88020704748B110492031096873
:1044C00041F004014FF02042C2F8A01009E00B496E
:1044D000203109680A4AD21E11404FF02042C2F82A
:1044E000A0107047B9B110280CD14FF02042126EC5
:1044F00042F040024FF020431A661FE0800000A007
:10450000FEFF0F00724A126842F040024FF0204353
:10451000C3F8802012E0102808D14FF02042126E1C
:104520006C4B1A404FF020431A6607E0684A126845
:10453000684B1A404FF02043C3F880207047014673
:104540000020102903D14FF02042506F02E0604A52
:1045500014321068704710B5F2B1102807D14FF02F
:1045600020435B6E0B434FF02044636632E0B0F5AE
:10457000807F08D1564B1B1D1B680B434FF0204416
:10458000C4F8843026E0524B24331B680B434FF0B1
:104590002044C4F8A4301DE0102807D14FF0204378
:1045A0005B6E8B434FF02044636613E0B0F5807F71
:1045B00008D1474B1B1D1B688B434FF02044C4F8A8
:1045C000843007E0424B24331B688B434FF0204478
:1045D000C4F8A43010BD10B5024600200023102AF4
:1045E00003D14FF02044636E09E0B2F5807F03D120
:1045F000374C241D236802E0354C2434236803EA39
:1046000001040CB1012000E0002010BD102807D1EA
:104610004FF02042526E8A434FF020435A6613E017
:10462000B0F5807F08D12A4A121D12688A434FF0E4
:104630002043C3F8842007E0254A243212688A43C5
:104640004FF02043C3F8A420704770B50246002005
:10465000002300240025102A03D14FF02046736E5A
:1046600009E0B2F5807F03D1194E361D336802E0B0
:10467000174E2436336803EA010403EAD10514B166
:104680000DB1012000E0002070BD102808D14FF0CE
:104690002042526E22EAD1024FF020435A6615E0C2
:1046A000B0F5807F09D10A4A121D126822EAD102B0
:1046B0004FF02043C3F8842008E0054A24321268F2
:1046C00022EAD1024FF02043C3F8A4207047000033
:1046D000800000A0BFFF0F0010B50446CC48844204
:1046E00008D10121042000F02DFB0021042000F05E
:1046F00029FB46E0C748844208D10121082000F088
:1047000021FB0021082000F01DFB3AE0C248844252
:1047100008D10121102000F015FB0021102000F02D
:1047200011FB2EE0BD48844208D10121202000F079
:1047300009FB0021202000F005FB22E0B84884425C
:1047400008D10121402000F0FDFA0021402000F0B6
:10475000F9FA16E0B348844208D10121802000F024
:10476000F1FA0021802000F0EDFA0AE0AE48844220
:1047700007D10121801500F0E5FA0021A01500F015
:10478000E1FA10BD10B50121084600F0DBFA002166
:10479000012000F0D7FA10BD2DE9F04102460025B6
:1047A0000026002000230024002791F803C00CF00D
:1047B0000F0591F803C00CF0100CBCF1000F03D0F2
:1047C00091F802C04CEA050591F800C0BCF1000F59
:1047D00031D0146800202BE04FF0010C0CFA00F3EC
:1047E000B1F800C00CEA03069E4220D183004FF0CE
:1047F0000F0C0CFA03F7BC4305FA03FC4CEA040463
:1048000091F803C0BCF1280F06D14FF0010C0CFA4F
:1048100000FCC2F814C00AE091F803C0BCF1480FD4
:1048200005D14FF0010C0CFA00FCC2F810C0401C7E
:104830000828D1D31460B1F800C0BCF1FF0F34DDFB
:10484000546800202EE000F1080C4FF0010808FA2F
:104850000CF3B1F800C00CEA03069E4221D183009C
:104860004FF00F0C0CFA03F7BC4305FA03FC4CEABB
:10487000040491F803C0BCF1280F05D100F1080C25
:1048800008FA0CF8C2F8148091F803C0BCF1480F84
:1048900007D100F1080C4FF0010808FA0CF8C2F833
:1048A0001080401C0828CED35460BDE8F0814FF63C
:1048B000FF710180022181700421C170704702469E
:1048C000002093680B400BB1012000E000207047EE
:1048D0000146886880B2704702460020D3680B40CA
:1048E0000BB1012000E0002070470146C86880B28B
:1048F000704701617047416170470AB1016100E092
:1049000041617047C16070474FF480320A43826151
:104910008161826182698269704702460020434B4F
:1049200018684FF68073184040EA021008433F4B66
:10493000186070473E49C8617047F0B50A460023C9
:1049400000240021002500F00046B6F1004F02D1FE
:10495000364EF16901E0354E7168C0F3034583B20C
:1049600000F44016B6F5401F08D121F070612F4EBB
:10497000766826F070662D4F7E6012E000F4801697
:10498000B6F5801F06D1032606FA05F4A14341F0CF
:10499000706106E0460D360103FA06F6B14341F0B8
:1049A000706122B1460D360103FA06F6314300F07C
:1049B0000046B6F1004F02D11C4EF16101E01B4EE2
:1049C0007160F0BD30B500228B071C0F0F2303FA76
:1049D00004F2164B08338C1053F824309343134CD5
:1049E00008348D1044F8253023468C1053F82430B9
:1049F0008C07240F00FA04F423430C4C08348D1068
:104A000044F8253030BD0A49DC31086070470000A9
:104A100000080140000C014000100140001401405A
:104A200000180140001C014000200140000001402E
:104A300000002042DF48006840F00100DD490860C6
:104A400008464068DC490840DA4948600846006882
:104A5000DA490840D74908600846006820F48020F9
:104A600008600846406820F4FE0048604FF41F00CC
:104A700088607047CF49096821F48031CD4A1160C0
:104A80001146096821F480211160B0F5803F03D000
:104A9000B0F5802F0ED106E0C649096841F4803197
:104AA000C44A116007E0C349096841F4A021C14A22
:104AB000116000E000BF00BF704710B50146002242
:104AC000002300204A11012A02D1BA4C236806E0D3
:104AD000022A02D1B74C236A01E0B64C636A01F0A6
:104AE0001F02012494401C400CB1012000E0002072
:104AF00010BD38B5002000900024002500BF3120F3
:104B0000FFF7DBFF05460098401C00900098B0F5C9
:104B1000A06F01D0002DF2D03120FFF7CEFF08B1F9
:104B2000012400E00024204638BD01460020A14AAF
:104B3000106820F0F80040EAC10010607047A049FA
:104B400008607047024600209A4B586820F47C1099
:104B500042EA01031843974B58607047984908662A
:104B6000704701460020934A506820F00300084334
:104B7000506070478F48406800F00C007047014655
:104B800000208C4A506820F0F000084350607047C5
:104B900001460020874A506820F4E06008435060D6
:104BA000704701460020834A506820F4605040EA74
:104BB000C1005060704729B17E4A527A02437D4B52
:104BC0005A7204E07B4A527A82437A4B5A72704797
:104BD0007B49D8310860704701460020754A50680B
:104BE00020F440400843506070470021714A203251
:104BF0001170704A82F82010012802D004280AD1CE
:104C000004E001216B4A2032117005E00521694A58
:104C10002032117000E000BF00BF70476949086092
:104C200070476449096A0143624A116270476549E5
:104C300044390860704730B5002100220024002369
:104C40005C4D6D6805F00C0121B1042905D00829DF
:104C500023D105E05C4D056022E05B4D05601FE05F
:104C6000544D6D6805F47012524D6D6805F4803432
:104C7000022505EB92421CB9544D554305600BE0EB
:104C80004C4D6D6805F400351DB1504D5543056020
:104C900002E04D4D5543056002E04B4D056000BFFD
:104CA00000BF444D6D6805F0F0010909484D6B5C8B
:104CB0000568DD4045603F4D6D6805F4E061090A17
:104CC000434D6B5C4568DD4085603A4D6D6805F489
:104CD0006051C90A3E4D6B5C4568DD40C560354D8D
:104CE0006D6805F44041890B3A4D6B5CC568B5FBB6
:104CF000F3F5056130BD29B12E4A526902432D4BAF
:104D00005A6104E02B4A526982432A4B5A61704728
:104D100029B1284A92690243264B9A6104E0254A48
:104D200092698243234B9A61704729B1214AD26923
:104D30000243204BDA6104E01E4AD26982431D4BD4
:104D4000DA61704729B11B4AD2680243194BDA6015
:104D500004E0184AD2688243164BDA60704729B1E2
:104D6000144A12690243134B1A6104E0114A126992
:104D70008243104B1A6170471249403908607047EE
:104D80000F49C86470470B49C87170470948406AA9
:104D900040F0807007494862704701460020054A8C
:104DA00092680A400AB1012000E0002070470149E2
:104DB00088727047001002400000FFF8FFFFF6FE07
:104DC000000042428004424200127A0000093D0085
:104DD0004C0000205C00002010B50446FB488442D3
:104DE00009D101218803FFF7ADFF00214FF4804076
:104DF000FFF7A8FF32E0F648844209D101214804B8
:104E0000FFF7ADFF00214FF40030FFF7A8FF25E0CA
:104E1000F048844209D101218804FFF7A0FF002156
:104E20004FF48020FFF79BFF18E0EB48844209D144
:104E30000121C804FFF793FF00214FF40020FFF782
:104E40008EFF0BE0E548844208D101210805FFF7F9
:104E500086FF00214FF48010FFF781FF10BD2DE980
:104E6000F04786B005460E460024A24600BFA14684
:104E70000027B08900B100BF2F462C8A4CF6FF7086
:104E80000440F08804432C82AC894EF6F3100440B1
:104E9000B08831890843718908430443AC81AC8AE6
:104EA0004FF6FF400440B0890443AC8201A8FFF7ED
:104EB000C2FEC648874202D1DDF810A001E0DDF84D
:104EC0000CA0A88900F4004040B10AEBCA0000EB36
:104ED0000A1031684900B0FBF1F807E00AEBCA009C
:104EE00000EB0A1031688900B0FBF1F86420B8FBD0
:104EF000F0F004012009642101FB1089A88900F465
:104F0000004040B1322000EBC900B0FBF1F000F0EE
:104F10000700044308E0322000EB09106421B0FBD5
:104F2000F1F000F00F0004432C8106B0BDE8F087DB
:104F30004FF41651016000218180C18001810C2154
:104F4000418100218181704710B502460020108AFE
:104F50004FF2FF0318400B884C8823438C8823436F
:104F6000CC8823431843108210BD0021018041806A
:104F70008180C180704721B1828942F400528281D0
:104F800004E082894DF6FF731A4082817047F0B5C4
:104F90000346002400260025002040F66A17B94287
:104FA00000D100BF1846C1F3421401F01F060127CB
:104FB00007FA06F5012C01D10C3004E0022C01D1D6
:104FC000103000E014301AB107682F43076002E088
:104FD0000768AF430760F0BD1AB1838A0B43838231
:104FE00002E0838A8B4383827047028A4FF6F07314
:104FF0001A400282028A0A430282704782894FF273
:10500000FF731A40828182890A438281704721B1ED
:10501000828942F00202828104E082894FF6FD73A8
:105020001A4082817047028A4FF6DF731A4002826B
:10503000028A0A430282704721B1028A42F4804206
:10504000028204E0028A4BF6FF731A400282704724
:10505000C1F308028280704701468888C0F30800C7
:105060007047818941F0010181817047028BD2B282
:105070000283028B42EA012202837047028B02F410
:105080007F420283028B0A430283704721B1828AE6
:1050900042F02002828204E0828A4FF6DF731A40D7
:1050A0008282704721B1828A42F01002828204E03B
:1050B000828A4FF6EF731A408282704721B1828A4A
:1050C00042F00802828204E0828A4FF6F7731A40A7
:1050D0008282704721B1828942F40042828103E0DA
:1050E0008289C2F30E028281704721B1828A42F422
:1050F0000062828204E0828A4FF2FF731A40828249
:105100007047828A4FF6FB731A408282828A0A4372
:105110008282704721B1828A42F00202828204E0D8
:10512000828A4FF6FD731A40828270470246002041
:10513000B1F5007F00D100BF13880B400BB10120F7
:1051400000E00020704701F40072B2F5007F00D14A
:1051500000BFCA430280704770B502460024002396
:105160000025002040F66A16B14200D100BFC1F30D
:10517000421501F01F03012606FA03F3012D02D1A7
:105180009689334006E0022D02D1168A334001E0B1
:10519000968A33400C12012606FA04F4168834402D
:1051A00013B10CB1012000E0002070BD10B5002249
:1051B000002340F66A14A14200D100BF0A12012464
:1051C0009440A3B2DC43048010BD000000380140CD
:1051D0000044004000480040004C004000500040A7
:1051E000002044490860091D0860091D0860091D68
:1051F000086041483F4914310860704700213D492B
:105200008279002A3AD00A46126803689A430B460C
:105210001A600A1D126803689A430B1D1A6002790E
:1052200011440A6803681A430A60324A0832126855
:1052300003689A432F4B08331A601A1D12680368DB
:105240009A432C4B0C331A604279102A0ED11A1F44
:10525000126803681A43274B08331A601A1D126834
:1052600003681A43234B0C331A600DE0214942793D
:1052700011440A6803681A430A6005E00279114480
:105280000A6803689A430A6070470021016001714F
:105290000C21417100218171704716491031096854
:1052A0000143144A10321160704701460020114A30
:1052B000143212680A400AB1012000E00020704751
:1052C0000C49143108607047014600200022094B48
:1052D0001B6803EA0102074B14331B680B4013B130
:1052E0000AB1012000E00020704702491431086033
:1052F0007047000000040140FFFF0F000E490860E6
:1053000070470D49486070470B49886070474AF6FE
:10531000AA200949086070474CF6CC40064908604D
:10532000704701460020044AD2680A400AB10120B1
:1053300000E00020704700000030004010B5044637
:10534000FE48844209D101214806FFF708FD0021EB
:105350004FF00070FFF703FD08E001218806FFF71A
:10536000FEFC00214FF08060FFF7F9FC10BD30B566
:10537000024600200023146824F00204146014681C
:1053800044F00104146000E05B1C546804F0010464
:105390001CB94FF6FF74A342F6D1546804F001041F
:1053A0000CB900206CE08C79012C04D1146844F015
:1053B0008004146003E0146824F080041460CC7945
:1053C000012C04D1146844F04004146003E0146814
:1053D00024F0400414600C7A012C04D1146844F0C9
:1053E0002004146003E0146824F0200414604C7A54
:1053F000012C04D1146844F01004146003E0146814
:1054000024F0100414608C7A012C04D1146844F048
:105410000804146003E0146824F008041460CC7AD3
:10542000012C04D1146844F00404146003E01468EF
:1054300024F0040414608C78A407CD7844EA056451
:105440000D7944EA05444D7944EA05540D886D1EF2
:105450002C43D461146824F001041460002300E09C
:105460005B1C546804F001041CB14FF6FF74A342A6
:10547000F6D1546804F001040CB1002000E00120D2
:1054800030BD10B50021837A012202FA03F1AC4A43
:10549000126842F00102AA4B1A60A94A1C32126833
:1054A0008A43A74B1C331A60027BCAB9A44A0C3248
:1054B00012688A43A24B0C331A604288C38842EABE
:1054C00003439F4A4032847A42F83430028883880A
:1054D00042EA03439A4A4032847A02EBC4025360A0
:1054E000027B012A19D1964A0C3212680A43944B66
:1054F0000C331A604288038842EA0343904A4032E0
:10550000847A42F83430C288838842EA03438C4A62
:105510004032847A02EBC4025360C27A3AB9884AB4
:10552000121D12688A43864B1B1D1A6006E0844ACE
:10553000121D12680A43824B1B1D1A60028932B980
:105540007F4A143212688A437D4B14331A600289F1
:10555000012A06D17A4A143212680A43784B14336E
:105560001A60427B012A06D1754A1C3212680A432E
:10557000734B1C331A60724A126822F00102704B9E
:105580001A6010BD00218171C17101724172817276
:10559000C1728170C1700321017102214171012129
:1055A000018070476649096841F00101644A116051
:1055B0001146096843F60E729143614A1160114623
:1055C000096841EA002111601146096821F00101D2
:1055D0001160704721B1026842F48032026003E03A
:1055E000026822F4803202607047E1B1026842F042
:1055F000800202604FF4C272125842F480734FF47A
:10560000C27213504FF4CA72125842F480734FF4AE
:10561000CA7213504FF4D272125842F480734FF48E
:10562000D27213501BE0026822F0800202604FF435
:10563000C272125822F480734FF4C27213504FF4A6
:10564000CA72125822F480734FF4CA7213504FF486
:10565000D272125822F480734FF4D27213507047F2
:1056600010B502460020936803F08063B3F1806FA9
:1056700000D110E0936803F00063B3F1006F01D133
:10568000012008E0936803F08053B3F1805F01D1FB
:10569000022000E00420042879D002F5C07303EB57
:1056A00000131B6803F0010402F5C07303EB001341
:1056B0001C600B7A7BB94B7A0C8843EA445302F5A1
:1056C000C07404EB00142468234302F5C07404EB97
:1056D0000014236010E00B7A4C6843EAC4034C7A50
:1056E000234302F5C07404EB00142468234302F53D
:1056F000C07404EB001423608B7A03F00F038B72E9
:1057000002F5C07303EB00135B6823F00F0402F58E
:10571000C07303EB00135C6002F5C07303EB00136E
:105720005B688C7A234302F5C07404EB0014636059
:105730008B7B1C064B7B44EA034403E0006400407F
:10574000006600400B7B44EA0323CC7A234302F536
:10575000C07404EB0014A3608B7C1C064B7C44EAF1
:1057600003440B7C44EA0323CC7B234302F5C0743F
:1057700004EB0014E36002F5C07303EB00131B6835
:1057800043F0010402F5C07303EB00131C6010BD6D
:1057900010B50246002321B1012907D002290FD1FB
:1057A00009E09068F94C00EA04030BE09068F84CBB
:1057B00000EA040306E09068F64C00EA040301E006
:1057C000002300BF00BFF44C181BA34216D007DC17
:1057D00083B16FF08060184470B1022818D111E0D5
:1057E000B0F5007F10D0ED4C204448B1B0F5003F3B
:1057F0000ED10BE002230DE000230BE0002309E0B3
:10580000002307E0012305E0012303E0012301E079
:10581000002300BF00BFD8B210BD21B1012907D0BD
:1058200002290FD109E0826842F0800282600AE01A
:10583000826842F40042826005E0826842F400021D
:10584000826000E000BF00BF704710B500F5D8735C
:1058500003EB01131B6803F004031372137A53B9AB
:1058600000F5D87303EB01131B6840F2FF7404EAE0
:105870005353136009E000F5D87303EB01131B6861
:105880006FF0604404EAD303536000F5D87303EB70
:1058900001131B6803F00203537200F5D87303EB86
:1058A00001135B6803F00F03937200F5D87303EBE9
:1058B00001135B681B0AD37400F5D87303EB011363
:1058C0009B68D37200F5D87303EB01139B681C0A25
:1058D000147300F5D87303EB01139B681C0C54730D
:1058E00000F5D87303EB01139B681B0E937300F54F
:1058F000D87303EB0113DB68D37300F5D87303EBA4
:105900000113DB681C0A147400F5D87303EB011350
:10591000DB681C0C547400F5D87303EB0113DB68CF
:105920001B0E937421B9C36843F02003C36003E0E6
:10593000036943F02003036110BD21B9C26842F03E
:105940002002C26003E0026942F020020261704757
:105950000246002019B9D36803F0030006E00129CC
:1059600003D1136903F0030000E00020704710B575
:1059700002460B4600204FF6FF71BBB9146824F0B5
:10598000020444F00104146000E0491E546804F06D
:105990000304012C01D00029F7D1546804F003045A
:1059A000012C01D0002032E0012030E0012B13D186
:1059B000146824F00304146000E0491E546804F0E5
:1059C00003040CB10029F8D1546804F003040CB1AD
:1059D00000201CE001201AE0022B17D1146824F0EB
:1059E000010444F00204146000E0491E546804F00D
:1059F0000304022C01D00029F7D1546804F00304F9
:105A0000022C01D0002002E0012000E0002010BDA7
:105A1000014600200A6822F0010242F002020A60F8
:105A20004A6802F00302022A00D1012070470146B1
:105A30004FF6FF7200200B6823F002030B6000E0BA
:105A4000521E4B6803F00203022B01D1002AF7D14A
:105A50004B6803F00203022B00D00120704701467F
:105A600000208A6902F070007047014600208A69B0
:105A7000100E7047014600208A69C2F30740704744
:105A80001AB143690B43436102E043698B434361AD
:105A9000704710B50246002001F4700343B19369CA
:105AA000C1F3130423400BB101202DE000202BE0B3
:105AB00001F0807343B15368C1F3130423400BB169
:105AC000012021E000201FE001F0006343B1936852
:105AD000C1F3130423400BB1012015E0002013E0B3
