:020000040800F2
:1000000070FF0020850A00080109000803090008A4
:100010000509000807090008090900080000000098
:100020000000000000000000000000000B090008B4
:100030000D090008000000004B670108D10A000804
:100040009F0A00089F0A00089F0A00089F0A0008EC
:100050009F0A00089F0A00089F0A00089F0A0008DC
:100060009F0A00089F0A00089F0A00089F0A0008CC
:100070009F0A00089F0A00089F0A00089F0A0008BC
:100080009F0A00089F0A00089F0A00089F0A0008AC
:100090009F0A00089F0A00089F0A0008FB18000832
:1000A0009F0A00089F0A00089F0A00089F0A00088C
:1000B000635D00089F0A00089F0A00089F0A000865
:1000C0009F0A00089F0A00089F0A00089F0A00086C
:1000D0009F0A0008791300089B130008BB1300084F
:1000E0009F0A00089F0A00089F0A00089F0A00084C
:1000F0009F0A00089F0A00089F0A00089F0A00083C
:100100009F0A00089F0A00089F0A00089F0A00082B
:100110009F0A00089F0A00089F0A00089F0A00081B
:100120009F0A00089F0A00089F0A00089F0A00080B
:1001300000F002F800F074F80AA090E8000C824485
:100140008344AAF10107DA4501D100F069F8AFF262
:10015000090EBAE80F0013F0010F18BFFB1A43F0A5
:100160000103184740740100607401000A444FF015
:10017000000C10F8013B13F0070408BF10F8014B06
:100180001D1108BF10F8015B641E05D010F8016B4B
:10019000641E01F8016BF9D113F0080F1EBF10F8AF
:1001A000014BAD1C0C1B09D16D1E58BF01F801CBD2
:1001B000FAD505E014F8016B01F8016B6D1EF9D555
:1001C0009142D6D37047000000230024002500266A
:1001D000103A28BF78C1FBD8520728BF30C148BFAA
:1001E0000B607047642916F04983752916F0468321
:1001F000782916F07F83632916F02386732916F079
:100200002886002070471FB516F0B4FD04000020BA
:10021000002116F08BFE401C60601FBD10B510BDA4
:1002200016F04EFE1146FFF7EEFF00F0C9FA16F089
:100230006CFE03B4FFF7F2FF03BC01F0CEF8000040
:10024000002500240027DFF858B4DFF85894DFF8C1
:100250005884A24699F8000008B147B187E000220F
:1002600032231146104616F084F9002485E041F24D
:100270007070854202D26D1CADB200E0002599F885
:100280000400AA2803D189F804A04FF47A74502CF2
:1002900003D2641CA4B2002627E0B4F5E16F15D2A6
:1002A000641CA4B21E20B5FBF0F100FB1150E0B9B4
:1002B00098F8000040F0400088F80000761CF6B284
:1002C00022463146F9A016F07DFA0EE041F288345C
:1002D000F020B5FBF0F100FB1150012805D198F892
:1002E000000040F0400088F800000122DFF8ECC375
:1002F00002EB021060444178AA2934D19BF8003007
:100300005946AA2B27D0AA230B708378052B02D03D
:10031000062B03D004E011234B7001E013234B7034
:10032000C3788B700379CB7043790B7183794B71F0
:10033000C3798B71037ACB71437A0B72837A4B72D8
:10034000C37A8B72037BCB72437B0B73837B4B73C0
:100350008A73C37BCB73DD21417098F8000040F0B5
:10036000800088F80000521CD2B2212AC0D300229B
:1003700032231146104616F0FCF800F0DBFE99F827
:10038000010000067FF566AF89F801A0AA27D448CE
:1003900016F018FA98F8000020F0400020F08000D5
:1003A00088F80000CF4803F00BF953E71FB5002091
:1003B00003900024029000253221019180460027FD
:1003C000C6490870DFF820B3CBF8A0010126CBF8AE
:1003D0009C61CBF8986100214FF4FA730222084621
:1003E00016F0C7F802F0A4FEBC480178BFA016F0D2
:1003F000E9F90022C8231146104616F0BAF8A948B8
:10040000801D01F09BFC0022C8231146104616F007
:10041000B0F801F02DFCC0A016F0D4F9CBF8A06123
:10042000CBF89C61CBF898619E4890F8029090F8C8
:1004300003A0AA4801990078404201EB4000C6B2EF
:100440000A2E75D20A2673E0A749D1F8A001002828
:1004500056D00020C1F8A001D1F89C01002851D04D
:100460000020C1F89C01D1F8980100284CD0002050
:10047000C1F898013146ACA016F0A4F902A801F029
:1004800011FC002835D09DF80B0000909DF80A3033
:100490009DF809209DF80810A5A016F093F902A870
:1004A00002F0BAFD83465946AEA016F08BF9BBF1B7
:1004B000200F1ED802A9584601F0FAFE89492039BA
:1004C00001F80B0018B185480178491C0170834977
:1004D0000BEB0B10AA220A5408449DF80820C270A6
:1004E0009DF8091001719DF80A1041719DF80B10DB
:1004F00081710620B6FBF0F100FB116030B115E010
:100500000120A7E70120ACE70120B1E70022642326
:100510001146104616F02DF86248801D01F00EFCC1
:10052000002264231146104616F023F8761EF6B218
:10053000002E89D192480021816001214160016033
:100540000022C8231146104616F013F85548801DA6
:1005500001F0F4FB0022C8231146104616F009F8FA
:100560005048801D01F0EAFB4E4EAA20307085A055
:1005700016F028F94FF48061062003F0F5F903F036
:1005800006FAB178894502D1F07882450DD0F0782D
:1005900001F0B3FB022C02D8641CE4B205E0002495
:1005A000002796F8029096F803A071790398884284
:1005B0000BD03C48801D01F0C1FB022C02D8641C0A
:1005C000E4B202E0002470790390202D09D805F1EF
:1005D000010B0BF0FF0001F0DFFF0BF0FF0002F05A
:1005E00020F9212D2DD372A016F0ECF80025B8F1DA
:1005F000140F04D208F1010808F0FF0823E04FF0BF
:10060000000802F077F9F0B90022322311461046B3
:1006100015F0AFFFB178F07801F06FFB0022C8232E
:100620001146104615F0A5FF1E48801D01F086FBFF
:100630000022C8231146104615F09BFFAA203071F6
:1006400001E06D1CEDB2B7F5702F05D90027B17828
:10065000F07801F052FB00E07F1C002214231146C9
:10066000104615F086FF8AE710B514F071F816F001
:1006700045F804460A23504A0021AFF2CF2015F076
:1006800076FC09234D4A0021AFF24B4015F06FFC78
:10069000FF2015F095FE2046BDE8104016F032B858
:1006A00054E2002000000020E10100200D0A20BFDC
:1006B000ECB5DDD0C4CCF8B0FCB7A2CBCDD7B4CC70
:1006C000AC2CB7A2CBCDB4CECAFD2532642CBCC6AF
:1006D000CAFDD6B5A3BA25642E000000162E002050
:1006E000907201084C03002000002242C9CFB5E7F8
:1006F000BCECB2E2466C617368C4DAC2DFBCADB573
:10070000D8D6B7CDEAB3C92120D7DCCFDFA3BA252D
:1007100032642E0D0A000000CEB4D7A2B2E1B9E3D4
:10072000B2A521200D0A00002532642E2000000011
:100730000D0ABDD3CAD5B5BDB4D3D5BECDEAB3C9B4
:10074000CAFDBEDD2020CEEFC0EDB5D8D6B7A3BA26
:10075000253032582530325825303258253032581D
:100760003B000000B7D6C5E4B3C9B9A6A3A120C217
:10077000DFBCADB5D8D6B73A25643B0D0A00000002
:10078000980122420D0AC9CFB5E7BCECB2E2CEB463
:10079000D7A2B2E1B3ACCAB1A3ACBDF8C8EBD5FDEA
:1007A000B3A3B4FDBBFAD7B4CCAC3B0D0A00000038
:1007B0000D0A0D0A0000000068130020680B0020DD
:1007C00010B500F093F94FF4407003F0E3F800F037
:1007D000C4FB00F021FE25484168482088470020DE
:1007E00004F0DEFE22A015F0EDFF02F025FA02F083
:1007F0009BFA0028FBD125A015F0E4FF4FF4FA7412
:10080000204600F0B1F913F0C6FE08E024A015F070
:10081000D9FF204600F0A8F9204600F0A5F906F01F
:1008200065F80028F2D123A015F0CCFF08E027A03E
:1008300015F0C8FF204600F097F9204600F094F923
:1008400006F0BAFC0028F2D1204600F08DF925A070
:1008500015F0B8FF0C23294A0021AFF2F31015F070
:1008600086FB13F041FF002010BD0000D8000020DF
:100870005374617274696E672055702059434B4AF6
:100880002D4143552E2E2E0D0A00000041543234C6
:100890004358585F436865636B204F4B210D0A0036
:1008A0004C77697020496E6974206661696C656473
:1008B000210D0A004C77697020496E6974205375C8
:1008C0006363657373210D0A0000000054435020D8
:1008D000436C69656E74206661696C656421210DE5
:1008E0000A00000054435020436C69656E74205325
:1008F000756363657373210D0A000000681500209D
:100900007047FEE7FEE7FEE7FEE77047704700002E
:100910000CB50022019200925248016841F48031E6
:1009200001604FF4A063016801F400310091019966
:10093000491C0191009911B901999942F3D10168BB
:10094000890302D50121009100E00092009901295C
:1009500030D145490A6842F010020A600A6822F064
:1009600003020A600A6842F002020A6041684160BC
:1009700041684160416841F480614160416821F40F
:100980007C114160416841F4E8114160016841F027
:100990008071016001688901FCD5416821F0030183
:1009A0004160416841F0020141604168C1F3810149
:1009B0000229FAD10CBDABE710B52A48016841F015
:1009C000010101604168294A114041600168284ADB
:1009D00011400160016821F480210160416821F427
:1009E000FE0141604FF41F018160FFF7E4FF2149E0
:1009F0004FF00060086010BD10B51A4A506800F052
:100A00000C011D4B1D4800290ED004290ED00829C9
:100A10000ED003605168194AC1F30311121D515CD5
:100A20000268CA40026010BD0360F3E70360F1E7AB
:100A3000516801F47011536803F48033022404EB0D
:100A4000914133B153689B0307D50D4B5943016066
:100A5000E0E70B4B59430160DCE7074B594301606A
:100A6000D8E7000000100240002002400000FFF81C
:100A7000FFFFF6FE08ED00E000127A0028000020DB
:100A800000093D000948804709480047FEE7FEE7A6
:100A9000FEE7FEE7FEE7FEE7FEE7FEE7FEE7FEE72E
:100AA00004480549054A064B70470000B90900088B
:100AB0003101000870F9002070FF002070FB002059
:100AC00070FB002013F0BCBD13F0EDBD15F02ABD86
:100AD00010B533480078012807D113F073FD13F0E7
:100AE0004FFEBDE8104013F083BD10BD10B56FF090
:100AF000040002F097FF2B482B492C4A0068B0FBFA
:100B0000F1F31370B0FBF1F141F28830414305205D
:100B100050804FF0E020026942F002020261416120
:100B2000016941F00101016110BD2DE9F04100248E
:100B30004FF0E0277E6905461C4800784543FFF7E3
:100B4000C1FFBA69B9699142FCD003D2A2EB01009E
:100B5000044403E0A6EB0100104404440A46AC42FE
:100B6000F0D3BDE8F041AFE770B504460C4800781B
:100B700000280FD00E48007860B90C4D6888844278
:100B800003D3B4FBF0F0FFF7A1FF6888B4FBF0F1EA
:100B900000FB11444FF47A706043BDE87040C4E735
:100BA000EF0200202800002000127A003C00002004
:100BB000EA020020F7480068000501D401207047D0
:100BC00000207047F3480068400501D401207047B9
:100BD00000207047EF480068800501D4012070476D
:100BE00000207047EB480068C00501D40120704721
:100BF00000207047E8480068000501D401207047D4
:100C000000207047E4480068400501D40120704787
:100C100000207047E0480068800501D4012070473B
:100C200000207047DC480068C00501D401207047EF
:100C30000020704738B50121602003F0D2FB03206B
:100C40008DF8020048208DF803004FF47064ADF871
:100C50000040D0486946083803F0BDF9ADF80040BF
:100C6000CD486946083803F0B6F938BD10B5002400
:100C7000FFF7A0FF012800D10124FFF7A3FF0128FF
:100C800026D024F00204FFF7A5FF012823D024F08A
:100C90000404FFF7A7FF012820D024F00804FFF781
:100CA000A9FF01281DD024F01004FFF7ABFF012895
:100CB0001AD024F02004FFF7ADFF012817D024F04C
:100CC0004004FFF7AFFF012814D024F0800010BDCE
:100CD00044F00204D7E744F00404DAE744F00804DF
:100CE000DDE744F01004E0E744F02004E3E744F0DB
:100CF0004004E6E744F0800010BD38B525208DF8AB
:100D0000000000208DF8020001248DF803406846A1
:100D100002F045FE26208DF800008DF802408DF887
:100D20000340684602F03BFE27208DF800000220B9
:100D30008DF802008DF80340684602F030FE38BDA1
:100D40002DE9F04F85B00121052003F04AFB012178
:100D5000880303F046FB4FF40070ADF8100018262E
:100D60008DF8136003278DF8127004A98B4803F0E7
:100D700032F94FF48069ADF8109004258DF81350C6
:100D800004A9864803F027F94FF4E13ACDF800A012
:100D90000024ADF80440ADF80640ADF80840ADF8C9
:100DA0000C404FF00C08ADF80A80DFF8F4B169464A
:100DB000584604F0CBF9012240F22551584604F080
:100DC0004CFA0121584604F03CFA4021584604F000
:100DD0000DFB0121052003F004FB0121480403F071
:100DE0000BFBADF810508DF813608DF8127004A94C
:100DF0006A4803F0F0F80820ADF810008DF81350A1
:100E000004A9664803F0E7F804A9644803F0E3F88E
:100E10004FF416600090ADF80440ADF80640ADF810
:100E20000840ADF80C40ADF80A80DFF878B16946AB
:100E3000584604F08BF9012240F22551584604F03F
:100E40000CFA0121584604F0FCF94021584604F000
:100E5000CDFA0121092003F0C4FA0121880403F02E
:100E6000CBFAADF810908DF813608DF812704E4EDD
:100E700004A9304603F0AFF86902ADF810108DF800
:100E8000135004A9304603F0A6F804A9304603F035
:100E9000A2F8CDF800A0ADF80440ADF80640ADF8DA
:100EA0000840ADF80C40ADF80A80404C6946204639
:100EB00004F04CF9012240F22551204604F0CDF90E
:100EC0000121204604F0BDF94021204604F08EFAAD
:100ED00005B0BDE8F08F36493148086001F12800BF
:100EE000486000F5806088604FF480628A81CA8122
:100EF000002008824882C882088348838882C861AB
:100F00000862486201F62801264B0B6001F12803B4
:100F10004B6001F585638B608A81CA8108824882B3
:100F2000C882088348838882C8610862486201F6E3
:100F300028011E4B0B6001F128034B6001F585630E
:100F40008B608A81CA8108824882C882088348836C
:100F50008882C86108624862704710B5FFF7BBFF1E
:100F6000FFF7EEFEBDE81040C7E6002809D00128D3
:100F700009D0022809D0032809D004281ED0002057
:100F800070470B4870470B4870470B48704700206C
:100F90007047000008140140081801400008014093
:100FA0000038014000440040000C0140004800406F
:100FB0008C150020B41D0020DC2500200020E7E770
:100FC0002DE9F04104460F469046002517E0785D74
:100FD000228A6168885415F091FB0146208A401CE2
:100FE00080B22082A289904201D300202082A08A70
:100FF000401CA082084615F085FB6D1CADB245452E
:1010000008D215F07BFBA68A15F07CFBA089B042C4
:10101000F7D9DCE72068BDE8F041012240F22771F2
:1010200004F01BB970B50D461646FFF79EFF044647
:10103000002C08D0E06900B180473246294620469E
:10104000BDE87040BCE770BD13B5012201A9FFF7F0
:10105000E9FF1CBD70B504460E4615F04FFB658BCD
:1010600015F050FBBDB1218BA068405C307015F0CD
:1010700045FB0146208B401C80B22083E2899042D0
:1010800001D300202083608B401E6083084615F04A
:1010900039FB012070BD002070BD10B5FFF765FF62
:1010A00010B1BDE81040D5E7002010BD2DE9F84390
:1010B00080460024CE4ECF4D002769460120FFF721
:1010C000ECFF58B3297808062ED49DF80000705420
:1010D000491CC8B22870102800D92F7029787018C0
:1010E00010F8010CF32804D1032902D20120287042
:1010F0001AE07078884217D8B8F1000F0FD0491E57
:10110000C9B2BB4800F0A4FD01462878321812F895
:10111000012C8A4207D140F08000287004E041F0A1
:101120008000287000E02F70641CA4B2102CC4D37F
:10113000BDE8F883F8B569460220FFF7AEFF002846
:1011400018D0AD4C2078010614D4AC4D9DF8001099
:101150002954401CC0B220700026202800D92670D7
:101160002078291811F8011CF32904D1032802D290
:1011700001202070F8BD69788142FBD8401EC1B2C1
:101180009E4800F065FD21786A1812F8012C824211
:1011900003D141F080002070F8BD2670F8BD00B585
:1011A000FFF7E3FE002803D0002101824182818203
:1011B00000BD00B5FFF7D9FE002803D00021C18291
:1011C0000183418300BD1FB500900020ADF80400ED
:1011D000ADF80600ADF80800ADF80C000C20ADF835
:1011E0000A006946864803F0B1FF1FBD1FB5009095
:1011F0000020ADF80400ADF80600ADF80800ADF829
:101200000C000C20ADF80A0069467D4803F09EFFF3
:101210001FBD38B50121102003F0E3F803208DF83D
:10122000020010208DF803000502ADF80050754C47
:101230006946204602F0CFFE256138BD1FB50090FB
:101240000020ADF80400ADF80600ADF80800ADF8D8
:101250000C000C20ADF80A0069466B4803F076FFDD
:101260001FBD68494FF48050486191E665494FF4CD
:10127000805008618CE60A4601460320D2E610B58C
:101280000446204615F052FC81B22046BDE81040CD
:10129000F1E77DE67CE62DE9F041044640F2255178
:1012A000206804F0A7F80025B8B1206804F02EF8F3
:1012B000C0B2E28AA1688854E18A491C8AB2E282FB
:1012C000E1898A4200D3E582628B8A4202D2618B35
:1012D000491C6183616A01B1884740F2277739462A
:1012E000206804F087F840F2266600B3A08A90B127
:1012F000618A6068415C206804F004F8608A401CE0
:1013000080B26082A189884200D36582A08A401E93
:10131000A082BDE8F08100223946206803F09DFFDD
:1013200031462068BDE8F041012203F096BF314606
:10133000206804F05FF80028EBD0A08A88B1618AA9
:101340006068415C206803F0DDFF608A401C80B269
:101350006082A189884200D36582A08A401EA08253
:10136000D7E700223146206803F077FF206A002883
:10137000CFD0BDE8F041004710B515F0BFF90446E5
:1013800013F020F9204615F0BDF919481030FFF789
:1013900082FFBDE8104013F02BB910B515F0AEF97F
:1013A000044613F00FF9204615F0ACF91748FFF783
:1013B00072FFBDE8104013F01BB910B515F09EF98F
:1013C000044613F0FFF8204615F09CF91048FFF78B
:1013D00062FFBDE8104013F00BB9D9E50D490A884A
:1013E0005206FCD50B4AC1B2121D1180D0E5000097
:1013F0007C15002040000020010000204C0300204C
:101400000044004000100140004C0040B41D00208A
:10141000DC2500200038014038B50121102002F001
:10142000E0FF4FF4E070ADF8000010208DF80300ED
:1014300003208DF80200094C6946204602F0CBFDDE
:101440004021204602F036FE8021204602F032FE86
:10145000A115204602F02EFE38BD0000001001400C
:10146000FE4A108051807047FC49088048887047C8
:1014700010B540F040010C20FFF7F2FF0C210B20CB
:10148000FFF7EEFF0A20FFF76FFB00210B20FFF7AD
:10149000E7FF0D20FFF7E8FF02460E20FFF7E4FF0D
:1014A00042EA002080B210BD10B50024EC4800785C
:1014B000082809D017E06420FFF756FB641CE4B24B
:1014C000642C01D9FF2010BD0120FFF7D1FF800659
:1014D000F1D50DE06420FFF747FB641CE4B2642CF7
:1014E00001D9FF2010BD0120FFF7BEFF4006F1D556
:1014F0000120FFF7B9FF022101EA90120020FFF757
:10150000B3FFC0F3C000104310BD10B50446002364
:1015100003F11600E15CFFF7A3FF5B1CDBB2082BB5
:10152000F6D310BD10B50446002303F11000E15CB2
:10153000FFF796FF5B1CDBB2062BF6D310BD10B590
:101540000B4640F040010C20FFF78AFFD9B20D2076
:10155000FFF786FF190A0E20FFF782FF0A210B20F2
:10156000FFF77EFF3220FFF7FFFA0021BDE81040B1
:101570000B2075E710B509281AD2DFE800F0050C3A
:1015800019190810191915000021212410E04FF431
:10159000807141240CE04FF40051812408E04FF4A5
:1015A000045140F2011403E04FF4805140F2E11481
:1015B0000020FFF7C4FF21460420FFF7C0FF0021F1
:1015C000BDE810401F204BE700B52820FFF74CFF77
:1015D00002462920FFF748FF42EA00222A20FFF7AF
:1015E00043FF42EA00422B20FFF73EFF42EA006041
:1015F00000BD10B59B4C002020600A20FFF7B4FA14
:10160000012020606420FFF7AFFA01211E20FFF7C0
:1016100027FF00211F20FFF723FF03210020FFF7F2
:101620001FFF1920FFF7A0FA0020FFF71DFFC007DA
:10163000F7D100210846FFF713FF03210020FFF731
:101640000FFF1920FFF790FA0020FFF70DFFC007EA
:10165000F7D110BD2DE9F0439BB001214FF4F0709C
:1016600002F0BFFE0121080202F0B0FE012108468F
:1016700002F0B7FE8020ADF8680003258DF86A50AF
:1016800010278DF86B70DFF8E0911AA9484602F038
:10169000A2FC4026ADF8686048208DF86B00DFF8AA
:1016A000CC811AA9404602F096FC4CF23370ADF89A
:1016B00068008DF86A5018248DF86B401AA94846C6
:1016C00002F089FC4FF68070ADF868008DF86A5022
:1016D0008DF86B401AA9664802F07DFCF001ADF868
:1016E00068008DF86A508DF86B401AA9614802F0C5
:1016F00072FCF000ADF868008DF86A508DF86B4010
:101700001AA9404602F067FC0621084602F01FFDB8
:10171000189600248DF864400C208DF86500012691
:101720008DF8666018A803F0A5FE402003F001FFC5
:1017300017208DF85C008DF85D608DF85E408DF8A7
:101740005F6017A802F02BF90194029403950494AA
:101750000594069407940226089609940A940B9718
:101760000C940D940E940F941094F0021190129416
:101770001394149401A81590169008A802F09DF9EE
:101780000121022002F0CDFA3B480068344D0821C7
:1017900029706C80812169702E716C71AC71010CA3
:1017A000E971010A29726872FF20A872E872287331
:1017B0006873A873E87328746874FFF71AFF6420CD
:1017C000FFF7D2F9FFF700FF044621462BA014F0E3
:1017D000F9FF2E48844203D001201BB0BDE8F083FE
:1017E0002878FFF7C7FE00210846FFF739FE0021E1
:1017F0000220FFF735FE3F210820FFF731FE382198
:101800000920FFF72DFE00210A20FFF729FE002105
:101810002F20FFF725FE2C210120FFF721FE0F21AD
:10182000FE20FFF71DFE80212D20FFF719FE281D49
:10183000FFF778FE0A480A30FFF767FE31210520DE
:10184000FFF70EFE8021FF20FFF70AFEFFF72CFEB8
:10185000FF2829D0C1071DD01AE00000FE00006457
:10186000042E00209C8122420014014000200140EF
:1018700000180140001C0140E8F7FF1F444D3930BB
:1018800030302049443A2523780D0A00460A00905A
:10189000A3A200E0A4A2800701D50A2100E06421F0
:1018A000A3A014F08FFF02E0ACA014F08BFF6978C6
:1018B000FF20FFF7D5FD00208FE770B54FF0C84639
:1018C000B6F8FE50FE20FFF7CFFD04462146FE206D
:1018D000FFF7C6FD600702D5A8A014F073FF20072C
:1018E00002D5A9A014F06EFFE00703D0AE4800684F
:1018F00014F050FAA6F8FE5070BD10B512F062FE5A
:10190000AA4940200860AA4C01E0FFF7D6FFD4F8AE
:1019100018010028F9D0BDE8104012F069BE2DE989
:10192000FC41074600260024DFF888826A46002131
:10193000D8F8000013F0E8FC8021FF20FFF790FDAD
:101940004FF0C842F820A2F8FE003D4601AB19E076
:101950006889B04214D931466868761CB6B2415CD9
:101960002046641CE4B21954022C0BD19DF80400EB
:101970009DF8051040EA0120A2F80001002401E0D2
:101980002D680026002DE3D1012C03D19DF8040021
:10199000A2F80001397AFC20FFF762FD3889010ABC
:1019A000FD20FFF75DFD01210220FFF759FDFE201C
:1019B000FFF75AFD8007FAD50221FE20FFF750FD00
:1019C0007D484178FF20FFF74BFDD8F8000013F069
:1019D00092FDBDE8FC812DE9FF410025DFF8D481AF
:1019E0006A460021D8F8000013F08EFC4FF0C8467C
:1019F0004FF4C067F020FFF737FDB6F80001C0B222
:101A000000287CD001280ED96CA014F0DBFE002148
:101A10000520FFF725FD8021FE20FFF721FD284648
:101A200004B0BDE8F081F22026F8FE0F7088039024
:101A30007088FE3E0290BDF808100322104609F09F
:101A400059FD054628000FD02C460AE061686289DE
:101A500004E0B6F8000121F8020B921E002AF8DC1F
:101A60002468002CF2D10EE0BDF808105CA014F040
:101A7000A9FE01A8BDF8081003E0B6F80021028015
:101A8000891E0029F9D1BDF80C0010F43F4F07D191
:101A9000BDF80800402803D3BDF80800B84238D983
:101AA000BDF80C1054A014F08DFEBDF80C00C0055C
:101AB00002D555A014F086FEBDF80C00800502D5B5
:101AC00055A014F07FFEBDF80C00000402D556A00E
:101AD00014F078FEBDF80800B84209D957A014F0F8
:101AE00071FE01210020FFF7BBFC0520FFF73CF849
:101AF00015B1284609F09CFC00257BE7FFE7022191
:101B0000FE20FFF7ADFC2C4881214170FF20FFF73C
:101B1000A7FCD8F8000013F0EEFC284680E7000090
:101B200046756C6C0000000048616C6600000000A7
:101B3000444D393030302053706565643A25644D2A
:101B40006270732C4475706C65783A2573206475E7
:101B5000706C6578206D6F64650D0A00444D3930F6
:101B600030302045737461626C697368204C696E13
:101B70006B204661696C6564210D0A006F766572A1
:101B8000666C6F77200D0A006F766572666C6F77F2
:101B900020636F756E746572206F766572666C6F08
:101BA00077200D0A00000000D80100201404014035
:101BB00000002442DC010020042E0020646D393036
:101BC00030302072783A207278206572726F722CF1
:101BD0002073746F70206465766963650D0A000078
:101BE00070627566C4DAB4E6C9EAC7EBCAA7B0DCAE
:101BF0003A25640D0A00000072785F737461747591
:101C0000733A2523780D0A007278206669666F2082
:101C10006572726F720D0A007278206372632065BC
:101C200072726F720D0A00007278206C656E6774B4
:101C300068206572726F720D0A0000007278206C65
:101C4000656E67746820746F6F206269670D0A00A3
:101C500010B50022054B05E010F8014B54401A5D09
:101C6000491EC9B20029F7D1104610BD586F0108AE
:101C700008B5F8A0006800909DF80100401EC1B2B0
:101C80006846FFF7E5FF8DF803009DF801206946DF
:101C90000120FFF7C7F9002296231146104614F0E1
:101CA00068FC08BD70B50446EB4D0A202870EB4E69
:101CB0000BE0002264231146104614F05AFC2878E9
:101CC000401E28700120FFF7F1F93078000602D499
:101CD00028780128EDD8307880280CD90020307081
:101CE000DF48C1782170017961704179A1708079F4
:101CF000E070012070BD002070BD1CB5D9A30CCBD5
:101D0000CDE900238DF803008DF804100A46014642
:101D1000D6A014F057FD9DF80100401EC1B26846E0
:101D2000FFF796FF9DF801200DF1FF3150549DF80B
:101D3000012069460120FFF775F91CBD70B588B018
:101D4000D3A1D1E900238968CDE905230791017862
:101D50008DF8171042788DF8182083788DF8193097
:101D6000C4788DF81A4005798DF81B5046798DF8A6
:101D70001C6080798DF81D008DE870000390C7A06D
:101D800014F020FD9DF81500401EC1B205A8FFF714
:101D90005FFF9DF815200DF1130150549DF815209B
:101DA00005A90120FFF73EF908B070BD2DE9F0410B
:101DB0008CB006460C46C7A003C8CDE90A018DF8D1
:101DC0002B609DF82900401EC1B20AA8FFF740FF12
:101DD0008DF82C00A14F4FF0000887F800809DF887
:101DE00029200AA90120FFF71DF99B4D0321297025
:101DF000BAA014F0E7FC0BE00022D22311461046F3
:101E000014F0B7FB2978491E29700120FFF74EF91D
:101E10003878000602D428780028EDD12978B3A0BC
:101E200014F0D0FC3878000639D587F800808C494A
:101E3000C878B04231D1887802282CD02070087937
:101E400060704879A0708879E070C8792071087A4C
:101E50006071487AA071887AE071C87A2072087B34
:101E60006072AA244B7AC87A8A7A0D7ACDE9055332
:101E7000CDE907204B79CA7988790D79CDE90153ED
:101E8000CDE90302C87800908B784A78097899A048
:101E900014F098FC04E00224E4E7002400E00024AD
:101EA0000CB02046BDE8F0812DE9FF410646A1A215
:101EB00092E81900D2688DE8190003928DF803604A
:101EC00008788DF8040048788DF8050088788DF83A
:101ED0000600C8788DF8070008798DF80800487961
:101EE0008DF8090088798DF80A00C8798DF80B0003
:101EF000087A8DF80C009DF80100401EC1B26846BA
:101F0000FFF7A6FE9DF801200DF1FF315054534D0F
:101F100000272F709DF8012069460120FFF782F805
:101F20004D4C0321217087A014F04CFC4FF48C78A9
:101F30000BE0002243461146104614F01AFB2178AC
:101F4000491E21700120FFF7B1F82878000602D45D
:101F500020780028EDD1217880A014F033FC287877
:101F600000060ED52F703E48C178B14207D1807867
:101F7000092802D0002004B094E7AA20FBE7002043
:101F8000F9E70020F7E72DE9FF41064679A292E83C
:101F90001900D2688DE8190003928DF80360087863
:101FA0008DF8040048788DF8050088788DF80600D3
:101FB000C8788DF8070008798DF808009DF80100B1
:101FC000401EC1B26846FFF743FE9DF801200DF1A7
:101FD000FF315054214D00272F709DF80120694694
:101FE0000120FFF71FF81C4C0321217065A014F09D
:101FF000E9FB4FF48C780BE0002243461146104673
:1020000014F0B7FA2178491E21700120FFF74EF82D
:102010002878000602D420780028EDD121785FA02E
:1020200014F0D0FB2878000611D52F700C48C17829
:10203000B1420DD18078142804D0002459A014F0A6
:10204000C1FBC6E0AA245AA014F0BCFBC1E0BBE06F
:10205000B4E00000F304A10048000020400000208C
:102060007C150020F30610051B0000003E3E3E3E9E
:102070003E3E3E3E3EB9E3B2A520CBAEB7D13D25B4
:10208000643B20C2F6B3E5CAFD3D25640D0A00009D
:10209000F30BCDFFFFFFFFFFFF0100003E3E3E3E82
:1020A0003E3E3E3E3EB9E3B2A520524649445F4B18
:1020B0006579202532582532582532582532582541
:1020C00032582532582CBFE9B5D8D6B7A3BA256403
:1020D0000D0A0000F305010000000000C2D6D1ADDA
:1020E000C3FCC1EE20256420000000002D202564E3
:1020F0003B00000025303258202530325820253052
:1021000032582025303258202530325820253032A0
:10211000582025303258202530325820253032586A
:102120002025303258202530325820253032580DA5
:102130000A000000F30E080000000000000000008C
:10214000000000004F766572666C6F775F466C61C9
:1021500067203D2025643B20200000004F766572FB
:10216000666C6F775F466C6167203D2025643B207D
:10217000200D0A00F30A1300000000000000000018
:1021800000000000B7A2CBCDBFA8D2ECB3A3CAFD1C
:10219000BEDD203D2025643B202000002D2D202584
:1021A000643B20006661756C742020200D0A0000DD
:1021B00073756363657373200D0A00000024AFF22A
:1021C0001C0014F0FFFA04E00024AFF2280014F021
:1021D000F9FA2046CFE62DE9FE430446FDA0D0E9FA
:1021E00000128068CDE90012029020788DF802007C
:1021F00061788DF80310A1788DF80510E1788DF8DD
:10220000061021798DF8071061798DF808101128D2
:1022100002D0132804D006E009208DF8010002E066
:102220000A208DF801009DF80100401EC1B26846E9
:10223000FFF70EFD9DF801200DF1FF315054E84EDF
:10224000002737709DF8012069460120FEF7EAFE5D
:10225000E44D03212970E4A014F0B4FA4FF48C7813
:102260000BE0002243461146104614F082F928780C
:10227000401E28700120FEF719FF3078000602D4B6
:1022800028780028EDD12978AFF2A01014F09AFA3E
:10229000307800060AD53770D6486178C078884211
:1022A00002D1AA20BDE8FE830020FBE70020F9E769
:1022B0002DE9FE430646D0A0D0E900238068CDE991
:1022C0000023029008788DF8030048788DF8040008
:1022D00088788DF80500C8788DF806008DF80760BD
:1022E0009DF80100401EC1B26846FFF7B1FC9DF8A1
:1022F00001200DF1FF315054B94D00272F709DF88A
:10230000012069460120FEF78DFEB64C03212170A5
:10231000AFF2D01014F056FA4FF482780BE000229E
:1023200043461146104614F024F92178491E2170C5
:102330000120FEF7BBFE2878000602D42078002892
:10234000EDD12178AFA014F03DFA2878000603D52E
:10235000A8488178C22901D00020A3E72F70AF4B95
:1023600006EB0612AA219954007A9BE72DE9FF415A
:102370000746ABA205CACDE90202002601968DF8F8
:102380000A7008788DF80C0048788DF80D00887870
:102390008DF80E00C8788DF80F009DF80900401EDA
:1023A000C1B202A8FFF754FC9DF809200DF1070106
:1023B00050548B4D2E709DF8092002A90120FEF784
:1023C00031FE884C02222270394697A014F0FAF9A7
:1023D0004FF48C770BE000223B461146104614F078
:1023E000C8F82078401E20700020FEF75FFE287895
:1023F000000602D420780028EDD12178AFF26420C5
:1024000014F0E0F92878000657D52E700721794896
:10241000FFF71EFC774CE179884248D1A078B328B9
:1024200005D00124AFF2842014F0CCF94AE0A07961
:10243000009063792279E17880A014F0C3F9E07804
:102440008DF8040020798DF8050060798DF806007C
:10245000A0798DF8070001A800F0DEFD04462146B2
:1024600086A014F0AFF9192C1BD801A92046FFF75C
:102470001FFF89490855694910B10878401C087048
:1024800004EB0410AA220A5408449DF80420C270E8
:102490009DF8051001719DF8061041719DF8071017
:1024A00081710024AFF2F82014F08CF90AE00224C4
:1024B000AFF2103014F086F904E00324AFF21C30C0
:1024C00014F080F9204656E52DE9FC410C4673A135
:1024D00006C9CDE900128DF803009DF80100401EE9
:1024E000C1B26846FFF7B4FB8DF804003C4E0027EC
:1024F00037709DF8012069460120FEF793FD394DA4
:10250000022028700BE00022B4231146104614F07C
:1025100030F82878401E28700120FEF7C7FD30787B
:10252000000602D428780028EDD13078000614D5B2
:102530003770304881782170017961704179A170DC
:102540008179E170C1792171017A6171417AA1715A
:10255000807AE071AA20BDE8FC810020FBE71CB571
:1025600050A106C9CDE900128DF803009DF80100C5
:10257000401EC1B26846FFF76BFB8DF804009DF862
:10258000012069460120FEF74DFD0022FA23114685
:10259000104613F0EEFF1CBD2DE9FF4107463946FA
:1025A00042A014F00FF91D4B07EB0710414A195CCC
:1025B0001C460444AA297FD055297ED1D2F89C011B
:1025C00000287BD00020C2F89C016078022876D0D9
:1025D000132175E0F30900004530303000000000A1
:1025E0004000002048000020457272436F6D202596
:1025F000642000007C150020F309C10000000000E9
:10260000000000004F766572666C6F775F466C6104
:1026100067203D2025643B2120000000162E00206D
:10262000F308000000000000D5DBB0EBB2E9D5D222
:102630002532582020256420000000000D0ABDD35B
:10264000CAD5B5BDB4D3D5BECDEAB3C9CAFDBEDDCA
:102650002020CEEFC0EDB5D8D6B7A3BA307825305C
:102660003278203078253032782030782530327832
:102670002030782530327820203B0000B7D6C5E4E2
:10268000B3C9B9A6A3A120C2DFBCADB5D8D6B73AAD
:1026900025643B0D0A0000002C030020F305040014
:1026A00000000000F3050700000000002532643B35
:1026B000200000000000224207E02AE08FE090E0C6
:1026C000122877D0142876D094E0E178002511B94B
:1026D000A17901B91D54D2F89C0140B10020C2F883
:1026E0009C0101A93846FFF761FB10B105E001200C
:1026F000F5E701A93846FFF759FBA64E3178B942F4
:1027000007D0022802D030B1A57022E0DD20607031
:10271000A570BDE8FF816570A07814280CD2052152
:10272000B0FBF1F201FB120010B9384600F088FD51
:10273000A078401CA070ECE700202554401CC0B2DB
:102740001028FAD3384600F0C6FCE2E70A20FEF76C
:10275000ECF930780028F9D1AA2060709DF80400C7
:10276000A0709DF80500E0719DF8060020729DF8AC
:10277000070060729DF80800A0729DF80900E072E1
:102780009DF80A0020739DF80B0060739DF80C0003
:10279000A0739DF80D00E0733846FFF7E0FEA278C5
:1027A00039467DA014F00EF8A07A0090637A227A60
:1027B000E17901E019E01BE07EA014F003F8E07A73
:1027C000217B000440EA0121607B014380A013F0DB
:1027D000F9FFE27BA17B82A013F0F4FF99E70120CF
:1027E000F1E611208DF8040004E08DF8041001E0FA
:1027F0008DF804108DF80570207A8DF80600607A47
:102800008DF80700A07A8DF80800E07B8DF80900AC
:1028100001A8FFF7E0FC00288DD101A8FFF7DBFC41
:1028200077E73EB505467649D1F89C01002814D0DB
:102830000020C1F89C012946AFF2901013F0C2FFAE
:1028400005EB450000EBC5026E486E49805C5418EC
:10285000AA2804D0BB2827D042E00120E9E760780D
:102860008DF80000A0788DF80100E0788DF8020066
:1028700020798DF80300A0798DF80400E0798DF8B7
:102880000500207A8DF8060060798DF80700A07A9F
:102890008DF8080069462846FFF706FB00BB69462D
:1028A0002846FFF701FB1BE0A0788DF80000E078D8
:1028B0008DF8010020798DF8020060798DF8030011
:1028C000A0798DF8040069462846FFF75CFB38B90B
:1028D00069462846FFF757FB02E00A20FEF725F974
:1028E000607A0028F9D100212154401CC0B20A2886
:1028F000FAD33EBD38B544A000680090434C002098
:1029000020606946B120FFF731FD0121216038BD0B
:102910002DE9F041AFF68C0013F054FF00253C4F39
:1029200029463CA013F04EFF002405EB0510C61904
:102930003AA0315D13F046FF641CE4B2102CF7D3CB
:10294000AFF6B80013F03EFF6D1CEDB21A2DE7D3C1
:10295000BDE8F0812DE9F041AFF6D00013F032FF71
:102960000025304F29462BA013F02CFF002407EB45
:1029700005162AA0315D13F025FF641CE4B2102C6B
:10298000F7D3AFF6F80013F01DFF6D1CEDB21E2D4E
:10299000E8D3DDE7E0010020C2DFBCADB5D8D6B793
:1029A000A3BA25643BBFA8D7B4CCAC25643B202098
:1029B00000000000BFA8BAC5A3BA253032582530A0
:1029C000325825303258253032583B202000000044
:1029D000BDF0B6EEA3BA2536643B202020000000EF
:1029E000BFA8D0A3D1E9A3BA2532643B202020CDD3
:1029F000A8D0C5C2EBA3BA253032583B200D0A003F
:102A00000000224254E40020160101019C012242F0
:102A1000162E0020253032642D2D0000253032582E
:102A20002C00000054E2002038B50121082001F0FC
:102A3000D8FCC020ADF8000010208DF80300032062
:102A40008DF80200794C6946204601F0C4FAC02195
:102A5000204601F02FFB38BD70B57448016821F0A5
:102A600070410160016841F040510160704C0120EB
:102A7000606020600420FEF758F80025656004209F
:102A8000FEF753F8256070BD10B56848016821F065
:102A900070410160016841F040510160644C0020C8
:102AA000206060600420FEF740F801202060606034
:102AB000BDE810400420FEF738B870B500245B482C
:102AC000016821F070410160016841F0004101603E
:102AD000584D0126C5F89C610120FEF726F8C5F87F
:102AE00098610120FEF721F807E0641CE4B2FA2C9B
:102AF00003D9FFF7C9FF012070BDD5F81C010028DC
:102B0000F3D1C5F8980170BD70B5494C002525601A
:102B10004648016821F070410160016841F0405170
:102B2000016065600220FEF700F8012020600220AD
:102B3000FDF7FBFF256070BD70B53D4C002525609D
:102B40003A48016821F070410160016841F040514C
:102B50000160012666600220FDF7E7FF2660022083
:102B6000FDF7E3FF256070BD2DE9F04105462F48D4
:102B7000016821F070410160016841F0405101603D
:102B80002C4E4FF00008C6F8988100240127280633
:102B900002D5C6F89C7101E0C6F89C816806050E56
:102BA0000220FDF7C2FFC6F898710220FDF7BDFFB5
:102BB000C6F898810220FDF7B8FF641CE4B2082C27
:102BC000E5D3BDE8F0812DE9F047814600241748A0
:102BD000016821F070410160016841F0004101602D
:102BE0000025144E00274FF00108C6F89871022006
:102BF000FDF79BFFC6F898816006040ED6F81C010D
:102C000008B1641CE4B20120FDF78FFF6D1CEDB22A
:102C1000082DEAD3B9F1000F04D0FFF775FF204665
:102C2000BDE8F087FFF788FFF9E70000000C0140DE
:102C30009881214200802142FFF7F6BE10B504467C
:102C4000FFF70AFF200AA02101EB4000C0B2FFF706
:102C50008BFFFFF732FFE0B2FFF786FFFFF72DFF94
:102C6000FFF7FAFEA120FFF77FFFFFF726FF002006
:102C7000FFF7A9FF0446FFF707FF204610BD70B518
:102C800004460D46FFF7E8FE200AA02101EB4000B4
:102C9000C0B2FFF769FFFFF710FFE0B2FFF764FF74
:102CA000FFF70BFF2846FFF75FFFFFF706FFFFF771
:102CB000EBFEBDE870400A20FDF756BF2DE9F0415C
:102CC00006460D461746002409E0E00025FA00F00C
:102CD000C1B2301980B2FFF7D2FF641CE4B2BC422B
:102CE000F3D3BDE8F0812DE9F04102460E46002005
:102CF0000024971908E00502381B401E80B2FFF738
:102D00009DFF2844641CE4B2B442F4D3E9E770B5F3
:102D100000244FF4806500212046FFF7B0FF641CBB
:102D2000A4B2AC42F7D370BD30B58DB064A003C877
:102D3000CDE90B0164A000680A9064A000680990C6
:102D400044F6206562A005AC90E80E00C0680EC491
:102D50000890634800F0BDFA6148817942790379AF
:102D6000C478CDE90043CDE9022183784278017827
:102D70005CA013F027FD674800F0D0FA6548C178E1
:102D8000009183784278017863A013F01BFD00F076
:102D9000DEFA69490880014668A013F013FD6D480A
:102DA00000F0F0FA6B48C17800918378427801789E
:102DB00069A013F007FD724800F0FDFA71A013F04E
:102DC00001FD6F4C6279E079A1792379CDE9013277
:102DD000CDE90310E0780090A378627821786EA0A6
:102DE00013F0F0FC627BE07BA17B237BCDE9013219
:102DF000CDE90310E07A0090A37A627A217A6DA07F
:102E000013F0E0FC724800F05FFB71480078AA28DC
:102E100027D070A013F0D6FCFF20FFF70FFF552836
:102E200029D0FFF774FF6FA013F0CCFC0BA800F0C3
:102E300055FA09A800F077FA284600F097FA0AA890
:102E400000F0A5FA05A800F0BBFA5521FF20FFF716
:102E500016FFFF20FFF7F2FE55280ED001200DB01F
:102E600030BD67A013F0AEFC694800F032FB694842
:102E700000F034FBD0E70020F1E70020EFE770B569
:102E800004460E46154608E02046641CA4B2FFF72F
:102E9000D5FE06F8010B6D1EADB2002DF4D170BD4C
:102EA00070B506460D46144606E029783046FFF711
:102EB000E6FE761CB6B26D1C641EA4B2F5D270BDDF
:102EC000FFFFFFFFFFFF0100101010337B39961941
:102ED000313030303030302D62373631633262304D
:102EE00006000020524649445F4B65793A2530324E
:102EF0005825303258253032582530325825303256
:102F000058253032582EBEF8B6D4BFE9BAC53A2596
:102F1000640D0A000D0000204950B5D8D6B72D2DFC
:102F20002D2D2D2D2D2D2D2D2D2D25642E25642E71
:102F300025642E25640D0A0012000020B6CBBFDAEE
:102F4000BAC52D2D2D2D2D2D2D2D2D2D2D2D25358C
:102F5000640D0A0014000020C7F8D3F2BFD8D6C60B
:102F6000C6F7534E2D2D2D2D2D2D253032582530C1
:102F7000325825303258253032580D0A00000000F2
:102F80006C150020C7F8D3F2BFD8D6C6C6F7CDA8B7
:102F9000D0C5C2EB2D2D00002532582532582532E0
:102FA000582532582532582532582532582532585E
:102FB0000000000025325825325825325825325855
:102FC0002532582532582532582532580D0A00002E
:102FD00018000020BEB2CCAC49502D2D2DBDFBD326
:102FE000C30D0A00415432344358585F44656C6540
:102FF00074655F616C6C4461742829210D0A0000BE
:10300000BEB2CCAC49502D2D2DBFAAC6F40D0A007E
:103010001D000020210000207CB504460020009007
:103020000190012505EB85060A363046FFF706FEBE
:10303000A8421BD1761CB0B204226946FFF71FFFDD
:10304000E0789DF80310884210D1A0789DF8021016
:1030500088420BD120789DF80010884206D1607814
:103060009DF80110884201D128467CBD6D1CEDB24F
:10307000212DD7D3012505EB85060A363046FFF70B
:10308000DDFDA84221D029463046FFF7F8FD701C2F
:10309000217880B2FFF7F3FDB01C617880B2FFF7B2
:1030A000EEFDF01CA17880B2FFF7E9FD361DE17856
:1030B000B0B2FFF7E4FD0120FFF7C0FD401CC1B234
:1030C0000120FFF7DCFD28467CBD6D1CEDB2212DF3
:1030D000D1D3F3207CBD2DE9FC41064600270097A3
:1030E0000197012404EB84050A352846FFF7A6FD65
:1030F000B04209D145F0010004226946FFF7D0FE35
:1031000028460021FFF7BBFD641CE4B2212CE9D363
:10311000F54906EB06100F540120FFF78FFD401E06
:103120000446C1B20120FFF7AAFDE0B2BDE8FC8170
:103130002DE9F04385B04FF00008CDF80C80CDF8B4
:1031400010800124E94EE84DAA2704EB840909F117
:103150000A094846FFF772FDA0426AD109F1010051
:1031600080B2042203A9FFF78AFE9DF80E109DF895
:103170000D20CDE900219DF80F0002909DF80C3044
:1031800022464946DAA013F01DFB9DF80C0010B949
:103190009DF80F00E0B103A92046FFF789F83055EC
:1031A00000B32878401C287004EB04102F542844E6
:1031B0009DF80C10C1709DF80D1001719DF80E1056
:1031C00041719DF80F108171D9A013F0FBFA30E026
:1031D0002146DBA013F0F6FA2046FFF77CFF06F845
:1031E000048026E0E0A013F0EDFA03A92046FFF7E3
:1031F0005FF83055B0B12878401C287004EB0410FB
:103200002F5428449DF80C10C1709DF80D100171C9
:103210009DF80E1041719DF80F108171D7A013F029
:10322000D1FA06E02146DAA013F0CCFA2046FFF7E7
:1032300052FF641CE4B2212C87D305B0BDE8F083B3
:1032400030B585B0044600210391049104EB840558
:103250000A352846FFF7F2FCA04234D1681C80B240
:10326000042203A9FFF70BFE9DF80E109DF80D2018
:10327000CDE900219DF80F0002909DF80C30224608
:1032800029469BA013F09EFA03A92046FFF710F8E9
:1032900096490855C8B194490878401C087004EB59
:1032A0000410AA220A5408449DF80C20C2709DF80C
:1032B0000D1001719DF80E1041719DF80F10817174
:1032C0009BA013F07FFA05B030BDB9A013F07AFAD5
:1032D000F9E707220146E620FFF7D1BD10B5044605
:1032E000E6202178FFF7CBFC6178E720FFF7C7FCE9
:1032F000A178E820FFF7C3FCE178E920FFF7BFFCE5
:103300002179EA20FFF7BBFC6179EB20FFF7B7FCDE
:10331000A179BDE81040EC20FFF7B1BC04220146C2
:10332000C820FFF7ACBD10B50446C8202178FFF7D0
:10333000A6FC6178C920FFF7A2FCA178CA20FFF79C
:103340009EFCE178BDE81040CB20FFF798BC08B5A3
:103350000020009002226946CC20FFF790FD9DF8E6
:1033600001009DF8001040EA012008BD10B5044698
:10337000CC20210AFFF783FCE1B2BDE81040CD204C
:10338000FFF77DBC04220146CE20FFF778BD10B5C3
:103390000446CE202178FFF772FC6178CF20FFF73A
:1033A0006EFCA178D020FFF76AFCE178BDE8104000
:1033B000D120FFF764BC10220146D220FFF75FBD89
:1033C00010B50446D2202178FFF759FC6178D3204C
:1033D000FFF755FCA178D420FFF751FCE178D52008
:1033E000FFF74DFC2179D620FFF749FC6179D72002
:1033F000FFF745FCA179D820FFF741FCE179D920FE
:10340000FFF73DFC217ADA20FFF739FC617ADB20F7
:10341000FFF735FCA17ADC20FFF731FCE17ADD20F3
:10342000FFF72DFC217BDE20FFF729FC617BDF20ED
:10343000FFF725FCA17BE020FFF721FCE17BBDE845
:103440001040E120FFF71BBC10B50446EF202178A7
:10345000FFF715FC6178F020FFF711FCA178F1204F
:10346000FFF70DFCE178F220FFF709FC2179BDE8B8
:103470001040F320FFF703BC10B50446F420217878
:10348000FFF7FDFB6178F520FFF7F9FBA178F62047
:10349000FFF7F5FBE178BDE81040F720FFF7EFBB41
:1034A00010B50446F8202178FFF7E9FB6178F92090
:1034B000FFF7E5FBA178FA20FFF7E1FBE178BDE833
:1034C0001040FB20FFF7DBBB05220146EF20FFF792
:1034D000D6BC04220146F420FFF7D1BC04220146E9
:1034E000F820FFF7CCBC0000162E00202C03002093
:1034F0002B2BC6F0CABCB5D8D6B73A25643B2020E2
:10350000C2DFBCADB5D8D6B73A25643B2020CEEF9C
:10351000C0EDB5D8D6B7A3BA2530325825303258C9
:1035200025303258253032583B20200D0A0000004B
:10353000B7D6C5E4B3C9B9A6A3A10D0A000000001F
:10354000CEEFC0EDB5D8D6B7B2BBC4DCCEAA3078CA
:103550003030A3A1C7E5C2DFBCADB5D8D6B73A2598
:10356000643B0D0A00000000B5DAD2BBB4CEB7D67A
:10357000C5E4CAA7B0DCA3A120200000B5DAB6FEDE
:10358000B4CEB7D6C5E4B3C9B9A6A3A10D0A00004D
:10359000B6FEB4CEB7D6C5E4CAA7B0DCA3A1C7E5D2
:1035A000C2DFBCADB5D8D6B73A25643B0D0A0000E2
:1035B000B7D6C5E4CAA7B0DCA3A10D0A000000007D
:1035C000F0B591B0044614210CA813F067FB142148
:1035D00007A813F063FB002005900690F4218DF8F6
:1035E000301061788DF83110A178491C8DF83210B7
:1035F000A1780CAA07AB072953D006DC01290BD010
:1036000003291AD0052917D13DE0092957D01029DF
:103610007DD01229F7D1F6E0B1208DF8330094481F
:1036200001788DF8341041788DF8351081788DF857
:103630003610C0788DF8370007E1E1788DF8331047
:1036400022798DF8342063798DF83530A0798DF8A2
:103650003600E5798DF83750257A8DF838508DF899
:103660001C108DF81D208DF81E308DF81F0007A846
:10367000FFF759FE9DF838009DF8371040EA012009
:10368000FFF774FEE1E021181618CD78F570C978BF
:103690001954401CC0B21028F5D307A8FFF790FEBC
:1036A000D3E021181618CD78F570C9781954401C4C
:1036B000C0B20428F5D307A8FFF769FEC5E06D4D39
:1036C000E0782870207968706079A870A079E87037
:1036D000E0792871684E207A3070607A7070A07A34
:1036E000B070E07AF070654F207B3870607B787046
:1036F000A07BB870E07BF8702846FFF7A5FE304647
:10370000FFF7BAFE3846FFF7CBFE284600E054E04C
:10371000FFF7DAFE3046FFF7DCFE3846FFF7DEFE45
:1037200028788DF8330068788DF83400A8788DF803
:103730003500E8788DF8360028798DF83700307834
:103740008DF8380070788DF83900B0788DF83A002F
:10375000F0788DF83B0038788DF83C0078788DF85B
:103760003D00B8788DF83E00F8788DF83F0044A011
:1037700013F028F82878AA281BD049A013F022F8C3
:1037800028790090EB78AA78697849A013F01AF8A4
:10379000F0780090B378727831784DA013F012F879
:1037A000F8780090BB787A78397851A013F00AF84D
:1037B0004BE057A013F006F8E2E7594DE078287087
:1037C000207968706079A870A079E870E079287134
:1037D000207A6871A07AA87107212846FEF738FA86
:1037E000504908702846FFF779FDAA796879297948
:1037F000EB78CDE90202CDE90031AB786A7829781F
:1038000049A012F0DFFF05A8FFF763FD9DF8140043
:103810008DF833009DF815008DF834009DF81600E2
:103820008DF835009DF817008DF836009DF81800CA
:103830008DF837009DF819008DF83800607A8DF802
:1038400039009DF81A008DF83A009DF83100401EAD
:10385000C1B20CA8FEF7FCF962780DF12F015054AB
:103860009DF831200CA90220FDF7DCFB11B0F0BD62
:1038700014000020180000201D000020210000205E
:103880002D2D2D2D2D2D2D2D2DBDD3CAD5B5BDB44E
:10389000AEBFDA2D2D2D2D2D2D2D2D2D0D0A000035
:1038A000BEB2CCAC49502D2D2DBDFBD3C30D0A00AB
:1038B000BEB2CCAC4950B5D8D6B72E2E2E2E2E2E59
:1038C00025642E25642E25642E25640D0A00000033
:1038D000D7D3CDF8D1DAC2EB2E2E2E2E2E2E2E2EB1
:1038E00025642E25642E25642E25640D0A00000013
:1038F000C4ACC8CFCDF8B9D82E2E2E2E2E2E2E2EFB
:1039000025642E25642E25642E25640D0A000000F2
:10391000BEB2CCAC49502D2D2DBFAAC6F40D0A0065
:1039200006000020050000202D2D2D2D2D2D2D2DE4
:103930002DBDD3CAD5B5BDB4AEBFDA205246494479
:103940005F4B65792025325825325825325825326B
:10395000582532582532582CBFE9B5D8D6B7A3BA66
:1039600025640D0A0000000070B505460C4645F2BE
:10397000555001F0E7FD284601F0E7FD204601F033
:10398000E7FD01F0E8FDBDE8704001F0E9BD01F0A0
:10399000E2BD00002A4908432A490860704770B513
:1039A0000F23C27801260178002A1ED0254A12680A
:1039B00002F4E062C2F5E062120AC2F10404D340EC
:1039C0004578A54082781A402A43120101F1E0218E
:1039D00081F80024007800F01F018E40400980002B
:1039E00000F1E020C0F8006170BD01F01F008640CA
:1039F0004809800000F1E020C0F8806170BD124AE3
:103A0000114001430F48001F016070470D4A121D0D
:103A1000002903D011680143116070471168814388
:103A2000116070474FF0E021042804D0086920F0AD
:103A3000040008617047086940F00400086170479D
:103A40000000FA050CED00E080FFFF1F8100A1F1EE
:103A5000C04100280CD043F2D2020A60401C800012
:103A6000A0F1C0406FF070420260C1F804217047BD
:103A70004FF0204343F2DB021A60EFE710B5182441
:103A800040234FF020414FF0FC32102805D041F880
:103A9000804F4B608A60CA6010BD0C664B668A66B8
:103AA000CA6610BDF74818210160002141604FF03F
:103AB000FC318160C1600161704710B5D0E901122D
:103AC0001143D0E903231A43114342691143826928
:103AD0001143C2691143026A1143426A1143826A67
:103AE0001143C26A1143026B114302689200A2F1B2
:103AF000C04211608168082907D101688900A1F1DD
:103B0000C0410A6842F040020A60416BD1E90023DB
:103B100042EA03128B688C891B0243EA04431A436E
:103B20000B8A42EA03520B7D896942EA03620A4327
:103B30000168491C8900A1F1C0410A60C16AB1F560
:103B4000804F08D000686FF070418000A0F1C04045
:103B5000C0F8041110BD816BD1E9002342EA0312C1
:103B60008B680C8A1B0243EA04531A430B7D896954
:103B700042EA036200680A438000A0F1C040C0F836
:103B8000042110BD30B5D0E901121143D0E903235F
:103B90001A431143426941EA4221826941EA4231B2
:103BA00041F00804C169D1E9002342EA03220B89EC
:103BB000097B1B0443EA01610A43016AD1E900352C
:103BC00043EA05230D89097B2D0445EA01610B4376
:103BD00001684FF02040102904D040F8804F8260E7
:103BE000C36030BD04668266C36630BD10B5D0E9DF
:103BF000001241EA42218268102343EA4232114313
:103C0000A04A1160C168D1E9003443EA04230C8959
:103C1000097B240444EA01610B4393600169D1E903
:103C2000003443EA04230C89097B240444EA01613B
:103C30000B43D3604069D0E9001341EA03210389B3
:103C4000007B1B0443EA00600143116110BD10B505
:103C500000210160022242608160C1600161416116
:103C60008161C1610162D202426252008262C1621C
:103C70000163436B0F221A60436B5A60446BFF234E
:103C8000A360446BE260446B2261446B6261446BED
:103C9000A161846B2260846B6260846BA360836B20
:103CA000DA60836B1A61836B5A61806B816110BD2E
:103CB00010210160002141608160C16001614161AA
:103CC0008161C269FC211160C2695160C269916061
:103CD000C269D160026A1160026A5160026A916031
:103CE000006AC16070470021016041608160C26864
:103CF000FC211160C2685160C2689160C268D160E5
:103D00000269116002695160026991600269D160C3
:103D10004269116042695160426991604069C160C5
:103D200070478000A0F1C040002904D0016841F034
:103D30000101016070470168534A114001607047FA
:103D40004FF0204200290CD0102805D052F8800FE7
:103D500040F0040010607047106E40F004001066E0
:103D600070474949C91E102804D052F8800F0840F6
:103D700010607047106E0840106670474FF0204189
:103D8000002805D051F8A00F40F0040008607047EB
:103D900051F8A00F3C4AD21E1040086070474FF007
:103DA000204200290CD0102805D052F8800F40F096
:103DB000400010607047106E40F040001066704781
:103DC00031493F39102804D052F8800F0840106064
:103DD0007047106E0840106670474FF02041102861
:103DE00002D0D1F894007047486F704710B54FF477
:103DF00080744FF02043002A11D0102806D0A04232
:103E000008D153F8840F0843186010BD586E08435A
:103E1000586610BD53F8A40F0843186010BD102851
:103E200006D0A04208D153F8840F8843186010BD13
:103E3000586E8843586610BD53F8A40F8843186025
:103E400010BD034600204FF02042102B08D0B3F5E0
:103E5000807F07D0D2F8A4200A4200D0012070470A
:103E6000526EF9E7D2F88420F6E74FF0204210288E
:103E70000CD0B0F5807F0DD052F8A40F88431060AD
:103E800070470000A00000A0FEFF0F00506E8843A6
:103E90005066F5E752F8840F88431060F0E7034658
:103EA00000204FF02042102B0ED0B3F5807F0DD0B4
:103EB000D2F8A42002EA010302EAD101002BDFD0EC
:103EC0000029DDD00120DBE7526EF3E7D2F8842031
:103ED000F0E74FF02042102808D0B0F5807F0AD0DC
:103EE00052F8A40F20EAD1001060C9E7506E20EA12
:103EF000D1005066C4E752F8840F20EAD100106068
:103F0000BEE7000010B59C49884209D10121042078
:103F100000F07DFA0021BDE81040042000F077BADF
:103F20009649884209D10121082000F070FA002149
:103F3000BDE81040082000F06ABA9149884209D1D2
:103F40000121102000F063FA0021BDE8104010208C
:103F500000F05DBA8B49884209D10121202000F090
:103F600056FA0021BDE81040202000F050BA8649E2
:103F7000884209D10121402000F049FA0021BDE822
:103F80001040402000F043BA8049884209D1012105
:103F9000802000F03CFA0021BDE81040802000F0B5
:103FA00036BA7B4988420AD184150121204600F0A7
:103FB0002EFA2046BDE81040002100F028BA10BDBE
:103FC00010B50121084600F022FA0021BDE810409A
:103FD000012000F01CBA2DE9F0410022CC7804F059
:103FE0000F03E40601D58C7823430C784FF00F07BC
:103FF00014F0FF0F4FF0010C1CD005680CFA02F40E
:104000000E882640A64211D1960007FA06F825EA46
:10401000080503FA06F848EA0505CE78282E02D0EE
:10402000482E02D002E0446100E00461521C082ADC
:10403000E4D305600A88FF2A1ED94568002202F1F0
:1040400008060CFA06F40E882640A64210D1960007
:1040500007FA06F825EA080503FA06F848EA05050E
:10406000CE78282E00D14461CE78482E00D104614C
:10407000521C082AE3D34560BDE8F0814FF6FF717A
:104080000180022181700421C17070470246002026
:1040900092680A4200D001207047806880B2704761
:1040A00002460020D2680A4200D001207047C06852
:1040B00080B270470161704741617047002A01D0AA
:1040C0000161704741617047C160704741F48032BF
:1040D00082618161826181698069704710B52D4B71
:1040E0001A684FF68074224042EA001008431860B4
:1040F00010BD2949C8617047F0B5264C002801DA87
:10410000E36900E06368C0F30346420D120185B223
:10411000C0F301579540032F07D0C2020CD50322EC
:10412000B240934343F0706209E023F07062636829
:1041300023F07063636002E0AB4343F0706201B14F
:104140002A43002801DAE261F0BD6260F0BD10B5DB
:104150008A07120F0F23934021F003040D492144D5
:104160008C689C438C608B68904003438B6010BDCF
:104170000949DC310860704700080140000C01402B
:10418000001001400014014000180140001C0140D3
:10419000002001400000014000002042B4480168B6
:1041A00041F0010101604168B24A1140416001687B
:1041B000B14A11400160016821F480210160416829
:1041C00021F4FE0141604FF41F0181607047A8494E
:1041D0000A6822F480320A600A6822F480220A60A7
:1041E000B0F5803F07D0B0F5802F03D1086840F4C8
:1041F000A02008607047086840F48030086070476D
:104200000346002059099A4A01290AD002290AD0F6
:10421000516A03F01F02012393400B4200D001209A
:1042200070471168F5E7116AF3E718B500200090B0
:104230004FF4A0643120FFF7E3FF0099491C00917F
:104240000099A14201D00028F4D03120FFF7D8FF17
:1042500008B1012018BD002018BD854A116821F061
:10426000F80141EAC0001060704784490860704757
:104270007F4B5A6822F47C12084310435860704701
:104280007E49086670477A4A516821F0030101436C
:10429000516070477648406800F00C007047744ADF
:1042A000516821F0F001014351607047704A516834
:1042B00021F4E0610143516070476D4A516821F477
:1042C000605141EAC00050607047694A002903D03C
:1042D000517A014351727047517A8143517270474C
:1042E0006649D83108607047614A516821F44041FD
:1042F0000143516070475E49002220310A7001F885
:104300002029012805D0042802D1052081F82000A9
:104310007047012081F820007047594908607047B4
:1043200053490A6A02430A62704755494439086092
:10433000704710B54E4A516801F00C01514B0029ED
:1043400027D0042927D0082927D00360516801F01D
:10435000F00109094C4B5C5C0168E1404160546824
:1043600004F4E064240A1C5D21FA04F484605468B7
:1043700004F46054E40A1B5DD940C160526802F441
:104380004042920B404B1B1F9A5CB1FBF2F1016162
:1043900010BD0360DAE70360D8E7516801F47011DB
:1043A000536803F48033022404EB914133B1536822
:1043B0009B0307D5354B59430160C7E7334B59433E
:1043C0000160C3E72F4B59430160BFE7284A00292A
:1043D00003D0516901435161704751698143516173
:1043E0007047234A002903D09169014391617047C6
:1043F00091698143916170471D4A002903D0D169B9
:104400000143D1617047D1698143D1617047184A36
:10441000002903D0D1680143D1607047D16881433E
:10442000D1607047124A002903D01169014311611C
:104430007047116981431161704711494039086023
:1044400070470E49C86470470949C87170470848E9
:10445000416A41F080714162704701460020044A80
:1044600092680A4200D00120704701498872704763
:10447000001002400000FFF8FFFFF6FE000042427D
:104480008004424200127A004D00002000093D00E5
:1044900010B5FE4988420AD1C41401212046FFF715
:1044A000B6FF2046BDE810400021FFF7B0BFB0F1D5
:1044B000804F0CD0F649884213D101210220FFF72A
:1044C000B1FF0021BDE810400220FFF7ABBF012182
:1044D0000846FFF7A7FF0021BDE810400120FFF7C5
:1044E000A1BFEC49884209D101210420FFF79AFFBE
:1044F0000021BDE810400420FFF794BFE649884240
:1045000009D101210820FFF78DFF0021BDE81040EF
:104510000820FFF787BFE149884209D10121102017
:10452000FFF780FF0021BDE810401020FFF77ABFA1
:10453000DB49884209D101212020FFF773FF0021C8
:10454000BDE810402020FFF76DBFD64988420AD150
:10455000441401212046FFF75AFF2046BDE81040D1
:104560000021FFF754BFD04988420AD10121CC0471
:104570002046FFF74CFF2046BDE810400021FFF722
:1045800046BFCA4988420AD101210C052046FFF7DF
:104590003EFF2046BDE810400021FFF738BFC44968
:1045A00088420AD101214C052046FFF730FF204602
:1045B000BDE810400021FFF72ABFBE49884209D15B
:1045C00001214020FFF72EFF0021BDE810404020D0
:1045D000FFF728BFB849884209D101218020FFF7A1
:1045E00021FF0021BDE810408020FFF71BBFB34929
:1045F00088420AD1841501212046FFF713FF204687
:10460000BDE810400021FFF70DBFAD4988420AD137
:1046100001210C042046FFF7FAFE2046BDE81040B9
:104620000021FFF7F4BEA74988420AD101214C04BA
:104630002046FFF7ECFE2046BDE810400021FFF7C2
:10464000E6BEA14988420AD101218C042046FFF729
:10465000DEFE2046BDE810400021FFF7D8BE10BDA9
:1046600030B50288894C8F4DA0420DD0A8420BD0A6
:10467000B0F1804F08D0864B984205D0854B9842C8
:1046800002D0854B984203D122F070034A881A4326
:10469000824B984206D0824B984203D022F440735A
:1046A000CA881A4302808A8882850A880285A042C5
:1046B0000AD0A84208D0824A904205D0814A90424E
:1046C00002D0814A904201D1097A0186012181827A
:1046D00030BD30B5028C22F001020284028C838846
:1046E000048B24F0700424F003050C882C4322F082
:1046F00002020D8915434A882A43644DA8420BD013
:10470000684DA84208D06E4DA84205D06D4DA84214
:1047100002D06D4DA8420FD122F008054A892A43E4
:1047200022F004058A882A4323F4807323F400735B
:104730008D891D43CB892B4383800483C98881865F
:10474000028430BD70B5028C22F010020284028C0B
:104750008388048B24F4E04424F440760D884FF6DB
:10476000FF7404EA0525354322F020020E8904EA8D
:10477000061616434A8804EA02123243434EB042F8
:1047800002D0484EB04217D122F080024E8904EA8E
:104790000616164326F040068A8804EA02123243BF
:1047A00023F4806323F400638E8904EA86061E43A3
:1047B000CB8904EA8303334383800583C988018757
:1047C000028470BD70B5028C22F480720284028C67
:1047D0008388848B24F0700424F003040D8825431F
:1047E00022F400720E894FF6FF7404EA062616437F
:1047F0004A8804EA02223243244EB04202D0294EB3
:10480000B04217D122F400664A8904EA02223243F8
:1048100022F480668A8804EA0222324323F4805319
:1048200023F400538E8904EA06161E43CB8904EA5A
:104830000313334383808583C9888187028470BDD5
:1048400070B5028C22F480520284058C8288838B9E
:1048500023F4E04323F440760C884FF6FF7303EA19
:104860000424344325F400550E8903EA06362E430A
:104870004D8803EA05353543044EB04202D0094E57
:10488000B04226D122F480468A891FE0002C0140E4
:104890000004004000080040000C004000100040F0
:1048A0000014004000340140004C01400050014021
:1048B0000054014000180040001C0040002000404F
:1048C00000400140004401400048014003EA8212D8
:1048D000324382808483C988A0F84010058470BD6B
:1048E000828B22F440628283828B4FF6FF7303EA4D
:1048F00001210A4382837047F0B5048C24F480546C
:104900000484868B048C4FF6FF7505EA013726F484
:10491000734605EA0222324305EA03331343F74A9A
:1049200090420ED0F64A90420BD0B0F1804F08D0A2
:10493000F44A904205D0F44A904202D0F34A9042A1
:1049400005D124F40051394341F4805104E024F4AA
:1049500002420A4342F4805183830184F0BD828B7A
:1049600022F00C028283828B0A4382837047F0B567
:10497000048C24F480740484858B048C4FF6FF77B8
:1049800007EA012625F0F30507EA031313432B4337
:10499000DA4A90420ED0DA4A90420BD0B0F1804F02
:1049A00008D0D84A904205D0D74A904202D0D74A80
:1049B000904205D124F40071314341F4807104E048
:1049C00024F420620A4342F4807183830184F0BDA1
:1049D000028B22F440620283028B4FF6FF7303EADC
:1049E00001210A4302837047F0B5048C24F01004BF
:1049F0000484068B048C4FF6FF7505EA011726F434
:104A0000734605EA0333334305EA02221A43BB4BDC
:104A100098420ED0BA4B98420BD0B0F1804F08D0DC
:104A2000B84B984205D0B84B984202D0B74B984249
:104A300005D124F02001394341F0100104E024F0B5
:104A4000A0030B4343F0100102830184F0BD028BED
:104A500022F00C020283028B0A430283704770B576
:104A6000048C24F001040484058B048C25F0F305E8
:104A70004FF6FF7606EA031313432B439F4A9042F7
:104A80000ED09F4A90420BD0B0F1804F08D09D4A83
:104A9000904205D09C4A904202D09C4A904205D157
:104AA00024F002020A4342F0010104E024F00A0269
:104AB0000A4342F001010383018470BD70B50546CD
:104AC0000C468E48854209D08D48854206D0B5F106
:104AD000804F03D08B48854200D08B482088618866
:104AE000A288238958B1042811D0082817D0284655
:104AF000FFF702FFE1882846BDE87040F0E628464F
:104B0000FFF7ADFFE1882846BDE870409FE72846E3
:104B1000FFF76AFFE1882846BDE8704058E728465D
:104B2000FFF725FFE1882846BDE8704017E72DE92B
:104B3000F04107460C46002501266188002900D176
:104B40000225A288012A00D102262088238988B163
:104B50003846FFF749FFE1883846FFF739FF2389D8
:104B6000324629463846FFF77AFFE1883846BDE8E5
:104B7000F0416CE73846FFF772FFE1883846FFF7EF
:104B800066FF2389324629463846FFF72DFFE18824
:104B90003846BDE8F0411BE710B50A884B88CC8841
:104BA0001A438B8823431A430B891A434B898989FB
:104BB0001A430A43A0F8442010BD4FF6FF718180CC
:104BC00000210180C1804180017270470021018075
:104BD00041808180C180018141818181C181704793
:104BE00000210180418001228280C18001817047C3
:104BF0000021018041808180C180018141818181CA
:104C00007047002904D0018841F0010101807047FC
:104C1000018821F0010101807047002905D030F89A
:104C2000441F41F400410180704730F8441FC1F334
:104C30000E0101807047002A03D082890A438281D5
:104C4000704782898A43828170478182704711430D
:104C5000A0F848107047002A03D082890A43828155
:104C6000704782898A4382817047018921F0070158
:104C700001817047028922F070020A430281704765
:104C800000B503461846FFF7F5FF188940F0070006
:104C9000188100BD70B50D4604461146602D0CD03C
:104CA00001222046FFF7DBFE29462046FFF7E2FF00
:104CB000208940F00700208170BD01222046FFF7C7
:104CC00093FEF1E730B50489E4B24FF6FF7505EACB
:104CD000032313430B432343038130BD10B5044624
:104CE0002046FFF7EFFF208920F0070040F0070083
:104CF00020F0700040F07000208110BD002C0140B9
:104D0000003401400004004000080040000C004056
:104D100010B504462046FFF7D5FF208940F48040B7
:104D20002081EAE7018582827047028822F07002C2
:104D30000A430280704770B50589048B068C25F004
:104D400007050D434FF6FC410C4040F201110C43A6
:104D500026F022064FF6FF7101EA03111143314399
:104D600005810483018470BD028B22F070020A4326
:104D700002837047028B22F4E0424FF6FF7303EA8E
:104D80000121114301837047828B22F070020A4394
:104D900082837047828B22F4E0424FF6FF7303EA6E
:104DA0000121114381837047002904D0018841F01B
:104DB000800101807047018821F0800101807047E7
:104DC000002904D0818841F00401818070478188E6
:104DD00021F0040181807047002904D0818841F0CE
:104DE000080181807047818821F008018180704727
:104DF000002904D0818841F00101818070478188B9
:104E000021F0010181807047028B22F008020A43E1
:104E100002837047028B22F400624FF6FF7303EAAD
:104E20000121114301837047828B22F008020A435B
:104E300082837047828B22F400624FF6FF7303EA8D
:104E40000121114381837047028B22F004020A433F
:104E500002837047028B22F480624FF6FF7303EAED
:104E60000121114301837047828B22F004020A431F
:104E700082837047828B22F480624FF6FF7303EACD
:104E80000121114381837047028B22F080020A4383
:104E900002837047028BC2F30E024FF6FF7303EAE0
:104EA0000121114301837047828B22F080020A4363
:104EB00082837047828BC2F30E024FF6FF7303EAC0
:104EC0000121114381837047028C22F002020A43C0
:104ED00002847047028C22F008020A430284704761
:104EE000028C22F020024FF6FF7303EA01111143F6
:104EF00001847047028C22F080024FF6FF7303EAB0
:104F00000111114301847047028C22F400724FF6A4
:104F1000FF7303EA0121114301847047028C22F4DC
:104F200000624FF6FF7303EA0121114301847047C9
:104F3000028C22F400524FF6FF7303EA0131114351
:104F40000184704710B501238B40048C9C4304847A
:104F5000038C8A4013430384CFE610B504238B40AF
:104F6000048C9C430484038C8A4013430384C4E66A
:104F700030B500F1180301248C40058CA54305844D
:104F8000002911D008290FD0091FC1F34E00184481
:104F9000016821F4E041016001684FF6FF7303EA04
:104FA00002221143016030BD03EB5100016821F082
:104FB0007001016001681143016030BD002904D017
:104FC000018841F0020101807047018821F002014F
:104FD00001807047002904D0018841F0040101805C
:104FE0007047018821F0040101807047002904D036
:104FF000818841F0800181807047818821F08001A3
:1050000081807047028822F00802028002880A43E9
:1050100002807047828822F07002828082880A4370
:1050200082807047028922F00702028102890A43C6
:1050300002817047028922F08002028102890A43BC
:1050400002817047818470478185704781867047EF
:105050000187704781877047A0F840107047028829
:1050600022F44072028002880A4302807047808ED8
:105070007047008F7047808F7047B0F840007047CE
:10508000808C7047008D704702460020128A0A42C9
:1050900000D001207047C9430182704702460020BA
:1050A000138A0B4092890A40002B02D0002A00D0BC
:1050B00001207047C94301827047000010B5E149E3
:1050C00088420AD101218C032046FFF7A0F920462F
:1050D000BDE810400021FFF79AB9DB4988420AD1A8
:1050E00001214C042046FFF79DF92046BDE8104001
:1050F0000021FFF797B9D54988420AD101218C04D4
:105100002046FFF78FF92046BDE810400021FFF749
:1051100089B9CF4988420AD10121CC042046FFF742
:1051200081F92046BDE810400021FFF77BB9C9494D
:1051300088420AD101210C052046FFF773F9204669
:10514000BDE810400021FFF76DB910BD30B585B046
:1051500004460D46208A4CF6FF710840E988014359
:105160002182A0894EF6F3110840A9882A891143AB
:105170006A8902431143A181A08A4FF6FF4108408A
:10518000A9890143A1826846FFF7D3F8AD4884425C
:1051900001D1039800E00298A189090408D500EB29
:1051A000C00101EB001029684900B0FBF1F007E0F5
:1051B00000EBC00101EB001029688900B0FBF1F0A1
:1051C0006422B0FBF2F109010B096FF018056B4383
:1051D00000EB8300A3891D044FF0320307D503EBD6
:1051E000C000B0FBF2F000F00700084306E003EB5C
:1051F0000010B0FBF2F000F00F000843208105B072
:1052000030BD4FF41651016000218180C1800181C1
:105210000C2242818181704710B5038A4FF2FF0250
:1052200013400A884C8822438C88C9880C43224347
:105230001A43028210BD0021018041808180C1801B
:105240007047002904D0818941F400518181704761
:10525000818921F400518181704710B540F66A13AD
:10526000C1F3421301F01F040121A140012B07D01B
:10527000022B07D014303AB102680A43026010BD15
:105280000C30F8E71030F6E702688A43026010BD80
:10529000002A03D0828A0A4382827047828A8A4324
:1052A00082827047028A22F00F020282028A0A4337
:1052B00002827047828922F40062828182890A43D5
:1052C00082817047002904D0818941F002018181E7
:1052D0007047818921F0020181817047028A22F0A2
:1052E00020020282028A0A4302827047002904D007
:1052F000018A41F4804101827047018A21F4804192
:1053000001827047C1F30801818070478088C0F333
:1053100008007047818941F0010181817047028B4B
:10532000D2B20283028B42EA012101837047028BD1
:1053300002F47F420283028B0A43028370470029F2
:1053400004D0818A41F0200181827047818A21F056
:10535000200181827047002904D0818A41F0100128
:1053600081827047818A21F0100181827047002973
:1053700004D0818A41F0080181827047818A21F03E
:10538000080181827047002904D0818941F40041DD
:10539000818170478189C1F30E01818170470029A5
:1053A00004D0818A41F4006181827047818A21F4AE
:1053B000006181827047828A22F004028282828A9E
:1053C0000A4382827047002904D0818A41F0020199
:1053D00081827047818A21F00201818270470246F2
:1053E000002012880A4200D0012070478A05C94374
:1053F0000180704770B5002440F66A12C1F3421371
:1054000001F01F05012606FA05F2012B0CD0022B34
:105410000DD0838A1340090A8E40008830400BB1BA
:1054200000B10124204670BD83891340F3E7038A4D
:105430001340F0E740F66A120A0A01219140C9437D
:10544000018070470038014000440040004800409F
:10545000004C004000500040384900200860091D01
:105460000860091D0860091D08603449344814317A
:105470000860704730B5314A83790168002B2AD023
:1054800013688B431360111D0B680468A3430B6002
:10549000017911440B68046823430B60274C0834DE
:1054A0002168036899432160231D19680568A94391
:1054B00019604179102905D011440A680068024337
:1054C0000A6030BD216802681143216019680068D4
:1054D0000143196030BD0079104402688A430260BC
:1054E00030BD0021016001710C2242718171704751
:1054F000124910310A6802430A60704701460020D1
:105500000E4A143212680A4200D0012070470B493B
:1055100014310860704701460020084A12680A40AA
:10552000064B14331B680B4202D0002A00D0012026
:1055300070470249143108607047000000040140C0
:10554000FFFF0F000D49086070470C494860704725
:105550000A498860704709494AF6AA2008607047DE
:1055600006494CF6CC400860704701460020034ACB
:10557000D2680A4200D0012070470000003000408D
:1055800003E011F8013B00F8013B521E531CF8D117
:10559000704701E000F8011B521E531CFAD17047FE
:1055A00070B504466B486C4E002150F8240006EBA1
:1055B000840542002869FFF7ECFF6648002110309F
:1055C00050F82420A868FFF7E4FF0120311908767D
:1055D00070BD10B5002200215E4B5F4C53F82030A7
:1055E00004EB800005E0046934F8114004B1521C5A
:1055F000491C8B42F7D864204243B2FBF3F0C0B29F
:1056000010BD2DE9F04105460F460024DFF8488122
:1056100008EB0500007E002803D1D8F800102846CA
:1056200088474FF0FF3307B34A4E083656F8250037
:10563000B7FBF0F18AB2B7FBF0F100FB117008B1D3
:10564000521C92B2434850F82510491E002920DB15
:1056500008EB8507386930F811C0BCF1000F07D09E
:105660000024944212D100230AE01846BDE8F081DC
:10567000641CA4B2F5E73869CC1820F814205B1C30
:105680009342F8D356F825004843EFE7491E002916
:10569000E1DA1846EAE770B52F4A13181B7E002B93
:1056A00013D02C4B103353F820308B421AD9294B8E
:1056B000083353F82030B1FBF3F102EB800210699C
:1056C00030F811300020002408E0116888470120DC
:1056D00070BD15690E1825F81640401C9842F8DB7D
:1056E000002070BD022070BD002905D01A4A02EBCF
:1056F00080029268891ACEE7704710B504462046AA
:10570000FFF77FFF411C05D0134901EB8401896835
:10571000084410BD002010BD2DE9F0410646884622
:10572000174639463046FFF76CFF0446601C0FD021
:1057300009483A4600EB86054146A8682044FFF731
:105740001FFF41463046FFF7CFFFA86820448DE792
:1057500000208BE75870010860000020F0B58DB084
:1057600004461E230CAA04A9204600F0B7FD0190B0
:1057700010B101200DB0F0BD9DF8300027180026B3
:105780000C963B4C9DF8300054F8201004A800F013
:105790002BFD30B19DF83000401CC1B20C9107299F
:1057A000F0D39DF830000425324C07285CD2DFE8A6
:1057B00000F004043B575E5D5C002FA011F002F87E
:1057C0002EA010F0FFFF3DA010F0FCFF4BA010F04A
:1057D000F9FF5AA010F0F6FF68A010F0F3FF77A0D1
:1057E00010F0F0FF83A010F0EDFF89A010F0EAFFA9
:1057F0008DA010F0E7FF92A010F0E4FF96A010F04B
:10580000E1FF9CA010F0DEFFA1A010F0DBFFAEA036
:1058100010F0D8FFBAA010F0D5FFC6A010F0D2FF4C
:10582000D1A010F0CFFF76E213A010F0CBFFDEA0E6
:1058300010F0C8FF0C960AE0216805EBC00009587B
:10584000E9A010F0BFFF9DF83000401C0C90217DB6
:105850009DF830008142EFD807A010F0B3FF5AE264
:1058600005A010F0AFFFC3E157E230E20BE2E4E144
:105870007C000020D80000200D0A00002D2D2D2DC9
:105880002D2D2D2D2D2D2D2D2D2D2D2D2D2D2D2D48
:105890002D2D2D2D55534D4152542056332E312D43
:1058A0002D2D2D2D2D2D2D2D2D2D2D2D2D2D2D2D28
:1058B0002D2D2D2D2D2D2D200D0A000020202020F6
:1058C00055534D415254CAC7D3C9414C49454E5412
:1058D000454BBFAAB7A2B5C4D2BBB8F6C1E9C7C988
:1058E000B5C4B4AEBFDAB5F7CAD4BBA5BDBBD7E962
:1058F000BCFE2CCDA8B9FD200D0A0000CBFC2CC4A9
:10590000E3BFC9D2D4CDA8B9FDB4AEBFDAD6FACAC6
:10591000D6B5F7D3C3B3CCD0F2C0EFC3E6B5C4C895
:10592000CEBACEBAAFCAFD2CB2A2D6B4D0D02ED247
:10593000F2B4CB2CC4E3BFC90D0A0000D2D4CBE62D
:10594000D2E2B8FCB8C4BAAFCAFDB5C4CAE4C8EB69
:10595000B2CECAFD28D6A7B3D6CAFDD7D6283130D5
:105960002F3136BDF8D6C629A1A2D7D6B7FBB4AE23
:10597000A1A2BAAFCAFDC8EB0D0A0000BFDAB5D8C4
:10598000D6B7B5C8D7F7CEAAB2CECAFD292CB5A5D1
:10599000B8F6BAAFCAFDD7EEB6E0D6A7B3D6313067
:1059A000B8F6CAE4C8EBB2CECAFD2CB2A2D6A7B3F1
:1059B000D6BAAFCAFDB7B5200D0A0000BBD8D6B520
:1059C000CFD4CABE2ED0C2D4F6B2CECAFDCFD4CA6E
:1059D000BEBDF8D6C6C9E8D6C3B9A6C4DC2CD0C2B1
:1059E000D4F6BDF8D6C6D7AABBBBB9A6C4DC2E0D6B
:1059F0000A000000BCBCCAF5D6A7B3D63A777777C1
:105A00002E6F70656E6564762E636F6D0D0A0000F3
:105A100055534D415254D3D037B8F6CFB5CDB3C35B
:105A2000FCC1EE3A0D0A00003F3A20202020202041
:105A3000BBF1C8A1B0EFD6FAD0C5CFA20D0A0000C5
:105A400068656C703A202020BBF1C8A1B0EFD6FA8F
:105A5000D0C5CFA20D0A00006C6973743A202020D3
:105A6000BFC9D3C3B5C4BAAFCAFDC1D0B1ED0D0A29
:105A70000A00000069643A2020202020BFC9D3C357
:105A8000BAAFCAFDB5C44944C1D0B1ED0D0A0A0090
:105A90006865783A20202020B2CECAFD3136BDF8A4
:105AA000D6C6CFD4CABE2CBAF3B8FABFD5B8F12B3C
:105AB000CAFDD7D6BCB4D6B4D0D0BDF8D6C6D7AA06
:105AC000BBBB0D0A0A0000006465633A2020202059
:105AD000B2CECAFD3130BDF8D6C6CFD4CABE2CBABC
