:020000040800F2
:1000000080FA00204D0C0008550A0008570A000825
:100010005B0A00085F0A0008630A0008000000008D
:10002000000000000000000000000000670A000857
:10003000690A0008000000005FBD0108A90C000863
:10004000670C0008670C0008670C0008670C0008C4
:10005000670C0008670C0008670C0008670C0008B4
:10006000670C0008670C0008670C0008670C0008A4
:10007000670C0008670C0008670C0008670C000894
:10008000670C0008670C0008670C0008670C000884
:10009000670C0008670C0008670C0008B71C000814
:1000A000670C0008670C0008670C0008670C000864
:1000B000277B0008670C0008670C0008670C000825
:1000C000670C0008670C0008670C0008670C000844
:1000D000670C0008C3160008E1160008FF160008A8
:1000E000670C0008670C0008670C0008670C000824
:1000F000670C0008670C0008670C0008670C000814
:10010000670C0008670C0008670C0008670C000803
:10011000670C0008670C0008670C0008670C0008F3
:10012000670C0008670C0008670C0008670C0008E3
:1001300000F002F800F074F80AA090E8000C824485
:100140008344AAF10107DA4501D100F069F8AFF262
:10015000090EBAE80F0013F0010F18BFFB1A43F0A5
:1001600001031847E8CA010008CB01000A444FF018
:10017000000C10F8013B13F0070408BF10F8014B06
:100180001D1108BF10F8015B641E05D010F8016B4B
:10019000641E01F8016BF9D113F0080F1EBF10F8AF
:1001A000014BAD1C0C1B09D16D1E58BF01F801CBD2
:1001B000FAD505E014F8016B01F8016B6D1EF9D555
:1001C0009142D6D37047000000230024002500266A
:1001D000103A28BF78C1FBD8520728BF30C148BFAA
:1001E0000B60704764291BF0538675291BF05086FD
:1001F00078291BF0898663291CF02D8173291CF056
:100200003281002070471FB51CF0BEF804000020AA
:1002100000211CF095F9401C60601FBD10B510BD99
:100220001CF058F91146FFF7EEFF00F031FB1CF00F
:1002300076F903B4FFF7F2FF03BC01F06FFA000098
:100240000025002400276AE0FE48007840B93223E8
:100250000022114610461BF05DFC4FF4C86446E0D6
:10026000002F3ED141F27070854202DA681C85B2DF
:1002700000E00025F4480078AA2804D10020F249C3
:1002800008704FF47A74502C03DA601C84B2002694
:1002900027E0B4F5E16F15DA601C84B21E2095FBEF
:1002A000F0F100FB1150E0B9E848007840F0400060
:1002B000E6490870701CC6B222463146E4A01BF025
:1002C0008BFD0EE041F28834C82095FBF0F100FB75
:1002D0001150012805D1DD48007840F04000DB498D
:1002E000087032230022114610461BF013FC01F067
:1002F0007EF8E348007800F0800080280FD10020CD
:10030000DF490870AA27DF481BF066FDCF48007858
:1003100020F04000CD490870DB4802F0CDFC93E7A7
:1003200088B01D200790052006900020059080468B
:1003300004900024322783460390102107F07FF8B1
:1003400005460020D1490870D14908600120D149F3
:10035000C1F89C01CE49083908604FF4FA730222B3
:10036000002108461BF0D6FB02F059FAC748017875
:10037000C9A01BF031FD64230022114610461BF07A
:10038000C9FBD04803F040F964230022114610460F
:100390001BF0C0FB03F057F9CBA01BF01DFD0120A3
:1003A000BB490860091F0860BA49C1F89801CA48EA
:1003B00000780790C94800780690B4480078381A49
:1003C000C7B2142F01DB322F00DD14270A2752E0B9
:1003D000AF48006808B9012000E00020AC4908607F
:1003E000AC48D0F89C0108B9012000E00020A849E1
:1003F000091F0860A748D0F8980108B9012000E05B
:100400000020A349083908603946B5A01BF0E4FC78
:1004100004A803F037F900282BD09DF813000090B2
:100420009DF812309DF811209DF81010AEA01BF021
:10043000D3FC04A802F056F906463146B1A01BF0E1
:10044000CBFC202E15DC04A9304603F053F8B1494B
:1004500088550846805D30B90846825D3146AEA0B9
:100460001BF0BAFC05E0AB48825D3146B1A01BF041
:10047000B3FC781EC7B2002FAAD1002084490860BF
:1004800001208449C1F89C01814908390860C823CA
:100490000022114610461BF03DFB8A4803F0B4F8D9
:1004A000C8230022114610461BF034FB854803F098
:1004B000ABF8AA2063490870A5A01BF08DFC4FF48F
:1004C0008061062002F07AFEB8E102F089FE8249DE
:1004D00009780798884204D18049097806988842AB
:1004E00017D07D4801787D48007803F0B5F8B8F161
:1004F000020F04DC08F1010000F0FF0809E04FF0F2
:100500000008002003907448007807907348007832
:1005100006909A490978059888420FD0694803F0F7
:1005200073F8B8F1020F04DC08F1010000F0FF08D5
:1005300004E04FF00008914800780590202C7BDA09
:10054000611CC8B203F02DFE504800EB0410007887
:1005500000F0030000286FD0AA2028704B4800EB61
:100560000410007800F00300012802D11120687007
:1005700009E0464800EB0410007800F00300022870
:1005800001D113206870414800EB0410C078A870B6
:100590003E4800EB04100079E8703C4800EB041082
:1005A00040792871394800EB041080796871374828
:1005B00000EB0410C079A871344800EB0410007AF5
:1005C000E871324800EB0410407A28722F4800EBA3
:1005D0000410807A68722D4800EB0410C07AA8726B
:1005E0002A4800EB0410007BE872284800EB041056
:1005F000407B2873254800EB0410807B6873AC7344
:10060000224800EB0410C07BE87329465C48006870
:100610001AF06AFB8246BAF1000F03D02946002087
:1006200006F0FDFE194800EB0410407820F00300AE
:10063000164901EB0411487002AA012151480068D3
:10064000A2E0000000000020240000202D02002075
:100650000D0A20BFECB5DDD0C4CCF8B0FCB7A2CBFE
:10066000CDD7B4CCAC2CB7A2CBCDB4CECAFD2532FD
:10067000642CBCC6CAFDD6B5A3BA25642E00000002
:100680000C000020A0C80108A00500207003002075
:10069000A001224200002242C9CFB5E7BCECB2E281
:1006A000466C617368C4DAC2DFBCADB5D8D6B7CDCD
:1006B000EAB3C92120D7DCCFDFA3BA2532642E0DDF
:1006C0000A00000010000020CEB4D7A2B2E1B9E3C6
:1006D000B2A521200D0A00000D0000200E00002010
:1006E0002532642E20000000CEEFC0EDB5D8D6B77D
:1006F000A3BA2530325825303258253032582530AB
:1007000032583B00C2DFBCADB5D8D6B73A25643B02
:1007100000000000700500205665725B25303264D1
:100720005D3D253032582CB7D6C5E4CAA7B0DCA34E
:10073000A10D0A005665725B253032645D3D25309F
:1007400032582CB7D6C5E4B3C9B9A6A3A10D0A0087
:100750000D0AC9CFB5E7BCECB2E2CEB4D7A2B2E184
:10076000B3ACCAB1A3ACBDF8C8EBD5FDB3A3B4FD1F
:10077000BBFAD7B4CCAC3B0D0A0000000F00002040
:100780002C000020280000201AF0E6F981469DF890
:10079000080028B9B9F1000F02D0484603F07CFEEA
:1007A0004946002006F03BFE212C2FDB6DA01BF0FC
:1007B00013FB0024BBF1320F04DA0BF1010000F04F
:1007C000FF0B25E04FF0000B03F078FF00BB322356
:1007D0000022114610461BF09DF9644801786448D8
:1007E000007803F0BCF9C8230022114610461BF024
:1007F00091F9604803F0D8F9C82300221146104649
:100800001BF088F9AA205C49087001E0601CC4B2A2
:100810000398B0F5702F08D9002003905348017851
:100820005348007803F09BF902E00398401C0390C2
:100830000A230022114610461BF06CF945E670B5FC
:10084000044600BF40214D481AF0B2F84C490860F8
:1008500040214C481AF0ACF84B49086018F088FF6A
:100860001BF056FA05460A23484A0021AFF24F50C2
:100870001AF0D6FD0923464A0021AFF23B601AF078
:10088000CFFDFF201BF04CF828461BF045FA70BD49
:1008900008B500F015FA4FF4407003F047FF00F080
:1008A00074FC00F053FF002005230622072100906E
:1008B00002F09AFC3748416848208847002006F03B
:1008C000F8FC35A01BF088FAC1213AA01BF084FA8D
:1008D00001213EA01BF080FA01F0ECFC00BF01F00A
:1008E00079FD0028FBD13EA01BF076FA4FF4FA7098
:1008F00000F037FA18F007FE0AE03EA01BF06CFA91
:100900004FF4FA7000F02DFA4FF4FA7000F029FA63
:1009100007F0BDFF0028F0D13BA01BF05DFA0AE014
:100920003FA01BF059FA4FF4FA7000F01AFA4FF496
:10093000FA7000F016FA08F09CFC0028F0D14FF491
:10094000FA7000F00EFA3CA01BF046FA0C23404A65
:100950000021AFF215101AF063FD18F0F1FE00202F
:1009600008BD00000D0A0D0A000000000D00002067
:100970000E0000201000002024000020C0130020E2
:1009800028000020C01400202C000020BC110020F2
:10099000BC090020E00000205374617274696E6726
:1009A0002055702059434B4A2D4143552E2E2E0D74
:1009B0000A00000056657273696F6E4E6F3A20250B
:1009C0003032582E2E2E0D0A00000000546573742C
:1009D000466C61673A2025642E2E2E0D0A00000019
:1009E000415432344358585F436865636B204F4B22
:1009F000210D0A004C77697020496E697420666188
:100A0000696C6564210D0A004C77697020496E6934
:100A1000742053756363657373210D0A0000000031
:100A200054435020436C69656E74206661696C653F
:100A30006421210D0A00000054435020436C696575
:100A40006E742053756363657373210D0A00000093
:100A5000BC130020704700BFFEE700BFFEE700BFE9
:100A6000FEE700BFFEE77047704700000CB50020AE
:100A7000019000906C48006840F480306A4908603A
:100A800000BF6948006800F4003000900198401CE5
:100A90000190009818B90198B0F5A06FF1D16248A3
:100AA000006800F4003010B10120009001E0002047
:100AB00000900098012843D15C48006840F0100085
:100AC0005A4908600846006820F00300086008469C
:100AD000006840F00200086053484068524948608E
:100AE0000846406848600846406840F480604860B6
:100AF0000846406820F47C1048600846406840F48E
:100B0000E81048600846006840F08070086000BF48
:100B10004548006800F000700028F9D0424840685D
:100B200020F00300404948600846406840F0020059
:100B3000486000BF3C48406800F00C000828F9D12C
:100B40000CBD10B5FFF792FF10BD10B53648006818
:100B500040F00100344908600846406834490840C4
:100B60003149486008460068324908402E4908600B
:100B70000846006820F4802008600846406820F499
:100B8000FE0048604FF41F008860FFF7DAFF4FF067
:100B900000602949086010BD10B500210020002226
:100BA000214B5B6803F00C0121B1042906D0082910
:100BB00028D107E0214B224C236027E01F4B204C1B
:100BC000236023E0184B5B6803F47010164B5B68DE
:100BD00003F48032022303EB904022B9194B4343C4
:100BE000174C23600DE0104B5B6803F4003323B116
:100BF000144B4343124C236003E0104B4343104C0F
:100C0000236003E00D4B0E4C236000BF00BF064B7A
:100C10005B68C3F303130C4CE15C094B1B68CB40CE
:100C2000074C236010BD000000100240002002406D
:100C30000000FFF8FFFFF6FE08ED00E000127A006A
:100C40003000002000093D003400002009488047A2
:100C500009480047FEE7FEE7FEE7FEE7FEE7FEE79E
:100C6000FEE7FEE7FEE7FEE704480549054A064BB6
:100C7000704700004B0B00083101000880F4002091
:100C800080FA002080F6002080F6002010B518F0D1
:100C9000E9FC10BD10B518F02AFD10BD10B50446D2
:100CA00020461AF005FF10BD10B53E480078012817
:100CB00005D118F03EFC18F07AFD18F055FC10BD77
:100CC00010B56FF0040003F080FD37480068374925
:100CD000B0FBF1F036490870334800683349B0FB87
:100CE000F1F441F2883044430520324908804FF046
:100CF000E020006940F002004FF0E0210861084662
:100D00004461006940F00100086110BD2DE9F04721
:100D1000074600264FF0E020D0F8149024480078D1
:100D200007FB00F800BFFFF7B1FF4FF0E020856937
:100D300011E04FF0E0208469AC420CD0AC4202D20A
:100D4000281B064403E0A9EB04002844064425467A
:100D5000464500D300E0ECE700BFFFF79BFFBDE88E
:100D6000F08770B504460F480078A0B112480078AB
:100D700088B910480088844206DB0E48008894FB3E
:100D8000F0F52846FFF78AFF0A48008894FBF0F147
:100D900000FB114084B24FF47A7104FB01F0FFF7BD
:100DA000B5FF70BD4E0300203000002000127A0015
:100DB000440000204600002041030020F74800685E
:100DC00000F4006008B9012070470020FCE7F348F8
:100DD000006800F4806008B9012070470020FCE73B
:100DE000EE48006800F4007008B901207047002048
:100DF000FCE7EA48006800F4807008B901207047F9
:100E00000020FCE7E648006800F4006008B9012013
:100E100070470020FCE7E248006800F4806008B9F1
:100E2000012070470020FCE7DD48006800F40070F6
:100E300008B9012070470020FCE7D948006800F499
:100E4000807008B9012070470020FCE708B5012137
:100E5000602004F0FBFA03208DF8020048208DF892
:100E600003004FF47060ADF800006946CB480838C5
:100E700004F030F84FF47060ADF800006946C848DF
:100E8000083804F027F808BD10B50024FFF796FFD6
:100E9000012802D144F0010401E024F00104FFF72D
:100EA00096FF012802D144F0020401E024F002047C
:100EB000FFF796FF012802D144F0040401E024F07A
:100EC0000404FFF796FF012802D144F0080401E072
:100ED00024F00804FFF796FF012802D144F0100423
:100EE00001E024F01004FFF796FF012802D144F03E
:100EF000200401E024F02004FFF796FF012802D12E
:100F000044F0400401E024F04004FFF796FF01287C
:100F100002D144F0800401E024F08004204610BD9A
:100F200008B525208DF8000000208DF80200012072
:100F30008DF80300684603F0FEFB26208DF80000C4
:100F400001208DF802008DF80300684603F0F3FBE2
:100F500027208DF8000002208DF8020001208DF876
:100F60000300684603F0E7FB08BD00B585B001212A
:100F7000052004F06BFA0121880304F067FA4FF4AE
:100F80000070ADF8100018208DF8130003208DF8C4
:100F9000120004A9834803F09DFF4FF48060ADF870
:100FA000100004208DF8130004A97E4803F092FF7E
:100FB0004FF4E13000900020ADF80400ADF80600D9
:100FC000ADF80800ADF80C000C20ADF80A00694639
:100FD000754805F0F0F9012240F22551724805F0FC
:100FE00082FA0121704805F072FA40216E4805F03E
:100FF00056FB0121052004F029FA0121480404F0E0
:1010000032FA0420ADF8100018208DF813000320E8
:101010008DF8120004A9634803F05CFF0820ADF8C6
:10102000100004208DF8130004A95E4803F052FF5D
:1010300004A95C4803F04EFF4FF4166000900020B6
:10104000ADF80400ADF80600ADF80800ADF80C00EE
:101050000C20ADF80A006946544805F0ACF90122AD
:1010600040F22551514805F03EFA01214F4805F064
:101070002EFA40214D4805F012FB0121092004F011
:10108000E5F90121880404F0EEF94FF48060ADF831
:10109000100018208DF8130003208DF8120004A909
:1010A000434803F017FF4FF40060ADF81000042030
:1010B0008DF8130004A93E4803F00CFF04A93C4836
:1010C00003F008FF4FF4E13000900020ADF8040079
:1010D000ADF80600ADF80800ADF80C000C20ADF836
:1010E0000A006946334805F066F9012240F22551AD
:1010F000304805F0F8F901212E4805F0E8F94021C3
:101100002C4805F0CCFA05B000BD27482A490860F4
:101110002A4848602A4888604FF480608881C881E6
:10112000002008824882C882088348838882C86178
:10113000086248621D4823490860234848602348E4
:1011400088604FF480608881C881002008824882CE
:10115000C882088348838882C8610862486215484B
:101160001B4908601B4848601B4888604FF480603A
:101170008881C881002008824882C8820883488309
:101180008882C86108624862704710B5FFF7BDFFEA
:10119000FFF7EBFEFFF7C4FE10BD0000081401408E
:1011A0000818014000080140003801400044004098
:1011B000000C014000480040DC150020041600200F
:1011C000041A0020041E00202C1E00202C220020C7
:1011D0002C26002054260020542A0020014609B95C
:1011E000FE487047012901D1FD48FAE7022901D1E3
:1011F000FC48F6E7032901D10020F2E7042901D1D8
:101200000020EEE70020ECE72DE9F04704460E460B
:1012100017464FF00008002527E00CE01AF078FD93
:101220008046B4F8149040461AF076FDA0894845EF
:1012300000DD01E000BFF1E700BF705D228A616858
:1012400088541AF065FD8046208A401C80B22082B6
:10125000A189884201DB00202082A08A401CA08254
:1012600040461AF059FD681C85B2BD42D5DB01220B
:1012700040F22771206805F036F9BDE8F0872DE9C6
:10128000F04105460E4617462846FFF7A7FF0446DD
:101290000CB9BDE8F081E06908B1E06980473A46E1
:1012A00031462046FFF7B0FF00BFF2E713B5044612
:1012B000012201A92046FFF7E2FF1CBD2DE9F04104
:1012C00004460D4600271AF023FD0746668B384674
:1012D0001AF022FD16B90020BDE8F081218BA0682C
:1012E000405C28701AF014FD0746208B401C80B229
:1012F0002083E189884201DB00202083608B401E2F
:10130000608338461AF008FD0120E5E770B5054610
:101310000E462846FFF762FF04460CB9002070BD58
:1013200031462046FFF7CAFFF9E7F8B50546002623
:101330005AE069460120FFF7E9FF002852D0AA4889
:10134000007800F0800000284CD19DF80000A749EB
:10135000A54A12788854A4480078401CA249087015
:1013600008460078102801DD002008709E480078AB
:10137000401E9E49085CF3280DD19B480078032845
:1013800009DAF32198480078401E984A1154012048
:101390009549087026E09548407893490978884235
:1013A00020DC35B99048007840F080008E49087004
:1013B00018E08D480078401EC1B28C4800F034FE21
:1013C000044689480078401E8849085CA04206D13E
:1013D0008548007840F080008349087002E00020D2
:1013E00081490870701C86B2102EA2DBF8BD38B59A
:1013F00069460220FFF78AFF00284AD07C4800781F
:1014000000F08000002844D19DF800007949784A16
:101410001278885476480078401C75490870084650
:101420000078202801DD0020087071480078401EF7
:101430007049085CF3280DD16D480078032809DA5B
:10144000F3216B480078401E6A4A11540120684914
:1014500008701EE06748407865490978884218DCC2
:1014600063480078401EC1B2624800F0DDFD0446CA
:101470005F480078401E5F49085CA04206D15C4886
:10148000007840F080005A49087002E00020584976
:10149000087038BD00B503461846FFF79FFE0246A8
:1014A00002B900BD002010825082908200BFF8E790
:1014B00000B503461846FFF791FE024602B900BD8B
:1014C0000020D0821083508300BFF8E71FB5044688
:1014D00000940020ADF80400ADF80600ADF8080057
:1014E000ADF80C000C20ADF80A006946424804F043
:1014F00062FF1FBD1FB5044600940020ADF8040034
:10150000ADF80600ADF80800ADF80C000C20ADF801
:101510000A006946384804F04EFF1FBD08B5012196
:10152000102003F093FF03208DF8020010208DF8A7
:1015300003000002ADF800006946304803F0CAFC21
:101540004FF480502D49086108BD1FB50446009432
:101550000020ADF80400ADF80600ADF80800ADF8C5
:101560000C000C20ADF80A006946254804F023FF62
:101570001FBD4FF480502149486170474FF480509F
:101580001E490861704770B504460D462A4621463B
:101590000320FFF774FE70BD70B5044620461AF0B4
:1015A000CFFD85B229462046FFF7EDFF70BD70479D
:1015B000704770B5044640F22551206805F078F870
:1015C00088B3206804F0F4FFC5B2E18AA0684554EE
:1015D000E08A401C80B2E082E18913E0DC15002043
:1015E000041E00202C26002048000020C0150020EA
:1015F0000C000020A0050020004400400010014025
:10160000004C0040884201DB0020E082608BE189D1
:10161000884202DA608B401C6083606A10B1284601
:10162000616A884700BF40F22771206805F040F8E2
:1016300008B3A08A60B9002240F22771206804F044
:1016400052FF012240F22661206804F04CFF37E08F
:10165000638A6268D15C206804F0A6FF608A401C3F
:1016600080B26082A189884201DB00206082A08A6A
:10167000401EA08224E040F22661206805F018F8A0
:10168000F0B1A08A50B9002240F22661206804F02F
:101690002AFF206AA0B1206A804711E0638A62684D
:1016A000D15C206804F080FF608A401C80B26082B8
:1016B000A189884201DB00206082A08A401EA082AE
:1016C00070BD10B51AF024FB044617F032FF204617
:1016D0001AF022FB1948FFF76CFF17F045FF10BD09
:1016E00010B51AF015FB044617F023FF20461AF038
:1016F00013FB1348FFF75DFF17F036FF10BD10B561
:101700001AF006FB044617F014FF20461AF004FBFB
:101710000C48FFF74EFF17F027FF10BD014600BF32
:10172000704700BF084A128802F04002002AF9D030
:10173000C2B2054B1B1D1A8070470000DC1500204B
:10174000041E00202C2600200038014008B501218D
:10175000102003F07BFE4FF4E070ADF80000102085
:101760008DF8030003208DF802006946084803F055
:10177000B1FB4021064803F05AFC8021044803F0E5
:1017800056FC4FF48071024803F051FC08BD000084
:1017900000100140FC4A10804FF0C842A2F800112E
:1017A00070470146F84801804FF0C840B0F800018A
:1017B000704770B5044644F040010C20FFF7EAFF83
:1017C0000C210B20FFF7E6FF0A20FFF7CAFA0021E1
:1017D0000B20FFF7DFFF0D20FFF7E3FF02460E208F
:1017E000FFF7DFFF42EA002085B2284670BD70B5E2
:1017F0000024E6480078082811D108E06420FFF7AB
:10180000B0FA601CC4B2642C01DDFF2070BD012061
:10181000FFF7CFFF00F020000028EFD010E008E035
:101820006420FFF79EFA601CC4B2642C01DDFF2027
:10183000ECE70120FFF7B5FF00F040000028EFD0F3
:101840000120FFF7AEFF022101EAA0150020FFF7FB
:10185000A8FFC0F3C00005432846D7E710B50446EB
:10186000002306E0E15C03F11600FFF793FF581C2C
:10187000C3B2082BF6DB10BD10B50446002306E00A
:10188000E15C03F11000FFF785FF581CC3B2062B83
:10189000F6DB10BD70B505460C4645F040010C2046
:1018A000FFF778FFE1B20D20FFF774FF210A0E2049
:1018B000FFF770FF0A210B20FFF76CFF3220FFF7C4
:1018C00050FA00210B20FFF765FF70BD70B506468A
:1018D000092E1BD2DFE806F0050C1A1A08101A1A96
:1018E00015000024212511E04FF4807441250DE0FE
:1018F0004FF40054812509E04FF4045440F20115DF
:1019000004E04FF4805440F2E11500BF00BF2146CF
:101910000020FFF7BFFF29460420FFF7BBFF00218F
:101920001F20FFF737FF70BD00B52820FFF739FFF4
:1019300002462920FFF735FF42EA00222A20FFF75E
:1019400030FF42EA00422B20FFF72BFF42EA006201
:10195000104600BD10B500208D4908600A20FFF731
:1019600000FA01208B49C1F89C016420FFF7F9F9C6
:1019700001211E20FFF70EFF00211F20FFF70AFFA5
:1019800003210020FFF706FF00BF1920FFF7E9F948
:101990000020FFF706FF00F001000028F5D100212C
:1019A0000846FFF7F7FE03210020FFF7F3FE00BF14
:1019B0001920FFF7D6F90020FFF7F3FE00F0010031
:1019C0000028F5D110BD10B59AB001214FF4F07088
:1019D00003F03CFD0121080203F02BFD0121084624
:1019E00003F034FD8020ADF8640003208DF866001C
:1019F00010208DF8670019A9674803F06BFA4020A2
:101A0000ADF8640048208DF8670019A9634803F019
:101A100061FA4CF23370ADF8640003208DF8660073
:101A200018208DF8670019A95B4803F053FA4FF6A8
:101A30008070ADF8640003208DF8660018208DF8E2
:101A4000670019A9564803F045FA4FF40050ADF865
:101A5000640003208DF8660018208DF8670019A92E
:101A6000504803F037FA4FF40070ADF864000320DB
:101A70008DF8660018208DF8670019A9474803F013
:101A800029FA0621084603F03BFB4020179000206E
:101A90008DF860000C208DF8610001208DF8620047
:101AA00017A804F057FE402004F0CBFE17208DF855
:101AB000580001208DF8590000208DF85A000120AF
:101AC0008DF85B0016A802F036FE00200090019011
:101AD00003200290002003900490059006900220BD
:101AE000079000200890099010200A9000200B9089
:101AF0000C900D900E900F904FF48050109000209D
:101B0000119012901390CDF850D0CDF854D007A872
:101B100002F0C6FE0121022003F02AF822480468E0
:101B200008201A490870002048808120487002204F
:101B30000871002115484171200E14498871210C4B
:101B40001248C171210A01724472FF200F49887244
:101B5000FF210E48C172017341738173C173017417
:101B60004174FFF7F7FE6420FFF7FBF8FFF7DCFE98
:101B7000044621460DA01AF02FF9104884421FD0C8
:101B800001201AB010BD0000FE000064542E002099
:101B90009C8122420080224200140140002001402A
:101BA00000180140001C0140E8F7FF1F444D393088
:101BB00030302049443A2523780D0A00460A009027
:101BC000CC490878FFF782FE00210846FFF7E2FDC6
:101BD00000210220FFF7DEFD3F210820FFF7DAFD9C
:101BE00038210920FFF7D6FD00210A20FFF7D2FD9A
:101BF00000212F20FFF7CEFD2C210120FFF7CAFD89
:101C00000F21FE20FFF7C6FD80212D20FFF7C2FD2A
:101C1000B848001DFFF730FEB6480A30FFF71EFE39
:101C200031210520FFF7B6FD8021FF20FFF7B2FD2F
:101C3000FFF7DDFD0446FF2C11D004F0010008B1D0
:101C4000ADA000E0AEA0024604F0020008B10A20F8
:101C500000E064200146ACA01AF0BEF802E0B5A096
:101C60001AF0BAF8A3484178FF20FFF793FD00204F
:101C70001AB010BD70B5B7480588FE20FFF791FD7A
:101C800004462146FE20FFF785FD04F0040010B154
:101C9000B1A01AF0A1F804F0080010B1B1A01AF038
:101CA0009BF804F0010018B1B648006819F0A1FAD9
:101CB000A848058070BD10B517F03BFC4020B24924
:101CC000086001E0FFF7D6FFB04800680028F9D0AF
:101CD00017F04AFC10BD2DE9FC4104460027002600
:101CE0006A460021AA48006818F07BFC8021FF208A
:101CF000FFF750FDF8209749088025461BE06889CA
:101D0000B84216DD3846791C8FB26A68125C3046DC
:101D1000711CCEB201A90A54022E0CD19DF8040008
:101D20009DF8051040EA01208A49891C0880002698
:101D300001E02D680027002DE1D1012E04D19DF88E
:101D400004008449891C0880217AFC20FFF722FDC9
:101D50002089010AFD20FFF71DFD01210220FFF768
:101D600019FD00BFFE20FFF71CFD00F00200002857
:101D7000F8D00221FE20FFF70DFD5E484178FF20DC
:101D8000FFF708FD8248006818F04DFDBDE8FC81B2
:101D90002DE9FF4100246A4600217D48006818F0C3
:101DA00020FC00BFF020FFF7FCFC6A48801C008884
:101DB00000F0FF08B8F1000F78D0B8F1010F0ED98C
:101DC00074A01AF009F800210520FFF7E3FC802138
:101DD000FE20FFF7DFFC204604B0BDE8F081F220D2
:101DE0005C4908804FF0C840B0F800010390881C9F
:101DF000008802900322BDF8081010460CF050FB3A
:101E000004468CB125460CE06F686E8906E04FF001
:101E1000C840B0F800013880BF1CB61E002EF6DCAA
:101E20002D68002DF0D110E0BDF8081062A019F067
:101E3000D3FF01AFBDF8086005E04FF0C840B0F82F
:101E400000013880B61E002EF7D1BDF80C0000F45A
:101E50003F4040B9BDF80800402804DBBDF8080049
:101E6000B0F5C06F3FDDBDF80C1059A019F0B4FFFC
:101E7000BDF80C0000F4807010B159A019F0ACFF4F
:101E8000BDF80C0000F4007010B159A019F0A4FFC7
:101E9000BDF80C0000F4004010B159A019F09CFFEF
:101EA000BDF80800B0F5C06F0BDD00E00FE059A0F1
:101EB00019F092FF01210020FFF76CFC0520FEF7CE
:101EC00050FF14B120460CF063FA00246AE70221A7
:101ED000FE20FFF75FFC81200649487008464178E4
:101EE000FF20FFF757FC2A48006818F09CFC2046AA
:101EF00072E70000542E002046756C6C0000000054
:101F000048616C6600000000444D39303030205389
:101F1000706565643A25644D6270732C4475706C0D
:101F200065783A2573206475706C6578206D6F64F0
:101F3000650D0A00444D39303030204573746162BC
:101F40006C697368204C696E6B204661696C6564CE
:101F5000210D0A00FE0000646F766572666C6F7773
:101F6000200D0A006F766572666C6F7720636F755F
:101F70006E746572206F766572666C6F77200D0ADD
:101F800000000000E0010020140401401801244278
:101F9000E4010020646D393030302072783A2072CC
:101FA00078206572726F722C2073746F7020646574
:101FB000766963650D0A000070627566C4DAB4E67E
:101FC000C9EAC7EBCAA7B0DC3A25640D0A000000D5
:101FD00072785F7374617475733A2523780D0A0003
:101FE0007278206669666F206572726F720D0A00E2
:101FF000727820637263206572726F720D0A00003E
:102000007278206C656E677468206572726F720DED
:102010000A0000007278206C656E67746820746F27
:102020006F206269670D0A0010B50246002006E0C5
:1020300013784340034CE05C521C4B1ED9B200297C
:10204000F6DC10BD6CC5010808B50121082003F0BD
:10205000FDF9C020ADF8000010208DF8030003202A
:102060008DF802006946904802F034FFC0218E4886
:1020700002F0DDFF08BD10B58B48006820F070400D
:10208000894908600846006840F040500860012017
:10209000864908608649C1F898010420FEF736FE9B
:1020A0000020824908600420FEF730FE00208049AD
:1020B000C1F8980110BD10B57B48006820F0704051
:1020C000794908600846006840F0405008600020E8
:1020D0007649091F08607649C1F89C010420FEF783
:1020E00015FE01207149091F08607149C1F89C0162
:1020F0000420FEF70BFE10BD10B500246A480068EE
:1021000020F07040684908600846006840F00040D0
:102110000860012065490860FEF7F8FD0120644968
:10212000C1F89801FEF7F2FD07E0601CC4B2FA2C7A
:1021300003DDFFF7C0FF012010BD5C488038006858
:102140000028F2D15949091F086000BFF4E710B513
:1021500000205649091F08605348006820F070406D
:10216000514908600846006840F04050086000206F
:102170004F49C1F89C010220FEF7C8FD01204B49E0
:10218000091F08600220FEF7C1FD00204849C1F880
:10219000980110BD10B500204449091F086042484D
:1021A000006820F07040404908600846006840F030
:1021B0004050086001203E49C1F89C010220FEF712
:1021C000A5FD01203949091F08600220FEF79EFD88
:1021D00000203749C1F8980110BD70B50446324857
:1021E000006820F07040304908600846006840F000
:1021F0004050086000202D49091F086000251DE09F
:10220000E00918B101202949086002E000202749AF
:1022100008606006040E0220FEF778FD01202349C5
:10222000091F08600220FEF771FD00202049C1F857
:1022300098010220FEF76AFD681CC5B2082DDFDB9D
:1022400070BD70B5054600241748006820F0704046
:10225000154908600846006840F000400860002604
:1022600017E000201149091F08600220FEF74EFD0B
:1022700001200F49C1F898016006040E0B48803810
:10228000006808B1601CC4B20120FEF73FFD701C5D
:10229000C6B2082EE5DB15B9FFF77CFF01E0FFF7BA
:1022A00056FF204670BD0000000C01409C81214279
:1022B0000080214210B5FFF7C7FE10BD70B504467F
:1022C0000026FFF7D8FE2546E11704EB116109123D
:1022D000A02202EB4101C8B2FFF77FFFFFF70CFF1E
:1022E000E11704EB11610912A4EB0121C8B2FFF759
:1022F00074FFFFF701FFFFF7BEFEA120FFF76DFFA0
:10230000FFF7FAFE0020FFF79CFF0646FFF7D3FE1B
:10231000304670BD70B504460E46FFF7ACFE25464C
:10232000E11704EB11610912A02202EB4101C8B2CE
:10233000FFF753FFFFF7E0FEE11704EB116109120D
:10234000A4EB0121C8B2FFF748FFFFF7D5FE3046E6
:10235000FFF743FFFFF7D0FEFFF7ADFE0A20FEF7C1
:1023600000FD70BD2DE9F04105460E4617460024DC
:1023700009E0E20026FA02F2D1B22A1990B2FFF780
:10238000C9FF601CC4B2BC42F3DBBDE8F0812DE99B
:10239000F04107460C460026002509E036023919AF
:1023A000491B491E88B2FFF789FF0644681CC5B265
:1023B000A542F3DB3046BDE8F08110B5002405E00E
:1023C00000212046FFF7A6FF601C84B2B4F5806FA1
:1023D000F6DB10BD30B58DB06CA103C9CDE90B01A2
:1023E0006CA000680A906CA00068099044F6206513
:1023F0006AA30FCB05AC0FC46C4800F0CAFA6B4857
:1024000080796A494979694A1279684BDB78CDE964
:102410000032CDE90210654883784278017864A0E3
:1024200019F0DAFC6E4800F0DBFA6D48C0780090D5
:102430006B488378427801786AA019F0CDFC00F0EF
:10244000EAFA70490880084601886FA019F0C4FCB8
:10245000734800F007FB7248C0780090704883789A
:10246000427801786FA019F0B7FC784800F016FBAD
:1024700077A019F0B1FC7548C17982794079734B26
:102480001B79CDE90130CDE903217048C078009077
:102490006E4883784278017872A019F09DFC6B48F1
:1024A000C17B807B694A527B684B1B7BCDE9013243
:1024B000CDE903016548C07A00906448837A427A86
:1024C000017A6FA019F088FC744800F07BFB734818
:1024D0000078AA2809D172A019F07EFC744800F097
:1024E00079FB744800F0E0FB02E073A019F074FC83
:1024F000FF20FFF7E3FE0446552C02D100200DB06B
:1025000030BDFFF75AFF70A019F066FC0BA800F071
:1025100048FA09A800F06CFA284600F08BFA0AA8DD
:1025200000F0A8FA05A800F0C1FA5521FF20FFF736
:10253000F1FEFF20FFF7C2FE0446552C01D100201A
:10254000DDE70120DBE770B506460C46154608E0DE
:102550003046721C96B2FFF7B1FE04F8010B681EFC
:1025600085B2002DF4D170BD70B505460C461646F7
:1025700006E021782846FFF7CDFE681C85B2641C72
:10258000301EA6F101018EB2F3D170BDFFFFFFFF37
:10259000FFFF0100202001017B39961931303030D6
:1025A0003030302D62373631633262301000002017
:1025B000524649445F4B65793A25303258253032CE
:1025C000582530325825303258253032582530328F
:1025D000582EBEF8B6D4BFE9BAC53A25640D0A0034
:1025E000010000204950B5D8D6B72D2D2D2D2D2D09
:1025F0002D2D2D2D2D2D25642E25642E25642E2583
:10260000640D0A0006000020B6CBBFDABAC52D2D36
:102610002D2D2D2D2D2D2D2D2D2D2535640D0A0023
:1026200008000020C7F8D3F2BFD8D6C6C6F7534E6D
:102630002D2D2D2D2D2D2530325825303258253079
:102640003258253032580D0A000000009005002055
:10265000C7F8D3F2BFD8D6C6C6F7CDA8D0C5C2EB4F
:102660002D2D000025325825325825325825325854
:10267000253258253258253258253258000000009E
:1026800025325825325825325825325825325825BA
:1026900032582532582532580D0A00001700002004
:1026A000BEB2CCAC49502D2D2DBFAAC6F40D0A00E8
:1026B0001C00002020000020BEB2CCAC49502D2DC3
:1026C0002DBDFBD3C30D0A00415432344358585F2B
:1026D00044656C6574655F616C6C44617428292184
:1026E0000D0A00002DE9FC410546002000900190F4
:1026F000012428E004EB840000F10A063046FFF7CD
:10270000DDFD0746A7421CD1711C88B20422694630
:10271000FFF719FFE8789DF80310884211D1A878D7
:102720009DF8021088420CD128789DF8001088424C
:1027300007D168789DF80110884202D12046BDE893
:10274000FC81601CC4B2212CD4DB01242FE004EBFB
:10275000840000F10A063046FFF7B0FD0746A742A5
:1027600023D021463046FFF7D5FD2978721C90B260
:10277000FFF7D0FD6978B21C90B2FFF7CBFDA978C6
:10278000F21C90B2FFF7C6FDE978321D90B2FFF758
:10279000C1FD0120FFF792FD804608F10100C1B2A2
:1027A0000120FFF7B7FD2046C9E7601CC4B2212C09
:1027B000CDDBF320C3E77CB50546002000900190F7
:1027C000012419E004EB840101F10A00FFF776FD12
:1027D000A8420FD104EB84010A3141F00100042228
:1027E0006946FFF7C1FE04EB840101F10A000021F4
:1027F000FFF790FD601CC4B2212CE3DB0020F949F7
:1028000001EB051108700120FFF758FD0646701E08
:10281000C1B20120FFF77EFD701EC0B27CBD30B595
:1028200085B00020039004900124ADE004EB840007
:1028300000F10A052846FFF741FDA04225D1691C99
:1028400088B2042203A9FFF77EFE9DF80F009DF8D1
:102850000E109DF80D20CDE9002102909DF80C305E
:1028600022462946E0A019F0B7FA9DF80C0068B995
:102870009DF80F0050B92146E8A019F0ADFA2046A6
:10288000FFF799FF0020EF49085575E003A920469E
:1028900000F030FEEB4908550846005D60B3D148B2
:1028A0000078401CCF490870084600EB04100078FF
:1028B00040F0800001EB041108709DF80C00C9493C
:1028C00001EB0411C8709DF80D00C64901EB04111D
:1028D00008719DF80E00C34901EB041148719DF881
:1028E0000F00C04901EB04118871D648025D2146F2
:1028F000D5A019F071FA3FE0D8A019F06DFA03A93C
:10290000204600F0F7FDCF4908550846005D60B34A
:10291000B4480078401CB3490870084600EB041026
:10292000007840F0800001EB041108709DF80C0065
:10293000AC4901EB0411C8709DF80D00A94901EBE9
:10294000041108719DF80E00A64901EB04114871AD
:102950009DF80F00A34901EB04118871B948025D8D
:102960002146C2A019F038FA06E02146C6A019F0A7
:1029700033FA2046FFF71FFF0523002211461046B9
:1029800019F0C8F8601CC4B2212CFFF64FAF05B097
:1029900030BD10B5044607222146E620FFF7D3FDDF
:1029A00010BD10B504462178E620FFF7B3FC61782E
:1029B000E720FFF7AFFCA178E820FFF7ABFCE17858
:1029C000E920FFF7A7FC2179EA20FFF7A3FC617952
:1029D000EB20FFF79FFCA179EC20FFF79BFC10BDDB
:1029E00010B5044604222146C820FFF7ACFD10BDF7
:1029F00010B504462178C820FFF78CFC6178C92007
:102A0000FFF788FCA178CA20FFF784FCE178CB208F
:102A1000FFF780FC10BD08B5002000900222694637
:102A2000CC20FFF790FD9DF801009DF8001040EAD2
:102A3000012008BD70B50446CC262546E01704EBFE
:102A40001060C0F307213046FFF764FC2546E0170D
:102A500004EB10600012A4EB0020C1B2701CFFF761
:102A600059FC70BD10B5044604222146CE20FFF764
:102A70006AFD10BD70B50446CE2521782846FFF7C3
:102A800049FC6178681CFFF745FCA178A81CFFF79A
:102A900041FCE178E81CFFF73DFC70BD10B5044631
:102AA00010222146D220FFF74EFD10BD70B504461E
:102AB000D22521782846FFF72DFC6178681CFFF7A6
:102AC00029FCA178A81CFFF725FCE178E81CFFF79A
:102AD00021FC2179281DFFF71DFC6179681DFFF796
:102AE00019FCA179A81DFFF715FCE179E81DFFF796
:102AF00011FC217A05F10800FFF70CFC617A05F161
:102B00000900FFF707FCA17A05F10A00FFF702FCB4
:102B1000E17A05F10B00FFF7FDFB217B05F10C00CD
:102B2000FFF7F8FB617B05F10D00FFF7F3FBA17BDD
:102B300005F10E00FFF7EEFBE17B05F10F00FFF75B
:102B4000E9FB70BD70B50446EF2521782846FFF7F4
:102B5000E1FB6178681CFFF7DDFBA178A81CFFF79B
:102B6000D9FBE178E81CFFF7D5FB2179281DFFF799
:102B7000D1FB70BD70B50446F42521782846FFF7D7
:102B8000C9FB6178681CFFF7C5FBA178A81CFFF79B
:102B9000C1FBE178E81CFFF7BDFB70BD70B50446D2
:102BA000F82521782846FFF7B5FB6178681CFFF708
:102BB000B1FBA178A81CFFF7ADFBE178E81CFFF79B
:102BC000A9FB70BD10B5044605222146EF20FFF792
:102BD000BAFC10BD10B5044604222146F420FFF7CC
:102BE000B2FC10BD700300202B2BC6F0CABC3A25E6
:102BF0003033643B20C2DFBCAD3A253032643B2029
:102C0000CEEFC0EDA3BA25303258253032582530EA
:102C10003258253032583B20000000000D0ACEEF1C
:102C2000C0EDB5D8D6B7B2BBC4DCCEAA3078303050
:102C3000A3A1C7E5C2DFBCADB5D8D6B73A25643B82
:102C40000D0A0000700500205665725B2530326465
:102C50005D3D253032580D0A000000000D0AB7D640
:102C6000C5E4CAA7B0DCA3A1202000005665725BB2
:102C7000253032645D3D253032582CB7D6C5E4B3DB
:102C8000C9B9A6A3A10D0A00B6FEB4CEB7D6C5E455
:102C9000CAA7B0DCA3A1C7E5C2DFBCADB5D8D6B723
:102CA0003A25643B0D0A000010B504460422214673
:102CB000F820FFF748FC10BD70B59AB00446142107
:102CC00015A819F0F5FA142110A819F0F1FA00204E
:102CD0000E900F900D9009900A900B900C9000268A
:102CE0000025F4208DF8540060788DF85500A07808
:102CF000401CC0B28DF85600A07810287BD008DCAC
:102D00000A2879D2DFE800F0780E7822787B789B69
:102D100078AC122871D0C32846D0C5286ED0C928F7
:102D20006AD12DE1C1208DF85700E64800788DF872
:102D30005800E44840788DF85900E24880788DF8D2
:102D40005A00E048C0788DF85B00A7E1E0788DF884
:102D5000570020798DF8580060798DF85900A079D6
:102D60008DF85A00E0798DF85B00207A8DF85C00D0
:102D70009DF857008DF840009DF858008DF84100EF
:102D80009DF859008DF842009DF85A008DF84300D7
:102D900010A8FFF72DFE9DF85C109DF85B2041EA1E
:102DA0000220FFF747FE79E10DA8FFF719FEFFF7B4
:102DB00032FE06469DF834008DF857009DF8350028
:102DC0008DF858009DF836008DF859009DF83700B1
:102DD0008DF85A003046F11706EB1161090A8DF89B
:102DE0005B10F11706EB11610912A6EB0121C9B2C4
:102DF0008DF85C1052E101E14FE12BE110E000257C
:102E000008E0E81C215C15AA1154205C10A9485563
:102E1000681CC5B2102DF4DB10A8FFF747FE3DE19A
:102E200009A8FFF73BFE002506E009A8415DE81C64
:102E300015AA1154681CC5B2102DF6DB2EE1002531
:102E400008E0E81C215C15AA1154205C10A9485523
:102E5000681CC5B2042DF4DB10A8FFF70BFE1DE1C2
:102E6000E078994908702079487060798870A07975
:102E7000C870E0790871207A94490870607A4870C7
:102E8000A07A8870E07AC870207B91490870607BD6
:102E90004870A07B8870E07BC8708B48FFF752FEBB
:102EA0008A48FFF767FE8A48FFF778FE8648FFF7F3
:102EB00089FE8648FFF78EFE8548FFF7F5FE8248BB
:102EC00000788DF85700804840788DF858007E488B
:102ED00080788DF859007C48C0788DF85A007A487F
:102EE00000798DF85B00794800788DF85C007748B0
:102EF00040788DF85D00754880788DF85E007348E5
:102F0000C0788DF85F00724800788DF860007048D6
:102F100040788DF861006E4880788DF862006C48CA
:102F2000C0788DF863006BA018F056FF66480078F3
:102F3000AA2803D16FA018F04FFF02E071A018F08B
:102F40004BFF6148007900905F48C37882784178F0
:102F500070A018F041FF5D48C07800905B4883780E
:102F60004278017873A018F037FF5948C078009074
:102F7000574883784278017876A018F02DFF8DE0CD
:102F800007A8FFF71FFE06A8FFF724FE05A8FFF716
:102F90008BFE9DF81C008DF857009DF81D008DF8E4
:102FA00058009DF81E008DF859009DF81F008DF8FF
:102FB0005A009DF820008DF85B009DF818008DF8F0
:102FC0005C009DF819008DF85D009DF81A008DF8E1
:102FD0005E009DF81B008DF85F009DF814008DF8D1
:102FE00060009DF815008DF861009DF816008DF8C1
:102FF00062009DF817008DF863004FE0E0785D49AE
:1030000008702079487060798870A079C870E0797C
:103010000871207A4871A07A887107215548FFF716
:1030200003F8554908705348FFF7BBFC51488079B5
:10303000504949794F4A12794E4BDB78CDE900323D
:10304000CDE902104B488378427801784BA018F004
:10305000C3FE00BF0EA8FFF79CFC9DF838008DF85A
:1030600057009DF839008DF858009DF83A008DF80A
:1030700059009DF83B008DF85A009DF83C008DF8F2
:103080005B009DF83D008DF85C00607A8DF85D0076
:103090009DF83E008DF85E0000E000BF00BF9DF887
:1030A0005500401EC1B215A8FEF7BEFF6178491E4B
:1030B00015AA50549DF8552015A90220FEF7DFF8F7
:1030C0001AB070BD08000020170000201C0000206E
:1030D000200000202D2D2D2D2D2D2D2D2DBDD3CAC1
:1030E000D5B5BDB4AEBFDA2D2D2D2D2D2D2D2D2D09
:1030F0000D0A0000BEB2CCAC49502D2D2DBFAAC682
:10310000F40D0A00BEB2CCAC49502D2D2DBDFBD321
:10311000C30D0A00BEB2CCAC4950B5D8D6B72E2EDE
:103120002E2E2E2E25642E25642E25642E25640D2C
:103130000A000000D7D3CDF8D1DAC2EB2E2E2E2E06
:103140002E2E2E2E25642E25642E25642E25640D0C
:103150000A000000C4ACC8CFCDF8B9D82E2E2E2E50
:103160002E2E2E2E25642E25642E25642E25640DEC
:103170000A000000100000200F0000202D2D2D2D32
:103180002D2D2D2D2DBDD3CAD5B5BDB4AEBFDA20A2
:10319000524649445F4B65792025325825325825DF
:1031A00032582532582532582532582CBFE9B5D827
:1031B000D6B7A3BA25640D0A0000000070B5054615
:1031C0000C4645F2555003F045FB284603F045FBFD
:1031D000204603F045FB03F046FB03F049FB70BDBE
:1031E00010B503F040FB10BD2DE9F04188B0044656
:1031F0000D4616461F46DDF838800121042002F0F6
:1032000025F90121480602F02EF94FF48050ADF85F
:103210001C0003208DF81E0018208DF81F0007A940
:10322000B14801F057FE4FF40060ADF81C00482093
:103230008DF81F0007A9AC4801F04CFE00208DF866
:1032400016008DF817008DF8180001208DF8190070
:1032500000208DF81A008DF81B008DF812808DF873
:1032600013408DF814608DF81550ADF8107004A956
:103270009E4803F028FB00208DF80A008DF80B0013
:1032800001208DF80C000020ADF80000ADF8020020
:10329000ADF80400ADF80600ADF8080001208DF887
:1032A0000D00684603F099FB002008B0BDE8F081EE
:1032B000F0B585B004460F4600252078012808D0D7
:1032C0002078072805D02078082802D020780928FF
:1032D00004D1607840F40070009002E04FF4007078
:1032E00000908348019000208DF808008DF80900B7
:1032F0008DF80A70002505E0615D0DF10B00415568
:10330000681C85B2082DF7DB6946784803F054FC49
:103310000646002501E0681C85B23146734803F07B
:10332000E3FC18B940F6FF708542F4DB40F6FF700D
:10333000854202DB012005B0F0BD0020FBE730B57F
:1033400085B005460021694803F0AEFD10B90020A4
:1033500005B030BD6A460021644803F022FD002418
:1033600004E00DF10B00005D2855641C082CF8D317
:103370009DF80A00ECE77CB505460C46002000905D
:103380000190122D79D2DFE805F0A8090F223B4504
:103390004CA86279A8A8A8A8A8A8A892A1208DF8EE
:1033A00000008DF8010099E0C1208DF80000207820
:1033B0008DF8010060788DF80200A0788DF8030088
:1033C000E0788DF8040020798DF8050086E0A220D1
:1033D0008DF8000020788DF8010060788DF80200EB
:1033E000A0788DF80300E0788DF8040020798DF83E
:1033F000050060798DF80600A0798DF807006DE072
:10340000A3208DF8000020788DF8010060788DF8F9
:10341000020063E001208DF8000020788DF80100A3
:103420005CE007208DF8000020788DF801006078BE
:103430008DF80200A0788DF80300E0788DF8040084
:1034400020798DF8050060798DF8060046E00820A7
:103450008DF8000020788DF8010060788DF802006A
:10346000A0788DF80300E0788DF8040020798DF8BD
:10347000050060798DF8060030E02EE009208DF817
:10348000000020788DF8010060788DF80200A078A7
:103490008DF80300E0788DF8040020798DF80500A0
:1034A00060798DF80600A0798DF8070016E01120EC
:1034B0008DF8000020788DF8010060788DF802000A
:1034C000A0788DF80300E0788DF8040020798DF85D
:1034D000050060798DF8060000E000BF00BF0821FC
:1034E0006846FFF7E5FE7CBD00080140006400402F
:1034F00001F000182DE9F0418AB005460C464FF066
:1035000000080026002700200890099006900790E8
:1035100020788DF8200060788DF82100A0788DF853
:103520002200E0788DF823008DF8245008A90220AD
:10353000FFF721FF14263146FAA018F04DFC13E0E6
:1035400006A8FFF7FCFE07469DF81D00A84201D023
:10355000002700E008E0052300221146104618F07D
:10356000D9FA701EC6B200BF0FB9002EE8DC314692
:10357000EEA018F031FC002F40D09DF81F009DF800
:103580001E109DF81D209DF81C30CDE90132CDE9BB
:1035900003109DF81B0000909DF81A309DF819202B
:1035A0009DF81810E3A018F017FC9DF81800C22829
:1035B00021D19DF819009DF8201088421BD19DF85B
:1035C0001A009DF82110884215D19DF81B009DF826
:1035D000221088420FD19DF81C009DF823108842CC
:1035E00009D19DF81D009DF82410884203D19DF853
:1035F0001E80002704E04FF0000801E04FF00008B3
:1036000040460AB0BDE8F0811CB504460020009099
:10361000019020788DF8000060788DF80100A07886
:103620008DF80200E0788DF8030020798DF8040011
:1036300060798DF80500A0798DF8060069460320B1
:10364000FFF799FE1CBD1CB5002000900190694653
:103650000120FFF790FE1CBD7CB504460D460020FE
:10366000009001908DF800408DF801509DF80120E8
:103670009DF80010B9A018F0AFFB69460420FFF7D1
:103680007AFE7CBD2DE9FC41044614250027002666
:103690000020009001900BE06846FFF750FE0646C0
:1036A000052300221146104618F034FA681EC5B2F0
:1036B0000EB9002DF0DCFEB19DF80000B32819D141
:1036C0009DF8010020709DF8020060709DF80300D5
:1036D000A0709DF80400E07004212046FEF7A4FCD1
:1036E00007469DF80500B84202D10120BDE8FC81E3
:1036F0000020FBE70020F9E70020F7E72DE9F04183
:103700008AB005460C460020089009900690079064
:103710000A26804600278DF8185006A90520FFF7D5
:103720002AFE00BF314696A018F056FB13E008A809
:10373000FFF705FE07469DF82100A84201D00027AB
:1037400000E008E0052300221146104618F0E2F9D7
:10375000701EC6B200BF0FB9002EE8DC31468BA048
:1037600018F03AFB002F70D09DF82100A84205D137
:103770009DF82000022801D1804666E19DF82100D5
:10378000A8426AD19DF82000032866D10520207048
:103790009DF8220060709DF82300A0709DF8240021
:1037A000E0709DF8250020710A26002713E008A884
:1037B000FFF7C5FD07469DF82100A84201D000276C
:1037C00000E008E0052300221146104618F0A2F997
:1037D000701EC6B200BF0FB9002EE8DCA7B39DF87B
:1037E00027009DF826109DF825209DF82430CDE96E
:1037F0000132CDE903109DF8230000909DF822309E
:103800009DF821209DF8201063A018F0E5FA9DF89E
:103810002100A8421AD19DF82000042816D19DF855
:10382000220060719DF82300A0719DF82400E071D2
:103830009DF8250020729DF8260060724FF0AA08BE
:1038400040460AB0BDE8F08104E0FCE04FF000081B
:103850000027FAE04FF00008F7E09DF82100A842A9
:103860005FD19DF8200005285BD1062020709DF8CF
:10387000220060709DF82300A0709DF82400E07085
:103880009DF8250020710A2613E008A8FFF757FDD0
:1038900007469DF82100A84201D0002700E008E07B
:1038A000052300221146104618F034F9701EC6B2E6
:1038B00000BF0FB9002EE8DC97B39DF827009DF8F4
:1038C00026109DF825209DF82430CDE90132CDE960
:1038D00003109DF8230000909DF822309DF82120D0
:1038E0009DF820102CA018F077FA9DF82100A8422E
:1038F00069D19DF82000062865D19DF822006071ED
:103900009DF82300A0719DF82400E0719DF825002A
:1039100020729DF8260060724FF0AA08404690E79A
:1039200055E057E04F7665723D2564002D25643BD8
:103930002000000052653C3C25303258253032587A
:1039400025303258253032582530325825303258FB
:103950002530325825303258200000003E3E3E3E91
:103960003E3E3E3E3EB9E3B2A520CBAEB7D13D25AB
:10397000643B20C2F6B3E5CAFD3D25640D0A000094
:10398000C2D6D1AD20256420000000002D20256482
:103990003B20200D0A00000025303258202530320F
:1039A00058202530325820253032582025303258C2
:1039B0002025303258202530325820253032580DFD
:1039C0000A000000FFE74FF0000800273DE04FF03D
:1039D00000083AE09DF82100A84216D19DF8200089
:1039E000042812D19DF8220060719DF82300A07177
:1039F0009DF82400E0719DF8250020729DF82600B6
:103A000060724FF0AA0840461BE79DF82100A842CB
:103A100016D19DF82000062812D19DF82200607171
:103A20009DF82300A0719DF82400E0719DF8250009
:103A300020729DF8260060724FF0AA08404600E709
:103A40004FF0000801E04FF000084046F9E61CB5D1
:103A5000044600200090019020788DF800006078E6
:103A60008DF80100A0788DF80200E0788DF8030051
:103A700020798DF8040060798DF8050069460620EC
:103A8000FFF779FC1CBD1CB5044600200090019096
:103A900020788DF8000060788DF80100A0788DF80E
:103AA0000200E0788DF8030020798DF80400607939
:103AB0008DF8060069461120FFF75DFC1CBD000073
:103AC00008B5FEA0006800909DF80100401EC1B23C
:103AD0006846FEF7A9FA8DF803009DF801206946B3
:103AE0000120FDF7CCFB962300221146104618F06A
:103AF00011F808BD10B504460A20F14908700DE020
:103B0000642300221146104618F004F8EC480078AF
:103B1000401EEB4908700120FDF707FCE9480078DA
:103B200000F08000802803D0E54800780128E7DC19
:103B3000E4480078802810DD0020E2490870E2485F
:103B4000C0782070E04800796070DF484079A0704C
:103B5000DD488079E070012010BD0020FCE77CB5D5
:103B600004460D46D9A103C9CDE900018DF80340F3
:103B70008DF804509DF804209DF80310D5A018F08E
:103B80002BF99DF80100401EC1B26846FEF74CFAC1
:103B90009DF80110491E0DF801009DF801206946AD
:103BA0000120FDF76CFB7CBD10B588B00446D2A2A5
:103BB000D2E900109268CDE90602059120788DF8CF
:103BC000170060788DF81800A0788DF81900E0785B
:103BD0008DF81A0020798DF81B0060798DF81C0093
:103BE000A0798DF81D009DF81D009DF81C109DF812
:103BF0001B209DF81A30CDE90032CDE902109DF866
:103C000019309DF818209DF81710BEA018F0E4F8A0
:103C10009DF81500401EC1B205A8FEF705FA9DF8F3
:103C20001510491E05AA50549DF8152005A901201C
:103C3000FDF725FB08B010BD70B58CB005460C46ED
:103C40000026BEA103C9CDE90A018DF82B509DF8CD
:103C50002900401EC1B20AA8FEF7E6F98DF82C0033
:103C60000020984908709DF829200AA90120FDF735
:103C700006FB19209249087008460178B1A018F097
:103C8000ABF80DE0082300221146104617F042FF62
:103C90008B480078401E8A4908700120FDF745FBDB
:103CA0008848007800F08000802803D0844800789D
:103CB0000028E7DC82480178A6A018F08DF881483A
:103CC000007800F0800080284FD100207D490870E6
:103CD0007D48C078A84246D17B488078022801D12F
:103CE00002261EE07848807820707748007960705E
:103CF00075484079A07074488079E0707248C07946
:103D000020717148007A60716F48407AA0716E48E6
:103D1000807AE0716C48C07A20726B48007B6072D8
:103D2000AA266948C07A6849897A674A527A664BF6
:103D30001B7ACDE90532CDE907106348C0796249A5
:103D40008A794979604B1B79CDE90131CDE90320AE
:103D50005D48C07800905C488378427801787FA005
:103D600018F03AF802E0002600E0002630460CB0D9
:103D700070BD7FB505460C46002688A30FCB8DE8A5
:103D80000F008DF8035020788DF8040060788DF8CE
:103D90000500A0788DF80600E0788DF807002079FE
:103DA0008DF8080060798DF80900A0798DF80A0077
:103DB000E0798DF80B00207A8DF80C009DF8010059
:103DC000401EC1B26846FEF72FF99DF80110491E4A
:103DD0000DF8010000203B4908709DF8012069465C
:103DE0000120FDF74CFA2820354908700846017873
:103DF0006EA017F0F1FF0DE00A23002211461046D5
:103E000017F088FE2E480078401E2D4908700120CA
:103E1000FDF78BFA2B48007800F08000802803D053
:103E2000274800780028E7DC2548017862A017F0D1
:103E3000D3FF2448007800F08000802810D10020B3
:103E4000204908702048C078A84207D11E488078D1
:103E5000092801D1AA2604E0002602E0002600E09D
:103E60000026304604B070BD7FB505460C460026DE
:103E700053A30FCB8DE80F008DF8035020788DF8F9
:103E8000040060788DF80500A0788DF80600E078D1
:103E90008DF8070020798DF808009DF80100401E7C
:103EA000C1B26846FEF7C0F89DF80110491E0DF832
:103EB00001000020034908708AE00000F304A1001B
:103EC0005000002048000020C0150020F306100517
:103ED0001B0000003E3E3E3E3E3E3E3E3EB9E3B24B
:103EE000A520CBAEB7D13D25643B20C2F6B3E5CAD1
:103EF000FD3D25640D0A0000F30BCDFFFFFFFFFF22
:103F0000FF0100003E3E3E3E3E3E3E3E3EB9E3B235
:103F1000A520524649445F4B657920253258253209
:103F2000582532582532582532582532582CBFE9A9
:103F3000B5D8D6B7A3BA25640D0A0000F305010071
:103F400000000000C2D6D1ADC3FCC1EE2025642024
:103F5000000000002D2025643B2020002530325831
:103F60002025303258202530325820253032582034
:103F7000253032582025303258202530325820251F
:103F80003032582025303258202530325820253004
:103F9000325820253032580D0A000000F30E080078
:103FA0000000000000000000000000004F76657275
:103FB0005F46203D202564002D2025643B0D0A002E
:103FC000F30A1300000000000000000000000000E1
:103FD0009DF8012069460120FDF751F92820F84994
:103FE000087008460178F7A017F0F6FE0DE00A23E6
:103FF00000221146104617F08DFDF1480078401E52
:10400000EF4908700120FDF790F9F148007800F0C1
:104010008000802803D0EA4800780028E7DCE848E0
:104020000178ECA017F0D8FEE948007800F0800095
:10403000802819D10020E6490870E848C078A842D5
:104040000DD1E6488078142804D1AA26E4A017F000
:10405000C3FE0DE00026E5A017F0BEFE08E0002636
:10406000E2A017F0B9FE03E00026E0A017F0B4FECE
:10407000304604B070BD3EB504460025DEA207CA36
:104080008DE8070020788DF8020060788DF8030035
:10409000A0788DF80500E0788DF8060020798DF87D
:1040A000070060798DF808009DF80200112803D1FF
:1040B00009208DF8010006E09DF80200132802D1C6
:1040C0000A208DF801009DF80100401EC1B268462B
:1040D000FDF7AAFF9DF80110491E0DF80100002010
:1040E000BB4908709DF8012069460120FDF7C7F81B
:1040F0002820B349087008460178C2A017F06CFE6A
:104100000DE00A2300221146104617F003FDAC48CB
:104110000078401EAA4908700120FDF706F9AC4856
:10412000007800F08000802803D0A548007800289F
:10413000E7DCA3480178B6A017F04EFEA44800784B
:1041400000F0800080280BD10020A1490870A3480E
:10415000C0786178884201D1AA2502E0002500E0FC
:10416000002528463EBD1CB50446ABA103C9CDE9D8
:1041700000018DF803409DF80100401EC1B2684661
:10418000FDF752FF8DF804009DF8012069460120DB
:10419000FDF775F8FA2300221146104617F0BAFC15
:1041A0001CBD30B587B00446002521469CA017F001
:1041B00013FE9D4800EB0410007800F0800080287A
:1041C0002DD1994800EB0410C07848B9964800EB0F
:1041D0000410807920B90020934901EB0411087084
:1041E0009248006808B9012000E000208F4908606B
:1041F00004A92046FFF782FA054625B904A92046FE
:10420000FFF77CFA0546022D0AD1874800EB04101F
:10421000007820F00300844901EB04110870CDE020
:1042200055B9814800EB0410007840F020007E4929
:1042300001EB04110870C1E09DF8100005280AD1B7
:10424000794800EB0410007840F00100764901EB5A
:10425000041108700DE09DF81000062809D172487D
:1042600000EB0410007840F002006F4901EB0411EC
:1042700008709DF811006C4901EB0411C8719DF89C
:104280001200694901EB041108729DF81300664998
:1042900001EB041148729DF81400634901EB04110D
:1042A00088729DF81500604901EB0411C8729DF8F1
:1042B00016005D4901EB041108739DF817005A4977
:1042C00001EB041148739DF81800574901EB0411E4
:1042D00088739DF81900544901EB0411C8735248C2
:1042E00000EB0410007800F00302214650A017F004
:1042F00073FD4D4800EB0410807A00904A4800EBB3
:104300000410437A484800EB0410027A464800EB58
:104310000410C1794DA017F05FFD434800EB041075
:10432000C07A0004404A02EB0412127B40EA0220E9
:104330003D4A02EB0412527B40EA02014AA017F008
:104340004BFD394800EB0410C27B374800EB0410EA
:10435000817B49A017F040FD8DF808409DF81100C1
:104360008DF809009DF812008DF80A009DF81300E1
:104370008DF80B009DF814008DF80C002A4800EB16
:104380000410007800F00300012803D1AA208DF862
:104390000D000AE0244800EB0410007800F0030050
:1043A000022802D155208DF80D0005230022114668
:1043B000104617F0AFFB02A8FFF749FB07B030BD6E
:1043C00050000020D2ECB3A3203D20256420000043
:1043D000480000202D2025643B200000C01500204F
:1043E00073756363657373200D0A00006661756CF5
:1043F000742020200D0A0000F30900004530303001
:1044000000000000457272436F6D2025642000009B
:104410002D2025643B000000F3050700000000008C
:104420002532643B20000000700300209C012242E2
:10443000C2DFBCADB5D8D6B7A3BA25643BBFA8D7F9
:10444000B4CCAC25643B202000000000BFA8BAC556
:10445000A3BA25303258253032582530325825300D
:1044600032583B2020000000BDF0B6EEA3BA25363E
:10447000643B202020000000BFA8D0A3D1E9A3BA4C
:104480002532643B202020CDA8D0C5C2EBA3BA259D
:104490003032583B200D0A00F0B58DB004460020A4
:1044A0000A900B900C9008900990069007900025B8
:1044B00000260A279348006808B9012000E0002080
:1044C00090490860657A29468FA017F085FC20780E
:1044D000AA287DD160788DF82800A0788DF8290071
:1044E000E0788DF82A0020798DF82B00A07A8DF8DD
:1044F0002C00A0798DF82D00E0798DF82E00207A1F
:104500008DF82F0060798DF83000A07A8DF8310099
:10451000607A8DF820009DF828008DF821009DF824
:1045200029008DF822009DF82A008DF823009DF8BF
:104530002B008DF824009DF82C008DF825009DF8A7
:1045400027009DF826109DF825209DF82430CDE900
:104550000132CDE903109DF8230000909DF8223030
:104560009DF821209DF82010AFF2FC5017F034FC8C
:1045700008A90820FEF7FFFE64230022114610461A
:1045800017F0C8FA607A8DF820009DF82D008DF89C
:1045900021009DF82E008DF822009DF82F008DF847
:1045A00023009DF830008DF824009DF831008DF82F
:1045B00025000A210AA8FDF737FD8DF826009DF891
:1045C00027009DF826109DF825209DF8243000E056
:1045D00015E0CDE90132CDE903109DF823000090EC
:1045E0009DF822309DF821209DF82010AFF28060C8
:1045F00017F0F2FB08A90920FEF7BDFE31E0207894
:10460000BB2815D18DF82050A0788DF82100E078D6
:104610008DF8220020798DF8230060798DF8240030
:10462000A0798DF8250008A91120FEF7A4FE18E056
:104630002078552815D160788DF82000A0788DF865
:104640002100E0788DF8220020798DF82300607930
:104650008DF8240000208DF8250008A91120FEF710
:104660008AFE0A270BE006A8FEF769FE0646052328
:1046700000221146104617F04DFA781EC7B20EB947
:10468000002FF0DCC6B19DF81F009DF81E109DF8AC
:104690001D209DF81C30CDE90132CDE903109DF8B5
:1046A0001B0000909DF81A309DF819209DF81810F5
:1046B000AFF2447017F090FB0DB0F0BD00207047D2
:1046C00070B5AFF2DC2017F087FB002416E021461E
:1046D00011A017F081FB002508E0114800EB041041
:1046E000415D10A017F078FB681CC5B2102DF4DBFB
:1046F000AFF20C3017F070FB601CC4B21A2CE6DB72
:1047000070BD00009C0122420D0AB7FECEF1C6F733
:10471000202532643B200000253032642D2D00001E
:1047200070030020253032582C000000314901432D
:10473000314A1160704770B5002100230F22C47800
:1047400004B32D4C246804F4E064C4F5E064210A49
:10475000C1F10403CA40447804FA03F18478144098
:1047600021430901254C0678A155047804F01F0562
:104770000124AC4005786D11AD0005F1E025C5F8C8
:10478000004109E0047804F01F050124AC401C4DF1
:104790000678761145F8264070BD1A4A0A40024351
:1047A000154B1B1F1A60704739B1134A121D12684E
:1047B0000243114B1B1D1A6006E00F4A121D1268BE
:1047C00082430D4B1B1D1A607047042808D14FF01F
:1047D000E021096941F004014FF0E022116107E096
:1047E0004FF0E021096921F004014FF0E02211614E
:1047F000704700000000FA050CED00E000E400E066
:1048000080E100E080FFFF1F30B943F2DB0281004E
:10481000A1F1C0410A6005E043F2D2028100A1F19A
:10482000C0410A606FF07042411C8900A1F1C04193
:104830000A608100A1F1C041C1F80421704710282D
:104840000AD118214FF020421166402151664FF0E5
:10485000FC319166D16610E01821F74A11604021C1
:104860004FF02042C2F884104FF0FC31F24A083277
:1048700011604FF02042C2F88C1070471820EE49AA
:104880002031086000200906C1F8A4004FF0FC3078
:10489000E94928310860091D0860091D0860704752
:1048A000D0E901121143C268114302691143426900
:1048B000114382691143C2691143026A1143426A7A
:1048C0001143826A1143C26A1143026B11430268A9
:1048D0009200A2F1C0421160816808290BD10168E1
:1048E0008900A1F1C041096841F0400201688900D6
:1048F000A1F1C0410A60416B0968426B526841EA0C
:104900000211426B926841EA0221426B928941EAAC
:104910000241426B128A41EA0251426B127D41EA26
:104920000261426B926911430268521C9200A2F12B
:10493000C0421160C16AB1F5804F1BD1816B09681B
:10494000826B526841EA0211826B926841EA02214D
:10495000826B128A41EA0251826B127D41EA026146
:10496000826B9269114302689200A2F1C042C2F8C0
:10497000041107E06FF0704201688900A1F1C041A5
:10498000C1F80421704730B500210022002344689B
:1049900044F0080485682C43C5682C4305692C4302
:1049A000456944EA4524856944EA4531C469246877
:1049B000C5696D6844EA0524C5692D8944EA054442
:1049C000C5692D7B44EA0562046A2468056A6D683E
:1049D00044EA0524056A2D8944EA0544056A2D7BCD
:1049E00044EA05630468102C05D14FF02044216689
:1049F000A266E36608E0904C21604FF02044C4F8C2
:104A000088208D4C0C34236030BD016841F01001CA
:104A1000426841EA4221826841EA4231864A2032B4
:104A20001160C1680968C268526841EA0221C2681F
:104A3000128941EA0241C268127B41EA02617E4A60
:104A400028321160016909680269526841EA02214D
:104A50000269128941EA02410269127B41EA02615C
:104A6000754A2C321160416909684269526841EA0D
:104A700002214269128941EA02414269127B41EAFC
:104A800002614FF02042C2F8B0107047002101606F
:104A90000221416000218160C16001614161816149
:104AA000C16101624FF4805141624900816200217D
:104AB000C16201630F21426B1160426B5160FF21A3
:104AC000426B91600F21426BD160426B1161426B6E
:104AD00051610021426B91610F21826B1160826BE9
:104AE0005160FF21826B91600F21826BD160826BDC
:104AF0001161826B51610021826B916170471021BD
:104B00000160002141608160C1600161416181619A
:104B1000FC21C2691160C2695160C2699160C269B9
:104B2000D160026A1160026A5160026A9160026A91
:104B3000D16070470021016041608160FC21C26842
:104B40001160C2685160C2689160C268D160026938
:104B5000116002695160026991600269D160426925
:104B6000116042695160426991604269D160704749
:104B700051B18200A2F1C042126842F001038200EA
:104B8000A2F1C042136009E08200A2F1C0421268A3
:104B90002A4B1A408300A3F1C0431A60704799B1B1
:104BA000102808D14FF02042126E42F004024FF05C
:104BB00020431A661DE0204A126842F004024FF0BA
:104BC0002043C3F8802014E0102809D14FF0204280
:104BD000126E1A4BDB1E1A404FF020431A6608E093
:104BE000154A1268154BDB1E1A404FF02043C3F8DC
:104BF0008020704748B110492031096841F0040114
:104C00004FF02042C2F8A01009E00B49203109689A
:104C10000A4AD21E11404FF02042C2F8A01070473D
:104C2000B9B110280CD14FF02042126E42F0400270
:104C30004FF020431A661FE0800000A0FEFF0F0027
:104C4000724A126842F040024FF02043C3F88020BD
:104C500012E0102808D14FF02042126E6C4B1A401F
:104C60004FF020431A6607E0684A1268684B1A4002
:104C70004FF02043C3F880207047014600201029E0
:104C800003D14FF02042506F02E0604A14321068A6
:104C9000704710B5F2B1102807D14FF020435B6E7A
:104CA0000B434FF02044636632E0B0F5807F08D1BB
:104CB000564B1B1D1B680B434FF02044C4F8843037
:104CC00026E0524B24331B680B434FF02044C4F8BA
:104CD000A4301DE0102807D14FF020435B6E8B43BA
:104CE0004FF02044636613E0B0F5807F08D1474B56
:104CF0001B1D1B688B434FF02044C4F8843007E031
:104D0000424B24331B688B434FF02044C4F8A4303B
:104D100010BD10B5024600200023102A03D14FF029
:104D20002044636E09E0B2F5807F03D1374C241D27
:104D3000236802E0354C2434236803EA01040CB1F3
:104D4000012000E0002010BD102807D14FF02042C4
:104D5000526E8A434FF020435A6613E0B0F5807FCD
:104D600008D12A4A121D12688A434FF02043C3F823
:104D7000842007E0254A243212688A434FF02043FA
:104D8000C3F8A420704770B5024600200023002419
:104D90000025102A03D14FF02046736E09E0B2F5CA
:104DA000807F03D1194E361D336802E0174E24363A
:104DB000336803EA010403EAD10514B10DB10120FF
:104DC00000E0002070BD102808D14FF02042526E44
:104DD00022EAD1024FF020435A6615E0B0F5807FF9
:104DE00009D10A4A121D126822EAD1024FF020436B
:104DF000C3F8842008E0054A2432126822EAD1026E
:104E00004FF02043C3F8A42070470000800000A0AA
:104E1000BFFF0F0010B50446CC48844208D10121E1
:104E2000042000F02DFB0021042000F029FB46E0C7
:104E3000C748844208D10121082000F021FB00214D
:104E4000082000F01DFB3AE0C248844208D101214D
:104E5000102000F015FB0021102000F011FB2EE0C7
:104E6000BD48844208D10121202000F009FB002127
:104E7000202000F005FB22E0B848844208D101213F
:104E8000402000F0FDFA0021402000F0F9FA16E081
:104E9000B348844208D10121802000F0F1FA0021BA
:104EA000802000F0EDFA0AE0AE48844207D10121EB
:104EB000801500F0E5FA0021A01500F0E1FA10BD20
:104EC00010B50121084600F0DBFA0021012000F0B6
:104ED000D7FA10BD2DE9F04102460025002600203A
:104EE00000230024002791F803C00CF00F0591F86F
:104EF00003C00CF0100CBCF1000F03D091F802C0FD
:104F00004CEA050591F800C0BCF1000F31D01468DF
:104F100000202BE04FF0010C0CFA00F3B1F800C0B8
:104F20000CEA03069E4220D183004FF00F0C0CFACE
:104F300003F7BC4305FA03FC4CEA040491F803C0F0
:104F4000BCF1280F06D14FF0010C0CFA00FCC2F89E
:104F500014C00AE091F803C0BCF1480F05D14FF02E
:104F6000010C0CFA00FCC2F810C0401C0828D1D378
:104F70001460B1F800C0BCF1FF0F34DD54680020AC
:104F80002EE000F1080C4FF0010808FA0CF3B1F81C
:104F900000C00CEA03069E4221D183004FF00F0CA3
:104FA0000CFA03F7BC4305FA03FC4CEA040491F83D
:104FB00003C0BCF1280F05D100F1080C08FA0CF869
:104FC000C2F8148091F803C0BCF1480F07D100F17A
:104FD000080C4FF0010808FA0CF8C2F81080401CC9
:104FE0000828CED35460BDE8F0814FF6FF710180F0
:104FF000022181700421C17070470246002093682D
:105000000B400BB1012000E000207047014688688A
:1050100080B2704702460020D3680B400BB10120DC
:1050200000E0002070470146C86880B27047016107
:105030007047416170470AB1016100E0416170470A
:10504000C16070474FF480320A438261816182619E
:1050500082698269704702460020434B18684FF608
:105060008073184040EA021008433F4B18607047B5
:105070003E49C8617047F0B50A460023002400216C
:10508000002500F00046B6F1004F02D1364EF1691E
:1050900001E0354E7168C0F3034583B200F4401659
:1050A000B6F5401F08D121F070612F4E766826F0CA
:1050B00070662D4F7E6012E000F48016B6F5801FFA
:1050C00006D1032606FA05F4A14341F0706106E01B
:1050D000460D360103FA06F6B14341F0706122B184
:1050E000460D360103FA06F6314300F00046B6F1EC
:1050F000004F02D11C4EF16101E01B4E7160F0BD0A
:1051000030B500228B071C0F0F2303FA04F2164B55
:1051100008338C1053F824309343134C08348D100B
:1051200044F8253023468C1053F824308C07240F84
:1051300000FA04F423430C4C08348D1044F8253055
:1051400030BD0A49DC3108607047000000080140AA
:10515000000C014000100140001401400018014003
:10516000001C0140002001400000014000002042DE
:10517000DF48006840F00100DD49086008464068EB
:10518000DC490840DA49486008460068DA490840C6
:10519000D74908600846006820F480200860084667
:1051A000406820F4FE0048604FF41F00886070479C
:1051B000CF49096821F48031CD4A11601146096850
:1051C00021F480211160B0F5803F03D0B0F5802F2D
:1051D0000ED106E0C649096841F48031C44A116025
:1051E00007E0C349096841F4A021C14A116000E009
:1051F00000BF00BF704710B5014600220023002009
:105200004A11012A02D1BA4C236806E0022A02D1CF
:10521000B74C236A01E0B64C636A01F01F02012417
:1052200094401C400CB1012000E0002010BD38B5B6
:10523000002000900024002500BF3120FFF7DBFF95
:1052400005460098401C00900098B0F5A06F01D072
:10525000002DF2D03120FFF7CEFF08B1012400E08D
:105260000024204638BD01460020A14A106820F0E5
:10527000F80040EAC10010607047A049086070471C
:10528000024600209A4B586820F47C1042EA010341
:105290001843974B58607047984908667047014615
:1052A0000020934A506820F0030008435060704784
:1052B0008F48406800F00C007047014600208C4A7F
:1052C000506820F0F000084350607047014600200D
:1052D000874A506820F4E0600843506070470146F8
:1052E0000020834A506820F4605040EAC1005060BA
:1052F000704729B17E4A527A02437D4B5A7204E0CC
:105300007B4A527A82437A4B5A7270477B49D83132
:105310000860704701460020754A506820F44040FC
:105320000843506070470021714A20321170704A62
:1053300082F82010012802D004280AD104E00121BB
:105340006B4A2032117005E00521694A2032117044
:1053500000E000BF00BF70476949086070476449BA
:10536000096A0143624A116270476549443908601D
:10537000704730B500210022002400235C4D6D6889
:1053800005F00C0121B1042905D0082923D105E03D
:105390005C4D056022E05B4D05601FE0544D6D687B
:1053A00005F47012524D6D6805F48034022505EB4A
:1053B00092421CB9544D554305600BE04C4D6D684D
:1053C00005F400351DB1504D5543056002E04D4DCB
:1053D0005543056002E04B4D056000BF00BF444DE2
:1053E0006D6805F0F0010909484D6B5C0568DD400A
:1053F00045603F4D6D6805F4E061090A434D6B5C03
:105400004568DD4085603A4D6D6805F46051C90A14
:105410003E4D6B5C4568DD40C560354D6D6805F4FB
:105420004041890B3A4D6B5CC568B5FBF3F50561EE
:1054300030BD29B12E4A526902432D4B5A6104E016
:105440002B4A526982432A4B5A61704729B1284A34
:1054500092690243264B9A6104E0254A926982438D
:10546000234B9A61704729B1214AD2690243204BEC
:10547000DA6104E01E4AD26982431D4BDA6170474B
:1054800029B11B4AD2680243194BDA6004E0184A7A
:10549000D2688243164BDA60704729B1144A126908
:1054A0000243134B1A6104E0114A12698243104B04
:1054B0001A61704712494039086070470F49C86443
:1054C00070470B49C87170470948406A40F08070C6
:1054D00007494862704701460020054A92680A4021
:1054E0000AB1012000E0002070470149887270472E
:1054F000001002400000FFF8FFFFF6FE00004242ED
:105500008004424200127A0000093D005100002050
:105510006100002010B50446FE48844208D10121F4
:10552000C014FFF7ADFF0021E014FFF7A9FFC4E0AE
:10553000B4F1804F08D101210846FFF7AEFF0021EA
:105540000120FFF7AAFFB8E0F348844208D1012107
:105550000220FFF7A2FF00210220FFF79EFFACE030
:10556000EE48844208D101210420FFF796FF002174
:105570000420FFF792FFA0E0E948844208D101210E
:105580000820FFF78AFF00210820FFF786FF94E03C
:10559000E448844208D101211020FFF77EFF00215A
:1055A0001020FFF77AFF88E0DF48844208D101210C
:1055B0002020FFF772FF00212020FFF76EFF7CE024
:1055C000DA48844208D101214014FFF759FF002135
:1055D0006014FFF755FF70E0D548844209D10121DE
:1055E000C804FFF74DFF00214FF40020FFF748FFEC
:1055F00063E0D048844209D101210805FFF740FF4C
:1056000000214FF48010FFF73BFF56E0CA48844268
:1056100009D101214805FFF733FF00214FF40010A5
:10562000FFF72EFF49E0C548844208D10121402000
:10563000FFF733FF00214020FFF72FFF3DE0C04878
:10564000844208D101218020FFF727FF002180201C
:10565000FFF723FF31E0BB48844208D101218015C8
:10566000FFF71BFF0021A015FFF717FF25E0B64845
:10567000844209D101210804FFF702FF00214FF401
:105680008030FFF7FDFE18E0B048844209D10121C7
:105690004804FFF7F5FE00214FF40030FFF7F0FE5D
:1056A0000BE0AB48844208D101218804FFF7E8FEF3
:1056B00000214FF48020FFF7E3FE10BD0022028896
:1056C000944B98420ED0994B98420BD0B0F1804F3A
:1056D00008D0914B984205D0904B984202D0904B05
:1056E000984204D14FF68F731A404B881A438D4B62
:1056F000984207D08C4B984204D04FF6FF431A4093
:10570000CB881A4302808B8883850B880385814B65
:1057100098420BD0854B984208D08B4B984205D0CD
:105720008A4B984202D08A4B984201D10B7A038669
:1057300001238382704770B5002400220023058C6A
:105740004FF6FE7635400584028C8388048B4FF635
:105750008F752C40B51E2C400D882C43751E2A4099
:105760000D892A434D882A436A4DA8420BD06F4DBC
:10577000A84208D0744DA84205D0744DA84202D06A
:10578000734DA84213D14FF6F7752A404D892A432D
:105790004FF6FB752A408D882A434FF6FF652B4054
:1057A0004FF6FF552B408D892B43CD892B438380AA
:1057B0000483CD888586028470BD70B500240022E4
:1057C0000023058C4FF6EF7635400584028C8388E4
:1057D000048B48F6FF752C404FF6FF452C400D8892
:1057E0004FF6FF7606EA05252C434FF6DF752A4073
:1057F0000D8906EA05152A434D8806EA05152A4350
:10580000444DA84202D0494DA8421DD14FF67F75A4
:105810002A404D894FF6FF7606EA05152A434FF6D2
:10582000BF752A408D8806EA05152A434FF6FF35D5
:105830002B404FF2FF752B408D8906EA85052B43DF
:10584000CD8906EA85052B4383800483CD880587AF
:10585000028470BD70B5002400220023058C4FF631
:10586000FF6635400584028C8388848B4FF68F75E4
:105870002C404FF6FC752C400D882C434FF6FF55FD
:105880002A400D894FF6FF7606EA05252A434D8802
:1058900006EA05252A431F4DA84202D0234DA842FF
:1058A0001DD14FF2FF752A404D894FF6FF7606EA6B
:1058B00005252A434FF6FF352A408D8806EA05253F
:1058C0002A434EF6FF752B404DF6FF752B408D8910
:1058D00006EA05152B43CD8906EA05152B4383807F
:1058E0008483CD888587028470BD70B50022002333
:1058F0000024058C4EF6FF7635400584038C8488A1
:10590000828B48F6FF752A404FF6FF452A400D88E6
:1059100020E00000002C014000040040000800408E
:10592000000C004000100040001400400034014012
:10593000004C01400050014000540140001800405C
:10594000001C004000200040004001400044014095
:10595000004801404FF6FF7606EA05252A434DF63A
:10596000FF752B400D8906EA05352B434D8806EA65
:1059700005352B43FA4DA84202D0FA4DA84208D172
:105980004BF6FF752C408D894FF6FF7606EA85159C
:105990002C4384808283CD88A0F84050038470BD5E
:1059A000828B4FF2FF331A408283828B4FF6FF7354
:1059B00003EA01231A4382837047F0B50C4615466B
:1059C000002200210026078C4EF6FF7C07EA0C0718
:1059D0000784828B018C4FF6FF7707EA043640F686
:1059E000FF473A404FF6FF7707EA05273A434FF65D
:1059F000FF7707EA03373A43D94FB8420ED0D94F61
:105A0000B8420BD0B0F1804F08D0D74FB84205D084
:105A1000D64FB84202D0D64FB84206D14DF6FF77E6
:105A2000394046F48057394305E047F6FF5739407F
:105A300044F48057394382830184F0BD828B4FF652
:105A4000F3731A408283828B0A4382837047F0B5D6
:105A50000C461546002200210026078C4FF6FF6CED
:105A600007EA0C070784828B018C4FF6FF7707EA61
:105A700004264FF60C773A404FF6FF7707EA0317F4
:105A80002F433A43B64FB8420ED0B64FB8420BD070
:105A9000B0F1804F08D0B44FB84205D0B34FB842F0
:105AA00002D0B34FB84206D14FF6FF57394046F403
:105AB0008077394305E04FF2FF57394044F480774F
:105AC000394382830184F0BD028B4FF2FF331A40C9
:105AD0000283028B4FF6FF7303EA01231A4302830A
