:020000040800F2
:1000000030FA0020E90C0008F10A0008F30A0008A1
:10001000F70A0008FB0A0008FF0A000800000000B9
:10002000000000000000000000000000030B0008BA
:10003000050B0008000000006FAF0108450D000827
:10004000030D0008030D0008030D0008030D000850
:10005000030D0008030D0008030D0008030D000840
:10006000030D0008030D0008030D0008030D000830
:10007000030D0008030D0008030D0008030D000820
:10008000030D0008030D0008030D0008030D000810
:10009000030D0008030D0008030D00087F1B000876
:1000A000030D0008030D0008030D0008030D0008F0
:1000B000030D0008030D0008030D0008030D0008E0
:1000C000030D0008030D0008030D0008030D0008D0
:1000D000030D000899150008030D0008B715000866
:1000E000030D0008030D0008030D0008030D0008B0
:1000F000030D0008030D0008030D0008030D0008A0
:10010000030D0008030D0008030D0008030D00088F
:10011000030D0008030D0008030D0008030D00087F
:10012000030D0008030D0008030D0008030D00086F
:1001300000F002F800F071F80AA090E8000C824488
:100140008344AAF10107DA4501D100F066F8AFF265
:10015000090EBAE80F0013F0010F18BFFB1A43F0A5
:1001600001031847D0BB0100F0BB01000A444FF067
:10017000000C10F8013B13F0070408BF10F8014B06
:100180001D1108BF10F8015B641E05D010F8016B4B
:10019000641E01F8016BF9D113F0080F1EBF10F8AF
:1001A000014BAD1C0C1B09D16D1E58BF01F801CBD2
:1001B000FAD505E014F8016B01F8016B6D1EF9D555
:1001C0009142D6D37047000000230024002500266A
:1001D000103A28BF78C1FBD8520728BF30C148BFAA
:1001E0000B60704764291AF05B8778291AF09487AE
:1001F00063291BF0348273291BF039820020704779
:100200001FB51BF0C5F90400002000211BF09CFA6B
:10021000401C60601FBD10B510BD1BF05FFA114699
:10022000FFF7EEFF00F087FB1BF07DFA03B4FFF74A
:10023000F2FF03BC01F0CEF9002500240027C4A082
:1002400004F08CFED2A004F089FEE1A004F086FE4A
:10025000EFA004F083FE53E004F009FFFC480078AF
:1002600038B932230022114610461AF05BFD0024F3
:1002700046E0002F3ED141F27070854202DA681CE0
:1002800085B200E00025F3480078AA2804D10020B8
:10029000F04908704FF47A74502C03DA601C84B271
:1002A000002627E0B4F5E16F15DA601C84B21E2049
:1002B00095FBF0F100FB1150E0B9E748007840F001
:1002C0004000E5490870701CC6B222463146E3A0E2
:1002D0001AF08AFE0EE041F28834C82095FBF0F156
:1002E00000FB1150012805D1DB48007840F04000A8
:1002F000D949087032230022114610461AF012FD27
:10030000AAE788B01D2007900520069000200590E0
:10031000804604900024322783460390102107F082
:1003200082F905460020D9490870D94908600120A2
:10033000D849C1F89C01D649083908604FF4FA73CE
:100340000222002108461AF0EDFC02F0CDF9CF4858
:100350000178D1A01AF048FE64230022114610460D
:100360001AF0E0FCD74802F083FE64230022114615
:1003700010461AF0D7FC02F09AFED3A01AF034FE11
:100380000120C3490860091F0860C249C1F89801EB
:10039000D14800780790D14800780690BB48007893
:1003A000381AC7B2142F01DB322F00DD142752E0B8
:1003B000B748006808B9012000E00020B44908608F
:1003C000B448D0F89C0108B9012000E00020B049F1
:1003D000091F0860AF48D0F8980108B9012000E073
:1003E0000020AB49083908603946BDA01AF0FCFD71
:1003F00004A802F07BFE00282BD09DF8130000908B
:100400009DF812309DF811209DF81010B6A01AF03A
:10041000EBFD04A802F0CAF806463146B9A01AF06E
:10042000E3FD202E15DC04A9304602F097FDB94902
:1004300088550846805D30B90846825D3146B6A0D1
:100440001AF0D2FD05E0B348825D3146B9A01AF03A
:10045000CBFD781EC7B2002FAAD100208C490860BE
:1004600001208C49C1F89C01894908390860C823DA
:100470000022114610461AF055FC924802F0F8FD91
:10048000C8230022114610461AF04CFC8D4802F099
:10049000EFFDAA206E490870ADA01AF0A5FD20E27C
:1004A00002F084FB8C4909780798884204D18B4973
:1004B00009780698884217D08748017887480078DD
:1004C00002F0FEFDB8F1020F04DC08F1010000F0BB
:1004D000FF0809E04FF00008002003907E480078F4
:1004E00007907E4800780690A449097805988842CC
:1004F0000FD0744802F0BCFDB8F1020F04DC08F123
:10050000010000F0FF0804E04FF000089B4800786D
:100510000590202C19DA611CC8B203F01FF8C4EB57
:10052000C4005A4911F8100000F0030000280CD054
:10053000AA202870C4EBC40011F8100000F00300DA
:10054000012803D11120687025E18DE118E1000038
:100550000D0A3D3D3D3D3D3D3D3D3D3D3D3D3D3D2E
:100560003D3D3D3D204D61696E204D656E75203DE0
:100570003D3D3D3D3D3D3D3D3D3D3D3D3D3D3D3DAB
:100580003D3D3D3D3D3D3D3D3D3D3D0D0A0A0000AB
:100590002020446F776E6C6F616420496D616765E0
:1005A00020546F207468652053544D3332463130E7
:1005B0007820496E7465726E616C20466C61736858
:1005C000202D2D2D2D2D2D2D20310D0A0A0000005E
:1005D000202055706C6F616420496D61676520460D
:1005E000726F6D207468652053544D33324631303C
:1005F0007820496E7465726E616C20466C61736818
:10060000202D2D2D2D2D2D2D20320D0A0A0000001C
:1006100020204578656375746520546865204E65B3
:10062000772050726F6772616D202D2D2D2D2D2D2D
:100630002D2D2D2D2D2D2D2D2D2D2D2D2D2D2D2DEA
:100640002D2D2D2D2D2D2D2D20330D0A0A000000CE
:100650000000002024000020ED0000200D0A20BF33
:10066000ECB5DDD0C4CCF8B0FCB7A2CBCDD7B4CCC0
:10067000AC2CB7A2CBCDB4CECAFD2532642CBCC6FF
:10068000CAFDD6B5A3BA25642E00000030020020B2
:10069000A001224200002242C9CFB5E7BCECB2E281
:1006A000466C617368C4DAC2DFBCADB5D8D6B7CDCD
:1006B000EAB3C92120D7DCCFDFA3BA2532642E0DDF
:1006C0000A00000010000020CEB4D7A2B2E1B9E3C6
:1006D000B2A521200D0A00000D0000200E00002010
:1006E0002532642E20000000CEEFC0EDB5D8D6B77D
:1006F000A3BA2530325825303258253032582530AB
:1007000032583B00C2DFBCADB5D8D6B73A25643B02
:10071000000000001A0400205665725B2530326428
:100720005D3D253032582CB7D6C5E4CAA7B0DCA34E
:10073000A10D0A005665725B253032645D3D25309F
:1007400032582CB7D6C5E4B3C9B9A6A3A10D0A0087
:100750000D0AC9CFB5E7BCECB2E2CEB4D7A2B2E184
:10076000B3ACCAB1A3ACBDF8C8EBD5FDB3A3B4FD1F
:10077000BBFAD7B4CCAC3B0D0A0000000F00002040
:10078000C4EBC400A04911F8100000F003000228D7
:1007900001D113206870C4EBC4009B4901EB4000F9
:1007A0004078A870C4EBC40001EB40008078E8708A
:1007B000C4EBC40001EB4000C0782871C4EBC40056
:1007C00001EB400000796871C4EBC40001EB40000C
:1007D0004079A871C4EBC40001EB40008079E87156
:1007E000C4EBC40001EB4000C0792872C4EBC40024
:1007F00001EB4000007A6872C4EBC40001EB4000DA
:10080000407AA872C4EBC40001EB4000807AE87221
:10081000C4EBC40001EB4000C07A2873C4EBC400F1
:1008200001EB4000007B6873AC73C4EBC40001EBC8
:100830004000407BE87329467448006819F05CFB6F
:100840008246BAF1000F03D02946002006F0DBFEF5
:10085000C4EBC4006C4911F8100020F00300C4EB95
:10086000C401694A02F8110002AA0121684800681F
:1008700019F07AFA81469DF8080028B9B9F1000FFD
:1008800002D0484602F0A0FF4946002006F0BBFE19
:10089000212C0EDD5FA01AF0A7FB0024BBF1320F64
:1008A00004DA0BF1010000F0FF0B04E04FF0000B45
:1008B00001E0601CC4B20398B0F5702F08D9002085
:1008C0000390564801785648007802F0F9FB02E0A0
:1008D0000398401C03900A230022114610461AF088
:1008E00021FADDE570B5044600BF40214D4819F0FE
:1008F00067F94749086040214B4819F061F94349BD
:10090000086018F03DF81AF00BFB05460A23474A29
:100910000021AFF2116019F08BFE0923444A002137
:10092000AFF2EB6019F084FEFF201AF001F92846BF
:100930001AF0FAFA70BD08B500F010FA4FF44070E2
:1009400004F070FD00F00BFC00F064FE00200523B5
:1009500006220721009002F02DF9002006F09DFDEF
:1009600034A01AF041FB012139A01AF03DFB00210F
:100970003DA01AF039FB03F029F903F0A1FD01F0C5
:10098000FDFB00BF01F08AFC0028FBD13BA01AF060
:100990002BFB4FF4FA7000F032FA17F0BCFE0AE0BD
:1009A0003BA01AF021FB4FF4FA7000F028FA4FF444
:1009B000FA7000F024FA07F00AF80028F0D139A004
:1009C0001AF012FB0AE03DA01AF00EFB4FF4FA7089
:1009D00000F015FA4FF4FA7000F011FA07F043FD39
:1009E0000028F0D14FF4FA7000F009FA39A01AF09B
:1009F000FBFA0C233D4A0021AFF2171019F018FE44
:100A000017F0A6FF002008BD300200202C000020B7
:100A1000280000200D0A0D0A000000000D00002033
:100A20000E0000206C1200206C13002068100020C3
:100A3000680800205374617274696E6720557020D5
:100A400059434B4A2D4143552E2E2E0D0A000000CE
:100A500056657273696F6E4E6F3A20253032582E8C
:100A60002E2E0D0A0000000054657374466C6167F9
:100A70003A2025642E2E2E0D0A00000041543234F7
:100A80004358585F436865636B204F4B210D0A0044
:100A90004C77697020496E6974206661696C656481
:100AA000210D0A004C77697020496E6974205375D6
:100AB0006363657373210D0A0000000054435020E6
:100AC000436C69656E74206661696C656421210DF3
:100AD0000A00000054435020436C69656E74205333
:100AE000756363657373210D0A00000068120020AE
:100AF000704700BFFEE700BFFEE700BFFEE700BF94
:100B0000FEE77047704700000CB500200190009090
:100B10006C48006840F480306A49086000BF69484A
:100B2000006800F4003000900198401C019000988B
:100B300018B90198B0F5A06FF1D16248006800F4CF
:100B4000003010B10120009001E0002000900098DA
:100B5000012843D15C48006840F010005A49086001
:100B60000846006820F0030008600846006840F06E
:100B7000020008605348406852494860084640688F
:100B800048600846406840F4806048600846406815
:100B900020F47C1048600846406840F4E810486043
:100BA0000846006840F08070086000BF4548006853
:100BB00000F000700028F9D04248406820F003009F
:100BC000404948600846406840F00200486000BF65
:100BD0003C48406800F00C000828F9D10CBD10B565
:100BE000FFF792FF10BD10B53648006840F00100D5
:100BF0003449086008464068344908403149486033
:100C000008460068324908402E49086008460068D6
:100C100020F4802008600846406820F4FE00486008
:100C20004FF41F008860FFF7DAFF4FF0006029499A
:100C3000086010BD10B5002100200022214B5B6828
:100C400003F00C0121B1042906D0082928D107E0BE
:100C5000214B224C236027E01F4B204C236023E0D4
:100C6000184B5B6803F47010164B5B6803F480321A
:100C7000022303EB904022B9194B4343174C2360E6
:100C80000DE0104B5B6803F4003323B1144B434376
:100C9000124C236003E0104B4343104C236003E0ED
:100CA0000D4B0E4C236000BF00BF064B5B68C3F3C7
:100CB00003130C4CE15C094B1B68CB40074C2360D1
:100CC00010BD000000100240002002400000FFF8AC
:100CD000FFFFF6FE08ED00E000127A003000002071
:100CE00000093D00340000200948804709480047BA
:100CF000FEE7FEE7FEE7FEE7FEE7FEE7FEE7FEE7CC
:100D0000FEE7FEE704480549054A064B7047000028
:100D1000E70B00083101000830F4002030FA002011
:100D200030F6002030F6002010B517F0A3FD10BDFE
:100D300010B517F0E4FD10BD10B50446204619F0BB
:100D4000BFFF10BD10B53E480078012805D117F04F
:100D5000F8FC17F034FE17F00FFD10BD10B56FF062
:100D6000040004F0AEFB374800683749B0FBF1F0EF
:100D700036490870334800683349B0FBF1F441F25A
:100D8000883044430520324908804FF0E020006954
:100D900040F002004FF0E02108610846446100691C
:100DA00040F00100086110BD2DE9F047074600261C
:100DB0004FF0E020D0F814902448007807FB00F8AA
:100DC00000BFFFF7B1FF4FF0E020856911E04FF061
:100DD000E0208469AC420CD0AC4202D2281B06440D
:100DE00003E0A9EB0400284406442546464500D309
:100DF00000E0ECE700BFFFF79BFFBDE8F08770B5B0
:100E000004460F480078A0B11248007888B910480D
:100E10000088844206DB0E48008894FBF0F52846E3
:100E2000FFF78AFF0A48008894FBF0F100FB1140AD
:100E300084B24FF47A7104FB01F0FFF7B5FF70BD87
:100E40000E0200203000002000127A004400002032
:100E50004600002001020020F948006800F400600C
:100E600008B9012070470020FCE7F548006800F44D
:100E7000806008B9012070470020FCE7F048006856
:100E800000F4007008B9012070470020FCE7EC482E
:100E9000006800F4807008B9012070470020FCE76A
:100EA000E848006800F4006008B90120704700209D
:100EB000FCE7E448006800F4806008B9012070474E
:100EC0000020FCE7DF48006800F4007008B901204A
:100ED00070470020FCE7DB48006800F4807008B928
:100EE000012070470020FCE708B50121602005F0D3
:100EF00029F903208DF8020048208DF803004FF4F3
:100F00007060ADF800006946CD48083804F05EFE18
:100F10004FF47060ADF800006946CA48083804F024
:100F200055FE08BD10B50024FFF796FF012802D139
:100F300044F0010401E024F00104FFF796FF0128CA
:100F400002D144F0020401E024F00204FFF796FF0E
:100F5000012802D144F0040401E024F00404FFF766
:100F600096FF012802D144F0080401E024F00804AF
:100F7000FFF796FF012802D144F0100401E024F0AD
:100F80001004FFF796FF012802D144F0200401E08D
:100F900024F02004FFF796FF012802D144F040041A
:100FA00001E024F04004FFF796FF012802D144F04D
:100FB000800401E024F08004204610BD08B52520FF
:100FC0008DF8000000208DF8020001208DF803004C
:100FD000684604F02CFA27208DF8000002208DF8D6
:100FE000020001208DF80300684604F020FA08BDD5
:100FF00000B585B00121052005F0A4F80121880382
:1010000005F0A0F84FF40070ADF8100018208DF82E
:10101000130003208DF8120004A98B4804F0D6FDBC
:101020004FF48060ADF8100004208DF8130004A97F
:10103000854804F0CBFD4FF4E13000900020ADF87E
:101040000400ADF80600ADF80800ADF80C000C2067
:10105000ADF80A0069467D4805F01BF9012240F20F
:1010600025517A4805F0ADF90121784805F09DF940
:101070004021764805F081FA0121092005F062F847
:101080000121880405F06BF84FF48060ADF8100082
:1010900018208DF8130003208DF8120004A96C4865
:1010A00004F094FD4FF40060ADF8100004208DF8BA
:1010B000130004A9664804F089FD04A9644804F0FB
:1010C00085FD4FF4E13000900020ADF80400ADF84C
:1010D0000600ADF80800ADF80C000C20ADF80A00D1
:1010E00069465C4805F0D5F8012240F2255159487F
:1010F00005F067F90121574805F057F94021554897
:1011000005F03BFA05B000BD50485349086053480C
:101110004860534888604FF400708881C88100207F
:1011200008824882C882088348838882C86108622E
:10113000486248484B4908604B4848604B488860C3
:101140004FF400708881C881002008824882C882DC
:10115000088348838882C86108624862704710B576
:10116000FFF7D2FFFFF744FFFFF728FF10BD01464E
:1011700009B939487047012901D10020FAE702294D
:1011800001D13848F6E7032901D10020F2E704290C
:1011900001D10020EEE70020ECE72DE9F0470446FE
:1011A0000E4617464FF00008002527E00CE019F026
:1011B000B7FE8046B4F81490404619F0B5FEA089F9
:1011C000484500DD01E000BFF1E700BF705D228A05
:1011D0006168885419F0A4FE8046208A401C80B2C1
:1011E0002082A189884201DB00202082A08A401C45
:1011F000A082404619F098FE681C85B2BD42D5DB3E
:10120000012240F22771206805F0DBF8BDE8F08785
:101210002DE9F04105460E4617462846FFF7A7FF81
:1012200004460CB9BDE8F081E06908B1E069804787
:101230003A4631462046FFF7B0FF00BFF2E7000014
:10124000081401400818014000080140003801401E
:10125000000C0140004800406C1400209414002051
:101260009416002094180020BC180020BC1A0020FE
:1012700013B50446012201A92046FFF7C9FF1CBD92
:101280002DE9F04104460D46002719F049FE0746B6
:10129000668B384619F048FE16B90020BDE8F0818B
:1012A000218BA068405C287019F03AFE0746208B1D
:1012B000401C80B22083E189884201DB002020832A
:1012C000608B401E6083384619F02EFE0120E5E752
:1012D00070B505460E462846FFF749FF04460CB98F
:1012E000002070BD31462046FFF7CAFFF9E738B548
:1012F00069460220FFF7ECFF00284AD0BD4800787D
:1013000000F08000002844D19DF80000BA49B94A95
:1013100012788854B7480078401CB64908700846CF
:101320000078202801DD00200870B2480078401EB7
:10133000B149085CF3280DD1AE480078032809DADA
:10134000F321AC480078401EAB4A11540120A94952
:1013500008701EE0A8484078A6490978884218DC41
:10136000A4480078401EC1B2A34800F0C1FD044665
:10137000A0480078401EA049085CA04206D19D48C4
:10138000007840F080009B49087002E000209949F5
:10139000087038BD00B503461846FFF7E8FE024660
:1013A00002B900BD002010825082908200BFF8E791
:1013B00000B503461846FFF7DAFE024602B900BD43
:1013C0000020D0821083508300BFF8E71FB5044689
:1013D00000940020ADF80400ADF80600ADF8080058
:1013E000ADF80C000C20ADF80A006946834804F003
:1013F00050FF1FBD1FB5044600940020ADF8040047
:10140000ADF80600ADF80800ADF80C000C20ADF802
:101410000A006946794804F03CFF1FBD08B5012168
:10142000102004F08FFE03208DF8020010208DF8AC
:1014300003000002ADF800006946714804F0C6FBE5
:101440004FF480506E49086108BD1FB504460094F2
:101450000020ADF80400ADF80600ADF80800ADF8C6
:101460000C000C20ADF80A006946664804F011FF34
:101470001FBD4FF480506249486170474FF480505F
:101480005F490861704770B504460D462A462146FB
:101490000320FFF7BDFE70BD70B50446204619F06D
:1014A00053FF85B229462046FFF7EDFF70BD704718
:1014B000704770B5044640F22551206805F066F883
:1014C000E0B1206804F0E2FFC5B2E18AA0684554AB
:1014D000E08A401C80B2E082E189884201DB002082
:1014E000E082608BE189884202DA608B401C608375
:1014F000606A10B12846616A884700BF40F22771D0
:10150000206805F043F808B3A08A60B9002240F2D1
:101510002771206804F055FF012240F226612068FF
:1015200004F04FFF37E0638A6268D15C206804F002
:10153000A9FF608A401C80B26082A189884201DBD9
:1015400000206082A08A401EA08224E040F2266132
:10155000206805F01BF8F0B1A08A50B9002240F2D3
:101560002661206804F02DFF206AA0B1206A804720
:1015700011E0638A6268D15C206804F083FF608AAE
:10158000401C80B26082A189884201DB0020608219
:10159000A08A401EA08270BD10B519F0C1FC04469F
:1015A00017F0CFF8204619F0BFFC1748FFF781FF6E
:1015B00017F0E2F810BD10B519F0B2FC044617F0B0
:1015C000C0F8204619F0B0FC1048FFF772FF17F082
:1015D000D3F810BD014600BF704700BF0C4A128807
:1015E00002F04002002AF9D0C2B2094B1B1D1A803A
:1015F000704700000C0000204A0400200044004016
:1016000000100140004C00406C1400209418002091
:101610000038014008B50121102004F093FD4FF47B
:10162000E070ADF8000010208DF8030003208DF865
:1016300002006946084804F0C9FA4021064804F04F
:1016400072FB8021044804F06EFB4FF48071024865
:1016500004F069FB08BD000000100140FC4A108046
:101660004FF0C842A2F8001170470146F8480180C7
:101670004FF0C840B0F80001704770B5044644F020
:1016800040010C20FFF7EAFF0C210B20FFF7E6FFDB
:101690000A20FFF7B4FB00210B20FFF7DFFF0D202E
:1016A000FFF7E3FF02460E20FFF7DFFF42EA0020CC
:1016B00085B2284670BD70B50024E6480078082839
:1016C00011D108E06420FFF79AFB601CC4B2642CBF
:1016D00001DDFF2070BD0120FFF7CFFF00F02000EB
:1016E0000028EFD010E008E06420FFF788FB601CC2
:1016F000C4B2642C01DDFF20ECE70120FFF7B5FF49
:1017000000F040000028EFD00120FFF7AEFF0221DB
:1017100001EAA0150020FFF7A8FFC0F3C0000543B1
:101720002846D7E710B50446002306E0E15C03F144
:101730001600FFF793FF581CC3B2082BF6DB10BD51
:1017400010B50446002306E0E15C03F11000FFF74A
:1017500085FF581CC3B2062BF6DB10BD70B50546DD
:101760000C4645F040010C20FFF778FFE1B20D2058
:10177000FFF774FF210A0E20FFF770FF0A210B20EC
:10178000FFF76CFF3220FFF73AFB00210B20FFF739
:1017900065FF70BD70B50646092E1BD2DFE806F066
:1017A000050C1A1A08101A1A15000024212511E038
:1017B0004FF4807441250DE04FF40054812509E079
:1017C0004FF4045440F2011504E04FF4805440F209
:1017D000E11500BF00BF21460020FFF7BFFF2946EB
:1017E0000420FFF7BBFF00211F20FFF737FF70BD6C
:1017F00000B52820FFF739FF02462920FFF735FF03
:1018000042EA00222A20FFF730FF42EA00422B2062
:10181000FFF72BFF42EA0062104600BD10B5002022
:101820008D4908600A20FFF7EAFA01208B49C1F8C8
:101830009C016420FFF7E3FA01211E20FFF70EFF51
:1018400000211F20FFF70AFF03210020FFF706FFFA
:1018500000BF1920FFF7D3FA0020FFF706FF00F0C2
:1018600001000028F5D100210846FFF7F7FE03210B
:101870000020FFF7F3FE00BF1920FFF7C0FA002099
:10188000FFF7F3FE00F001000028F5D110BD10B500
:101890009AB001214FF4F07004F054FC01210802C9
:1018A00004F043FC0121084604F04CFC8020ADF814
:1018B000640003208DF8660010208DF8670019A9D8
:1018C000674804F083F94020ADF8640048208DF8A3
:1018D000670019A9634804F079F94CF23370ADF848
:1018E000640003208DF8660018208DF8670019A9A0
:1018F0005B4804F06BF94FF68070ADF8640003208C
:101900008DF8660018208DF8670019A9564804F074
:101910005DF94FF40050ADF8640003208DF86600C7
:1019200018208DF8670019A9504804F04FF94FF4BA
:101930000070ADF8640003208DF8660018208DF863
:10194000670019A9474804F041F90621084604F048
:1019500053FA4020179000208DF860000C208DF87D
:10196000610001208DF8620017A804F061FE40209C
:1019700004F0D5FE17208DF8580001208DF859008D
:1019800000208DF85A0001208DF85B0016A803F0A6
:101990004EFD002000900190032002900020039053
:1019A000049005900690022007900020089009906E
:1019B00010200A9000200B900C900D900E900F902C
:1019C0004FF4805010900020119012901390CDF899
:1019D00050D0CDF854D007A803F0DEFD012102203D
:1019E00003F042FF2248046808201A4908700020CA
:1019F00048808120487002200871002115484171FB
:101A0000200E14498871210C1248C171210A0172FB
:101A10004472FF200F498872FF210E48C172017382
:101A200041738173C17301744174FFF7F7FE642041
:101A3000FFF7E5F9FFF7DCFE044621460DA019F09B
:101A4000D3FA104884421FD001201AB010BD000004
:101A5000FE000064BC1C00209C81224200802242C7
:101A6000001401400020014000180140001C01400A
:101A7000E8F7FF1F444D393030302049443A2523E0
:101A8000780D0A00460A0090CC490878FFF782FEDC
:101A900000210846FFF7E2FD00210220FFF7DEFDEE
:101AA0003F210820FFF7DAFD38210920FFF7D6FD96
:101AB00000210A20FFF7D2FD00212F20FFF7CEFDE5
:101AC0002C210120FFF7CAFD0F21FE20FFF7C6FDE4
:101AD00080212D20FFF7C2FDB848001DFFF730FE22
:101AE000B6480A30FFF71EFE31210520FFF7B6FD8C
:101AF0008021FF20FFF7B2FDFFF7DDFD0446FF2C3C
:101B000011D004F0010008B1ADA000E0AEA0024683
:101B100004F0020008B10A2000E064200146ACA0F5
:101B200019F062FA02E0B5A019F05EFAA348417814
:101B3000FF20FFF793FD00201AB010BD70B5B74825
:101B40000588FE20FFF791FD04462146FE20FFF7A1
:101B500085FD04F0040010B1B1A019F045FA04F0BD
:101B6000080010B1B1A019F03FFA04F0010018B15B
:101B7000B648006818F045FCA848058070BD10B54F
:101B800016F0DFFD4020B249086001E0FFF7D6FF04
:101B9000B04800680028F9D016F0EEFD10BD2DE920
:101BA000FC410446002700266A460021AA48006836
:101BB00017F01FFE8021FF20FFF750FDF820974906
:101BC000088025461BE06889B84216DD3846791C36
:101BD0008FB26A68125C3046711CCEB201A90A54F9
:101BE000022E0CD19DF804009DF8051040EA01205A
:101BF0008A49891C0880002601E02D680027002DF5
:101C0000E1D1012E04D19DF804008449891C08808B
:101C1000217AFC20FFF722FD2089010AFD20FFF731
:101C20001DFD01210220FFF719FD00BFFE20FFF777
:101C30001CFD00F002000028F8D00221FE20FFF772
:101C40000DFD5E484178FF20FFF708FD82480068DF
:101C500017F0F1FEBDE8FC812DE9FF4100246A4642
:101C600000217D48006817F0C4FD00BFF020FFF799
:101C7000FCFC6A48801C008800F0FF08B8F1000FE7
:101C800078D0B8F1010F0ED974A019F0ADF9002188
:101C90000520FFF7E3FC8021FE20FFF7DFFC204654
:101CA00004B0BDE8F081F2205C4908804FF0C840E4
:101CB000B0F800010390881C008802900322BDF850
:101CC000081010460BF0F4FC04468CB125460CE0DD
:101CD0006F686E8906E04FF0C840B0F800013880A8
:101CE000BF1CB61E002EF6DC2D68002DF0D110E0D2
:101CF000BDF8081062A019F077F901AFBDF80860CF
:101D000005E04FF0C840B0F800013880B61E002E44
:101D1000F7D1BDF80C0000F43F4040B9BDF8080011
:101D2000402804DBBDF80800B0F5C06F3FDDBDF80A
:101D30000C1059A019F058F9BDF80C0000F480708F
:101D400010B159A019F050F9BDF80C0000F4007062
:101D500010B159A019F048F9BDF80C0000F400408A
:101D600010B159A019F040F9BDF80800B0F5C06FE6
:101D70000BDD00E00FE059A019F036F90121002039
:101D8000FFF76CFC0520FFF73AF814B120460BF082
:101D900007FC00246AE70221FE20FFF75FFC812098
:101DA0000649487008464178FF20FFF757FC2A484B
:101DB000006817F040FE204672E70000BC1C0020BF
:101DC00046756C6C0000000048616C660000000005
:101DD000444D393030302053706565643A25644D88
:101DE0006270732C4475706C65783A257320647545
:101DF000706C6578206D6F64650D0A00444D393054
:101E000030302045737461626C697368204C696E70
:101E10006B204661696C6564210D0A00FE00006458
:101E20006F766572666C6F77200D0A006F7665724B
:101E3000666C6F7720636F756E746572206F766560
:101E400072666C6F77200D0A00000000A000002071
:101E50001404014018012442A4000020646D3930AC
:101E600030302072783A207278206572726F722C4E
:101E70002073746F70206465766963650D0A0000D5
:101E800070627566C4DAB4E6C9EAC7EBCAA7B0DC0B
:101E90003A25640D0A00000072785F7374617475EE
:101EA000733A2523780D0A007278206669666F20E0
:101EB0006572726F720D0A0072782063726320651A
:101EC00072726F720D0A00007278206C656E677412
:101ED00068206572726F720D0A0000007278206CC3
:101EE000656E67746820746F6F206269670D0A0001
:101EF00010B50246002006E013784340034CE05C36
:101F0000521C4B1ED9B20029F6DC10BD74B7010873
:101F100008B50121082004F015F9C020ADF8000033
:101F200010208DF8030003208DF8020069469048C8
:101F300003F04CFEC0218E4803F0F5FE08BD10B53D
:101F40008B48006820F070408949086008460068A6
:101F500040F0405008600120864908608649C1F879
:101F600098010420FEF720FF002082490860042029
:101F7000FEF71AFF00208049C1F8980110BD10B586
:101F80007B48006820F07040794908600846006886
:101F900040F04050086000207649091F08607649EB
:101FA000C1F89C010420FEF7FFFE01207149091FC2
:101FB00008607149C1F89C010420FEF7F5FE10BDD0
:101FC00010B500246A48006820F070406849086035
:101FD0000846006840F0004008600120654908603C
:101FE000FEF7E2FE01206449C1F89801FEF7DCFE2D
:101FF00007E0601CC4B2FA2C03DDFFF7C0FF01202C
:1020000010BD5C48803800680028F2D15949091F8A
:10201000086000BFF4E710B500205649091F0860AA
:102020005348006820F07040514908600846006835
:1020300040F04050086000204F49C1F89C01022048
:10204000FEF7B2FE01204B49091F08600220FEF78F
:10205000ABFE00204849C1F8980110BD10B5002022
:102060004449091F08604248006820F07040404918
:1020700008600846006840F04050086001203E4972
:10208000C1F89C010220FEF78FFE01203949091F8B
:1020900008600220FEF788FE00203749C1F8980149
:1020A00010BD70B504463248006820F070403049D9
:1020B00008600846006840F04050086000202D4944
:1020C000091F086000251DE0E00918B10120294919
:1020D000086002E00020274908606006040E022024
:1020E000FEF762FE01202349091F08600220FEF767
:1020F0005BFE00202049C1F898010220FEF754FE43
:10210000681CC5B2082DDFDB70BD70B50546002424
:102110001748006820F070401549086008460068BC
:1021200040F000400860002617E000201149091F18
:1021300008600220FEF738FE01200F49C1F898011F
:102140006006040E0B488038006808B1601CC4B2F9
:102150000120FEF729FE701CC6B2082EE5DB15B97A
:10216000FFF77CFF01E0FFF756FF204670BD00003F
:10217000000C01409C8121420080214210B5FFF7F4
:10218000C7FE10BD70B504460026FFF7D8FE2546F1
:10219000E11704EB11610912A02202EB4101C8B260
:1021A000FFF77FFFFFF70CFFE11704EB1161091246
:1021B000A4EB0121C8B2FFF774FFFFF701FFFFF79F
:1021C000BEFEA120FFF76DFFFFF7FAFE0020FFF72C
:1021D0009CFF0646FFF7D3FE304670BD70B504463F
:1021E0000E46FFF7ACFE2546E11704EB116109121C
:1021F000A02202EB4101C8B2FFF753FFFFF7E0FE58
:10220000E11704EB11610912A4EB0121C8B2FFF739
:1022100048FFFFF7D5FE3046FFF743FFFFF7D0FE3C
:10222000FFF7ADFE0A20FEF7EAFD70BD2DE9F04193
:1022300005460E461746002409E0E20026FA02F29F
:10224000D1B22A1990B2FFF7C9FF601CC4B2BC42D8
:10225000F3DBBDE8F0812DE9F04107460C4600268E
:10226000002509E036023919491B491E88B2FFF7DB
:1022700089FF0644681CC5B2A542F3DB3046BDE8C1
:10228000F08110B5002405E000212046FFF7A6FFED
:10229000601C84B2B4F5806FF6DB10BD30B58DB034
:1022A0006CA103C9CDE90B016CA000680A906CA079
:1022B0000068099044F620656AA30FCB05AC0FC4F3
:1022C0006C4800F0CDFA6B4880796A494979694ACF
:1022D0001279684BDB78CDE90032CDE90210654810
:1022E00083784278017864A018F07EFE6E4800F092
:1022F000DEFA6D48C07800906B48837842780178A8
:102300006AA018F071FE00F0EDFA704908800846E6
:1023100001886FA018F068FE734800F00AFB72484D
:10232000C078009070488378427801786FA018F0E8
:102330005BFE784800F019FB77A018F055FE754851
:10234000C17982794079734B1B79CDE90130CDE9B0
:1023500003217048C07800906E48837842780178F5
:1023600072A018F041FE6B48C17B807B694A527BAA
:10237000684B1B7BCDE90132CDE903016548C07A8A
:1023800000906448837A427A017A6FA018F02CFE9C
:10239000744800F07EFB73480078AA2809D172A027
:1023A00018F022FE744800F07CFB744800F0E4FB57
:1023B00002E073A018F018FEFF20FFF7E3FE0446CA
:1023C000552C02D100200DB030BDFFF75AFF70A090
:1023D00018F00AFE0BA800F04BFA09A800F06FFAFB
:1023E000284600F08EFA0AA800F0ABFA05A800F023
:1023F000C4FA5521FF20FFF7F1FEFF20FFF7C2FED0
:102400000446552C01D10020DDE70120DBE770B543
:1024100006460C46154608E03046721C96B2FFF799
:10242000B1FE04F8010B681E85B2002DF4D170BD19
:1024300070B505460C46164606E021782846FFF79B
:10244000CDFE681C85B2641C301EA6F101018EB25F
:10245000F3D170BDFFFFFFFFFFFF0100202001024D
:10246000276A71FE313030303030302D62373631EE
:102470006332623010000020524649445F4B657958
:102480003A253032582530325825303258253032EE
:102490005825303258253032582EBEF8B6D4BFE910
:1024A000BAC53A25640D0A00010000204950B5D88C
:1024B000D6B72D2D2D2D2D2D2D2D2D2D2D2D2564EA
:1024C0002E25642E25642E25640D0A0006000020AA
:1024D000B6CBBFDABAC52D2D2D2D2D2D2D2D2D2DA1
:1024E0002D2D2535640D0A0008000020C7F8D3F211
:1024F000BFD8D6C6C6F7534E2D2D2D2D2D2D2530E8
:1025000032582530325825303258253032580D0A8D
:10251000000000003A040020C7F8D3F2BFD8D6C6A6
:10252000C6F7CDA8D0C5C2EB2D2D00002532582509
:1025300032582532582532582532582532582532FE
:1025400058253258000000002532582532582532CF
:1025500058253258253258253258253258253258B8
:102560000D0A000017000020BEB2CCAC49502D2D42
:102570002DBFAAC6F40D0A001C0000202000002078
:10258000BEB2CCAC49502D2D2DBDFBD3C30D0A00DE
:10259000415432344358585F44656C6574655F61DB
:1025A0006C6C4461742829210D0A00002DE9FC415E
:1025B0000546002000900190012428E004EB8400EF
:1025C00000F10A063046FFF7DDFD0746A7421CD1A1
:1025D000711C88B204226946FFF719FFE8789DF85C
:1025E0000310884211D1A8789DF8021088420CD1BE
:1025F00028789DF80010884207D168789DF801106E
:10260000884202D12046BDE8FC81601CC4B2212C66
:10261000D4DB01242FE004EB840000F10A063046ED
:10262000FFF7B0FD0746A74223D021463046FFF70B
:10263000D5FD2978721C90B2FFF7D0FD6978B21CE5
:1026400090B2FFF7CBFDA978F21C90B2FFF7C6FD60
:10265000E978321D90B2FFF7C1FD0120FFF792FD2E
:10266000804608F10100C1B20120FFF7B7FD204606
:10267000C9E7601CC4B2212CCDDBF320C3E77CB5D5
:102680000546002000900190012419E004EB84012C
:1026900001F10A00FFF776FDA8420FD104EB840197
:1026A0000A3141F0010004226946FFF7C1FE04EB44
:1026B000840101F10A000021FFF790FD601CC4B203
:1026C000212CE3DB0020C5EBC501FA4A02F811001A
:1026D0000120FFF757FD0646701EC1B20120FFF72B
:1026E0007DFD701EC0B27CBD30B585B0002003906A
:1026F00004900124AFE004EB840000F10A052846B1
:10270000FFF740FDA04225D1691C88B2042203A92D
:10271000FFF77DFE9DF80F009DF80E109DF80D202F
:10272000CDE9002102909DF80C3022462946E2A016
:1027300018F05AFC9DF80C0068B99DF80F0050B9CC
:102740002146EAA018F050FC2046FFF798FF002031
:10275000F049085577E003A9204600F0FFFBED495A
:1027600008550846005D68B3D2480078401CD1493E
:1027700008708020C4EBC401CE4A02F811009DF815
:102780000C00C4EBC40102EB410148709DF80D0040
:10279000C4EBC40102EB410188709DF80E00C4EB4C
:1027A000C40102EB4101C8709DF80F00C4EBC401E5
:1027B00002EB41010871D748025D2146D6A018F00E
:1027C00013FC40E0D9A018F00FFC03A9204600F04C
:1027D000C5FBD04908550846005D68B3B548007888
:1027E000401CB44908708020C4EBC401B14A02F80F
:1027F00011009DF80C00C4EBC40102EB41014870CC
:102800009DF80D00C4EBC40102EB410188709DF8F6
:102810000E00C4EBC40102EB4101C8709DF80F002B
:10282000C4EBC40102EB41010871BA48025D2146C4
:10283000C2A018F0D9FB06E02146C7A018F0D4FBCF
:102840002046FFF71CFF052300221146104618F012
:1028500069FA601CC4B2212CFFF64DAF05B030BD43
:1028600010B5044607222146E620FFF7D0FD10BD33
:1028700010B504462178E620FFF7B0FC6178E72028
:10288000FFF7ACFCA178E820FFF7A8FCE178E9208D
:10289000FFF7A4FC2179EA20FFF7A0FC6179EB2087
:1028A000FFF79CFCA179EC20FFF798FC10BD10B558
:1028B000044604222146C820FFF7A9FD10BD10B52B
:1028C00004462178C820FFF789FC6178C920FFF70A
:1028D00085FCA178CA20FFF781FCE178CB20FFF7C7
:1028E0007DFC10BD08B50020009002226946CC2076
:1028F000FFF78DFD9DF801009DF8001040EA0120D2
:1029000008BD70B50446CC262546E01704EB1060E0
:10291000C0F307213046FFF761FC2546E01704EBC2
:1029200010600012A4EB0020C1B2701CFFF756FC2F
:1029300070BD10B5044604222146CE20FFF767FD86
:1029400010BD70B50446CE2521782846FFF746FC19
:102950006178681CFFF742FCA178A81CFFF73EFCD9
:10296000E178E81CFFF73AFC70BD10B50446102270
:102970002146D220FFF74BFD10BD70B50446D2258D
:1029800021782846FFF72AFC6178681CFFF726FCAF
:10299000A178A81CFFF722FCE178E81CFFF71EFCD9
:1029A0002179281DFFF71AFC6179681DFFF716FCD5
:1029B000A179A81DFFF712FCE179E81DFFF70EFCD5
:1029C000217A05F10800FFF709FC617A05F1090099
:1029D000FFF704FCA17A05F10A00FFF7FFFBE17A9B
:1029E00005F10B00FFF7FAFB217B05F10C00FFF767
:1029F000F5FB617B05F10D00FFF7F0FBA17B05F115
:102A00000E00FFF7EBFBE17B05F10F00FFF7E6FBA4
:102A100070BD70B50446EF2521782846FFF7DEFB30
:102A20006178681CFFF7DAFBA178A81CFFF7D6FBDA
:102A3000E178E81CFFF7D2FB2179281DFFF7CEFBD8
:102A400070BD70B50446F42521782846FFF7C6FB13
:102A50006178681CFFF7C2FBA178A81CFFF7BEFBDA
:102A6000E178E81CFFF7BAFB70BD70B50446F825A5
:102A700021782846FFF7B2FB6178681CFFF7AEFBB0
:102A8000A178A81CFFF7AAFBE178E81CFFF7A6FBDA
:102A900070BD10B5044605222146EF20FFF7B7FCB4
:102AA00010BD10B5044604222146F420FFF7AFFC08
:102AB00010BD0000300200202B2BC6F0CABC3A2506
:102AC0003033643B20C2DFBCAD3A253032643B205A
:102AD000CEEFC0EDA3BA253032582530325825301C
:102AE0003258253032583B20000000000D0ACEEF4E
:102AF000C0EDB5D8D6B7B2BBC4DCCEAA3078303082
:102B0000A3A1C7E5C2DFBCADB5D8D6B73A25643BB3
:102B10000D0A00001A0400205665725B25303264ED
:102B20005D3D253032580D0A000000000D0AB7D671
:102B3000C5E4CAA7B0DCA3A1202000005665725BE3
:102B4000253032645D3D253032582CB7D6C5E4B30C
:102B5000C9B9A6A3A10D0A00B6FEB4CEB7D6C5E486
:102B6000CAA7B0DCA3A1C7E5C2DFBCADB5D8D6B754
:102B70003A25643B0D0A000010B5044604222146A4
:102B8000F820FFF744FC10BD70B505460C4645F231
:102B9000555003F0CDFD284603F0CDFD204603F04F
:102BA000CDFD03F0CEFD03F0D1FD70BD10B503F0F7
:102BB000C8FD10BD2DE9F04188B004460D4616460B
:102BC0001F46DDF838800121042003F0BBFA012103
:102BD000480603F0C4FA4FF48050ADF81C000320FF
:102BE0008DF81E0018208DF81F0007A9CB4802F0B1
:102BF000EDFF4FF40060ADF81C0048208DF81F0079
:102C000007A9C64802F0E2FF00208DF816008DF8F3
:102C100017008DF8180001208DF8190000208DF89C
:102C20001A008DF81B008DF812808DF813408DF876
:102C300014608DF81550ADF8107004A9B84803F071
:102C4000B0FD00208DF80A008DF80B0001208DF8F2
:102C50000C000020ADF80000ADF80200ADF8040053
:102C6000ADF80600ADF8080001208DF80D006846AB
:102C700003F021FE002008B0BDE8F081F0B585B07A
:102C800004460F4600252078012808D02078072820
:102C900005D02078082802D02078092804D160784F
:102CA00040F40070009002E04FF4007000909D48E6
:102CB000019000208DF808008DF809008DF80A7049
:102CC000002505E0615D0DF10B004155681C85B2E2
:102CD000082DF7DB6946924803F0DCFE0646002526
:102CE00001E0681C85B231468D4803F06BFF18B9CE
:102CF00040F6FF708542F4DB40F6FF70854202DB50
:102D0000012005B0F0BD0020FBE730B585B00546D9
:102D10000021834804F036F810B9002005B030BD1A
:102D20006A4600217E4803F0AAFF002404E00DF16A
:102D30000B00005D2855641C082CF8D39DF80A0090
:102D4000ECE730B587B005460C46002005900690AC
:102D5000142D7AD2DFE805F0C20A10233C464DC29A
:102D6000637AC2C2C2C2C2C2C293C2A9A1208DF8F4
:102D700014008DF81500B2E0C1208DF81400207801
:102D80008DF8150060788DF81600A0788DF8170082
:102D9000E0788DF8180020798DF819009FE0A220C6
:102DA0008DF8140020788DF8150060788DF81600E5
:102DB000A0788DF81700E0788DF8180020798DF84C
:102DC000190060798DF81A00A0798DF81B0086E053
:102DD000A3208DF8140020788DF8150060788DF808
:102DE00016007CE001208DF8140020788DF8150085
:102DF00075E007208DF8140020788DF815006078B4
:102E00008DF81600A0788DF81700E0788DF818007E
:102E100020798DF8190060798DF81A005FE008209C
:102E20008DF8140020788DF8150060788DF8160064
:102E3000A0788DF81700E0788DF8180020798DF8CB
:102E4000190060798DF81A0049E047E009208DF8F3
:102E5000140020788DF8150060788DF81600A078A1
:102E60008DF81700E0788DF8180020798DF819009A
:102E700060798DF81A00A0798DF81B002FE01120E1
:102E80008DF8140020788DF8150060788DF8160004
:102E9000A0788DF81700E0788DF8180020798DF86B
:102EA000190060798DF81A0019E013208DF81400CC
:102EB00020788DF8150060788DF81600A0788DF8D0
:102EC0001700E0788DF8180020798DF819006079E6
:102ED0008DF81A00A0798DF81B0000E000BF00BF3C
:102EE0009DF81B009DF81A109DF819209DF81830C8
:102EF000CDE90132CDE903109DF8170000909DF84F
:102F000016309DF815209DF8141007A018F06CF8E5
:102F1000082105A8FFF7B2FE07B030BD0008014048
:102F20000064004001F0001843414E5F53656E6439
:102F30003A2530325820253032582025303258205A
:102F4000253032582025303258202530325820255F
:102F500030325820253032583B2000002DE9F04116
:102F60008AB005460C464FF00008002600270020D6
:102F7000089009900690079020788DF820006078DE
:102F80008DF82100A0788DF82200E0788DF82300DC
:102F90008DF8245008A90220FFF7D3FE14263146ED
:102FA000FAA018F021F813E006A8FFF7AEFE0746D6
:102FB0009DF81D00A84201D0002700E008E005238D
:102FC00000221146104617F0ADFE701EC6B200BFBB
:102FD0000FB9002EE8DC3146EEA018F005F8002FFE
:102FE00040D09DF81F009DF81E109DF81D209DF8F3
:102FF0001C30CDE90132CDE903109DF81B00009093
:103000009DF81A309DF819209DF81810E3A017F0CC
:10301000EBFF9DF81800C22821D19DF819009DF8FA
:10302000201088421BD19DF81A009DF8211088427B
:1030300015D19DF81B009DF8221088420FD19DF8F4
:103040001C009DF82310884209D19DF81D009DF8B1
:103050002410884203D19DF81E80002704E04FF021
:10306000000801E04FF0000840460AB0BDE8F081DA
:103070001CB5044600200090019020788DF80000D7
:1030800060788DF80100A0788DF80200E0788DF866
:10309000030020798DF8040060798DF80500A0798F
:1030A0008DF8060069460320FFF74BFE1CBD1CB5DA
:1030B00000200090019069460120FFF742FE1CBDF0
:1030C0007CB504460D460020009001908DF800402C
:1030D0008DF801509DF801209DF80010B9A017F05F
:1030E00083FF69460420FFF72CFE7CBD2DE9FC41DF
:1030F00004461425002700260020009001900BE0D4
:103100006846FFF702FE06460523002211461046D8
:1031100017F008FE681EC5B20EB9002DF0DCFEB136
:103120009DF80000B32819D19DF8010020709DF88A
:10313000020060709DF80300A0709DF80400E0702C
:1031400004212046FEF7D4FE07469DF80500B8424C
:1031500002D10120BDE8FC810020FBE70020F9E757
:103160000020F7E72DE9F0418AB005460C46002023
:1031700008900990069007900A26804600278DF84F
:10318000185006A90520FFF7DCFD00BF314696A0C8
:1031900017F02AFF13E008A8FFF7B7FD07469DF8D0
:1031A0002100A84201D0002700E008E0052300220A
:1031B0001146104617F0B6FD701EC6B200BF0FB91B
:1031C000002EE8DC31468BA017F00EFF002F70D0E8
:1031D0009DF82100A84205D19DF82000022801D1C8
:1031E000804666E19DF82100A8426AD19DF8200042
:1031F000032866D1052020709DF8220060709DF89C
:103200002300A0709DF82400E0709DF82500207137
:103210000A26002713E008A8FFF777FD07469DF868
:103220002100A84201D0002700E008E00523002289
:103230001146104617F076FD701EC6B200BF0FB9DA
:10324000002EE8DCA7B39DF827009DF826109DF816
:1032500025209DF82430CDE90132CDE903109DF8F9
:10326000230000909DF822309DF821209DF8201029
:1032700063A017F0B9FE9DF82100A8421AD19DF86D
:103280002000042816D19DF8220060719DF82300CB
:10329000A0719DF82400E0719DF8250020729DF832
:1032A000260060724FF0AA0840460AB0BDE8F081DF
:1032B00004E0FCE04FF000080027FAE04FF00008BF
:1032C000F7E09DF82100A8425FD19DF82000052875
:1032D0005BD1062020709DF8220060709DF82300CD
:1032E000A0709DF82400E0709DF8250020710A264A
:1032F00013E008A8FFF709FD07469DF82100A84242
:1033000001D0002700E008E0052300221146104606
:1033100017F008FD701EC6B200BF0FB9002EE8DC22
:1033200097B39DF827009DF826109DF825209DF85D
:103330002430CDE90132CDE903109DF8230000903F
:103340009DF822309DF821209DF820102CA017F028
:103350004BFE9DF82100A84269D19DF82000062867
:1033600065D19DF8220060719DF82300A0719DF841
:103370002400E0719DF8250020729DF826006072FF
:103380004FF0AA08404690E755E057E04F76657247
:103390003D2564002D25643B2000000052653C3C27
:1033A00025303258253032582530325825303258A1
:1033B0002530325825303258253032582530325891
:1033C000200000003E3E3E3E3E3E3E3E3EB9E3B261
:1033D000A520CBAEB7D13D25643B20C2F6B3E5CAEC
:1033E000FD3D25640D0A0000C2D6D1AD2025642024
:1033F000000000002D2025643B20200D0A00000065
:10340000253032582025303258202530325820259A
:10341000303258202530325820253032582025307F
:10342000325820253032580D0A000000FFE74FF0D7
:10343000000800273DE04FF000083AE09DF8210029
:10344000A84216D19DF82000042812D19DF8220030
:1034500060719DF82300A0719DF82400E0719DF833
:10346000250020729DF8260060724FF0AA084046A1
:103470001BE79DF82100A84216D19DF820000628E0
:1034800012D19DF8220060719DF82300A0719DF873
:103490002400E0719DF8250020729DF826006072DE
:1034A0004FF0AA08404600E74FF0000801E04FF057
:1034B00000084046F9E61CB5044600200090019043
:1034C00020788DF8000060788DF80100A0788DF8E4
:1034D0000200E0788DF8030020798DF8040060790F
:1034E0008DF8050069460620FFF72BFC1CBD1CB5B6
:1034F000044600200090019020788DF8000060784C
:103500008DF80100A0788DF80200E0788DF80300B6
:1035100020798DF8040060798DF806006946112045
:10352000FFF70FFC1CBD000008B5FEA0006800906E
:103530009DF80100401EC1B26846FEF7D9FC8DF827
:1035400003009DF8012069460120FDF761FE9623E6
:1035500000221146104617F0E5FB08BD70B586B095
:10356000044600252146F0A017F03EFDC4EBC40040
:10357000EF4911F8100000F08000802832D1C4EB30
:10358000C40001EB4000407858B9C4EBC40001EB23
:103590004000007928B90020C4EBC401E44A02F8D5
:1035A0001100E448006808B9012000E00020E1496A
:1035B000086003A92046FFF7D5FD054625B903A9F4
:1035C0002046FFF7CFFD0546022D0CD1C4EBC40009
:1035D000D74911F8100020F02300C4EBC401D44AED
:1035E00002F81100EEE065B9C4EBC400D04911F84F
:1035F000100040F02000C4EBC401CD4A02F81100D5
:10360000E0E09DF80C0005280CD1C4EBC400C849CB
:1036100011F8100040F00100C4EBC401C44A02F8E4
:1036200011000FE09DF80C0006280BD1C4EBC4007C
:10363000BF4911F8100040F00200C4EBC401BC4ABD
:1036400002F811009DF80D00C4EBC401B84A02EB6A
:10365000410148719DF80E00C4EBC40102EB410129
:1036600088719DF80F00C4EBC40102EB4101C871E1
:103670009DF81000C4EBC40102EB410108729DF8F3
:103680001100C4EBC40102EB410148729DF8120025
:10369000C4EBC40102EB410188729DF81300C4EB36
:1036A000C40102EB4101C8729DF81400C4EBC401CF
:1036B00002EB410108739DF81500C4EBC40102EB55
:1036C00041014873C4EBC400114611F8100000F02A
:1036D0000302214698A017F087FCC4EBC40094496C
:1036E00001EB4000007A0090C4EBC4000E4606EBEC
:1036F0004000C379C4EBC40006EB40008279C4EB00
:10370000C40006EB4000417992A017F06DFCC4EBB9
:10371000C400324602EB4000407A0004C4EBC4020D
:10372000334603EB4202927A40EA0220C4EBC40221
:1037300003EB4202D27A40EA02018DA017F054FC5A
:10374000C4EBC400334603EB4000427BC4EBC4002F
:1037500003EB4000017B8AA017F046FC8DF8044083
:103760009DF80D008DF805009DF80E008DF80600FF
:103770009DF80F008DF807009DF810008DF80800E7
:10378000C4EBC400314611F8100000F0030001281A
:1037900003D1AA208DF809000BE0C4EBC4006449F2
:1037A00011F8100000F00300022802D155208DF816
:1037B0000900052300221146104617F0B3FA01A8AC
:1037C000FFF779FE06B070BD70B58CB004460020DE
:1037D00009900A900B90079008900590069000269B
:1037E0000A255448006808B9012000E0002051492A
:1037F00008602078AA287CD1607AC0EBC0004C49D0
:1038000011F8100000F03F0040F08000617AC1EB39
:10381000C101474A02F81100617A61A017F0E4FB88
:1038200060788DF82400A0788DF82500E0788DF878
:10383000260020798DF82700A07A8DF82800A0793D
:103840008DF82900E0798DF82A00207A8DF82B0078
:1038500060798DF82C00A07A8DF82D00607A8DF8B3
:103860001C009DF824008DF81D009DF825008DF8A2
:103870001E009DF826008DF81F009DF827008DF88A
:1038800020009DF828008DF821009DF823009DF868
:1038900022109DF821209DF82030CDE90132CDE99C
:1038A00003109DF81F0000909DF81E309DF81D200C
:1038B0009DF81C103EA017F097FB07A90820FFF702
:1038C00040FA642300221146104617F02BFA607A62
:1038D0008DF81C009DF829008DF81D009DF82A0028
:1038E0008DF81E009DF82B008DF81F009DF82C0010
:1038F00000E087E08DF820009DF82D008DF8210074
:103900000A2109A8FEF7F4FA8DF822009DF8230099
:103910009DF822209DF821109DF82030CDE901313D
:103920005CE00000F304A1002532643B20000000AD
:10393000300200209C012242C2DFBCADB5D8D6B710
:10394000A3BA25643BBFA8D7B4CCAC25643B2020E8
:1039500000000000BFA8BAC5A3BA253032582530F0
:10396000325825303258253032583B202000000094
:10397000BDF0B6EEA3BA2536643B2020200000003F
:10398000BFA8D0A3D1E9A3BA2532643B202020CD23
:10399000A8D0C5C2EBA3BA253032583B200D0A008F
:1039A0000D0AB7FECEF1C6F7202532643B20000099
:1039B00025303258202530325820253032582025E5
:1039C00030325820253032582025303258202530CA
:1039D000325820253032580D0A000000CDE903206E
:1039E0009DF81F0000909DF81E309DF81D209DF849
:1039F0001C10AFF2440017F0F7FA07A90920FFF7EF
:103A0000A0F967E02078BB281DD161784CA017F0A1
:103A1000EBFA60788DF81C00A0788DF81D00E07836
:103A20008DF81E0020798DF81F0060798DF8200038
:103A3000A0798DF82100E0798DF8220007A91320E4
:103A4000FFF77FF946E0207855282AD16078C0EB4F
:103A5000C000434911F8100000F03F0040F0400062
:103A60006178C1EBC1013E4A02F8110061783DA0C6
:103A700017F0BAFA60788DF81C00A0788DF81D0058
:103A8000E0788DF81E0020798DF81F0060798DF8A0
:103A9000200000208DF8210007A91120FFF751F91F
:103AA00018E02078CC2815D18020E179C1EBC10144
:103AB0002B4A02F81100A3796279617830A017F0DF
:103AC00093FAE0798DF81C00607939490870A07983
:103AD000384908700A250BE005A8FFF716F90646D5
:103AE000052300221146104617F01CF9681EC5B2C6
:103AF0000EB9002DF0DC0CB070BD0020704770B521
:103B00002DA017F071FA002417E021462BA017F022
:103B10006BFA00250AE0C4EBC400114A02EB400036
:103B2000415D28A017F060FA681CC5B20E2DF2DBCB
:103B300021A017F059FA601CC4B21A2CE5DB70BD45
:103B40000D0AB7FECEF1C6F720B2E5BFA8CAFDBE8A
:103B5000DDB0FC20D2ECB3A3202532643B20000072
:103B6000300200200D0AB7FECEF1C6F720D0C4CC3B
:103B7000F8B0FC20D2ECB3A3202532643B20000037
:103B80000D0AB7FECEF1C6F720D0C4CCF8B0FC20A9
:103B9000D5FDB3A33A2532642CCBAEB7D13A25324A
:103BA000642CC2F6B3E5CAFD3A2532643B0D0A0027
:103BB0000E0000200D0000200D0A000025303264A8
:103BC0002D2D0000253032582C00000008B50121B1
:103BD000082002F0B7FA03208DF8020010208DF8BB
:103BE00003004002ADF800006946654801F0EEFFB1
:103BF0004FF40040ADF800006946614801F0E6FF6F
:103C000048208DF803004FF48040ADF8000069466D
:103C10005B4801F0DBFF08BD002000E0401C0228EB
:103C2000FCD3704700B5024600231FE002F080007D
:103C300028B14FF4004052491031086004E04FF4BD
:103C400000404F4914310860FFF7E6FF4FF4005081
:103C50004B49103108605006020EFFF7DDFF4FF4AC
:103C60000050474914310860581CC3B2082BDDDBF3
:103C7000FFF7D2FF00BD70B5002400251AE06006F2
:103C8000040E4FF480413E4802F033F8012801D180
:103C9000601CC4B24FF40050394910310860FFF77E
:103CA000BBFF4FF40050364914310860FFF7B4FFF2
:103CB000681CC5B2082DE2DB204670BD00B5024687
:103CC00000231FE002F0800028B14FF400402C498F
:103CD0001031086004E04FF40040294914310860B5
:103CE0004FF400502649143108605006020EFFF7C9
:103CF00093FF4FF40050224910310860FFF78CFF0A
:103D0000581CC3B2082BDDDB00BD70B500240025B4
:103D10001AE04FF400501A4914310860FFF77CFF95
:103D20006006040E4FF48041154801F0E2FF0128BF
:103D300001D1601CC4B24FF4005011491031086029
:103D4000FFF76AFF681CC5B2082DE2DB204670BD94
:103D500001200C490870704700200A49087070471C
:103D600008480078704728B94FF40051044A1432CB
:103D7000116004E04FF40051014A103211607047A5
:103D8000000C01404C00002010B504464CB9FFF770
:103D9000DFFF0120FFF7E7FF4FF48050FD49086087
:103DA00006E04FF48050FB49091F0860FFF7D4FF7D
:103DB00010BD08B50121082002F0C4F90120FFF769
:103DC000E3FF10208DF8030003208DF802004FF46C
:103DD0008050ADF800006946EE48143801F0F6FE58
:103DE00008BD00B585B00020ADF800004FF482702A
:103DF000ADF802000020ADF804000220ADF8060086
:103E00000120ADF808004002ADF80A001020ADF81E
:103E10000C000020ADF80E000720ADF81000694638
:103E2000DD4803F0C3F90121DB4803F064FA05B073
:103E300000BD2DE9F04104460E4615466019D749EC
:103E40004969884202D90120BDE8F0810DB90020FE
:103E5000FAE70020FFF798FF0320FFF72FFFC4F3D6
:103E60000740FFF72BFFC4F30720FFF727FFE0B25F
:103E7000FFF724FF0BE0FFF748FF074616F8011B8A
:103E8000B94204D00120FFF77FFF0120DCE7281EA4
:103E9000A5F10105EFD10120FFF776FF0020D3E760
:103EA00010B50020FFF770FF0520FFF707FF00BFE8
:103EB000FFF72BFF00F001000028F9D10120FFF7E8
:103EC00063FF10BD10B50020FFF75EFF0620FFF76F
:103ED000F5FE0120FFF758FF10BD2DE9F041044623
:103EE0000E461546AD480068AD49884253D1022DB3
:103EF00008DA284605EBD0714910A5EB410109B15C
:103F0000BDE8F081FFF7DEFF0020FFF73DFFAD20A9
:103F1000FFF7D4FEC6F30740FFF7D0FEC6F3072035
:103F2000FFF7CCFEF0B2FFF7C9FE14F8010BFFF764
:103F3000C5FE14F8010BFFF7C1FE0120FFF724FFB7
:103F4000FFF7AEFFA81E85B2002713E00020FFF7A1
:103F50001BFFAD20FFF7B2FE14F8010BFFF7AEFE1A
:103F600014F8010BFFF7AAFE0120FFF70DFFFFF782
:103F700097FF7F1C05EBD571B7EB610FE6D30020EF
:103F8000FFF702FF0420FFF799FE0120FFF7FCFE78
:103F9000FFF786FF38E04FF0000824E0FFF792FFBC
:103FA0000020FFF7F1FE0220FFF788FEC6F307406E
:103FB000FFF784FEC6F30720FFF780FEF0B2FFF79D
:103FC0007DFE002704E014F8010BFFF777FE7F1C4D
:103FD000FF2FF8D90120FFF7D7FEFFF761FF06F5A5
:103FE000807608F10108E91705EB1161B8EB212F84
:103FF000D4D30020FFF7C8FE0420FFF75FFE0120A6
:10400000FFF7C2FEFFF74CFF00BF79E710B504468B
:10401000FFF758FF0020FFF7B7FE2020FFF74EFE06
:10402000C4F30740FFF74AFEC4F30720FFF746FE3C
:10403000E0B2FFF743FE0120FFF7A6FEFFF730FFD7
:1040400010BD70B506460C46154625B1601953499A
:104050004969884200D970BD0020FFF795FE032012
:10406000FFF72CFEC4F30740FFF728FEC4F3072038
:10407000FFF724FEE0B2FFF721FE03E0FFF745FE65
:1040800006F8010B281EA5F10105F7D10120FFF765
:104090007BFE00BFDFE770B5034600240BE013F89A
:1040A000015BE843C5B211F8010B284008B10120BB
:1040B00070BD601C84B29442F1DB0020F8E72DE96A
:1040C000F05F07460D46164616B90120BDE8F09F81
:1040D00032484069A84201D80020F7E72F48008BFA
:1040E000B04201DA0020F1E7324629462D48FFF7B9
:1040F000A8FF324639462B4817F0D6F808B90120F8
:10410000E4E74FF0000A324639462648FFF7C3FF7E
:1041100008B14FF0010A2148008B401E25EA000833
:104120001E48008BB0420BD1002404E0385D1D49CD
:104130000855601C84B21948008BA042F6DC10E0E0
:104140001648028B41461748FFF77BFF1348008B48
:10415000401E284084B2134908193246394617F0E8
:1041600012F94FF0000B002434E0BAF1010F02D134
:104170004046FFF74BFF0948028B41460948FFF7CD
:10418000ACFE324639462846FFF753FE60B94FF081
:10419000010B21E0140C014000300140D01C002034
:1041A0004125BF00EC1C0020324639462846FFF767
:1041B00040FE10B94FF0010B0EE04FF0000903E094
:1041C00009F101001FFA80F942F210708145F7DB16
:1041D000601C84B2032CC8DB00BF584676E72DE98B
:1041E000F05F07460D4616464FF00008C146C2462E
:1041F0000024A346E448008BB5FBF0F100FB11500E
:104200001FFA80FAE048008BA0EB0A0084B2DE4877
:10421000008B96FBF0F01FFA80F8DB48008B96FBD2
:10422000F0F100FB11601FFA80F9BAF1000F2AD1FA
:10423000B8F1000F08D1324629463846FFF73FFF54
:1042400000287DD1BDE8F09F0EE0CF48028B2946C3
:104250003846FFF734FF08B90020F3E7CA48008B5F
:104260000544C948008B0744B8F10000A8F10101DA
:104270001FFA81F8E9D14A4629463846FFF71FFF61
:10428000002861D1DEE7B8F1000F1FD1A14515DD8F
:10429000A9EB04001FFA80FB224629463846FFF7A7
:1042A0000EFF08B90020CDE7254427445A46294689
:1042B0003846FFF704FF002846D1C3E732462946B7
:1042C0003846FFF7FCFED8BB0020BBE7301B86B2A8
:1042D000AD48008B96FBF0F01FFA80F8AA48008BDF
:1042E00096FBF0F100FB11601FFA80F92246294687
:1042F0003846FFF7E4FE08B90020A3E72544274429
:104300000EE0A148028B29463846FFF7D8FE08B9CF
:10431000002097E79C48008B05449B48008B07448E
:10432000B8F10000A8F101011FFA81F8E9D1B9F153
:10433000000F09D04A4629463846FFF7C0FE00E084
:1043400002E008B900207DE701207BE710B5FFF708
:10435000B9FD0020FFF718FDC720FFF7AFFC0120D3
:10436000FFF712FDFFF79CFD10BD10B5044686480F
:1043700000688649884215D10020FFF705FD5020CE
:10438000FFF79CFC0120FFF7FFFC0020FFF7FCFC7F
:104390000120FFF793FC2046FFF790FC0120FFF778
:1043A000F3FC0BE00020FFF7EFFC0120FFF786FC99
:1043B0002046FFF783FC0120FFF7E6FC10BD2DE946
:1043C000F0410020FFF7E0FC9F20FFF777FCFFF7AC
:1043D0009CFC0546FFF799FC0646FFF796FC07464E
:1043E0000120FFF7D1FC280440EA062040EA070438
:1043F0002046BDE8F08110B5FFF7E1FF6249086093
:1044000063A016F0F1FD6048006860494942084425
:1044100048B166490844A8B165490844002820D03D
:1044200001283CD12CE063A15748001D16F068FF1D
:1044300063A016F0D9FD4FF40010534948614012B3
:1044400008833BE063A15048001D16F059FF64A0AB
:1044500016F0CAFD4FF400104B4948614012088322
:104460002CE063A14848001D16F04AFF62A016F038
:10447000BBFD4FF4000044494861C01208831DE0B1
:1044800060A14148001D16F03BFF60A016F0ACFD96
:104490004FF080703C494861001308830EE05FA133
:1044A0003948001D16F02CFF60A016F09DFD4FF45A
:1044B0000010354948614012088300BF00BF10BD9D
:1044C0001FB500200090FFF774FCFFF794FF002059
:1044D000FFF75AFC0420FFF7F1FB0120FFF754FC23
:1044E000FFF7DEFC0020FFF740FF2748021D0168B0
:1044F00053A016F079FD2448028B4069010D5AA0A3
:1045000016F072FD0A22114601A8FFF79AFD9DF8E8
:104510000400AA2836D09DF80600AA2832D09DF8BB
:104520000800AA282ED09DF80A00AA282AD058A050
:1045300016F05AFDFFF70AFF5DA016F055FD0024A6
:1045400004E0AA2001A90855601CC4B20A2CF8DBBB
:104550000A22114601A8FFF742FE18B95AA016F028
:1045600043FD02E05FA016F03FFD0422642168468F
:10457000FFF735FE18B962A016F036FD02E069A01B
:1045800016F032FD1FBD0000D01C00204125BF00E9
:10459000B3F5CABCBBAFCDE2B2BF466C617368A3D2
:1045A000ACD0CDBAC5A3BA20200000002C05FDFF79
:1045B000FEDFD2FF53535432355646303136420077
:1045C00053535432355646303136422E2E2E0D0A74
:1045D000000000004D5832354C3136303645000071
:1045E0004D5832354C31363036452E2E2E0D0A00C0
:1045F00057323551363400005732355136342E2E6D
:104600002E0D0A00573235513132380057323551AC
:104610003132382E2E2E0D0A00000000556E6B6EC2
:104620006F7720466C61736800000000556E6B6EFA
:104630006F7720466C6173682E2E2E0D0A000000E5
:10464000BCECB2E2B5BDB4AED0D0466C6173682CA0
:10465000204944203D20253038582C20D0CDBAC5E3
:104660003A202573200D0A0020202020C8DDC1BF7C
:10467000203A2025644DD7D6BDDA2C20C9C8C7F80A
:10468000B4F3D0A1203A202564D7D6BDDA0D0A00B4
:10469000BCECB2E2B3F6D0C2466C617368A3ACD78F
:1046A000BCB1B8B2C1B3FD466C6173680D0A0000BD
:1046B000B2C1B3FDD5FBB8F6466C617368CDEAB301
:1046C000C9A3A10D0A000000D0B4B4AED0D0466C8E
:1046D000617368B3F5CABCCAFDBEDDB3F6B4EDA321
:1046E000A10D0A00D0B4B4AED0D0466C617368B3EB
:1046F000F5CABCCAFDBEDDB3C9B9A6A3A10D0A00A7
:10470000B8FCD0C2B5B1C7B0D2D1CAB9D3C3B5D83D
:10471000D6B7A3ACD0B4C8EBB3F6B4EDA3A10D0AE1
:1047200000000000B8FCD0C2B5B1C7B0D2D1CAB940
:10473000D3C3B5D8D6B7A3ACD0B4C8EBB3C9B9A668
:10474000A3A10D0A0000000070B505460C4606E066
:10475000284600F00EFC012801D1002070BD201E6B
:10476000A4F10104F4D1401EF8E710B50446204638
:1047700000F0E6FB002010BD2DE9F84304460D468D
:1047800090460020286041466846FFF7DDFF18B1DB
:104790004FF0FF30BDE8F8839DF80000182813D0D3
:1047A00006DC012809D0022809D0042820D109E01C
:1047B00041281AD061281BD118E080271BE04FF454
:1047C000806718E00020E5E741466846FFF7BCFF38
:1047D00040B99DF80000182804D14FF0FF30286040
:1047E0000020D7E74FF0FF30D4E700BF0120D1E72A
:1047F0004FF0FF30CEE700BF9DF80000207001268B
:1048000009E0A0194146FFF79FFF10B14FF0FF30BC
:10481000C0E7701C86B2781D8642F2DB6178A07812
:1048200080F0FF00814202D04FF0FF30B2E72F60EE
:104830000020AFE72DE9F04FADF22C4D07460020E8
:104840000190824683468146029000BF00260020E8
:104850000390B84600BF4FF4801204A909A8FFF7DF
:104860008BFF10B101287DD18AE04FF00009049838
:10487000B0F1FF3F01D070B907E00620FFF775FFE8
:1048800000200DF22C4DBDE8F08F0620FFF76DFFE4
:104890000120039072E09DF82500F1B2884203D018
:1048A0001520FFF762FF69E0002E48D19DF8270030
:1048B00000283DD000250DF1270405E014F8012B58
:1048C00028466D1CFC490A54207808B1FF2DF5DDFF
:1048D000002228466D1CF8490A540025641C05E096
:1048E00014F8012B28466D1C05A90A5420782028AD
:1048F00001D0102DF4DB002228466D1C05A90A54B6
:1049000001A905A800F09AFA0198B0F5002F08DB7C
:104910001820FFF72AFF1820FFF727FF4FF0FF307E
:10492000AFE70620FFF721FF4320FFF71EFF22E03D
:104930000620FFF71AFF0120039083461EE00DF1C9
:1049400027014046049A16F01EFD082251463846BB
:10495000FFF745FC50B91820FFF707FF1820FFF7B5
:1049600004FF00E015E06FF001008AE7049882443C
:104970000620FFF7FAFE761C0120029000BF1CE023
:104980001820FFF7F2FE1820FFF7EFFE6FF002008D
:1049900077E70298002801DD09F10109B9F1050F57
:1049A00007DD1820FFF7E1FE1820FFF7DEFE0020EC
:1049B00067E74320FFF7D9FE00BF00BF0398002838
:1049C0003FF449AF00BF00BFBBF1000F3FF43EAF63
:1049D00000BF00BF019854E70146002070472DE951
:1049E000FE4305460F46904601202870002068705F
:1049F000FF20A870002404E0395DE01C2954601CED
:104A000084B2385D08B1FF2CF6DD0021E01C29548A
:104A10006846D8F8001000F0E7F90026201D84B29F
:104A200008E03046711C8EB21DF800202046611C43
:104A30008CB22A541DF806000028F2D1264603E065
:104A40000020A855701C86B2832EF9DBBDE8FE83DA
:104A5000F0B5074614461D46B5F5806F02D34FF4F6
:104A6000806C01E04FF0800C63469D4201D2AC4661
:104A700000E09C461FFA8CF2B3F5806F04D14FF032
:104A8000020C81F800C003E04FF0010C81F800C077
:104A90004C706FEA040C81F802C03E46032007E028
:104AA00016F801CB01F800C000F1010C1FFA8CF0E0
:104AB00002F1030C6045F3DB9A420EDC1FFA8CF026
:104AC00007E04FF01A0C01F800C000F1010C1FFACA
:104AD0008CF003F1030C6045F3DBF0BD10B5034629
:104AE0000C46194644F4807200BF4900520002F49B
:104AF000807000B1491C01F4803010B141F22100F6
:104B0000414002F480300028EFD088B210BDF0B5EB
:104B100005460E460024AF1905E015F8011BA0B2AA
:104B2000FFF7DCFF0446BD42F7D3A0B20021FFF738
:104B3000D5FF044620460021FFF7D0FF044620465B
:104B4000F0BD30B502460023541802E012F8015BB4
:104B50002B44A242FAD3D8B230BD70B505460E46FA
:104B6000002404E0285DFFF700FE601C84B2B4421C
:104B7000F8DB70BD2DE9F74FADF5A36D0020019076
:104B8000814600248046002606E0DDF81C05805D95
:104B900004A98855701CC6B2FF2EF6DB01200190D7
:104BA0000DF5A46204A944A8FFF719FF00BF8321F3
:104BB00044A8FFF7D2FF019860B180210DF21310D5
:104BC000FFF7A5FF05462812FFF7CFFDE8B2FFF774
:104BD000CCFD08E080210DF21310FFF7B2FF039027
:104BE0000398FFF7C2FD42F2107102A8FFF7ACFD77
:104BF00030B99DF80800062803D14FF0010800E005
:104C0000641CB8F1000F01D10A2CD0D30A2C04D3B4
:104C1000E0B20DF2245DBDE8F08FDDF818A5DDF8F7
:104C200020954FF0010B5EE00BF0FF024B4644A9CC
:104C30005046FFF70DFF4FF0000800208DF80800E8
:104C4000002400BFB9F5806F02D34FF4806700E005
:104C50008027F81C81B244A8FFF77FFF019860B15C
:104C600039460DF21310FFF752FF05462812FFF7E1
:104C70007CFDE8B2FFF779FD08E039460DF213102C
:104C8000FFF75FFF03900398FFF76FFD0B4902A842
:104C9000FFF75AFDE8B99DF80800062819D14FF032
:104CA0000108B94511D9BA44A9EB070940F2F1103E
:104CB000834505D1FF20ACE7EC2C0020A086010045
:104CC0000BF101001FFA80FB04E0BA444FF0000929
:104CD00000E0641CB8F1000F01D10A2CB2D30A2CF9
:104CE00001D3E0B295E7B9F1000F9DD14FF0000874
:104CF00000208DF80800002400BF0420FFF735FDD8
:104D000042F2107102A8FFF71FFD30B99DF80800AC
:104D1000062802D14FF0010800E0641CB8F1000F32
:104D200001D10A2CE9D30A2C01D3E0B271E74FF08C
:104D3000000800208DF80800002401208DF81001E3
:104D400000208DF81101FF208DF81201032604E0E8
:104D5000002044A98855701CC6B2832EF8DB00BF22
:104D6000832144A8FFF7F9FE80210DF21310FFF70D
:104D7000CEFE05462812FFF7F8FCE8B2FFF7F5FC77
:104D800042F2107102A8FFF7DFFC30B99DF808006D
:104D9000062803D14FF0010800E0641CB8F1000FB1
:104DA00001D10A2CDCD30A2C01D3E0B231E700BFD9
:104DB0000420FFF7DAFC42F2107102A8FFF7C4FCEE
:104DC00030B99DF80800062802D14FF0010800E034
:104DD000641CB8F1000F01D10A2CE9D30A2C01D3CD
:104DE000E0B216E7002014E7F0B5D04A0025002411
:104DF000002320E0B1FBF2F6303606F0FF0C2E4621
:104E00006D1C00F806C0B1FBF2F602FB16110A2673
:104E1000B2FBF6F26E1E865D302E01D1012600E057
:104E200000260CB9012700E000273E400EB1002506
:104E300000E0641C5B1C0A2BDCD3F0BD70B502469D
:104E40000C460021002500231078302843D15078EB
:104E5000782802D0507858283DD1907808B90020A1
:104E600070BD022130E0505C10B9236001252DE0B7
:104E7000505C412802DB505C46280BDD505C612809
:104E800002DB505C662805DD505C302819DB505C85
:104E9000392816DC505C302805DB505C392802DCF0
:104EA000505C30380AE0505C412805DB505C4628F5
:104EB00002DC505C373801E0505C573800EB0313DC
:104EC00001E0002502E0491C0B29CCD300BF0B29CF
:104ED00034D3002532E000212AE0505C10B9236071
:104EE000012527E0505C6B2802D0505C4B2804D190
:104EF00019B19B02236001251CE0505C6D2802D093
:104F0000505C4D2804D119B11B052360012511E027
:104F1000505C302809DB505C392806DC505C3038A6
:104F200003EB830600EB460301E0002502E0491C89
:104F30000B29D2D300BF0B2900D3002528468FE7C9
:104F400010B5044621467A4801F09CFA00BF802142
:104F5000774801F005FB0028F9D010BD10B50446D4
:104F600003E02078FFF7ECFF641C20780028F8D1DC
:104F700010BD38B5044669460220FCF7A9F920B1F6
:104F80009DF800002070012038BD0020FCE708B526
:104F90000020009004E06846FFF7EBFF00B100E05E
:104FA000F9E700BF9DF8000008BD70B50646002572
:104FB000002400BFFFF7EBFF04460D2C00D11AE0E0
:104FC000082C05D11DB15BA0FFF7C8FF6D1E11E0D5
:104FD000802D04D358A0FFF7C1FF00250AE0202C44
:104FE00007DB7E2C05DC28466D1C34542046FFF779
:104FF000A7FF00BFDEE700BF57A0FFF7AFFF00200D
:10500000705570BD1FB5044623E06846FFF7CDFF1D
:105010009DF8000000B91CE09DF80000612803D055
:105020009DF80000412808D19DF8010028B94BA047
:10503000FFF794FF002004B010BD21466846FFF73B
:10504000FDFE18B94AA0FFF789FF01E00120F2E751
:1050500000BFDAE701B500200099C1F30A021AB1D6
:10506000012202EBD12000E0C80A08BD70473EB51E
:1050700045A207CA8DE80700002446A0FFF76EFF8F
:105080005348FFF7D7FB0446002C16DD5148FFF7C5
:1050900065FF5148FFF762FF21466846FFF7A4FE0F
:1050A0004EA0FFF75BFF6846FFF758FF4EA0FFF7E3
:1050B00055FF50A0FFF752FF14E0601C18B953A031
:1050C000FFF74CFF0EE0A01C18B960A0FFF746FFE9
:1050D00008E0E01C18B964A0FFF740FF02E068A0F8
:1050E000FFF73CFF3EBD00241FE06DA0FFF736FF39
:1050F0007BA0FFF733FF8AA0FFF730FF98A0FFF7F0
:105100002DFFA748006810B1A6A0FFF727FFB5A0A4
:10511000FFF724FFFFF73BFF0446312C02D1FFF7D6
:10512000A6FF02E0322C00D000BFDEE700CA9A3BA7
:105130000048004008200800436F6D6D616E6420D8
:10514000737472696E672073697A65206F76657211
:10515000666C6F770D0A00000A0D000055736572CA
:105160002043616E63656C6C6564200D0A0000006D
:105170004572726F722C20496E7075742061676180
:10518000696E3A200D0A00002020202020202020D7
:105190002020000057616974696E6720666F722075
:1051A0007468652066696C6520746F206265207381
:1051B000656E74202E2E2E20287072657373202742
:1051C000612720746F2061626F7274290A0D0000DC
:1051D000EC2D0020A8BA0108EC2C00200A0D205369
:1051E000697A653A20000000202042797465730DC9
:1051F0000A0000002D2D2D2D2D2D2D2D2D2D2D2D89
:105200002D2D2D2D2D2D2D0A000000000A0A0D54E4
:10521000686520696D6167652073697A65206973C7
:1052200020686967686572207468616E20746865BB
:1052300020616C6C6F776564207370616365206DAD
:10524000656D6F7279210A0D000000000A0A0D5683
:105250006572696669636174696F6E206661696C05
:105260006564210A0D0000000D0A0A41626F727424
:10527000656420627920757365722E0A0D00000046
:105280000A0D4661696C656420746F207265636500
:10529000697665207468652066696C65210A0D0071
:1052A0000D0A3D3D3D3D3D3D3D3D3D3D3D3D3D3D91
:1052B0003D3D3D3D204D61696E204D656E75203D43
:1052C0003D3D3D3D3D3D3D3D3D3D3D3D3D3D3D3D0E
:1052D0003D3D3D3D3D3D3D3D3D3D3D0D0A0A00000E
:1052E0002020446F776E6C6F616420496D61676543
:1052F00020546F207468652053544D33324631304A
:105300007820496E7465726E616C20466C617368BA
:10531000202D2D2D2D2D2D2D20310D0A0A000000C0
:10532000202055706C6F616420496D61676520466F
:10533000726F6D207468652053544D33324631309E
:105340007820496E7465726E616C20466C6173687A
:10535000202D2D2D2D2D2D2D20320D0A0A0000007F
:1053600020204578656375746520546865204E6516
:10537000772050726F6772616D202D2D2D2D2D2D90
:105380002D2D2D2D2D2D2D2D2D2D2D2D2D2D2D2D4D
:105390002D2D2D2D2D2D2D2D20330D0A0A00000031
:1053A00060000020202044697361626C652074688D
:1053B000652077726974652070726F7465637469B3
:1053C0006F6E202D2D2D2D2D2D2D2D2D2D2D2D2D97
:1053D0002D2D2D2D2D2D2D2D2D2D2D2D20340D0A46
:1053E0000A0000003D3D3D3D3D3D3D3D3D3D3D3DD7
:1053F0003D3D3D3D3D3D3D3D3D3D3D3D3D3D3D3DDD
:105400003D3D3D3D3D3D3D3D3D3D3D3D3D3D3D3DCC
:105410003D3D3D3D3D3D3D3D3D3D3D3D3D3D0D0A1F
:105420000A00000031490143314A1160704770B5EC
:10543000002100230F22C47804B32D4C246804F407
:10544000E064C4F5E064210AC1F10403CA40447871
:1054500004FA03F18478144021430901254C0678AD
:10546000A155047804F01F050124AC4005786D11A6
:10547000AD0005F1E025C5F8004109E0047804F02D
:105480001F050124AC401C4D0678761145F82640D6
:1054900070BD1A4A0A400243154B1B1F1A60704721
:1054A00039B1134A121D12680243114B1B1D1A60B9
:1054B00006E00F4A121D126882430D4B1B1D1A6035
:1054C0007047042808D14FF0E021096941F0040138
:1054D0004FF0E022116107E04FF0E021096921F06F
:1054E00004014FF0E0221161704700000000FA054E
:1054F0000CED00E000E400E080E100E080FFFF1F31
:1055000030B943F2DB028100A1F1C0410A6005E03D
:1055100043F2D2028100A1F1C0410A606FF07042F3
:10552000411C8900A1F1C0410A608100A1F1C04184
:10553000C1F80421704710280AD118214FF02042E9
:105540001166402151664FF0FC319166D16610E042
:105550001821F74A116040214FF02042C2F8841010
:105560004FF0FC31F24A083211604FF02042C2F88D
:105570008C1070471820EE49203108600020090681
:10558000C1F8A4004FF0FC30E94928310860091D3A
:105590000860091D08607047D0E901121143C26814
:1055A0001143026911434269114382691143C2697F
:1055B0001143026A1143426A1143826A1143C26A6B
:1055C0001143026B114302689200A2F1C0421160C4
:1055D000816808290BD101688900A1F1C0410968DF
:1055E00041F0400201688900A1F1C0410A60416BAD
:1055F0000968426B526841EA0211426B926841EAC3
:105600000221426B928941EA0241426B128A41EACD
:105610000251426B127D41EA0261426B9269114371
:105620000268521C9200A2F1C0421160C16AB1F539
:10563000804F1BD1816B0968826B526841EA02116D
:10564000826B926841EA0221826B128A41EA02511E
:10565000826B127D41EA0261826B9269114302689A
:105660009200A2F1C042C2F8041107E06FF070424C
:1056700001688900A1F1C041C1F80421704730B52B
:10568000002100220023446844F0080485682C436C
:10569000C5682C4305692C43456944EA452485695E
:1056A00044EA4531C4692468C5696D6844EA052443
:1056B000C5692D8944EA0544C5692D7B44EA056224
:1056C000046A2468056A6D6844EA0524056A2D8920
:1056D00044EA0544056A2D7B44EA05630468102CFE
:1056E00005D14FF020442166A266E36608E0904CA5
:1056F00021604FF02044C4F888208D4C0C34236086
:1057000030BD016841F01001426841EA42218268DF
:1057100041EA4231864A20321160C1680968C26894
:10572000526841EA0221C268128941EA0241C26814
:10573000127B41EA02617E4A2832116001690968E0
:105740000269526841EA02210269128941EA024172
:105750000269127B41EA0261754A2C32116041698B
:1057600009684269526841EA02214269128941EAA4
:1057700002414269127B41EA02614FF02042C2F8C5
:10578000B01070470021016002214160002181605A
:10579000C160016141618161C16101624FF4805169
:1057A0004162490081620021C16201630F21426BA5
:1057B0001160426B5160FF21426B91600F21426B7F
:1057C000D160426B1161426B51610021426B91616A
:1057D0000F21826B1160826B5160FF21826B91609F
:1057E0000F21826BD160826B1161826B516100214C
:1057F000826B9161704710210160002141608160DE
:10580000C160016141618161FC21C2691160C269AD
:105810005160C2699160C269D160026A1160026A16
:105820005160026A9160026AD16070470021016094
:1058300041608160FC21C2681160C2685160C26829
:105840009160C268D16002691160026951600269A9
:1058500091600269D1604269116042695160426998
:1058600091604269D160704751B18200A2F1C0429B
:10587000126842F001038200A2F1C042136009E005
:105880008200A2F1C04212682A4B1A408300A3F1A1
:10589000C0431A60704799B1102808D14FF02042D8
:1058A000126E42F004024FF020431A661DE0204AB7
:1058B000126842F004024FF02043C3F8802014E045
:1058C000102809D14FF02042126E1A4BDB1E1A40ED
:1058D0004FF020431A6608E0154A1268154BDB1E8C
:1058E0001A404FF02043C3F88020704748B1104958
:1058F0002031096841F004014FF02042C2F8A010A5
:1059000009E00B49203109680A4AD21E11404FF0C4
:105910002042C2F8A0107047B9B110280CD14FF046
:105920002042126E42F040024FF020431A661FE000
:10593000800000A0FEFF0F00724A126842F0400291
:105940004FF02043C3F8802012E0102808D14FF018
:105950002042126E6C4B1A404FF020431A6607E04B
:10596000684A1268684B1A404FF02043C3F8802001
:10597000704701460020102903D14FF02042506F9C
:1059800002E0604A14321068704710B5F2B1102876
:1059900007D14FF020435B6E0B434FF0204463660A
:1059A00032E0B0F5807F08D1564B1B1D1B680B43BE
:1059B0004FF02044C4F8843026E0524B24331B6857
:1059C0000B434FF02044C4F8A4301DE0102807D149
:1059D0004FF020435B6E8B434FF02044636613E02F
:1059E000B0F5807F08D1474B1B1D1B688B434FF0E0
:1059F0002044C4F8843007E0424B24331B688B43B7
:105A00004FF02044C4F8A43010BD10B50246002069
:105A10000023102A03D14FF02044636E09E0B2F551
:105A2000807F03D1374C241D236802E0354C243499
:105A3000236803EA01040CB1012000E0002010BD3E
:105A4000102807D14FF02042526E8A434FF0204376
:105A50005A6613E0B0F5807F08D12A4A121D1268F9
:105A60008A434FF02043C3F8842007E0254A2432BC
:105A700012688A434FF02043C3F8A420704770B5E2
:105A800002460020002300240025102A03D14FF0F5
:105A90002046736E09E0B2F5807F03D1194E361DA2
:105AA000336802E0174E2436336803EA010403EA40
:105AB000D10514B10DB1012000E0002070BD102807
:105AC00008D14FF02042526E22EAD1024FF020431B
:105AD0005A6615E0B0F5807F09D10A4A121D126896
