:020000040800F2
:10000000C0FD0020050D00080D0B00080F0B0008B7
:10001000130B0008170B00081B0B00080000000062
:100020000000000000000000000000001F0B00089E
:10003000210B00080000000013AF0108610D00084B
:100040001F0D00081F0D00081F0D00081F0D0008E0
:100050001F0D00081F0D00081F0D00081F0D0008D0
:100060001F0D00081F0D00081F0D00081F0D0008C0
:100070001F0D00081F0D00081F0D00081F0D0008B0
:100080001F0D00081F0D00081F0D00081F0D0008A0
:10009000013400081F0D00081F0D0008231C000874
:1000A0001F0D00081F0D00081F0D00081F0D000880
:1000B0001F0D00081F0D00081F0D00081F0D000870
:1000C0001F0D00081F0D00081F0D00081F0D000860
:1000D0001F0D00083D1600081F0D00085B160008E4
:1000E0001F0D00081F0D00081F0D00081F0D000840
:1000F0001F0D00081F0D00081F0D00081F0D000830
:100100001F0D00081F0D00081F0D00081F0D00081F
:100110001F0D00081F0D00081F0D00081F0D00080F
:100120001F0D00081F0D00081F0D00081F0D0008FF
:1001300000F002F800F071F80AA090E8000C824488
:100140008344AAF10107DA4501D100F066F8AFF265
:10015000090EBAE80F0013F0010F18BFFB1A43F0A5
:1001600001031847C4BB0100E4BB01000A444FF07F
:10017000000C10F8013B13F0070408BF10F8014B06
:100180001D1108BF10F8015B641E05D010F8016B4B
:10019000641E01F8016BF9D113F0080F1EBF10F8AF
:1001A000014BAD1C0C1B09D16D1E58BF01F801CBD2
:1001B000FAD505E014F8016B01F8016B6D1EF9D555
:1001C0009142D6D37047000000230024002500266A
:1001D000103A28BF78C1FBD8520728BF30C148BFAA
:1001E0000B60704764291AF02D8778291AF066870A
:1001F00063291BF0068273291BF00B8200207047D5
:100200001FB51BF097F90400002000211BF06EFAC7
:10021000401C60601FBD10B510BD1BF031FA1146C7
:10022000FFF7EEFF00F095FB1BF04FFA03B4FFF76A
:10023000F2FF03BC01F020FA86B00025002400275D
:10024000AAE0F948007838B9322300221146104656
:100250001AF03AFD002446E0002F44D141F27070BC
:10026000854202DA681C85B200E00025EF4800787C
:10027000AA2804D10020ED4908704FF47A74502C5C
:1002800003DA601C84B2002627E0B4F5E16F15DACA
:10029000601C84B21E2095FBF0F100FB1150E0B908
:1002A000E348007840F04000E1490870701CC6B295
:1002B00022463146DFA01AF069FE0EE041F2883492
:1002C000C82095FBF0F100FB1150012805D1D8485A
:1002D000007840F04000D6490870322300221146D1
:1002E00010461AF0F1FC01F012F8DE48008800F424
:1002F0000040B0F5004F31D10020DA490880AA272C
:10030000D948C079D8498979D74A5279D64B1B79CF
:10031000CDE90132CDE90310D348C0780090D2482E
:10032000837842780178D1A01AF030FEDB481AF0C9
:100330002DFEBF48007820F04000BD490870CA4833
:100340000078F32803D1C84802F08CFC06E0C648C8
:100350000078F12802D1C44802F094FED048007819
:10036000AA2813D10020CE49087004F085FE012090
:1003700004F082FE022004F07FFE032004F07CFEE5
:10038000042004F079FE052004F076FE0523002207
:10039000114610461AF098FC53E788B01D200790CC
:1003A00005200690002005900027049000244FF0BF
:1003B000500983460390102107F007F905460020F5
:1003C000B8490870B84908600120B849C1F89C01D3
:1003D000B549083908604FF4FA7302220021084633
:1003E0001AF072FC02F0D6F9AE480178B0A01AF00B
:1003F000CDFDC8230022114610461AF065FCB7480F
:1004000003F097FAC8230022114610461AF05CFC4C
:10041000B3A01AF0BBFD03F0ABFAB6A01AF0B6FD1C
:100420000120A1490860091F0860A049C1F898018E
:10043000B14800780790B148007806905AE09A4891
:10044000006808B9012000E000209749086097483B
:10045000D0F89C0108B9012000E000209249091F52
:1004600008609248D0F8980108B9012000E0002007
:100470008D49083908604946A1A01AF087FD04A8F3
:1004800003F095FA00282BD09DF8130000909DF8FA
:1004900012309DF811209DF810109BA01AF076FDE7
:1004A00004A802F0D9F8064631469DA01AF06EFD68
:1004B000512E15DC04A9304603F072F99B4988558A
:1004C0000846805D30B90846825D314698A01AF032
:1004D0005DFD05E09548825D31469CA01AF056FD11
:1004E000A9F1010000F0FF09052300221146104682
:1004F0001AF0EAFBB9F1000FA1D100206A490860A7
:1005000001206A49C1F89C01674908390860C8237D
:100510000022114610461AF0D7FB704803F009FA82
:10052000C8230022114610461AF0CEFB6B4803F098
:1005300000FAAA203C4908708BA01AF027FDDEE1E2
:1005400094480078AA2821D1002003F0F4FCC823A5
:100550000022114610461AF0B7FB012003F0EBFC15
:10056000C8230022114610461AF0AEFB022003F009
:10057000E2FCC8230022114610461AF0A5FB032016
:1005800003F0D9FC002083490870B2E15A49097888
:100590000798884204D1594909780698884213D0AF
:1005A000554801785548007803F0EBF9022F02DC3A
:1005B000781CC7B208E00027002003904E4800785E
:1005C00007904E480078069073490978059888424C
:1005D0000BD0424803F0ADF9022F02DC781CC7B201
:1005E00003E000276C4800780590502C19DA611C54
:1005F000C8B203F039FDC4EBC4002A4911F8100059
:1006000000F0030000280CD0AA202870C4EBC4001E
:1006100011F8100000F00300012803D111206870C8
:10062000C7E02FE1BAE00000090000202D00002003
:10063000E10000200D0A20BFECB5DDD0C4CCF8B03D
:10064000FCB7A2CBCDD7B4CCAC2CB7A2CBCDB4CE1B
:10065000CAFD2532642CBCC6CAFDD6B5A3BA256432
:100660002E00000014000020F20600200D0A554163
:10067000525433203E3E2025303258253032582502
:1006800030325825303258253032582530325825EE
:10069000303258253032583B000000004CBA010877
:1006A0002E00002024020020A0012242000022424D
:1006B000C9CFB5E7BCECB2E2466C617368C4DAC27C
:1006C000DFBCADB5D8D6B7CDEAB3C92120D7DCCFD2
:1006D000DFA3BA2532642E0D0A00000019000020A5
:1006E0000D0ACEB4D7A2B2E1B9E3B2A521200D0A1A
:1006F000000000000D0A0000160000201700002076
:10070000253032642E200000CEEFC0EDA3BA253094
:1007100032582530325825303258253032583B0077
:10072000C2DFBCAD3A2530643B00000092060020D9
:100730005665725B253032645D3D253032582CB7EA
:10074000D6C5E4CAA7B0DCA3A10D0A005665725B4A
:10075000253032645D3D253032582CB7D6C5E4B320
:10076000C9B9A6A3A10D0A000D0AC9CFB5E7BCEC13
:10077000B2E2CEB4D7A2B2E1B3ACCAB1A3ACBDF879
:10078000C8EBD5FDB3A3B4FDBBFAD7B4CCAC3B0DDD
:100790000A0000002F00002018000020C4EBC40055
:1007A000A04911F8100000F00300022801D1132025
:1007B0006870C4EBC4009B4901EB40004078A8700E
:1007C000C4EBC40001EB40008078E870C4EBC400C7
:1007D00001EB4000C0782871C4EBC40001EB40007D
:1007E00000796871C4EBC40001EB40004079A87146
:1007F000C4EBC40001EB40008079E871C4EBC40095
:1008000001EB4000C0792872C4EBC40001EB40004A
:10081000007A6872C4EBC40001EB4000407AA87211
:10082000C4EBC40001EB4000807AE872C4EBC40062
:1008300001EB4000C07A2873C4EBC40001EB400018
:10084000007B6873AC73C4EBC40001EB4000407BD9
:10085000E87329467448006819F020FB8246BAF113
:10086000000F03D02946002006F09FFEC4EBC40011
:100870006C4911F8100020F00300C4EBC401694A70
:1008800002F8110002AA01216848006819F03EFA36
:1008900080469DF8080028B9B8F1000F02D0404604
:1008A00003F018FD4146002006F07FFE512C0EDDBE
:1008B0005FA01AF06BFB0024BBF1320F04DA0BF1DE
:1008C000010000F0FF0B04E04FF0000B01E0601CA2
:1008D000C4B20398B0F5702F08D900200390564891
:1008E00001785648007803F04CF802E00398401C69
:1008F00003900A230022114610461AF0E5F91FE67C
:1009000070B5044600BF40214D4819F02BF9474906
:10091000086040214B4819F025F94349086018F058
:1009200001F81AF0CFFA05460A23474A0021AFF230
:10093000955019F04FFE0923444A0021AFF2077089
:1009400019F048FEFF201AF0C5F828461AF0BEFA42
:1009500070BD08B500F010FA4FF4407004F054FD7B
:1009600000F00DFC00F0A8FE002005230622072160
:10097000009002F0CDFC002006F061FD34A01AF0DA
:1009800005FB112139A01AF001FB00213DA01AF04E
:10099000FDFA03F0A1FE04F019FB01F041FC00BFD9
:1009A00001F0CEFC0028FBD13BA01AF0EFFA4FF487
:1009B000FA7000F032FA17F080FE0AE03BA01AF05D
:1009C000E5FA4FF4FA7000F028FA4FF4FA7000F0EC
:1009D00024FA06F0CEFF0028F0D139A01AF0D6FA9A
:1009E0000AE03DA01AF0D2FA4FF4FA7000F015FABE
:1009F0004FF4FA7000F011FA07F007FD0028F0D16B
:100A00004FF4FA7000F009FA39A01AF0BFFA0C237B
:100A10003D4A0021AFF2171019F0DCFD17F06AFF14
:100A2000002008BD240200203400002030000020F7
:100A30000D0A0D0A0000000016000020170000201B
:100A4000F8180020F8190020F4160020F40E0020F9
:100A50005374617274696E672055702059434B4A14
:100A60002D4143552E2E2E0D0A000000566572733F
:100A7000696F6E4E6F3A20253032582E2E2E0D0A99
:100A80000000000054657374466C61673A20256469
:100A90002E2E2E0D0A000000415432344358585F68
:100AA000436865636B204F4B210D0A004C776970DA
:100AB00020496E6974206661696C6564210D0A00C5
:100AC0004C77697020496E69742053756363657350
:100AD00073210D0A0000000054435020436C6965E7
:100AE0006E74206661696C656421210D0A00000046
:100AF00054435020436C69656E742053756363657D
:100B00007373210D0A000000F4180020704700BF25
:100B1000FEE700BFFEE700BFFEE700BFFEE770474D
:100B2000704700000CB50020019000906C480068F0
:100B300040F480306A49086000BF6948006800F4EA
:100B4000003000900198401C0190009818B901985D
:100B5000B0F5A06FF1D16248006800F4003010B128
:100B60000120009001E0002000900098012843D16E
:100B70005C48006840F010005A4908600846006868
:100B800020F0030008600846006840F0020008609A
:100B900053484068524948600846406848600846E3
:100BA000406840F4806048600846406820F47C104B
:100BB00048600846406840F4E8104860084600680D
:100BC00040F08070086000BF4548006800F0007089
:100BD0000028F9D04248406820F0030040494860AE
:100BE0000846406840F00200486000BF3C4840684A
:100BF00000F00C000828F9D10CBD10B5FFF792FFEA
:100C000010BD10B53648006840F001003449086056
:100C10000846406834490840314948600846006841
:100C2000324908402E4908600846006820F48020B8
:100C300008600846406820F4FE0048604FF41F003A
:100C40008860FFF7DAFF4FF000602949086010BDA7
:100C500010B5002100200022214B5B6803F00C013D
:100C600021B1042906D0082928D107E0214B224CC4
:100C7000236027E01F4B204C236023E0184B5B6868
:100C800003F47010164B5B6803F48032022303EB0D
:100C9000904022B9194B4343174C23600DE0104B91
:100CA0005B6803F4003323B1144B4343124C2360BD
:100CB00003E0104B4343104C236003E00D4B0E4CFC
:100CC000236000BF00BF064B5B68C3F303130C4CEB
:100CD000E15C094B1B68CB40074C236010BD000052
:100CE00000100240002002400000FFF8FFFFF6FE67
:100CF00008ED00E000127A003800002000093D00F5
:100D00003C0000200948804709480047FEE7FEE70D
:100D1000FEE7FEE7FEE7FEE7FEE7FEE7FEE7FEE7AB
:100D200004480549054A064B70470000030C0008BB
:100D300031010008C0F70020C0FD0020C0F90020EC
:100D4000C0F9002010B517F067FD10BD10B517F001
:100D5000A8FD10BD10B50446204619F083FF10BD54
:100D600010B53E480078012805D117F0BCFC17F0FB
:100D7000F8FD17F0D3FC10BD10B56FF0040004F0BF
:100D800092FB374800683749B0FBF1F036490870EC
:100D9000334800683349B0FBF1F441F288304443F2
:100DA0000520324908804FF0E020006940F0020041
:100DB0004FF0E021086108464461006940F00100FD
:100DC000086110BD2DE9F047074600264FF0E020EE
:100DD000D0F814902448007807FB00F800BFFFF714
:100DE000B1FF4FF0E020856911E04FF0E020846909
:100DF000AC420CD0AC4202D2281B064403E0A9EB63
:100E00000400284406442546464500D300E0ECE7AC
:100E100000BFFFF79BFFBDE8F08770B504460F48A1
:100E20000078A0B11248007888B910480088844240
:100E300006DB0E48008894FBF0F52846FFF78AFF92
:100E40000A48008894FBF0F100FB114084B24FF493
:100E50007A7104FB01F0FFF7B5FF70BD02020020BC
:100E60003800002000127A004C0000204E000020C4
:100E7000F5010020FA48006800F4006008B901207C
:100E800070470020FCE7F648006800F4806008B96D
:100E9000012070470020FCE7F148006800F4007072
:100EA00008B9012070470020FCE7ED48006800F415
:100EB000807008B9012070470020FCE7E94800680D
:100EC00000F4006008B9012070470020FCE7E54805
:100ED000006800F4806008B9012070470020FCE73A
:100EE000E048006800F4007008B901207047002055
:100EF000FCE7DC48006800F4807008B90120704706
:100F00000020FCE708B50121602005F00DF9032061
:100F10008DF8020048208DF803004FF47060ADF8A2
:100F200000006946CE48083804F042FE4FF4706075
:100F3000ADF800006946CB48083804F039FE08BD1A
:100F400010B50024FFF796FF012802D144F00104F8
:100F500001E024F00104FFF796FF012802D144F0DC
:100F6000020401E024F00204FFF796FF012802D1F9
:100F700044F0040401E024F00404FFF796FF012884
:100F800002D144F0080401E024F00804FFF796FFC2
:100F9000012802D144F0100401E024F01004FFF70E
:100FA00096FF012802D144F0200401E024F020043F
:100FB000FFF796FF012802D144F0400401E024F03D
:100FC0004004FFF796FF012802D144F0800401E0BD
:100FD00024F08004204610BD08B525208DF80000BF
:100FE00000208DF8020001208DF80300684604F00F
:100FF00010FA27208DF8000002208DF80200012051
:101000008DF80300684604F004FA08BD00B585B009
:101010000121052005F088F80121880305F084F8F6
:101020004FF40070ADF8100018208DF81300032065
:101030008DF8120004A98C4804F0BAFD4FF48060CA
:10104000ADF8100004208DF8130004A9864804F0C0
:10105000AFFD4FF4E13000900020ADF80400ADF892
:101060000600ADF80800ADF80C000C20ADF80A0041
:1010700069467E4805F0FFF8012240F225517B4881
:1010800005F091F90121794805F081F9402177486F
:1010900005F065FA0121092005F046F801218804D0
:1010A00005F04FF84FF48060ADF8100018208DF86F
:1010B000130003208DF8120004A96D4804F078FD98
:1010C0004FF40060ADF8100004208DF8130004A95F
:1010D000674804F06DFD04A9654804F069FD4FF40C
:1010E000E13000900020ADF80400ADF80600ADF846
:1010F0000800ADF80C000C20ADF80A0069465D4808
:1011000005F0B9F8012240F225515A4805F04BF993
:101110000121584805F03BF94021564805F01FFAD7
:1011200005B000BD514854490860544848605448CF
:1011300088604FF400708881C8810020088248824E
:10114000C882088348838882C86108624862494827
:101150004C4908604C4848604C4888604FF4007027
:10116000888140F20340C881002008824882C882FA
:10117000088348838882C86108624862704710B556
:10118000FFF7D0FFFFF742FFFFF726FF10BD014634
:1011900009B939487047012901D10020FAE702292D
:1011A00001D13848F6E7032901D10020F2E70429EC
:1011B00001D10020EEE70020ECE72DE9F0470446DE
:1011C0000E4617464FF00008002527E00CE019F006
:1011D00079FE8046B4F81490404619F077FEA08955
:1011E000484500DD01E000BFF1E700BF705D228AE5
:1011F0006168885419F066FE8046208A401C80B2DF
:101200002082A189884201DB00202082A08A401C24
:10121000A082404619F05AFE681C85B2BD42D5DB5B
:10122000012240F22771206805F0BDF8BDE8F08783
:101230002DE9F04105460E4617462846FFF7A7FF61
:1012400004460CB9BDE8F081E06908B1E069804767
:101250003A4631462046FFF7B0FF00BFF2E70000F4
:1012600008140140081801400008014000380140FE
:10127000000C014000480040F81A0020201B00200C
:10128000201D0020201F0020481F00204821002092
:1012900013B50446012201A92046FFF7C9FF1CBD72
:1012A0002DE9F04104460D46002719F00BFE0746D4
:1012B000668B384619F00AFE16B90020BDE8F081A9
:1012C000218BA068405C287019F0FCFD0746208B3C
:1012D000401C80B22083E189884201DB002020830A
:1012E000608B401E6083384619F0F0FD0120E5E771
:1012F00070B505460E462846FFF749FF04460CB96F
:10130000002070BD31462046FFF7CAFFF9E738B527
:1013100069460220FFF7ECFF00282DD0DE48008848
:1013200000F40040002827D19DF80000DB49DA4A8C
:1013300012888854D8480088401CD749088008463D
:10134000008840F20341884202DD0020D249088033
:10135000D1480088401ED149085CF1280DD1CE4803
:101360000088022809DAF121CB480088401ECB4AC8
:1013700011540120C84908805DE0C7480088401E1C
:10138000C649085CF3280DD1C3480088022809DA51
:10139000F321C1480088401EC04A11540120BE49B3
:1013A000088048E0BD480078F12825D1BA48008877
:1013B000042816DBB948407898B90321B74800F0F3
:1013C000E9FD0446B548C078A04206D1B24800887D
:1013D00040F40040B04908802DE00020AE4908806C
:1013E00029E0AD480088832825DBAB48008840F41D
:1013F0000040A94908801EE0A8484078A64909880D
:10140000884218DCA4480078401EC1B2A34800F00E
:10141000C1FD0446A0480088401EA049085CA042C7
:1014200006D19D48008840F400409B49088002E0B6
:1014300000209949088038BD00B503461846FFF7DB
:10144000A6FE024602B900BD0020108250829082A2
:1014500000BFF8E700B503461846FFF798FE0246BE
:1014600002B900BD0020D0821083508300BFF8E78E
:101470001FB5044600940020ADF80400ADF8060046
:10148000ADF80800ADF80C000C20ADF80A00694674
:10149000834804F0F0FE1FBD1FB5044600940020F1
:1014A000ADF80400ADF80600ADF80800ADF80C008A
:1014B0000C20ADF80A006946794804F0DCFE1FBD37
:1014C00008B50121102004F02FFE03208DF8020042
:1014D00010208DF803000002ADF800006946714845
:1014E00004F066FB4FF480506E49086108BD1FB5DB
:1014F000044600940020ADF80400ADF80600ADF8F5
:101500000800ADF80C000C20ADF80A0069466648EA
:1015100004F0B1FE1FBD4FF480506249486170472E
:101520004FF480505F490861704770B504460D461E
:101530002A4621460320FFF77BFE70BD70B50446A6
:10154000204619F0D3FE85B229462046FFF7EDFF6D
:1015500070BD7047704770B5044640F22551206851
:1015600005F006F8E0B1206804F082FFC5B2E18A18
:10157000A0684554E08A401C80B2E082E18988423C
:1015800001DB0020E082608BE189884202DA608B17
:10159000401C6083606A10B12846616A884700BFBA
:1015A00040F22771206804F0E3FF08B3A08A60B915
:1015B000002240F22771206804F0F5FE012240F27B
:1015C0002661206804F0EFFE37E0638A6268D15C30
:1015D000206804F049FF608A401C80B26082A189C3
:1015E000884201DB00206082A08A401EA08224E0A5
:1015F00040F22661206804F0BBFFF0B1A08A50B928
:10160000002240F22661206804F0CDFE206AA0B1DD
:10161000206A804711E0638A6268D15C206804F028
:1016200023FF608A401C80B26082A189884201DB6E
:1016300000206082A08A401EA08270BD10B519F003
:1016400041FC044617F04FF8204619F03FFC1748BC
:10165000FFF781FF17F062F810BD10B519F032FCEA
:10166000044617F040F8204619F030FC1048FFF708
:1016700072FF17F053F810BD014600BF704700BF5E
:101680000C4A128802F04002002AF9D0C2B2094B7B
:101690001B1D1A807047000014000020F206002075
:1016A0000044004000100140004C0040F81A0020A7
:1016B000201F00200038014008B50121102004F04F
:1016C00033FD4FF4E070ADF8000010208DF80300FA
:1016D00003208DF802006946084804F069FA4021A9
:1016E000064804F012FB8021044804F00EFB4FF47E
:1016F0008071024804F009FB08BD000000100140A1
:10170000FC4A10804FF0C842A2F800117047014611
:10171000F84801804FF0C840B0F80001704770B53C
:10172000044644F040010C20FFF7EAFF0C210B2097
:10173000FFF7E6FF0A20FFF770FB00210B20FFF701
:10174000DFFF0D20FFF7E3FF02460E20FFF7DFFF6C
:1017500042EA002085B2284670BD70B50024E648F4
:101760000078082811D108E06420FFF756FB601CC0
:10177000C4B2642C01DDFF2070BD0120FFF7CFFF54
:1017800000F020000028EFD010E008E06420FFF710
:1017900044FB601CC4B2642C01DDFF20ECE7012097
:1017A000FFF7B5FF00F040000028EFD00120FFF761
:1017B000AEFF022101EAA0150020FFF7A8FFC0F349
:1017C000C00005432846D7E710B50446002306E0CD
:1017D000E15C03F11600FFF793FF581CC3B2082B1E
:1017E000F6DB10BD10B50446002306E0E15C03F112
:1017F0001000FFF785FF581CC3B2062BF6DB10BDA7
:1018000070B505460C4645F040010C20FFF778FF07
:10181000E1B20D20FFF774FF210A0E20FFF770FFE1
:101820000A210B20FFF76CFF3220FFF7F6FA0021A8
:101830000B20FFF765FF70BD70B50646092E1BD261
:10184000DFE806F0050C1A1A08101A1A1500002411
:10185000212511E04FF4807441250DE04FF4005430
:10186000812509E04FF4045440F2011504E04FF4DF
:10187000805440F2E11500BF00BF21460020FFF771
:10188000BFFF29460420FFF7BBFF00211F20FFF701
:1018900037FF70BD00B52820FFF739FF0246292029
:1018A000FFF735FF42EA00222A20FFF730FF42EA25
:1018B00000422B20FFF72BFF42EA0062104600BDDA
:1018C00010B500208D4908600A20FFF7A6FA012014
:1018D0008B49C1F89C016420FFF79FFA01211E206B
:1018E000FFF70EFF00211F20FFF70AFF0321002052
:1018F000FFF706FF00BF1920FFF78FFA0020FFF760
:1019000006FF00F001000028F5D100210846FFF78E
:10191000F7FE03210020FFF7F3FE00BF1920FFF7B9
:101920007CFA0020FFF7F3FE00F001000028F5D15B
:1019300010BD10B59AB001214FF4F07004F0F4FB23
:101940000121080204F0E3FB0121084604F0ECFB4E
:101950008020ADF8640003208DF8660010208DF81B
:10196000670019A9674804F023F94020ADF8640026
:1019700048208DF8670019A9634804F019F94CF262
:101980003370ADF8640003208DF8660018208DF8E0
:10199000670019A95B4804F00BF94FF68070ADF8A9
:1019A000640003208DF8660018208DF8670019A9DF
:1019B000564804F0FDF84FF40050ADF864000320E1
:1019C0008DF8660018208DF8670019A9504804F0BA
:1019D000EFF84FF40070ADF8640003208DF8660056
:1019E00018208DF8670019A9474804F0E1F806218E
:1019F000084604F0F3F94020179000208DF86000AD
:101A00000C208DF8610001208DF8620017A804F009
:101A100001FE402004F075FE17208DF858000120CB
:101A20008DF8590000208DF85A0001208DF85B00D8
:101A300016A803F0EEFC0020009001900320029015
:101A4000002003900490059006900220079000204B
:101A50000890099010200A9000200B900C900D9097
:101A60000E900F904FF48050109000201190129023
:101A70001390CDF850D0CDF854D007A803F07EFDD8
:101A80000121022003F0E2FE2248046808201A49DE
:101A900008700020488081204870022008710021D1
:101AA00015484171200E14498871210C1248C171EA
:101AB000210A01724472FF200F498872FF210E48EB
:101AC000C172017341738173C17301744174FFF773
:101AD000F7FE6420FFF7A1F9FFF7DCFE044621467C
:101AE0000DA019F053FA104884421FD001201AB0FB
:101AF00010BD0000FE0000644C2500209C812242A5
:101B000000802242001401400020014000180140E2
:101B1000001C0140E8F7FF1F444D393030302049A8
:101B2000443A2523780D0A00460A0090CC490878EB
:101B3000FFF782FE00210846FFF7E2FD00210220A8
:101B4000FFF7DEFD3F210820FFF7DAFD38210920ED
:101B5000FFF7D6FD00210A20FFF7D2FD00212F203C
:101B6000FFF7CEFD2C210120FFF7CAFD0F21FE203B
:101B7000FFF7C6FD80212D20FFF7C2FDB848001DEC
:101B8000FFF730FEB6480A30FFF71EFE3121052070
:101B9000FFF7B6FD8021FF20FFF7B2FDFFF7DDFD67
:101BA0000446FF2C11D004F0010008B1ADA000E004
:101BB000AEA0024604F0020008B10A2000E0642052
:101BC0000146ACA019F0E2F902E0B5A019F0DEF987
:101BD000A3484178FF20FFF793FD00201AB010BD05
:101BE00070B5B7480588FE20FFF791FD04462146F1
:101BF000FE20FFF785FD04F0040010B1B1A019F03C
:101C0000C5F904F0080010B1B1A019F0BFF904F053
:101C1000010018B1B648006818F0C5FBA848058057
:101C200070BD10B516F05FFD4020B249086001E0BC
:101C3000FFF7D6FFB04800680028F9D016F06EFD17
:101C400010BD2DE9FC410446002700266A4600210C
:101C5000AA48006817F09FFD8021FF20FFF750FD84
:101C6000F8209749088025461BE06889B84216DDB0
:101C70003846791C8FB26A68125C3046711CCEB24D
:101C800001A90A54022E0CD19DF804009DF80510FC
:101C900040EA01208A49891C0880002601E02D685D
:101CA0000027002DE1D1012E04D19DF804008449C4
:101CB000891C0880217AFC20FFF722FD2089010A77
:101CC000FD20FFF71DFD01210220FFF719FD00BFD8
:101CD000FE20FFF71CFD00F002000028F8D00221D2
:101CE000FE20FFF70DFD5E484178FF20FFF708FD5D
:101CF0008248006817F071FEBDE8FC812DE9FF41C4
:101D000000246A4600217D48006817F044FD00BFAA
:101D1000F020FFF7FCFC6A48801C008800F0FF08F8
:101D2000B8F1000F78D0B8F1010F0ED974A019F0F6
:101D30002DF900210520FFF7E3FC8021FE20FFF7AD
:101D4000DFFC204604B0BDE8F081F2205C49088049
:101D50004FF0C840B0F800010390881C0088029042
:101D60000322BDF8081010460BF074FC04468CB139
:101D700025460CE06F686E8906E04FF0C840B0F869
:101D800000013880BF1CB61E002EF6DC2D68002D29
:101D9000F0D110E0BDF8081062A019F0F7F801AF1B
:101DA000BDF8086005E04FF0C840B0F80001388089
:101DB000B61E002EF7D1BDF80C0000F43F4040B92C
:101DC000BDF80800402804DBBDF80800B0F5C06F7E
:101DD0003FDDBDF80C1059A019F0D8F8BDF80C0083
:101DE00000F4807010B159A019F0D0F8BDF80C00C3
:101DF00000F4007010B159A019F0C8F8BDF80C003B
:101E000000F4004010B159A019F0C0F8BDF8080066
:101E1000B0F5C06F0BDD00E00FE059A019F0B6F887
:101E200001210020FFF76CFC0520FEF7F6FF14B13E
:101E300020460BF087FB00246AE70221FE20FFF713
:101E40005FFC81200649487008464178FF20FFF773
:101E500057FC2A48006817F0C0FD204672E70000D2
:101E60004C25002046756C6C0000000048616C66D3
:101E700000000000444D39303030205370656564F7
:101E80003A25644D6270732C4475706C65783A2500
:101E900073206475706C6578206D6F64650D0A0041
:101EA000444D393030302045737461626C69736819
:101EB000204C696E6B204661696C6564210D0A00D7
:101EC000FE0000646F766572666C6F77200D0A0005
:101ED0006F766572666C6F7720636F756E7465726E
:101EE000206F766572666C6F77200D0A0000000027
:101EF000940000201404014018012442980000209E
:101F0000646D393030302072783A207278206572F2
:101F1000726F722C2073746F7020646576696365CC
:101F20000D0A000070627566C4DAB4E6C9EAC7EB50
:101F3000CAA7B0DC3A25640D0A00000072785F730E
:101F400074617475733A2523780D0A0072782066DF
:101F500069666F206572726F720D0A007278206375
:101F60007263206572726F720D0A00007278206CC5
:101F7000656E677468206572726F720D0A000000EA
:101F80007278206C656E67746820746F6F20626968
:101F9000670D0A0010B50246002006E013784340A2
:101FA000034CE05C521C4B1ED9B20029F6DC10BD7C
:101FB00018B7010808B50121082004F0B5F8C020C1
:101FC000ADF8000010208DF8030003208DF802000A
:101FD0006946904803F0ECFDC0218E4803F095FE61
:101FE00008BD10B58B48006820F070408949086032
:101FF0000846006840F040500860012086490860AB
:102000008649C1F898010420FEF7DCFE00208249D1
:1020100008600420FEF7D6FE00208049C1F8980130
:1020200010BD10B57B48006820F070407949086009
:102030000846006840F04050086000207649091FBB
:1020400008607649C1F89C010420FEF7BBFE012020
:102050007149091F08607149C1F89C010420FEF70D
:10206000B1FE10BD10B500246A48006820F0704031
:10207000684908600846006840F000400860012098
:1020800065490860FEF79EFE01206449C1F8980189
:10209000FEF798FE07E0601CC4B2FA2C03DDFFF7E0
:1020A000C0FF012010BD5C48803800680028F2D1D4
:1020B0005949091F086000BFF4E710B500205649D0
:1020C000091F08605348006820F0704051490860BB
:1020D0000846006840F04050086000204F49C1F8B1
:1020E0009C010220FEF76EFE01204B49091F08608B
:1020F0000220FEF767FE00204849C1F8980110BD94
:1021000010B500204449091F08604248006820F0CB
:102110007040404908600846006840F04050086040
:1021200001203E49C1F89C010220FEF74BFE012030
:102130003949091F08600220FEF744FE0020374994
:10214000C1F8980110BD70B504463248006820F00F
:102150007040304908600846006840F04050086010
:1021600000202D49091F086000251DE0E00918B175
:1021700001202949086002E0002027490860600624
:10218000040E0220FEF71EFE01202349091F0860ED
:102190000220FEF717FE00202049C1F89801022016
:1021A000FEF710FE681CC5B2082DDFDB70BD70B5F0
:1021B000054600241748006820F070401549086063
:1021C0000846006840F000400860002617E0002044
:1021D0001149091F08600220FEF7F4FD01200F4994
:1021E000C1F898016006040E0B488038006808B1F9
:1021F000601CC4B20120FEF7E5FD701CC6B2082EBB
:10220000E5DB15B9FFF77CFF01E0FFF756FF20463D
:1022100070BD0000000C01409C81214200802142E1
:1022200010B5FFF7C7FE10BD70B504460026FFF7D6
:10223000D8FE2546E11704EB11610912A02202EB3A
:102240004101C8B2FFF77FFFFFF70CFFE11704EB76
:1022500011610912A4EB0121C8B2FFF774FFFFF767
:1022600001FFFFF7BEFEA120FFF76DFFFFF7FAFEAB
:102270000020FFF79CFF0646FFF7D3FE304670BDF7
:1022800070B504460E46FFF7ACFE2546E11704EB99
:1022900011610912A02202EB4101C8B2FFF753FFFE
:1022A000FFF7E0FEE11704EB11610912A4EB012135
:1022B000C8B2FFF748FFFFF7D5FE3046FFF743FFF0
:1022C000FFF7D0FEFFF7ADFE0A20FEF7A6FD70BDBA
:1022D0002DE9F04105460E461746002409E0E200CC
:1022E00026FA02F2D1B22A1990B2FFF7C9FF601C98
:1022F000C4B2BC42F3DBBDE8F0812DE9F0410746F2
:102300000C460026002509E036023919491B491EF2
:1023100088B2FFF789FF0644681CC5B2A542F3DB0B
:102320003046BDE8F08110B5002405E000212046CC
:10233000FFF7A6FF601C84B2B4F5806FF6DB10BD1A
:1023400030B58DB06EA103C9CDE90B016EA0006858
:102350000A906EA00068099044F620656CA30FCB2C
:1023600005AC0FC46E4800F0DDFA6D4880796C4909
:1023700049796B4A12796A4BDB78CDE90032CDE9B5
:102380000210674883784278017866A018F0FEFD55
:10239000704800F0F6FA6F48C07800906D48837876
:1023A000427801786CA018F0F1FD00F00AFB724948
:1023B00008800846018871A018F0E8FD754800F013
:1023C00029FB7448C078009072488378427801787D
:1023D00071A018F0DBFD7A4800F03AFB79A018F004
:1023E000D5FD7748C17982794079754B1B79CDE964
:1023F0000130CDE903217248C0780090704883789D
:102400004278017874A018F0C1FD6D48C17B807BD3
:102410006B4A527B6A4B1B7BCDE90132CDE903014C
:102420006748C07A00906648837A427A017A71A040
:1024300018F0ACFD764800F0FAFB75480078AA2841
:1024400009D174A018F0A2FD764800F0F9FB764897
:1024500000F0FFFB02E075A018F098FD40F2FF309D
:10246000FFF7E2FE0446552C02D100200DB030BD2E
:10247000FFF759FF71A018F089FD0BA800F05BFA77
:1024800009A800F087FA284600F0ABFA0AA800F085
:10249000CAFA05A800F0E5FA552140F2FF30FFF72F
:1024A000EFFE40F2FF30FFF7BFFE0446552C01D18E
:1024B0000020DBE70120D9E770B506460C4615463B
:1024C00008E03046721C96B2FFF7AEFE04F8010B2E
:1024D000681E85B2002DF4D170BD70B505460C465E
:1024E000164606E021782846FFF7CAFE681C85B22A
:1024F000641C301EA6F101018EB2F3D170BD000044
:10250000FFFFFFFFFFF12900202001017B39961911
:10251000313030303030302D623736316332623016
:1025200019000020524649445F4B65793A25303204
:10253000582530325825303258253032582530321F
:1025400058253032582EBEF8B6D4BFE9BAC53A2560
:10255000640D0A000A0000204950B5D8D6B72D2DC9
:102560002D2D2D2D2D2D2D2D2D2D25642E25642E3B
:1025700025642E25640D0A000E000020B6CBBFDABC
:10258000BAC52D2D2D2D2D2D2D2D2D2D2D2D253556
:10259000640D0A0010000020C7F8D3F2BFD8D6C6D9
:1025A000C6F7534E2D2D2D2D2D2D2530325825308B
:1025B000325825303258253032580D0A00000000BC
:1025C000E2060020C7F8D3F2BFD8D6C6C6F7CDA81A
:1025D000D0C5C2EB2D2D00002532582532582532AA
:1025E0005825325825325825325825325825325828
:1025F000000000002532582532582532582532581F
:102600002532582532582532582532580D0A0000F7
:1026100020000020BEB2CCAC49502D2D2DBFAAC643
:10262000F40D0A002500002029000020BEB2CCAC29
:1026300049502D2D2DBDFBD3C30D0A00415432341A
:102640004358585F44656C6574655F616C6C4461A8
:10265000742829210D0A00002DE9FC4105460020BF
:1026600000900190012428E004EB840000F10A06A8
:102670003046FFF7D9FD0746A7421CD1711C88B22E
:1026800004226946FFF718FFE8789DF80310884296
:1026900011D1A8789DF8021088420CD128789DF8B5
:1026A0000010884207D168789DF80110884202D155
:1026B0002046BDE8FC81601CC4B2512CD4DB01244F
:1026C0002FE004EB840000F10A063046FFF7ACFD72
:1026D0000746A74223D021463046FFF7D1FD29788F
:1026E000721C90B2FFF7CCFD6978B21C90B2FFF774
:1026F000C7FDA978F21C90B2FFF7C2FDE978321D40
:1027000090B2FFF7BDFD0120FFF78EFD804608F176
:102710000100C1B20120FFF7B3FD2046C9E7601CEC
:10272000C4B2512CCDDBF320C3E77CB505460020B5
:1027300000900190012419E004EB840101F10A00EA
:10274000FFF772FDA8420FD104EB84010A3141F07A
:10275000010004226946FFF7C0FE04EB840101F189
:102760000A000021FFF78CFD601CC4B2512CE3DB92
:102770000020C5EBC501F84A02F811000120FFF75F
:1027800053FD0646701EC1B20120FFF779FD701E91
:10279000C0B27CBD30B585B0002003900490012408
:1027A000BBE004EB840000F10A052846FFF73CFD7E
:1027B000A0422BD1691C88B2042203A9FFF77CFE3A
:1027C0009DF80F009DF80E109DF80D20CDE9002119
:1027D00002909DF80C3022462946E0A018F0D6FB66
:1027E0009DF80C0098B99DF80D0080B99DF80E0079
:1027F00068B99DF80F0050B92146E5A018F0C6FB56
:102800002046FFF792FF0020EB4908557DE003A921
:10281000204600F0C5FFE84908550846005D68B34A
:10282000CD480078401CCC4908708020C4EBC4011E
:10283000C94A02F811009DF80C00C4EBC40102EB78
:10284000410148709DF80D00C4EBC40102EB410149
:1028500088709DF80E00C4EBC40102EB4101C87002
:102860009DF80F00C4EBC40102EB41010871D2488E
:10287000025D2146D1A018F089FB46E0D4A018F0F3
:1028800085FB322300221146104618F01DFA03A9D9
:10289000204600F085FFC84908550846005D68B32A
:1028A000AD480078401CAC4908708020C4EBC401DE
:1028B000A94A02F811009DF80C00C4EBC40102EB18
:1028C000410148709DF80D00C4EBC40102EB4101C9
:1028D00088709DF80E00C4EBC40102EB4101C87082
:1028E0009DF80F00C4EBC40102EB41010871B2482E
:1028F000025D2146BBA018F049FB06E02146C04816
:1029000018F044FB2046FFF710FFC82300221146B1
:10291000104618F0D9F9601CC4B2512CFFF641AF33
:1029200005B030BD10B504460722214640F2A23062
:10293000FFF7C2FD10BD10B50446217840F2A23069
:10294000FFF79EFC617840F2A330FFF799FCA17875
:102950004FF46970FFF794FCE17840F2A530FFF77F
:102960008FFC217940F2A630FFF78AFC617940F2B2
:10297000A730FFF785FCA1794FF46A70FFF780FC60
:1029800010BD10B50446042221464FF46170FFF7D4
:1029900093FD10BD10B5044621784FF46170FFF728
:1029A0006FFC617840F28530FFF76AFCA17840F255
:1029B0008630FFF765FCE17840F28730FFF760FC76
:1029C00010BD08B500200090022269464FF46270E5
:1029D000FFF772FD9DF801009DF8001040EA01200C
:1029E00008BD70B504464FF462752646E21704EB45
:1029F0001262C2F307212846FFF742FC2646E2177F
:102A000004EB12621212A4EB0222D1B2681CFFF78F
:102A100037FC70BD10B504460422214640F28A30CE
:102A2000FFF74AFD10BD70B5054640F28A3429789B
:102A30002046FFF725FC6978601CFFF721FCA97888
:102A4000A01CFFF71DFCE978E01CFFF719FC70BD26
:102A500010B504461022214640F28E30FFF72CFDBF
:102A600010BD70B5054640F28E3429782046FFF738
:102A700007FC6978601CFFF703FCA978A01CFFF72E
:102A8000FFFBE978E01CFFF7FBFB2979201DFFF72E
:102A9000F7FB6979601DFFF7F3FBA979A01DFFF72C
:102AA000EFFBE979E01DFFF7EBFB297A04F1080061
:102AB000FFF7E6FB697A04F10900FFF7E1FBA97A69
:102AC00004F10A00FFF7DCFBE97A04F10B00FFF7E1
:102AD000D7FB297B04F10C00FFF7D2FB697B04F1E3
:102AE0000D00FFF7CDFBA97B04F10E00FFF7C8FB3B
:102AF000E97B04F10F00FFF7C3FB70BD70B505461D
:102B000040F2AB3429782046FFF7BAFB6978601CA5
:102B1000FFF7B6FBA978A01CFFF7B2FBE978E01C31
:102B2000FFF7AEFB2979201DFFF7AAFB70BD70B53A
:102B300005464FF46C7429782046FFF7A1FB6978AD
:102B4000601CFFF79DFBA978A01CFFF799FBE978B3
:102B5000E01CFFF795FB70BD240200202B2BC6F074
:102B6000CABC3A253033643B20C2DFBCAD3A2530C5
:102B700032643B20CEEFC0EDA3BA25303258253069
:102B8000325825303258253032583B2000000000A2
:102B90000D0ACEEFC0EDB5D8D6B7B2BBC4DCCEAA15
:102BA00030783030A3A1C7E5C2DFBCADB5D8D6B709
:102BB0003A25643B0D0A0000920600205665725BC0
:102BC000253032645D3D253032580D0A000000008A
:102BD0002D2D2D2D2D2DB7D6C5E4CAA7B0DC210D86
:102BE0000A0000005665725B253032645D3D253079
:102BF00032582CB7D6C5E4B3C9B9A6A3A10D0A00B3
:102C000094BA010870B505464FF46D7429782046D2
:102C1000FFF736FB6978601CFFF732FBA978A01C30
:102C2000FFF72EFBE978E01CFFF72AFB70BD10B51B
:102C300004460522214640F2AB30FFF73DFC10BDB3
:102C400010B50446042221464FF46C70FFF734FCA3
:102C500010BD10B50446042221464FF46D70FFF7F5
:102C60002BFC10BD70B59AB00446142115A818F0BD
:102C7000F5FB142110A818F0F1FB00200E900F9026
:102C80000D9009900A900B900C9000260025F420DE
:102C90008DF8540060788DF85500A078401CC0B2C3
:102CA0008DF85600A07810287DD008DC0A287BD249
:102CB000DFE800F07A127A267A817AA17AB2C52802
:102CC00073D004DC122871D0C3286DD146E0C92826
:102CD0006DD0D028F9D1BCE111208DF85700FD4806
:102CE00000788DF85800FB4840788DF85900F94875
:102CF00080788DF85A00F748C0788DF85B00ADE118
:102D0000E0788DF8570020798DF8580060798DF8BB
:102D10005900A0798DF85A00E0798DF85B00207A8F
:102D20008DF85C009DF857008DF840009DF8580024
:102D30008DF841009DF859008DF842009DF85A0029
:102D40008DF8430010A8FFF725FE9DF85C109DF854
:102D50005B2041EA0220FFF744FE7FE10DA8FFF768
:102D600010FEFFF72EFE06469DF834008DF8570042
:102D70009DF835008DF858009DF836008DF8590003
:102D80009DF837008DF85A003046F11706EB1161B7
:102D9000090A8DF85B10F11706EB11610912A6EB19
:102DA0000121C9B204E005E157E115E02EE1C3E0DD
:102DB0008DF85C1052E1002508E0E81C215C15AAA2
:102DC0001154205C10A94855681CC5B2102DF4DBC5
:102DD00010A8FFF746FE41E109A8FFF739FE0025DC
:102DE00006E009A8415DE81C15AA1154681CC5B28B
:102DF000102DF6DB32E1002508E0E81C215C15AA65
:102E00001154205C10A94855681CC5B2042DF4DB90
:102E100010A8FFF708FE21E1E078AF49087020799B
:102E2000487060798870A079C870E0790871207A5C
:102E3000AA490870607A4870A07A8870E07AC870F1
:102E4000207BA7490870607B4870A07B8870E07B7E
:102E5000C870A148FFF752FEA048FFF768FEA048DF
:102E6000FFF7D0FE9C48FFF7E2FE9C48FFF7E8FE24
:102E70009B48FFF7EEFE984800788DF8570096487B
:102E800040788DF85800944880788DF85900924821
:102E9000C0788DF85A00904800798DF85B008F4813
:102EA00000788DF85C008D4840788DF85D008B4887
:102EB00080788DF85E008948C0788DF85F0088487A
:102EC00000788DF86000864840788DF8610084486D
:102ED00080788DF862008248C0788DF8630081A008
:102EE00018F054F87C480078AA2803D185A018F07F
:102EF0004DF802E087A018F049F877480079009073
:102F00007548C3788278417886A018F03FF87348F6
:102F1000C0780090714883784278017889A018F0D1
:102F200035F86F48C07800906D4883784278017812
:102F30008CA018F02BF891E007A8FFF778FE06A800
:102F4000FFF77EFE05A8FFF784FE9DF81C008DF8B4
:102F500057009DF81D008DF858009DF81E008DF853
:102F600059009DF81F008DF85A009DF820008DF83B
:102F70005B009DF818008DF85C009DF819008DF835
:102F80005D009DF81A008DF85E009DF81B008DF81D
:102F90005F009DF814008DF860009DF815008DF815
:102FA00061009DF816008DF862009DF817008DF8FD
:102FB000630053E0E07873490870207948706079C5
:102FC0008870A079C870E0790871207A4871A07A79
:102FD000887107216B48FEF7DDFF6B49087069486F
:102FE000FFF7A9FC6748807966494979654A1279F3
:102FF000644BDB78CDE90032CDE90210614883787B
:103000004278017861A017F0C1FF00BF0EA8FFF75A
:1030100089FC9DF838008DF857009DF839008DF82F
:1030200058009DF83A008DF859009DF83B008DF846
:103030005A009DF83C008DF85B009DF83D008DF82E
:103040005C00607A8DF85D009DF83E008DF85E00B2
:1030500004E0AA205D49087000E000BF00BF9DF8B1
:103060005500401EC1B215A8FEF794FF6178491EB5
:1030700015AA50549DF8552015A90220FEF7D8F83E
:103080001AB070BDF8B5044651A000680090607891
:10309000F8B9AA208DF80200A1784EA017F076FFAB
:1030A0004FF4803001F038FD4FF4003001F034FD72
:1030B0004FF4403001F030FD4FF4802001F02CFD42
:1030C0004FF4A02001F028FD4FF4C02001F024FDB2
:1030D0008AE092E01000002020000020250000205F
:1030E000290000202D2D2D2D2D2D2D2D2DBDD3CAA8
:1030F000D5B5BDB4AEBFDA2D2D2D2D2D2D2D2D2DF9
:103100000D0A0000BEB2CCAC49502D2D2DBFAAC671
:10311000F40D0A00BEB2CCAC49502D2D2DBDFBD311
:10312000C30D0A00BEB2CCAC4950B5D8D6B72E2ECE
:103130002E2E2E2E25642E25642E25642E25640D1C
:103140000A000000D7D3CDF8D1DAC2EB2E2E2E2EF6
:103150002E2E2E2E25642E25642E25642E25640DFC
:103160000A000000C4ACC8CFCDF8B9D82E2E2E2E40
:103170002E2E2E2E25642E25642E25642E25640DDC
:103180000A00000019000020180000202D2D2D2D10
:103190002D2D2D2D2DBDD3CAD5B5BDB4AEBFDA2092
:1031A000524649445F4B65792025325825325825CF
:1031B00032582532582532582532582CBFE9B5D817
:1031C000D6B7A3BA25640D0A000000002F00002026
:1031D000F2000000CAFDBEDDB0FCCAFDC1BF253053
:1031E00032643B0D0A0000004FF4E02001F094FC33
:1031F0004FF4002001F090FC47E0627821782AA08B
:1032000017F0C4FE012631462AA017F0BFFE0225A2
:103210001CE0615D29A017F0B9FE284605EBD071CE
:103220004910A5EB4101012902D126A017F0AEFEFD
:10323000A81E00F00F000F2806D1701C80B20646B1
:10324000014621A017F0A2FE681C85B2832DE0DBA9
:1032500094F883101FA017F099FE6078401EC001FB
:1032600000F580314FF40072A01C01F03EFD30B932
:103270001DA017F08BFE00208DF8020005E01FA0B6
:1032800017F084FEAA208DF8020060788DF8010006
:1032900003216846FEF77EFE8DF80300042269468E
:1032A0000220FDF7C5FFF8BD253032582025303209
:1032B000580D0A00253032643A200000253032587B
:1032C00000000000200000000D0A253032643A2082
:1032D000000000000D0A2D2D2D2D435243203D20CE
:1032E000253032580D0A0000D0B4B4AED0D0466CB0
:1032F000617368B3F6B4EDA3A10D0A00D0B4B4AE07
:10330000D0D0466C617368B3C9B9A6A3A10D0A00F9
:103310002DE9F0418AB004460D4616461F46DDF8F9
:1033200040800121042002F0FFFE0121480602F046
:1033300008FF4FF48050ADF8240003208DF82600DC
:1033400018208DF8270009A9FE4802F031FC4FF43F
:103350000060ADF8240048208DF8270009A9F9483D
:1033600002F026FC00208DF81E008DF81F008DF85D
:10337000200001208DF8210000208DF822008DF81A
:1033800023008DF81A808DF81B408DF81C608DF895
:103390001D50ADF8187006A9EB4803F0D4F90020D1
:1033A0008DF812008DF8130001208DF81400002014
:1033B000ADF80800ADF80A00ADF80C00ADF80E004D
:1033C000ADF8100001208DF8150002A803F045FAB1
:1033D00001220221DC4803F03FFD14208DF8040097
:1033E00001208DF8050000208DF8060001208DF8E1
:1033F000070001A802F00DF800200AB0BDE8F08136
:1034000010B586B0002401AA0021CF4803F009FCC2
:10341000CE480078AA280CD0AA20CC49087000BF5A
:1034200005E00DF10F00005DC9490855641C082C2A
:10343000F7DB06B010BDF0B585B004460F46002599
:103440002078012808D02078072805D0207808287F
:1034500002D02078092804D1607840F400700090F0
:1034600009E02078C12803D14FF48070009002E079
:103470004FF400700090B748019000208DF80800CC
:103480008DF809008DF80A70002505E0615D0DF1E9
:103490000B004155681C85B2082DF7DB6946AA4828
:1034A00003F0CAFA0646002501E0681C85B23146E1
:1034B000A54803F059FB18B940F6FF708542F4DBCC
:1034C00040F6FF70854202DB012005B0F0BD002010
:1034D000FBE7F0B585B006460F46002446F4A06031
:1034E00000904FF47041009841EA40400190002064
:1034F0008DF808008DF8090008208DF80A0000BF3B
:1035000005E0395D0DF10B000155601C84B2082CFB
:10351000F7DB69468C4803F08FFA0546002401E08A
:10352000601C84B22946884803F01EFB18B940F697
:10353000FF708442F4DB40F6FF70844202DB01201E
:1035400005B0F0BD0020FBE730B585B00546002191
:103550007D4803F0E9FB10B9002005B030BD6A4694
:103560000021794803F05DFB002404E00DF10B001D
:10357000005D2855641C082CF8D39DF80A00ECE780
:1035800030B587B005460C46002005900690142DF6
:103590007AD2DFE805F0C20A10233C464DC2637AB6
:1035A000C2C2C2C2C2C2C293C2A9A1208DF8140075
:1035B0008DF81500B2E0C1208DF8140020788DF848
:1035C000150060788DF81600A0788DF81700E07867
:1035D0008DF8180020798DF819009FE0A2208DF851
:1035E000140020788DF8150060788DF81600A0780A
:1035F0008DF81700E0788DF8180020798DF8190003
:1036000060798DF81A00A0798DF81B0086E0A32060
:103610008DF8140020788DF8150060788DF816006C
:103620007CE001208DF8140020788DF8150075E0FD
:1036300007208DF8140020788DF8150060788DF83B
:103640001600A0788DF81700E0788DF81800207922
:103650008DF8190060798DF81A005FE008208DF868
:10366000140020788DF8150060788DF81600A07889
:103670008DF81700E0788DF8180020798DF8190082
:1036800060798DF81A0049E047E009208DF81400B0
:1036900020788DF8150060788DF81600A0788DF8E8
:1036A0001700E0788DF8180020798DF819006079FE
:1036B0008DF81A00A0798DF81B002FE011208DF8ED
:1036C000140020788DF8150060788DF81600A07829
:1036D0008DF81700E0788DF8180020798DF8190022
:1036E00060798DF81A0019E013208DF81400207805
:1036F0008DF8150060788DF81600A0788DF8170009
:10370000E0788DF8180020798DF8190060798DF82F
:103710001A00A0798DF81B0000E000BF00BF9DF8E3
:103720001B009DF81A109DF819209DF81830CDE95E
:103730000132CDE903109DF8170000909DF8163076
:103740000AE000000008014000640040080000207A
:103750000000002001F000189DF815209DF81410BD
:1037600004A017F013FC082105A8FFF764FE07B0BA
:1037700030BD000043414E5F53656E643A253032E0
:1037800058253032582530325825303258253032BD
:10379000582530325825303258253032583B2000D9
:1037A0002DE9F04389B006460D464FF00009002789
:1037B000B8460020079008900590069028788DF86C
:1037C0001C0068788DF81D00A8788DF81E00E87838
:1037D0008DF81F008DF820600020FC49087000243F
:1037E00004E00020FA490855601CC4B2082CF8DB3C
:1037F00007A90220FFF7C4FE14273946F5A017F0E9
:10380000C5FB42E0F1480078AA2835D1002408E041
:10381000EF48005D05A908550020ED490855601CDA
:10382000C4B2082CF4DB9DF81B009DF81A109DF81B
:1038300019209DF81830CDE90132CDE903109DF82B
:10384000170000909DF816309DF815209DF8141073
:10385000E2A017F09BFB0020DC4908709DF81900DE
:10386000C22806D09DF81900B04202D04FF00008DF
:1038700002E04FF0010808E005230022114610463F
:1038800017F022FA781EC7B200BFB8F1000F01D1BD
:10389000002FB7DC3946DCA017F078FBB8F1000F39
:1038A00041D09DF81B009DF81A109DF819209DF835
:1038B0001830CDE90132CDE903109DF817000090D2
:1038C0009DF816309DF815209DF81410D0A017F023
:1038D0005DFB9DF81400C22822D19DF815009DF8CB
:1038E0001C1088421CD19DF816009DF81D108842BE
:1038F00016D19DF817009DF81E10884210D19DF832
:1039000018009DF81F1088420AD19DF819009DF8F3
:103910002010884204D19DF81A904FF0000804E06E
:103920004FF0000901E04FF00009484609B0BDE83A
:10393000F0831CB5044600200090019020788DF89B
:10394000000060788DF80100A0788DF80200E07822
:103950008DF8030020798DF8040060798DF805005A
:10396000A0798DF8060069460320FFF709FE1CBD0B
:103970001CB500200090019069460120FFF700FE71
:103980001CBD7CB504460D460020009001908DF8CA
:1039900000408DF801509DF801209DF80010A6A070
:1039A00017F0F4FA69460420FFF7EAFD7CBD2DE923
:1039B000F04188B0044614264FF00008002700208C
:1039C0000690079036E081480078AA2829D1002582
:1039D00008E07F48405D06A9485500207C494855CD
:1039E000681CC5B2082DF4DB9DF81F009DF81E1061
:1039F0009DF81D209DF81C30CDE90132CDE9031062
:103A00009DF81B0000909DF81A309DF819209DF834
:103A1000181072A017F0BAFA00206C49087001273C
:103A200008E0052300221146104617F04DF9701EDC
:103A3000C6B200BF0FB9002EC5DC07B39DF8180051
:103A4000B3281AD19DF8190020709DF81A006070F3
:103A50009DF81B00A0709DF81C00E070042120461A
:103A6000FEF798FA80469DF81D00404503D10120DD
:103A700008B0BDE8F0810020FAE70020F8E7002058
:103A8000F6E72DE9F04389B006460C460020079082
:103A90000890059006900A27814680468DF81460AC
:103AA00005A90520FFF76CFD00BF39466BA017F094
:103AB0006DFA26E045480078AA2819D1002508E0CB
:103AC0004348405D07A94855002041494855681CB6
:103AD000C5B2082DF4DB00203C4908709DF81D009C
:103AE000B04202D04FF0000802E04FF0010808E0B9
:103AF000052300221146104617F0E6F8781EC7B2DB
:103B000000BFB8F1000F01D1002FD3DC394656A019
:103B100017F03CFAB8F1000F56D09DF823009DF83D
:103B200022109DF821209DF82030CDE90132CDE909
:103B300003109DF81F0000909DF81E309DF81D2079
:103B40009DF81C104BA017F021FA9DF81D00B04203
:103B500005D19DF81C00022801D18146B1E19DF8F4
:103B60001D00B04231D19DF81C000328FAD1052078
:103B700020709DF81E0060709DF81F00A0709DF8D9
:103B80002000E0709DF8210020710A274FF0000806
:103B900093E00E480078AA2815D1002508E00C48CB
:103BA000405D07A94855002009494855681CC5B221
:103BB000082DF4DB0020054908709DF81D00B04277
:103BC0006FD04FF000086FE079E1BCE00800002002
:103BD000000000204F7665723D25640052656365E4
:103BE0003C3C25303258253032582530325825306B
:103BF0003258253032582530325825303258253049
:103C000032583B0D0A0000002D25643B20000000C7
:103C100052653C3C253032582530325825303258D8
:103C20002530325825303258253032582530325818
:103C300025303258200000003E3E3E3E3E3E3E3E95
:103C40003EB9E3B2A520CBAEB7D13D25643B20C23F
:103C5000F6B3E5CAFD3D25640D0A0000C2D6D1AD1C
:103C600020256420000000002D2025643B20200D2D
:103C70000A000000526563653C3C2025303258251F
:103C800030325825303258253032582530325825B8
:103C900030325825303258253032583B0D0A00005A
:103CA000FFE74FF0010808E0052300221146104607
:103CB00017F00AF8781EC7B200BFB8F1000F02D1A2
:103CC000002F3FF766AFB8F1000F39D09DF82320E1
:103CD0009DF822009DF821109DF82030CDE901319A
:103CE000CDE903029DF81F0000909DF81E309DF85D
:103CF0001D209DF81C10AFF2840017F047F99DF8C5
:103D00001D00B04218D19DF81C00042814D19DF864
:103D10001E0060719DF81F00A0719DF82000E071E9
:103D20009DF8210020729DF8220060724FF0AA09D0
:103D3000484609B0BDE8F0834FF00009C846C0E02E
:103D40004FF00009BDE09DF81D00B0427ED19DF806
:103D50001C0005287AD1062020709DF81E00607096
:103D60009DF81F00A0709DF82000E0709DF82100D4
:103D700020710A2726E09F480078AA2819D100253B
:103D800008E09D48405D07A9485500209A494855DC
:103D9000681CC5B2082DF4DB0020964908709DF818
:103DA0001D00B04202D04FF0000802E04FF00108C1
:103DB00008E0052300221146104616F085FF781E04
:103DC000C7B200BFB8F1000F01D1002FD3DCB8F1AA
:103DD000000F38D09DF823009DF822109DF8212077
:103DE0009DF82030CDE90132CDE903109DF81F0088
:103DF00000909DF81E309DF81D209DF81C10AFF21C
:103E00008C1017F0C3F89DF81D00B04217D19DF833
:103E10001C00062813D19DF81E0060719DF81F003C
:103E2000A0719DF82000E0719DF8210020729DF89E
:103E3000220060724FF0AA0948467AE706E04FF088
:103E40000009C8463DE04FF000093AE09DF81D002A
:103E5000B04216D19DF81C00042812D19DF81E0016
:103E600060719DF81F00A0719DF82000E0719DF821
:103E7000210020729DF8220060724FF0AA09484686
:103E800057E79DF81D00B04216D19DF81C0006288A
:103E900012D19DF81E0060719DF81F00A0719DF861
:103EA0002000E0719DF8210020729DF822006072D0
:103EB0004FF0AA0948463CE74FF0000901E04FF0F7
:103EC0000009484635E71CB50446002000900190E3
:103ED00020788DF8000060788DF80100A0788DF8CA
:103EE0000200E0788DF8030020798DF804006079F5
:103EF0008DF8050069460620FFF742FB1CBD1CB586
:103F0000044600200090019020788DF80000607831
:103F10008DF80100A0788DF80200E0788DF803009C
:103F200020798DF8040060798DF80600694611202B
:103F3000FFF726FB1CBD70B5A8B00646802108A877
:103F400017F08CFA002006900790F00100F5803100
:103F5000802208A800F0FBFD8DF81860802108A8D9
:103F6000FEF718F88DF8190006A9FE20FFF7B1FA40
:103F7000322300221146104616F0A6FE002404E06B
:103F8000002006A90855601CC4B2082CF8DB0025E7
:103F90002BE0002407E004EBC50008A9085C06A993
:103FA0000855601CC4B2082CF5DB9DF81F009DF875
:103FB0001E109DF81D209DF81C30CDE90232CDE980
:103FC00004109DF81B009DF81A10CDE900109DF813
:103FD00019309DF81820294608A016F0D7FF06A929
:103FE0003046FFF776FA681CC5B2102DD1DB28B039
:103FF00070BD0000080000200000002043414E5F1B
:1040000053656E6420693D253032643A2025303294
:104010005825303258253032582530325825303224
:10402000582530325825303258253032583B200D33
:104030000A00000008B5FEA0006800909DF801008D
:10404000401EC1B26846FDF7A5FF8DF803009DF83C
:10405000012069460120FDF7EBF896230022114666
:10406000104616F031FE08BD70B586B00446002536
:104070002146F0A016F08AFFC4EBC400EF4911F806
:10408000100000F08000802832D1C4EBC40001EBA6
:104090004000407858B9C4EBC40001EB40000079FF
:1040A00028B90020C4EBC401E44A02F81100E44836
:1040B000006808B9012000E00020E149086003A978
:1040C0002046FFF7DEFC054625B903A92046FFF789
:1040D000D8FC0546022D0CD1C4EBC400D74911F819
:1040E000100020F02300C4EBC401D44A02F81100F0
:1040F000EEE065B9C4EBC400D04911F8100040F0FF
:104100002000C4EBC401CD4A02F81100E0E09DF8A4
:104110000C0005280CD1C4EBC400C84911F81000EC
:1041200040F00100C4EBC401C44A02F811000FE0E2
:104130009DF80C0006280BD1C4EBC400BF4911F850
:10414000100040F00200C4EBC401BC4A02F81100A8
:104150009DF80D00C4EBC401B84A02EB410148715F
:104160009DF80E00C4EBC40102EB410188719DF87B
:104170000F00C4EBC40102EB4101C8719DF81000AF
:10418000C4EBC40102EB410108729DF81100C4EBBD
:10419000C40102EB410148729DF81200C4EBC40156
:1041A00002EB410188729DF81300C4EBC40102EBDD
:1041B0004101C8729DF81400C4EBC40102EB410137
:1041C00008739DF81500C4EBC40102EB410148736C
:1041D000C4EBC400114611F8100000F003022146A0
:1041E00098A016F0D3FEC4EBC400944901EB400044
:1041F000007A0090C4EBC4000E4606EB4000C37981
:10420000C4EBC40006EB40008279C4EBC40006EBAB
:104210004000417992A016F0B9FEC4EBC4003246CA
:1042200002EB4000407A0004C4EBC402334603EBC7
:104230004202927A40EA0220C4EBC40203EB42023B
:10424000D27A40EA02018DA016F0A0FEC4EBC400B1
:10425000334603EB4000427BC4EBC40003EB400059
:10426000017B8AA016F092FE8DF804409DF80D00A7
:104270008DF805009DF80E008DF806009DF80F00E2
:104280008DF807009DF810008DF80800C4EBC400FD
:10429000314611F8100000F00300012803D1AA20D4
:1042A0008DF809000BE0C4EBC400644911F810005C
:1042B00000F00300022802D155208DF809000523E3
:1042C00000221146104616F0FFFC01A8FFF7FBFD87
:1042D00006B070BD70B58CB00446002009900A90FD
:1042E0000B90079008900590069000260A255448E8
:1042F000006808B9012000E00020514908602078DA
:10430000AA287CD1607AC0EBC0004C4911F810009B
:1043100000F03F0040F08000617AC1EBC101474AE4
:1043200002F81100617A61A016F030FE60788DF815
:104330002400A0788DF82500E0788DF826002079FB
:104340008DF82700A07A8DF82800A0798DF8290033
:10435000E0798DF82A00207A8DF82B0060798DF8AD
:104360002C00A07A8DF82D00607A8DF81C009DF845
:1043700024008DF81D009DF825008DF81E009DF885
:1043800026008DF81F009DF827008DF820009DF86D
:1043900028008DF821009DF823009DF822109DF83B
:1043A00021209DF82030CDE90132CDE903109DF8A0
:1043B0001F0000909DF81E309DF81D209DF81C10D8
:1043C0003EA016F0E3FD07A90820FFF7D9F8642303
:1043D00000221146104616F077FC607A8DF81C001A
:1043E0009DF829008DF81D009DF82A008DF81E000B
:1043F0009DF82B008DF81F009DF82C0000E087E051
:104400008DF820009DF82D008DF821000A2109A8C3
:10441000FDF7C0FD8DF822009DF823009DF82220B5
:104420009DF821109DF82030CDE901315CE00000BD
:10443000F304A1002532643B200000002402002088
:104440009C012242C2DFBCADB5D8D6B7A3BA256461
:104450003BBFA8D7B4CCAC25643B202000000000B3
:10446000BFA8BAC5A3BA25303258253032582530F6
:104470003258253032583B2020000000BDF0B6EE07
:10448000A3BA2536643B202020000000BFA8D0A39B
:10449000D1E9A3BA2532643B202020CDA8D0C5C2E3
:1044A000EBA3BA253032583B200D0A000D0AB7FEA7
:1044B000CEF1C6F7202532643B200000253032586B
:1044C00020253032582025303258202530325820CF
:1044D00025303258202530325820253032582025BA
:1044E0003032580D0A000000CDE903209DF81F006E
:1044F00000909DF81E309DF81D209DF81C10AFF215
:10450000440016F043FD07A90920FFF739F867E0DA
:104510002078BB281DD161784CA016F037FD60785B
:104520008DF81C00A0788DF81D00E0788DF81E0035
:1045300020798DF81F0060798DF82000A0798DF822
:104540002100E0798DF8220007A91320FFF718F861
:1045500046E0207855282AD16078C0EBC000434956
:1045600011F8100000F03F0040F040006178C1EB0E
:10457000C1013E4A02F8110061783DA016F006FD27
:1045800060788DF81C00A0788DF81D00E0788DF81B
:104590001E0020798DF81F0060798DF82000002022
:1045A0008DF8210007A91120FEF7EAFF18E0207816
:1045B000CC2815D18020E179C1EBC1012B4A02F84A
:1045C0001100A3796279617830A016F0DFFCE07900
:1045D0008DF81C00607939490870A0793849087055
:1045E0000A250BE005A8FEF7AFFF064605230022CB
:1045F0001146104616F068FB681EC5B20EB9002DB4
:10460000F0DC0CB070BD0020704770B52DA016F026
:10461000BDFC002417E021462BA016F0B7FC0025B6
:104620000AE0C4EBC400114A02EB4000415D28A03F
:1046300016F0ACFC681CC5B20E2DF2DB21A016F002
:10464000A5FC601CC4B21A2CE5DB70BD0D0AB7FED8
:10465000CEF1C6F720B2E5BFA8CAFDBEDDB0FC2092
:10466000D2ECB3A3202532643B20000024020020BA
:104670000D0AB7FECEF1C6F720D0C4CCF8B0FC20AE
:10468000D2ECB3A3202532643B2000000D0AB7FE14
:10469000CEF1C6F720D0C4CCF8B0FC20D5FDB3A332
:1046A0003A2532642CCBAEB7D13A2532642CC2F60F
:1046B000B3E5CAFD3A2532643B0D0A00170000201D
:1046C000160000200D0A0000253032642D2D000058
:1046D000253032582C00000008B50121082001F0D7
:1046E00023FD03208DF8020010208DF80300400206
:1046F000ADF800006946654801F05AFA4FF40040F1
:10470000ADF800006946614801F052FA48208DF882
:1047100003004FF48040ADF8000069465B4801F0AB
:1047200047FA08BD002000E0401C0228FCD3704777
:1047300000B5024600231FE002F0800028B14FF4CC
:10474000004052491031086004E04FF400404F49E6
:1047500014310860FFF7E6FF4FF400504B49103169
:1047600008605006020EFFF7DDFF4FF40050474986
:1047700014310860581CC3B2082BDDDBFFF7D2FFF1
:1047800000BD70B5002400251AE06006040E4FF449
:1047900080413E4801F09FFA012801D1601CC4B25B
:1047A0004FF40050394910310860FFF7BBFF4FF458
:1047B0000050364914310860FFF7B4FF681CC5B2D9
:1047C000082DE2DB204670BD00B5024600231FE045
:1047D00002F0800028B14FF400402C4910310860ED
:1047E00004E04FF400402949143108604FF40050B0
:1047F0002649143108605006020EFFF793FF4FF46C
:104800000050224910310860FFF78CFF581CC3B2DA
:10481000082BDDDB00BD70B5002400251AE04FF445
:1048200000501A4914310860FFF77CFF6006040E3F
:104830004FF48041154801F04EFA012801D1601C67
:10484000C4B24FF40050114910310860FFF76AFFFD
:10485000681CC5B2082DE2DB204670BD01200C4962
:104860000870704700200A490870704708480078AF
:10487000704728B94FF40051044A1432116004E023
:104880004FF40051014A103211607047000C014092
:104890005400002010B504464CB9FFF7DFFF01209B
:1048A000FFF7E7FF4FF48050FD49086006E04FF442
:1048B0008050FB49091F0860FFF7D4FF10BD08B501
:1048C0000121082001F030FC0120FFF7E3FF102058
:1048D0008DF8030003208DF802004FF48050ADF8EE
:1048E00000006946EE48143801F062F908BD00B5D1
:1048F00085B00020ADF800004FF48270ADF80200E2
:104900000020ADF804000220ADF806000120ADF84B
:1049100008004002ADF80A001020ADF80C0000209D
:10492000ADF80E000720ADF810006946DD4802F032
:104930000FFC0121DB4802F0B0FC05B000BD2DE901
:10494000F04104460E4615466019D7494969884228
:1049500002D90120BDE8F0810DB90020FAE700205E
:10496000FFF798FF0320FFF72FFFC4F30740FFF77F
:104970002BFFC4F30720FFF727FFE0B2FFF724FF68
:104980000BE0FFF748FF074616F8011BB94204D0B9
:104990000120FFF77FFF0120DCE7281EA5F10105BC
:1049A000EFD10120FFF776FF0020D3E710B50020FC
:1049B000FFF770FF0520FFF707FF00BFFFF72BFF92
:1049C00000F001000028F9D10120FFF763FF10BDBE
:1049D00010B50020FFF75EFF0620FFF7F5FE01206F
:1049E000FFF758FF10BD2DE9F04104460E4615466D
:1049F000AD480068AD49884253D1022D08DA2846F7
:104A000005EBD0714910A5EB410109B1BDE8F0817A
:104A1000FFF7DEFF0020FFF73DFFAD20FFF7D4FEDC
:104A2000C6F30740FFF7D0FEC6F30720FFF7CCFE22
:104A3000F0B2FFF7C9FE14F8010BFFF7C5FE14F83A
:104A4000010BFFF7C1FE0120FFF724FFFFF7AEFFC8
:104A5000A81E85B2002713E00020FFF71BFFAD2042
:104A6000FFF7B2FE14F8010BFFF7AEFE14F8010BCE
:104A7000FFF7AAFE0120FFF70DFFFFF797FF7F1C4E
:104A800005EBD571B7EB610FE6D30020FFF702FF0E
:104A90000420FFF799FE0120FFF7FCFEFFF786FFD9
:104AA00038E04FF0000824E0FFF792FF0020FFF706
:104AB000F1FE0220FFF788FEC6F30740FFF784FEF1
:104AC000C6F30720FFF780FEF0B2FFF77DFE002758
:104AD00004E014F8010BFFF777FE7F1CFF2FF8D9D5
:104AE0000120FFF7D7FEFFF761FF06F5807608F19A
:104AF0000108E91705EB1161B8EB212FD4D3002091
:104B0000FFF7C8FE0420FFF75FFE0120FFF7C2FE9B
:104B1000FFF74CFF00BF79E710B50446FFF758FFD9
:104B20000020FFF7B7FE2020FFF74EFEC4F307403A
:104B3000FFF74AFEC4F30720FFF746FEE0B2FFF797
:104B400043FE0120FFF7A6FEFFF730FF10BD70B552
:104B500006460C46154625B16019534949698842F5
:104B600000D970BD0020FFF795FE0320FFF72CFE53
:104B7000C4F30740FFF728FEC4F30720FFF724FE25
:104B8000E0B2FFF721FE03E0FFF745FE06F8010B58
:104B9000281EA5F10105F7D10120FFF77BFE00BF1C
:104BA000DFE770B5034600240BE013F8015BE84330
:104BB000C5B211F8010B284008B1012070BD601C7E
:104BC00084B29442F1DB0020F8E72DE9F05F07465C
:104BD0000D46164616B90120BDE8F09F32484069DF
:104BE000A84201D80020F7E72F48008BB04201DA35
:104BF0000020F1E7324629462D48FFF7A8FF32464C
:104C000039462B4816F022FB08B90120E4E74FF0A3
:104C1000000A324639462648FFF7C3FF08B14FF075
:104C2000010A2148008B401E25EA00081E48008B1F
:104C3000B0420BD1002404E0385D1D490855601CCA
:104C400084B21948008BA042F6DC10E01648028BB3
:104C500041461748FFF77BFF1348008B401E284052
:104C600084B2134908193246394616F05EFB4FF0FC
:104C7000000B002434E0BAF1010F02D14046FFF7E7
:104C80004BFF0948028B41460948FFF7ACFE32460C
:104C900039462846FFF753FE60B94FF0010B21E07B
:104CA000140C014000300140602500204125BF0068
:104CB0007C250020324639462846FFF740FE10B9D1
:104CC0004FF0010B0EE04FF0000903E009F1010085
:104CD0001FFA80F942F210708145F7DB601C84B244
:104CE000032CC8DB00BF584676E72DE9F05F074686
:104CF0000D4616464FF00008C146C2460024A346A2
:104D0000FE48008BB5FBF0F100FB11501FFA80FA52
:104D1000FA48008BA0EB0A0084B2F848008B96FB9F
:104D2000F0F01FFA80F8F548008B96FBF0F100FBDD
:104D300011601FFA80F9BAF1000F2AD1B8F1000F03
:104D400008D1324629463846FFF73FFF00287DD17B
:104D5000BDE8F09F0EE0E948028B29463846FFF790
:104D600034FF08B90020F3E7E448008B0544E3482A
:104D7000008B0744B8F10000A8F101011FFA81F887
:104D8000E9D14A4629463846FFF71FFF002861D17E
:104D9000DEE7B8F1000F1FD1A14515DDA9EB040036
:104DA0001FFA80FB224629463846FFF70EFF08B956
:104DB0000020CDE7254427445A4629463846FFF7C8
:104DC00004FF002846D1C3E7324629463846FFF79C
:104DD000FCFED8BB0020BBE7301B86B2C748008B67
:104DE00096FBF0F01FFA80F8C448008B96FBF0F1B8
:104DF00000FB11601FFA80F9224629463846FFF76A
:104E0000E4FE08B90020A3E7254427440EE0BB4890
:104E1000028B29463846FFF7D8FE08B9002097E7ED
:104E2000B648008B0544B548008B0744B8F1000034
:104E3000A8F101011FFA81F8E9D1B9F1000F09D0F9
:104E40004A4629463846FFF7C0FE00E002E008B9AE
:104E500000207DE701207BE710B5FFF7B9FD0020BA
:104E6000FFF718FDC720FFF7AFFC0120FFF712FD89
:104E7000FFF79CFD10BD10B50446A0480068A0498E
:104E8000884215D10020FFF705FD5020FFF79CFC5C
:104E90000120FFF7FFFC0020FFF7FCFC0120FFF7DB
:104EA00093FC2046FFF790FC0120FFF7F3FC0BE09A
:104EB0000020FFF7EFFC0120FFF786FC2046FFF7FC
:104EC00083FC0120FFF7E6FC10BD2DE9F041002036
:104ED000FFF7E0FC9F20FFF777FCFFF79CFC0546FF
:104EE000FFF799FC0646FFF796FC07460120FFF7FF
:104EF000D1FC280440EA062040EA07042046BDE829
:104F0000F08110B5FFF7E1FF7C4908607DA016F045
:104F10003DF87A4800687A494942084448B18049D6
:104F20000844A8B17F490844002820D001283CD17A
:104F30002CE07DA17148001D16F0B4F97DA016F09B
:104F400025F84FF400106D494861401208833BE09A
:104F50007DA16A48001D16F0A5F97EA016F016F88E
:104F60004FF4001065494861401208832CE07DA190
:104F70006248001D16F096F97CA016F007F84FF471
:104F800000005E494861C01208831DE07AA15B48B9
:104F9000001D16F087F97AA015F0F8FF4FF0807029
:104FA00056494861001308830EE079A15348001D5B
:104FB00016F078F97AA015F0E9FF4FF400104F4988
:104FC00048614012088300BF00BF10BD10B59AB001
:104FD000FFF775FCFFF795FF0020FFF75BFC04204F
:104FE000FFF7F2FB0120FFF755FCFFF7DFFC002085
:104FF000FFF741FF4148021D01686EA015F0C6FF92
:105000003E48028B4069010D74A015F0BFFF0A22D3
:10501000114601A8FFF79BFD9DF80400AA2829D09E
:105020009DF80600AA2825D09DF80800AA2821D0BE
:105030009DF80A00AA281DD072A015F0A7FFFFF75F
:105040000BFF78A015F0A2FF002404E0AA2001A91C
:105050000855601CC4B20A2CF8DB0A22114601A8CC
:10506000FFF743FE18B975A015F090FF02E07AA093
:1050700015F08CFF1AB010BD70B5ADF5806D05460A
:105080004FF48061684616F0E9F90026002000EB35
:105090008500800200F580314FF480626846FFF79A
:1050A00056FD002000EB8500800200F5803171A0E4
:1050B00015F06CFF31467BA015F068FF00241CE062
:1050C0001DF8041079A015F061FF204604EBD071A3
:1050D0004910A4EB4101012902D110A015F056FF9F
:1050E00004F00F000F2806D1701CC0B2064601461E
:1050F00070A015F04BFF601C84B2E1E06025002039
:105100004125BF00B3F5CABCBBAFCDE2B2BF466C10
:10511000617368A3ACD0CDBAC5A3BA20200000004B
:105120002C05FDFFFEDFD2FF535354323556463077
:105130003136420053535432355646303136422EC2
:105140002E2E0D0A000000004D5832354C313630FD
:10515000364500004D5832354C31363036452E2E0E
:105160002E0D0A0057323551363400005732355172
:1051700036342E2E2E0D0A0057323551313238007A
:10518000573235513132382E2E2E0D0A00000000D4
:10519000556E6B6E6F7720466C617368000000007F
:1051A000556E6B6E6F7720466C6173682E2E2E0DD8
:1051B0000A000000BCECB2E2B5BDB4AED0D0466C83
:1051C0006173682C204944203D20253038582C201C
:1051D000D0CDBAC53A202573200D0A00202020200A
:1051E000C8DDC1BF203A2025644DD7D6BDDA2C20BA
:1051F000C9C8C7F8B4F3D0A1203A202564D7D6BDDA
:10520000DA0D0A00BCECB2E2B3F6D0C2466C6173B0
:1052100068A3ACD7BCB1B8B2C1B3FD466C617368CA
:105220000D0A0000B2C1B3FDD5FBB8F6466C617340
:1052300068CDEAB3C9A3A10D0A000000D0B4B4AE92
:10524000D0D0466C617368B3F5CABCCAFDBEDDB38D
:10525000F6B4EDA3A10D0A00D0B4B4AED0D0466C24
:10526000617368B3F5CABCCAFDBEDDB3C9B9A6A3F4
:10527000A10D0A00B6C1B4AED0D0466C617368B35C
:10528000C9B9A6A3ACC6F0CABCB5D8D6B7A3BA25CF
:105290003038582C20CAFDBEDDC8E7CFC2A3BA0DF6
:1052A0000A000000253033643A20000025303258CF
:1052B000000000000D0A253032643A200000000092
:1052C000B4F5806FFFF6FCAE012000EB8500800294
:1052D00000F580314FF480626846FFF738FC002407
:1052E0001FE01DF80410AFF23C0015F04FFE204601
:1052F00004EBD0714910A4EB4101012903D1AFF2B5
:10530000E41015F043FE04F00F000F2807D1701CC5
:10531000C0B206460146AFF2640015F037FE601CCD
:1053200084B2B4F5806FDCDB022000EB85008002E4
:1053300000F580314FF480626846FFF708FC0024D6
:105340001FE01DF80410AFF29C0015F01FFE204670
:1053500004EBD0714910A4EB4101012903D1AFF254
:10536000442015F013FE04F00F000F2807D1701C25
:10537000C0B206460146AFF2C40015F007FE601C3D
:1053800084B2B4F5806FDCDB032000EB8500800283
:1053900000F580314FF480626846FFF7D8FB0024A7
:1053A0002CE01DF80410AFF2FC0015F0EFFD2046D4
:1053B00004EBD0714910A4EB4101012903D1AFF2F4
:1053C000A42015F0E3FD40F2FF3084420CD004F03D
:1053D0000F000F2810D1701CC0B206460146AFF274
:1053E0002C1015F0D3FD07E004F00F000F2803D1B7
:1053F000AFF2D41015F0CAFD601C84B2B4F5806F12
:10540000CFDB0DF5806D70BD31490143314A11602C
:10541000704770B5002100230F22C47804B32D4CCF
:10542000246804F4E064C4F5E064210AC1F10403D3
:10543000CA40447804FA03F18478144021430901F6
:10544000254C0678A155047804F01F050124AC40D2
:1054500005786D11AD0005F1E025C5F8004109E0C2
:10546000047804F01F050124AC401C4D0678761129
:1054700045F8264070BD1A4A0A400243154B1B1FCF
:105480001A60704739B1134A121D12680243114B5A
:105490001B1D1A6006E00F4A121D126882430D4B55
:1054A0001B1D1A607047042808D14FF0E0210969DC
:1054B00041F004014FF0E022116107E04FF0E021DC
:1054C000096921F004014FF0E022116170470000EA
:1054D0000000FA050CED00E000E400E080E100E0EF
:1054E00080FFFF1F30B943F2DB028100A1F1C04110
:1054F0000A6005E043F2D2028100A1F1C0410A60D6
:105500006FF07042411C8900A1F1C0410A60810026
:10551000A1F1C041C1F80421704710280AD1182117
:105520004FF020421166402151664FF0FC319166E8
:10553000D16610E01821F74A116040214FF0204257
:10554000C2F884104FF0FC31F24A083211604FF07B
:105550002042C2F88C1070471820EE4920310860B4
:1055600000200906C1F8A4004FF0FC30E9492831B9
:105570000860091D0860091D08607047D0E9011224
:105580001143C268114302691143426911438269A0
:105590001143C2691143026A1143426A1143826A8C
:1055A0001143C26A1143026B114302689200A2F1D7
:1055B000C0421160816808290BD101688900A1F1FE
:1055C000C041096841F0400201688900A1F1C04171
:1055D0000A60416B0968426B526841EA0211426BF2
:1055E000926841EA0221426B928941EA0241426B90
:1055F000128A41EA0251426B127D41EA0261426B1A
:10560000926911430268521C9200A2F1C0421160DB
:10561000C16AB1F5804F1BD1816B0968826B5268FA
:1056200041EA0211826B926841EA0221826B128A7E
:1056300041EA0251826B127D41EA0261826B9269FA
:10564000114302689200A2F1C042C2F8041107E0BF
:105650006FF0704201688900A1F1C041C1F80421D6
:10566000704730B5002100220023446844F008044C
:1056700085682C43C5682C4305692C43456944EA79
:105680004524856944EA4531C4692468C5696D6863
:1056900044EA0524C5692D8944EA0544C5692D7B82
:1056A00044EA0562046A2468056A6D6844EA0524D0
:1056B000056A2D8944EA0544056A2D7B44EA0563A1
:1056C0000468102C05D14FF020442166A266E366E1
:1056D00008E0904C21604FF02044C4F888208D4CA5
:1056E0000C34236030BD016841F01001426841EA8A
:1056F0004221826841EA4231864A20321160C16803
:105700000968C268526841EA0221C268128941EA06
:105710000241C268127B41EA02617E4A283211606E
:10572000016909680269526841EA02210269128925
:1057300041EA02410269127B41EA0261754A2C3258
:105740001160416909684269526841EA022142696F
:10575000128941EA02414269127B41EA02614FF03B
:105760002042C2F8B0107047002101600221416060
:1057700000218160C160016141618161C16101629B
:105780004FF480514162490081620021C16201638E
:105790000F21426B1160426B5160FF21426B91609F
:1057A0000F21426BD160426B1161426B516100214C
:1057B000426B91610F21826B1160826B5160FF21FE
:1057C000826B91600F21826BD160826B1161826B61
:1057D00051610021826B91617047102101600021AD
:1057E00041608160C160016141618161FC21C269E8
:1057F0001160C2695160C2699160C269D160026A78
:105800001160026A5160026A9160026AD160704759
:105810000021016041608160FC21C2681160C268A2
:105820005160C2689160C268D1600269116002690A
:105830005160026991600269D160426911604269F8
:105840005160426991604269D160704751B18200F4
:10585000A2F1C042126842F001038200A2F1C042EC
:10586000136009E08200A2F1C04212682A4B1A407C
:105870008300A3F1C0431A60704799B1102808D182
:105880004FF02042126E42F004024FF020431A669D
:105890001DE0204A126842F004024FF02043C3F892
:1058A000802014E0102809D14FF02042126E1A4BCC
:1058B000DB1E1A404FF020431A6608E0154A1268B2
:1058C000154BDB1E1A404FF02043C3F88020704771
:1058D00048B110492031096841F004014FF02042DD
:1058E000C2F8A01009E00B49203109680A4AD21E0B
:1058F00011404FF02042C2F8A0107047B9B11028F3
:105900000CD14FF02042126E42F040024FF0204383
:105910001A661FE0800000A0FEFF0F00724A1268A6
:1059200042F040024FF02043C3F8802012E01028DC
:1059300008D14FF02042126E6C4B1A404FF02043BA
:105940001A6607E0684A1268684B1A404FF0204315
:10595000C3F88020704701460020102903D14FF082
:105960002042506F02E0604A14321068704710B550
:10597000F2B1102807D14FF020435B6E0B434FF07C
:105980002044636632E0B0F5807F08D1564B1B1D82
:105990001B680B434FF02044C4F8843026E0524B80
:1059A00024331B680B434FF02044C4F8A4301DE09F
:1059B000102807D14FF020435B6E8B434FF02044FB
:1059C000636613E0B0F5807F08D1474B1B1D1B6851
:1059D0008B434FF02044C4F8843007E0424B24331B
:1059E0001B688B434FF02044C4F8A43010BD10B5A1
:1059F000024600200023102A03D14FF02044636E9A
:105A000009E0B2F5807F03D1374C241D236802E002
:105A1000354C2434236803EA01040CB1012000E072
:105A2000002010BD102807D14FF02042526E8A434B
:105A30004FF020435A6613E0B0F5807F08D12A4A20
:105A4000121D12688A434FF02043C3F8842007E0F8
:105A5000254A243212688A434FF02043C3F8A42019
:105A6000704770B502460020002300240025102A4C
:105A700003D14FF02046736E09E0B2F5807F03D169
:105A8000194E361D336802E0174E2436336803EA98
:105A9000010403EAD10514B10DB1012000E000209A
:105AA00070BD102808D14FF02042526E22EAD10278
:105AB0004FF020435A6615E0B0F5807F09D10A4ABD
:105AC000121D126822EAD1024FF02043C3F884204D
:105AD00008E0054A2432126822EAD1024FF020433E
